S011000041746D6567613132382E7372656329
S1130000BBC00000D8C00000D6C00000D4C00000AF
S1130010D2C00000D0C00000CEC00000CCC00000A0
S1130020CAC00000C8C00000C6C00000C4C00000B0
S1130030C2C00000C0C00000BEC00000BCC00000C0
S1130040BAC00000B8C0000051C1000087C1000060
S1130050B2C00000B1C00000AEC00000ACC00000DF
S1130060AAC00000A8C00000A6C00000A4C00000F0
S1130070A2C00000A0C000008CC10000C2C10000EA
S11300809AC0000098C0000096C000009E13F113AF
S11300900B1448148814C91451156C152B164616E4
S11300A088169416A016AC16B816DB16DB16DB16EB
S11300B0DB16DB16DB16DB16DB16DB16DB16DB16B4
S11300C0DB16DB16DB16DB16DB16DB16DB16DB16A4
S11300D0DB16DB16DB16DB16DB16DB16DB16DB1694
S11300E0DB16DB16DB16DB16DB16DB16DB16DB1684
S11300F0DB16C416D01607634236B79BD8A71A3945
S1130100685618AEBAAB558C1D3CB7CC5763BD6D61
S1130110EDFD753EF6177231BF000000803F080008
S11301200000BE922449123EABAAAA2ABECDCCCC72
S11301304C3E00000080BEABAAAAAA3E000000000C
S1130140BF000000803F0000000000084178D3BBDE
S11301504387D1133D190E3CC3BD4282AD2B3E688B
S1130160EC8276BED98FE1A93E4C80EFFFBE01C47C
S1130170FF7F3F000000000011241FBECFEFD0E13D
S1130180DEBFCDBF11E0A0E0B1E0E8EDFCE300E0AC
S11301900BBF02C007900D92A83BB107D9F723E02B
S11301A0A8EBB1E001C01D92AD39B207E1F70E949E
S11301B0ED120C946A1E24CF1F920F920FB60F9269
S11301C011240BB60F922F933F934F935F936F932A
S11301D07F938F939F93AF93BF93EF93FF93E0919C
S11301E0A902F091AA028081918178D09093A4020F
S11301F08093A3022091B801243080F42091B801A7
S11302002F5F2093B8012091B9013091BA01820F78
S1130210931F9093BA018093B9014DC0E091BB0143
S1130220F091BC018091B9019091BA01959587959F
S113023095958795EE0FFF1FE350FE4F91838083C2
S11302401092BA011092B9011092B8012091BB0129
S11302503091BC018091A1029091A2022817390724
S113026054F48091BB019091BC0101969093BC0120
S11302708093BB0104C01092BC011092BB01A5EA9B
S1130280B2E01496ED91FC9115978381807E83836F
S1130290E091BB01F091BC01EE0FFF1FE354FE4F50
S11302A0808191811496ED91FC9115978F71992716
S11302B09381892B8383FF91EF91BF91AF919F919C
S11302C08F917F916F915F914F913F912F910F90FB
S11302D00BBE0F900FBE0F901F901895292F30E082
S11302E0322F2227A901482BCA0108951F920F9289
S11302F00FB60F9211240BB60F922F933F934F9387
S11303005F936F937F938F939F93AF93BF93EF9379
S1130310FF93E091E102F091E2028281887180937F
S11303204803638160931703E0912003F091210354
S113033088E193E00995FF91EF91BF91AF919F916F
S11303408F917F916F915F914F913F912F910F907A
S11303500BBE0F900FBE0F901F9018951F920F9217
S11303600FB60F9211240BB60F928F93EF93FF9356
S1130370E091E102F091E20281818F7D8183FF911E
S1130380EF918F910F900BBE0F900FBE0F901F90A7
S113039018951F920F920FB60F9211240BB60F925D
S11303A02F933F934F935F936F937F938F939F9379
S11303B0AF93BF93EF93FF93E091E502F091E602D0
S11303C08381887180934703648160931603E0916D
S11303D05103F091520389E493E00995FF91EF9161
S11303E0BF91AF919F918F917F916F915F914F9149
S11303F03F912F910F900BBE0F900FBE0F901F9047
S113040018951F920F920FB60F9211240BB60F92EC
S11304108F93EF93FF93E091E502F091E6028281DE
S11304208F7D8283FF91EF918F910F900BBE0F9080
S11304300FBE0F901F901895FC0183E19EE19183FC
S1130440808385E59EE1938382838FE29EE1958399
S113045084838BE19EE19783868387E69EE191877F
S1130460808788E49EE19387828782E69EE197876E
S1130470868782E69EE1958B848B80E49EE1978B50
S1130480868B83E09EE1918F808F8CE49EE1938F35
S1130490828F80E29EE1958F848FCF010895CF9261
S11304A0DF92EF92FF920F931F93FC010081118161
S11304B022813381FB01C080D180E280F380FC0182
S11304C0C082D182E282F382FB0100831183228302
S11304D033831F910F91FF90EF90DF90CF90089599
S11304E0FB012081FC012083222339F0DB011196DA
S11304F031969D9191939111FCCF0895CF93DF9301
S1130500EC019881992399F0FE01319620E030E0C6
S1130510492F50E04617570731F0DE01A20FB31FF1
S11305209C932F5F3F4F91919111F2CF02C020E035
S113053030E0FE01E20FF31F1082DF91CF910895A6
S11305402F923F924F925F926F927F928F929F92DF
S1130550AF92BF92CF92DF92EF92FF920F931F93CD
S1130560CF93DF9300D000D0CDB7DEB72C011B01B1
S11305704B0177231CF42FEF821A920A95948794E7
S1130580181419040CF451C06AC09601DD209CF1C2
S1130590F50140815181F40160817181641775070F
S11305A054F58C010A0D1B1DD401BC82AB82BA82A6
S11305B0A982EB81FC817183608311965C934E93D5
S11305C02E193F09C2F0F80140815181E981FA8175
S11305D060817181080F191FE80FF91FFA83E983FD
S11305E0EB81FC81E80FF91FFC83EB83A80FB91F93
S11305F064177507F4F2FFEFCF1ADF0A22E0A20EA8
S1130600B11CE2E08E0E911CC614D70409F0BDCFD4
S11306104701FF201CF4FFEF8F1A9F0A95948794DB
S113062018141904E4F4740101C0740182149304CD
S11306307CF76401CE18DF085601AA0CBB1CA40C7D
S1130640B51C880C991C840C951C31016E187F080C
S1130650C701880F991F91958195910996CF0F90A5
S11306600F900F900F90DF91CF911F910F91FF90FA
S1130670EF90DF90CF90BF90AF909F908F907F903E
S11306806F905F904F903F902F9008958617970733
S11306900CF4CB0108959B01672B11F408959A0182
S11306A0B9010E94AB1AAC01822F932F4115510559
S11306B0B1F70895FC01908180ED890F8A30D0F460
S11306C0319620E030E0A901440F551F220F331F5B
S11306D0220F331F220F331F420F531F292F30E0E5
S11306E020533109240F351F919180ED890F8A30F1
S11306F050F302C020E030E0C90108958623089534
S1130700009739F020E030E02F5F3F4F82179307C6
S1130710D9F7089587FF08C0919581959109992784
S113072091958195910908958F779927089591FF5F
S113073008C091958195910993709195819591093E
S1130740089591700895615021E030E002C0220FB5
S1130750331F6A95E2F7A90141505109B901682391
S11307607923672B29F084239523821B930B089507
S11307708423952308959DEC899F912D11249695AA
S113078096959695392F330F232F220F220F230F7F
S1130790821B20E1929F800D11240895982F929539
S11307A09F70990F292F220F220F920F8F70890F9C
S11307B00895FC01DB01A35CBD4F1C9216161706BD
S11307C014F5908191110CC017C0919191110DC035
S11307D015C081932F5F3F4F26173707D4F313C0FB
S11307E0ADE3B2E0319620E030E09D932F5F3F4FC0
S11307F06217730751F707C020E030E0F901E35CAA
S1130800FD4F80E2E6CF8DE392E008954F925F9230
S11308106F927F92AF92BF92CF92DF92EF92FF924C
S11308200F931F93CF93DF93CDB7DEB729013A011E
S11308309B01AC01241935094609570989899A890C
S1130840AB89BC89BC01CD016A197B098C099D095E
S11308500E94881AA80197012419350946095709E5
S11308600E94E01ACA01B9016A0D7B1D8C1D9D1DF1
S1130870DF91CF911F910F91FF90EF90DF90CF9078
S1130880BF90AF907F906F905F904F900895FC0160
S11308902081222341F0319680E090E0019621915D
S11308A02111FCCF089580E090E00895CF93DF9369
S11308B0EC01EDDF9C012150310962F0FE01E80FEB
S11308C0F91F9291903219F09950923018F42150F6
S11308D03109B8F7C20FD31F1982C901DF91CF9133
S11308E00895CF93DF93EC01D2DF9C0121503109AD
S11308F01216130684F4DE01A80FB91FFE0180E06E
S113090090E040815E9151934C93019621503109BE
S113091082179307B4F3DF91CF9108958F929F923A
S1130920AF92BF92CF92DF92EF92FF920F931F93F9
S1130930CF93DF936B017C01DC01CB01FF203CF4FE
S113094088279927DC018C199D09AE09BF09BC01D0
S1130950CD0110E00F2EFAE08F2E912CA12CB12C9A
S1130960F02D01C0102F01E0010FC12FD0E0C35CB6
S1130970DD4FA50194010E94E01A605D6883622F37
S1130980732F842F952F161617061806190654F37D
S1130990FF2044F4E02FF0E0E35CFD4F8DE2808320
S11309A002E0010FE02FF0E0E35CFD4F10828DE3E5
S11309B092E097DF8DE392E0DF91CF911F910F9149
S11309C0FF90EF90DF90CF90BF90AF909F908F906B
S11309D008950F931F93CF93DF93EC01992324F48D
S11309E0882799278C1B9D0B20E00AE010E001C0AA
S11309F0232F31E0320FE22FF0E0E35CFD4FB8012A
S1130A000E94AB1A805D8083862F972F18161906D3
S1130A107CF3DD2344F4E32FF0E0E35CFD4F8DE24F
S1130A20808332E0320FE32FF0E0E35CFD4F10826D
S1130A308DE392E056DF8DE392E0DF91CF911F9139
S1130A400F910895CF93AC019C01ADECBCEC0E94D6
S1130A50051B9695879596958795969587959C0100
S1130A60220F331F880F991F880F991F880F991F12
S1130A70820F931F9A01281B390BC901805D809353
S1130A803D029A010E94051BAC0156954795569567
S1130A904795569547954115510589F1E1E0C1E027
S1130AA0CE0FF0E0E35CFD4F9A01ADECBCEC0E948C
S1130AB0051B9695879596958795969587959C01A0
S1130AC0220F331F880F991F880F991F880F991FB2
S1130AD0820F931F9A01281B390BC901805D808303
S1130AE09A010E94051BAC0156954795569547956A
S1130AF056954795EC2F4115510589F601C0C1E083
S1130B00EC2FF0E0E35CFD4F10828DE392E0E9DE30
S1130B108DE392E0CF910895982F92959F70990F4D
S1130B20292F220F220F920F8F70890F0895AC0185
S1130B309C01ADECBCEC0E94051B9695879596959F
S1130B40879596958795BC01660F771F9C01220FA8
S1130B50331F220F331F220F331F260F371F421B51
S1130B60530B342F20E1829F300D1124832F0895DD
S1130B70CF92DF92EF92FF92CF93DF93CDB7DEB7A0
S1130B8028970FB6F894DEBF0FBECDBF6B017C0172
S1130B9069837A838B839C832D833E834F83588719
S1130BA0C216D306E406F50634F4BE016B5F7F4F2C
S1130BB0CE01019674DC8D819E81AF81B885892B2D
S1130BC08A2B8B2B71F469817A818B819C8120E043
S1130BD030E0A9010E94E01A6115710581059105B3
S1130BE029F46D817E818F81988505C06D837E8314
S1130BF08F839887F6CF28960FB6F894DEBF0FBE82
S1130C00CDBFDF91CF91FF90EF90DF90CF9008950B
S1130C1090E002C0959587956A95E2F781700895F2
S1130C209C012150310981E090E002C0880F991F96
S1130C302A95E2F70097B1F0EDE3F2E020E030E02E
S1130C40B0E3A1E3AB0148235923452B11F0A08362
S1130C5001C0B083969587952F5F3F4F31960097DB
S1130C6089F702C020E030E0F901E35CFD4F108217
S1130C708DE392E00895AB01BC0110923D02411551
S1130C8051056105710509F442C021E0EFEFE20F5F
S1130C90DB01CA018F709927AA27B078BB2354F4CB
S1130CA00197A109B109806F9F6FAF6FBF6F019664
S1130CB0A11DB11D8A309105A105B10534F4F0E000
S1130CC0E35CFD4F805D808305C0F0E0E35CFD4F95
S1130CD0895C8083E22FF0E0E35CFD4F1082DB014E
S1130CE0CA0177231CF40F96A11DB11DAC01BD01EF
S1130CF0689413F875956795579547951694D1F7A9
S1130D002F5F411551056105710509F0BFCF8DE3D2
S1130D1092E0E7DD8DE392E00895282F30E0322F52
S1130D202227A901492BCA010895292F30E0322F27
S1130D302227A901482BCA010895282F892F922F11
S1130D40089508959827892798270895FF920F9367
S1130D501F93CF93DF938C01EB01F42E642F70E08B
S1130D6080E090E00E940E189B01AC0160E070E00E
S1130D7080E090E40E94231920E030E040E85FE343
S1130D800E940C170E94E2179E012623372360233A
S1130D907123CB01822793272823392302C0220FF2
S1130DA0331FFA94E2F7822B932BDF91CF911F919B
S1130DB00F91FF900895CF93DF93CDB7DEB79E01D7
S1130DC02B5F3F4FF901419151919F016FE570E015
S1130DD08DE392E00E941E1B99231CF08DE392E0A8
S1130DE002C080E090E0DF91CF910895FC01109261
S1130DF09C0287E494E09183808381E794E0938369
S1130E00828386EA96E0958384838FE492E09783D5
S1130E10868380E792E0918780878EE792E09387CC
S1130E20828780EA92E09587848789EE94E09787A9
S1130E30868782E295E0918B808B8EE894E0938B99
S1130E40828B86E594E0958B848B86E493E0978B84
S1130E50868B8BE493E0918F808F8AE593E0938F68
S1130E60828F8EE793E0958F848F80E893E0978F4D
S1130E70868F8AE893E091A380A387E993E093A304
S1130E8082A383EA93E095A384A38BEB93E097A3D7
S1130E9086A38EEC93E091A780A789ED93E093A7B6
S1130EA082A786E094E095A784A78CE895E097A7AD
S1130EB086A787E995E091AB80AB88EB95E093AB8F
S1130EC082AB88E096E095AB84AB80E196E097AB8B
S1130ED086AB8EEE97E091AF80AF8BE396E093AF55
S1130EE082AF8DE896E095AF84AF85E996E097AF41
S1130EF086AFDF01A05CBF4F8DE996E011969C930D
S1130F008E93129681EA96E011969C938E93129694
S1130F1082EA96E011969C938E9312968BED96E05E
S1130F208D939C93CF0108958F929F92AF92BF921D
S1130F30EF92FF920F931F93CF93DF938A01D22FE7
S1130F402AE030E040E050E00E94E01A605DF801E1
S1130F506083622F732F842F952F16161706180699
S1130F601906FCF421E00F2EFAE08F2E912CA12C0F
S1130F70B12CF02DC1E0C20F7801E20EF11CA501E5
S1130F8094010E94E01A605DF7016083622F732F61
S1130F90842F952F2C2F161617061806190654F3AE
S1130FA001C0C1E0CD1748F480E3F801EC0FF11D56
S1130FB08083CF5FDC13F9CF01C0DC2FF801ED0F84
S1130FC0F11D10828D2FDF91CF911F910F91FF9012
S1130FD0EF90BF90AF909F908F9008958F929F92C3
S1130FE0AF92BF92CF92DF92EF92FF920F931F9333
S1130FF0CF93DF936B017C01EA01022F20E030E004
S1131000A9010E94711788230CF066C0F7FAF094C6
S1131010F7F8F094C701B6010E94E2174B015C0196
S11310200E940E189B01AC01C701B6010E940C1767
S11310306B017C01B401990C880B990B21E0AE0182
S113104073DF11E0180FFE01E80FF11D8DE28083BC
S11310505E01A10EB11CF5011082CE0142DC8FEFBE
S1131060800F863008F58EE2F50180831F5F5E01F4
S1131070A10EB11C602F70E080E090E00E940E1879
S11310809B01AC0160E070E080E291E40E942319CE
S1131090A70196010E94C0180E94DD17202FA50108
S11310A043DFC5011EDC37C08EE2F50180831F5F7C
S11310B0CE01810F911D8C0120E030E048EC52E418
S11310C0C701B6010E94C0180E94DD1722E0A801E2
S11310D02BDFC80106DC1FC0C701B6010E94E2175E
S11310E04B015C010E940E189B01AC01C701B601C3
S11310F00E940C176B017C01B401990C880B990BAD
S113110021E0AE0111DF11E0180FFE01E80FF11D1F
S113111080E280839DCFCE01DF91CF911F910F910B
S1131120FF90EF90DF90CF90BF90AF909F908F9003
S11311300895CF93DF9300D000D01F92CDB7DEB7D0
S113114085E0E7E8F3E0DE01119601900D928A95BF
S1131150E1F729813A814B815C816D8170E080E007
S113116090E00F900F900F900F900F90DF91CF9120
S1131170089510926203E7E8F3E080E280838DE94A
S113118092E092838183948383830895CF93DF9342
S113119021E080E0AAE5B3E0EEE5F3E060E071E091
S11311A001C02F5F9FEF920F913009F44BC038F0CC
S11311B0923009F48CC0933009F4CEC00EC1409132
S11311C0650350916603EA01988190689883409181
S11311D0570350915803EA0198819F77988340916F
S11311E0630350916403EA01388134773C9390811E
S11311F0432F492794233083992399F0943019F489
S1131200EB0188810AC0903119F4EB01898109C08E
S1131210903219F4EB018A8104C0903411F4EB018B
S11312208B814091650350916603EA0198819F7711
S113123098834091570350915803EA01988190682C
S11312409883AFCF4091650350916603EA0198817A
S1131250916098834091570350915803EA01988113
S11312609E7F98834091630350916403EA0138811F
S1131270347711963C9311979181432F49279423F6
S11312803183992399F0943019F4EB018C810AC0CD
S1131290903119F4EB018D8109C0903219F4EB01FE
S11312A08E8104C0903411F4EB018F814091650369
S11312B050916603EA0198819E7F98834091570379
S11312C050915803EA019881916098836ACF4091C4
S11312D0650350916603EA01988192609883409176
S11312E0570350915803EA0198819D7F9883409158
S11312F0630350916403EA013881347712963C9376
S113130012979281432F492794233283992399F08A
S1131310943019F4EB0188850AC0903119F4EB017B
S1131320898509C0903219F4EB018A8504C0903490
S113133011F4EB018B854091650350916603EA013A
S113134098819D7F98834091570350915803EA01F7
S113135098819260988325CFE0916503F0916603AC
S1131360908198609083E0915703F09158039081A5
S1131370977F9083E0916303F09164032081247745
S113138020935D03EEE5F3E09381322F3927932315
S11313902383992399F0943019F480910C010AC0A5
S11313A0903119F480910D0109C0903219F48091A3
S11313B00E0104C0903411F480910F01E091650393
S11313C0F09166039081977F9083E0915703F091A9
S11313D0580390819860908303C0243008F4E1CED0
S11313E0DF91CF910895D2DE882309F445C080931C
S11313F08703843499F4E0916203F0E0E959FC4FE7
S1131400108210926203E7E8F3E08DE992E09283A0
S1131410818387E693E0948383830895E091620354
S1131420E630B8F4AE2FB0E0A959BC4F8C93EF5F0F
S1131430E0936203F0E0E959FC4F1082E7E8F3E03F
S113144087E693E0928381838DE992E0948383839A
S11314500895E7E6F3E0808381E0809362031182DC
S1131460A7E8B3E01296FC93EE9311978DE992E00E
S113147014969C938E9313970895CF93DF93CDB7CF
S1131480DEB728970FB6F894DEBF0FBECDBF20E2BB
S1131490209387039093660380936503709364039A
S11314A06093630350935803409357032BE8FC0164
S11314B02083E0915703F091580384E78083AAE5E1
S11314C0B3E08C93EEE5F3E0808311968C9311974F
S11314D0818312968C931297828313968C938383C1
S11314E010926203E0915703F091580380818B6856
S11314F0808326EC38E03A83298343EF59E05C8308
S11315004B8369E978E07E836D8389EB98E0988763
S11315108F833A815C817E81988528960FB6F894F2
S1131520DEBF0FBECDBFDF91CF910895E091780368
S1131530F091790380818B7F8083E0917803F0912F
S1131540790380818460808308950F931F93CF93E0
S1131550C82F8B01E0917803F091790380818D7F0E
S11315608083E0917503F09176038081806F80839E
S1131570672B41F0E0917803F091790380818160D9
S1131580808307C0E0917803F091790380818E7F96
S1131590808380E090E0CADFCC2344F4E0917803B8
S11315A0F091790380818068808307C0E09178039B
S11315B0F091790380818F778083C6FF08C0E09122
S11315C07803F091790380818064808307C0E0917F
S11315D07803F091790380818F7B8083C5FF08C0F5
S11315E0E0917803F091790380818062808307C061
S11315F0E0917803F091790380818F7D8083C4FF2B
S113160008C0E0917803F091790380818061808340
S113161007C0E0917803F091790380818F7E808305
S1131620012B41F0E0917803F0917903808181608E
S1131630808307C0E0917803F091790380818E7FE5
S1131640808380E090E072DFC3FF08C0E0917803FC
S1131650F091790380818068808307C0E0917803EA
S1131660F091790380818F778083C2FF08C0E09175
S11316707803F091790380818064808307C0E091CE
S11316807803F091790380818F7B8083C1FF08C048
S1131690E0917803F091790380818062808307C0B0
S11316A0E0917803F091790380818F7D8083C0FF7E
S11316B008C0E0917803F091790380818061808390
S11316C007C0E0917803F091790380818F7E808355
S11316D0E0917803F091790380818B7F8083CF91AF
S11316E01F910F91089560E070E081E02EDF87EE96
S11316F097E10197F1F700C0000008950F931F933D
S1131700CF938C01E0917503F091760380818F7003
S11317108083E0917803F09179038081806F8083E6
S1131720E0917803F09179038081826080830115D0
S1131730110541F0E0917803F09179038081816093
S1131740808307C0E0917803F091790380818E7FD4
S1131750808380E090E0EADEE0916E03F0916F0315
S11317608081882314F0C0E001C0C0E8808186FF36
S113177002C0C06401C0CF7B808185FF02C0C0620B
S113178001C0CF7D808184FF02C0C06101C0CF7ED3
S1131790012B41F0E0917803F0917903808181601D
S11317A0808307C0E0917803F091790380818E7F74
S11317B0808380E090E0BADEE0916E03F0916F03E5
S11317C0808188231CF48C2F886002C08C2F877F33
S11317D0908196FF02C0846001C08B7F908195FF49
S11317E002C0826001C08D7F908194FF02C081603D
S11317F001C08E7FE0917803F091790390819B7F03
S11318009083CF911F910F91089580E090E076DF4F
S1131810882344F480E090E071DF88231CF480E0A6
S113182090E06CCF089561E070E08FDEEECF089514
S1131830CF93DF93EC018881882329F02196F3DF8D
S113184089918111FCCFDF91CF9108950F931F935C
S1131850CF93DF93FC01D62F8081882351F08F0131
S11318600F5F1F4F611109C015C0CF5FDC1730F443
S113187001C0C0E0CD1748F00DC0C1E0D4DFF801CD
S113188081918F018111F1CFF5CF80E2CCDFCF5F61
S1131890CD17D8F3DF91CF911F910F910895CF9376
S11318A0C82F882321F080E2BEDFC150E1F7CF9139
S11318B00895262F8130910571F030F08230910522
S11318C089F00397B1F0089560E070E080E8820F3A
S11318D03CDE9BCF089560E070E080EC820F35DE43
S11318E094CF089560E070E084E9820F2EDE8DCFFE
S11318F0089560E070E084ED820F27DE86CF0895BE
S1131900E0917503F091760387E08083E09178039A
S1131910F091790388E080832FEF83EF91E02150E9
S113192080409040E1F700C0000060E070E088E390
S11319300CDE20ED2A95F1F760E070E088E305DE27
S113194080ED8A95F1F760E070E088E3FEDD90EDCC
S11319509A95F1F760E070E088E2F7DD25EC2A95CE
S1131960F1F7000060E070E088E2EFDD85EC8A9535
S1131970F1F7000060E070E088E2E7DD46DF60E058
S113198070E088E2E2DD41DF60E070E08CE0DDDD04
S11319903CDF60E070E08CE0D8DD37DF60E070E0D1
S11319A081E0D3DD32DF60E070E081E0CEDD2DDF69
S11319B060E070E086E0C9DD28DF60E070E086E08A
S11319C0C4DD23DF60E070E080E090E072CF089532
S11319D0CF93DF93EC017093760360937503509378
S11319E06F0340936E033093790320937803FB01D4
S11319F01082E0917803F09179038FEF8083E09176
S1131A006E03F0916F03808188708093770378DF91
S1131A1085EA9AE0998388838EE79BE09B838A8397
S1131A2085E09CE09D838C8383E19CE09F838E838F
S1131A3089E49DE09987888788E19CE09B878A8771
S1131A4086E29CE09D878C878FE49CE09F878E874D
S1131A5083E79BE0998B888B89E59CE09B8B8A8B41
S1131A6088E39DE09D8B8C8BCE01DF91CF9108950F
S1131A70CF93E0916E03F0916F03C081C8708091A1
S1131A8077038C278C2309F03BDFC0937703CF9136
S1131A900895CF9381E090E031DEC82FB6DE8C2F1D
S1131AA0CF910895AF92BF92CF92DF92EF92FF92BF
S1131AB00F931F93CF93DF93DC011496CC9014976C
S1131AC012962D913C911397232B21F17C01D12C5B
S1131AD000E010E0A12CB12CC0E0D0E0D701ED91E2
S1131AE0FC91008CF18DE02DA601B80187E893E00C
S1131AF0099580918703882319F0BFEFAB1ABB0ABD
S1131B0021960C0D1D1DF70182819381C817D907F9
S1131B1028F302C0A12CB12CC501DF91CF911F91F4
S1131B200F91FF90EF90DF90CF90BF90AF9008950A
S1131B30AF92BF92CF92DF92EF92FF920F931F93D7
S1131B40CF93DF937C01DC011496CC90149712960A
S1131B508D919C911397892B81F1D12CC0E0D0E019
S1131B60A12C00E010E0BB24B394D701ED91FC91CB
S1131B70008CF18DE02DA601BE0187E893E0099564
S1131B8080918703882371F010928703D701ED9128
S1131B90FC91048CF58DE02DA601BE0187E893E04D
S1131BA00995AB2C0F5F1F4FCC0DDD1DF701828112
S1131BB0938108171907C8F201C0A12CD701189600
S1131BC01C921E92179719961C928A2DDF91CF9121
S1131BD01F910F91FF90EF90DF90CF90BF90AF9047
S1131BE00895FC01878190850895FC0181850895FD
S1131BF0FC017087678311860895FC01858108952F
S1131C00FC01658308952F923F924F925F926F92E9
S1131C107F928F929F92AF92BF92CF92DF92EF9278
S1131C20FF920F931F93CF93DF938C01762EDC01E9
S1131C301696CC90A62EAC24CA20D12CA622B12C68
S1131C40C114D10431F0F80182819381892B29F4E4
S1131C50B3C0A114B104B9F74AC1E4805580332458
S1131C603A9444244A9466246394C0E0D0E0F12C6E
S1131C70852C912C6894222421F8EC9EB001ED9ED1
S1131C80700DFC9E700D1124D801ED91FC91008C17
S1131C90F18DE02DA70187E893E0099580918703F2
S1131CA0882309F470C0813099F420918A0330E0CC
S1131CB02C153D0509F067C020918B0330E02A15EF
S1131CC03B0509F060C0F801C281D381622C5BC07E
S1131CD0E7E8F3E041815281D80117962D913C91B8
S1131CE01897242735274581568124233523232B10
S1131CF009F049C020918A0330E02C153D0509F014
S1131D0042C020918B0330E02A153B05E1F5282FD2
S1131D1030E02819390949F41296CD91DC911397D2
S1131D200F2EF3E06F2EF02D2EC0121613069CF426
S1131D30442D50E02417350774F49BE0E7E8F3E002
S1131D40A2E9B3E001900D929A95E1F7482E451867
S1131D506894662462F83323B4F4432D50E051951B
S1131D60419551094217530774F49BE0E7E8F3E007
S1131D70ACE7B3E001900D929A95E1F7352C381A4F
S1131D806894662462F82196F80122813381C2178F
S1131D90D30708F472CFF2E06F1689F0F61520F03D
S1131DA081E0681649F0A3C093E0691669F1A4E0E4
S1131DB06A1609F44BC09BC0F801768298C0D8011A
S1131DC015968C93159716967C921697E7E8F3E090
S1131DD065817681218532852623372317964D9197
S1131DE05C911897242B352B878190858623972324
S1131DF0809590958223932318969C938E9317979E
S1131E0082E019968C9373C0F80185837682E7E8A3
S1131E10F3E0658176812185328526233723D80135
S1131E2017964D915C911897242B352B87819085BB
S1131E3086239723809590958223932318969C93C9
S1131E408E93179783E019968C9351C0F80176828C
S1131E508FEF840D8E3F20F5E2E9F3E08081D80115
S1131E6015968C9315976581768121853285AB0112
S1131E704223532317962D913C911897242B352BED
S1131E808781908586239723809590958223932339
S1131E9018969C938E93179789E219968C9327C072
S1131EA08FEF830D8E3F18F5ECE7F3E08081D801C6
S1131EB015968C9315976581768121853285AB01C2
S1131EC04223532317962D913C911897242B352B9D
S1131ED087819085862397238095909582239323E9
S1131EE018969C938E9317978AE219968C93F8010F
S1131EF08185DF91CF911F910F91FF90EF90DF903B
S1131F00CF90BF90AF909F908F907F906F905F9095
S1131F104F903F902F9008952F923F924F925F924F
S1131F206F927F928F929F92AF92BF92CF92DF92E5
S1131F30EF92FF920F931F93CF93DF93DC011496DC
S1131F400C91149710929203442309F487C01696B7
S1131F50AC90262F2A25A222B12C2623822E912C46
S1131F60A114B10441F0FC0122813381232B41F4FB
S1131F70442443948DC081149104A9F7412C88C052
S1131F80542E7C0144244394C0E0D0E0612C712C95
S1131F9010E00F2EF3E03F2EF02D6894222421F858
S1131FA068010C9FB0010D9F700D1C9F700D1124D2
S1131FB0D701ED91FC91008CF18DE02DA80187E80B
S1131FC093E0099580918703581214C080918A0385
S1131FD090E08A159B0571F480918B0390E088153D
S1131FE0990541F4B1E05B1241C03E01F701C281A1
S1131FF0D381422C2196D70112968D919C911397EF
S1132000C817D90768F2B2E04B1621F0E3E04E1688
S113201099F03EC06C9CB0016D9C700D7C9C700D61
S11320201124D701ED91FC91048CF58DE02DA601CE
S113203082E993E009952CC06C9CB0016D9C700DF5
S11320407C9C700D1124D701ED91FC91048CF58DCD
S1132050E02DA60182E993E009951AC0412C18C02D
S11320603E01F701C281D381432CC4CFE7E8F3E0FA
S113207021813281D70117968D919C911897282739
S113208039278581968182239323892B49F3B2CF03
S1132090842DDF91CF911F910F91FF90EF90DF90EE
S11320A0CF90BF90AF909F908F907F906F905F90F4
S11320B04F903F902F9008952F923F924F925F92AE
S11320C06F927F928F929F92AF92BF92CF92DF9244
S11320D0EF92FF920F931F93CF93DF93CDB7DEB7A9
S11320E029970FB6F894DEBF0FBECDBFFC018481E3
S11320F08F8310929203E680962F9E25E922F12C7D
S11321009623A92EB12CE114F10439F08281938134
S1132110892B41F491E09983FEC0A114B104B1F775
S11321201982F9C08F01558044244A94AFEFAA83E1
S1132130B1E0B983812C912C1E821D821C821B82EA
S1132140212C312CFF81EF2FF0E0652C712CF987C5
S1132150E887C884D984C89CB001C99C700DD89CF8
S1132160700D1124D801ED91FC91008CF18DE02DBE
S1132170A60187E893E0099580918703882309F4F1
S113218061C08130A9F480918A0390E08E159F0587
S113219009F058C080918B0390E08A159B0509F0E3
S11321A051C01401F80182809380F2E0F9834AC09F
S11321B0E7E8F3E041815281D80117962D913C91D3
S11321C01897242735274581568124233523232B2B
S11321D0C9F520918A0330E02E153F0599F5209129
S11321E08B0330E02A153B0569F5282F30E02619CA
S11321F0370941F4140112968D909C901397B3E023
S1132200B98320C0121613066CF4EA814E2F50E0F5
S1132210241735073CF4F82FF519FA839C828B8236
S113222094E09983332374F4442D50E051954195FF
S113223051094217530734F4452C481A9E828D8263
S1132240A4E0A983BFEF8B1A9B0AF80182819381D2
S11322508816990608F47DCFF981F330B9F0F4308B
S113226039F1F23009F057C02C9CB0012D9C700D4F
S11322703C9C700D1124D801ED91FC91048CF58DDA
S1132280E02DA60182E993E0099545C02C9CB0019C
S11322902D9C700D3C9C700D1124D801ED91FC9186
S11322A0048CF58DE02DA60182E993E0099533C0F5
S11322B08A8181508E3FB0F4EB81FC81EC9DB001AA
S11322C0ED9D700DFC9D700D1124D801ED91FC91D4
S11322D0048CF58DE02DA60182E993E00995B9E21D
S11322E0B98319C08FEF840D8E3FA8F4ED81FE8170
S11322F0EC9DB001ED9D700DFC9D700D1124D80175
S1132300ED91FC91048CF58DE02DA60182E993E01A
S11323100995BAE2B983898129960FB6F894DEBF8C
S11323200FBECDBFDF91CF911F910F91FF90EF9022
S1132330DF90CF90BF90AF909F908F907F906F90E1
S11323405F904F903F902F9008952F923F924F921D
S11323505F926F927F928F929F92AF92BF92CF9231
S1132360DF92EF92FF920F931F93CF93DF9300D0EE
S11323701F92CDB7DEB74901002309F4C2C0DC01C6
S113238016961C91362F31271323612E712C63234B
S11323906983262E312C6114710439F0FC012281E9
S11323A03381232B39F480E0C4C021143104B1F704
S11323B080E0BFC02A019B838A83E480F12CC12C76
S11323C0D12CA12CB12CAA81BB81ED91FC91008C64
S11323D0F18DE02DA701B60187E893E0099580917E
S11323E087038823F9F0813081F008131BC0209102
S11323F0880330918903EA81FB8187819085822754
S1132400932788219921892B69F480918A0390E08C
S11324108615970539F480918B0390E08215930516
S113242009F471C0FFEFAF1ABF0ACE0CDF1CAA81FA
S1132430BB8112968D919C911397A816B90618F238
S113244064C0E2E9F3E0C901842595258821992136
S11324508223932390878783AA81BB8117962D912A
S11324603C9118972425352582229322482059200F
S1132470528641860DC0E2E9F3E0C2018095909551
S1132480882199219087878384209520928681864C
S1132490EA81FB8182819381892B89F100E010E03C
S11324A0C12CD12CAA81BB81ED91FC91008CF18DC2
S11324B0E02DA701B80187E893E00995809187038F
S11324C081110FC0AA81BB81ED91FC91048CF58D23
S11324D0E02DA701602F712F82E993E0099582E036
S11324E028C0BFEFCB1ADB0A0E0D1F1DEA81FB814A
S11324F082819381C816D906A8F283E01AC081E0CC
S113250018C080E016C084E014C0E2E9F3E0008360
S1132510AA81BB8117962D913C9118973283218310
S11325201383B981B48396828582023008F089CFFF
S1132530A2CF0F900F900F90DF91CF911F910F9129
S1132540FF90EF90DF90CF90BF90AF909F908F90CF
S11325507F906F905F904F903F902F900895FC0173
S113256071836083538342838BE084831582108656
S1132570178283E09EE09387828785EA91E19587BD
S1132580848782E59DE0978786878CE590E1918B2F
S1132590808B8CE89FE0938B828B88E99DE0958B00
S11325A0848B81EF9DE0978B868B85EF9DE0918FE7
S11325B0808F88EF9DE0938F828F8DEF9DE0958FC4
S11325C0848F80E09EE0978F868FCF01089517BA9D
S11325D08FEF88BB84BB15BA0895CF93DF93CDB733
S11325E0DEB7C65BD1090FB6F894DEBF0FBECDBF10
S11325F0EEDF43E250E061E270E082E290E00E94AC
S11326003D0A2E833F83488759876A877B878C8757
S11326109D876C847D842BE330E049E350E06AE3DA
S113262070E0CE010E96D4D9888D998DC455DF4FB4
S113263099838883CC5AD040EA8CFB8CEC8DFD8D39
S1132640C655DF4FF983E883CA5AD0408E8D9F8DDB
S1132650CB54DF4F99838883C55BD040C8A0D9A0F1
S1132660CE0184960E941C024BE651E0BE016C5DD3
S11326707F4FCE018E5B9F4F72DFCE018E599F4FED
S11326800E94F606E496AEACBFACE497EE96EEADCF
S1132690FFADEE97C255DF4FF983E883CE5AD040A1
S11326A06E96EEADFFAD6E9760E070E0CE018E5B8E
S11326B09F4F0995CD54DF4F19821882C35BD040D8
S11326C0CF54DF4F19821882C15BD040C055DF4F11
S11326D01882C05BD040312C6894222423F8EAA1EC
S11326E0FBA10995E885F9850995EA85FB85099596
S11326F029833A834B835C836D83522E0A811B8129
S11327008C809D8046B26EE070E080E090E0F6013F
S11327100995842D90E0F50109959093A00280938A
S11327209F0265E0F7010995832D90E08A309105B9
S113273008F04BC3FC01EA5BFF4F5EC760E070E04A
S113274080E090E0F6010995622D80E191E0F701C7
S11327500995A096EEADFFADA097CE018E5B9F4F7D
S1132760099590E0F50109959093A00280939F024A
S113277063E0F7010995F1E45F120AC0CB54DF4F1F
S1132780E881F981C55BD0400995F3010995A7CF8C
S1132790F2E45F120CC0CB54DF4FE881F981C55BD2
S11327A0D0400995F30109953324339410C0F3E420
S11327B05F120DC0CB54DF4FE881F981C55BD04077
S11327C00995F30109950F2EF6E03F2EF02D2E9674
S11327D0EEADFFAD2E97642DCE018E5B9F4F099514
S11327E0F4C260E070E080E090E0F60109956CE0EE
S11327F089E191E0F701099560E070E081E090E003
S1132800F601099564E181E291E0F7010995689484
S1132810332431F8DAC267E070E080E090E0F6013A
S1132820099564E0C801F7010995F4E45F122AC030
S1132830C401C255DF4FE881F981CE5AD0400995D1
S11328408C01C055DF4F8883C05BD04060E070E0EE
S113285082E090E0F6010995C8019927F5010995F0
S11328609093A00280939F02C455DF4FE881F981C1
S1132870CC5AD0400995F30109950F2EF3E03F2E71
S1132880F02DA3C2F3E45F12A0C2F30109959DC227
S113289067E070E080E090E0F601099564E0C8012B
S11328A0F7010995F4E45F122DC0C401C255DF4F4E
S11328B0E881F981CE5AD0400995CF54DF4F9983EE
S11328C08883C15BD04065E070E082E090E0F6016F
S11328D00995CF54DF4F88819981C15BD040F501C0
S11328E009959093A00280939F02C455DF4FE8811D
S11328F0F981CC5AD0400995F301099568943324A1
S113290032F863C2F3E45F1260C2F30109955DC259
S113291067E070E080E090E0F601099564E0C801AA
S1132920F7010995F4E45F122EC0C401C255DF4FCC
S1132930E881F981CE5AD0400995CD54DF4F99836F
S11329408883C35BD0406AE070E082E090E0F601E7
S11329500995CD54DF4F88819981C35BD040F5013F
S113296009959093A00280939F02C455DF4FE8819C
S1132970F981CC5AD0400995F30109950F2EF5E061
S11329803F2EF02D22C2F3E45F121FC2F30109951A
S11329901CC267E070E080E090E0F601099564E015
S11329A0C801F7010995F4E45F1275C0C401C2556A
S11329B0DF4FE881F981CE5AD04009958C016FE050
S11329C070E082E090E0F6010995C8019927F501CD
S11329D009959093A00280939F02C455DF4FE8812C
S11329E0F981CC5AD04009956096EEADFFAD609761
S11329F0CD54DF4F28813981C35BD040CF54DF4FA2
S1132A0048815981C15BD040C055DF4F6881C05BAC
S1132A10D040CE018E5B9F4F0995823009F118F4A6
S1132A20882331F034C0833039F1843069F02FC009
S1132A306CE070E083E090E0F601099567E085E3DF
S1132A4091E0F701099523C06CE070E083E090E029
S1132A50F601099567E08EE391E0F701099517C047
S1132A606CE070E083E090E0F601099567E085E4AE
S1132A7091E0F70109950BC06CE070E083E090E011
S1132A80F601099567E08CE491E0F7010995F301FB
S1132A900995312C9AC1F3E45F1297C1F3010995AA
S1132AA094C160E070E081E090E0F601099560E196
S1132AB081E591E0F701099560E070E082E090E043
S1132AC0F601099560E182E691E0F70109950F2E80
S1132AD0F7E03F2EF02D79C1F1E35F123CC060E0D6
S1132AE070E081E090E0F601099581E1C655DF4F81
S1132AF0E881F981CA5AD040099560E070E082E02B
S1132B0090E0F601099581E1C655DF4FE881F9812E
S1132B10CA5AD04009956896EEADFFAD6897CE01CC
S1132B208E5B9F4F0995A296EEADFFADA29760E034
S1132B30CE018E5B9F4F0995F30109956CE070E01F
S1132B4083E090E0F601099567E082E791E0F70100
S1132B500995312C3AC1F2E35F1220C060E070E0C5
S1132B6081E090E0F601099581E1C655DF4FE881E7
S1132B70F981CA5AD040099560E070E082E090E0A3
S1132B80F601099581E1C655DF4FE881F981CA5AFA
S1132B90D0400995F3010995322C17C1F3E35F1274
S1132BA020C060E070E081E090E0F601099581E1E9
S1132BB0C655DF4FE881F981CA5AD040099560E0D3
S1132BC070E082E090E0F601099581E1C655DF4F9F
S1132BD0E881F981CA5AD0400995F3010995312C4D
S1132BE0F4C0F4E35F12F1C060E070E081E090E0D3
S1132BF0F601099581E1C655DF4FE881F981CA5A8A
S1132C00D040099560E070E082E090E0F60109951B
S1132C1081E1C655DF4FE881F981CA5AD040099550
S1132C206CE070E083E090E0F6010995E2960EAD69
S1132C301FADE2976296EEADFFAD6297CE018E5B5B
S1132C409F4F0995F801099567E0F7010995F3018C
S1132C500995312CBAC060E070E080E090E0F601A4
S1132C6009956CE089E191E0F701099560E070E075
S1132C7081E090E0F601099564E18AE791E0F701CB
S1132C8009950F2EF9E03F2EF02D9FC067E070E00C
S1132C9080E090E0F601099564E0C801F701099528
S1132CA0F4E45F128CC0C401C255DF4FE881F9819E
S1132CB0CE5AD04009958C01C055DF4F8883C05B44
S1132CC0D04060E070E082E090E0F6010995C80130
S1132CD09927F50109959093A00280939F02C4550A
S1132CE0DF4FE881F981CC5AD04009956496EEAD66
S1132CF0FFAD6497602FCE018E5B9F4F099590E0E6
S1132D008B32910508F057C0FC01E05BFF4F74C49F
S1132D106CE070E083E090E0F601099567E080E8FC
S1132D2091E0F701099547C06CE070E083E090E022
S1132D30F601099567E084E891E0F70109953BC045
S1132D406CE070E083E090E0F601099567E08CE8C0
S1132D5091E0F70109952FC06CE070E083E090E00A
S1132D60F601099567E084E991E0F701099523C02C
S1132D706CE070E083E090E0F601099567E08CE98F
S1132D8091E0F701099517C06CE070E083E090E0F2
S1132D90F601099567E082EA91E0F70109950BC015
S1132DA06CE070E083E090E0F601099567E088EA62
S1132DB091E0F7010995F3010995312C06C0F3E47C
S1132DC05F1203C0F3010995322C60E070E083E0E8
S1132DD090E0F601099567E08FEA91E0F701099523
S1132DE06A96EEADFFAD6A97CE018E5B9F4F099553
S1132DF0F50109959093A00280939F0264E0F70186
S1132E0009956A96EEADFFAD6A97CE018E5B9F4F32
S1132E100995809585BB63CC5058BB27AA270ED053
S1132E2075C166D130F06BD120F031F49F3F11F4BD
S1132E301EF45BC10EF4E095E7FB51C1E92F77D195
S1132E4080F3BA17620773078407950718F071F4C3
S1132E509EF58FC10EF4E0950B2EBA2FA02D0B0119
S1132E60B90190010C01CA01A0011124FF27591BCB
S1132E7099F0593F50F4503E68F11A16F040A22FD1
S1132E80232F342F4427585FF3CF46953795279542
S1132E90A795F0405395C9F77EF41F16BA0B620B41
S1132EA0730B840BBAF09150A1F0FF0FBB1F661F88
S1132EB0771F881FC2F70EC0BA0F621F731F841FCB
S1132EC048F4879577956795B795F7959E3F08F0F1
S1132ED0B3CF9395880F08F09927EE0F97958795B0
S1132EE00895D9D008F481E008950CD00FC107D11A
S1132EF040F0FED030F021F45F3F19F0F0C05111E2
S1132F0039C1F3C014D198F39923C9F35523B1F30C
S1132F10951B550BBB27AA2762177307840738F044
S1132F209F5F5F4F220F331F441FAA1FA9F333D0A3
S1132F300E2E3AF0E0E830D091505040E695001C57
S1132F40CAF729D0FE2F27D0660F771F881FBB1F13
S1132F50261737074807AB07B0E809F0BB0B802DED
S1132F60BF01FF2793585F4F2AF09E3F510568F039
S1132F70B6C000C15F3FECF3983EDCF386957795CD
S1132F806795B795F7959F5FC9F7880F911D96953B
S1132F90879597F90895E1E0660F771F881FBB1F97
S1132FA0621773078407BA0720F0621B730B840B44
S1132FB0BA0BEE1F88F7E095089504D06894B11118
S1132FC0D9C00895BCD088F09F5790F0B92F9927A5
S1132FD0B751A0F0D1F0660F771F881F991F1AF020
S1132FE0BA95C9F712C0B13081F0C3D0B1E00895E9
S1132FF0C0C0672F782F8827B85F39F0B93FCCF36A
S1133000869577956795B395D9F73EF49095809515
S1133010709561957F4F8F4F9F4F0895E89409C035
S113302097FB3EF490958095709561957F4F8F4FF7
S11330309F4F9923A9F0F92F96E9BB279395F6950D
S1133040879577956795B795F111F8CFFAF4BB0F8B
S113305011F460FF1BC06F5F7F4F8F4F9F4F16C0EF
S1133060882311F096E911C0772321F09EE8872F79
S1133070762F05C0662371F096E8862F70E060E035
S11330802AF09A95660F771F881FDAF7880F9695AE
S1133090879597F90895990F0008550FAA0BE0E852
S11330A0FEEF16161706E807F907C0F01216130606
S11330B0E407F50798F0621B730B840B950B39F446
S11330C00A2661F0232B242B252B21F408950A26AC
S11330D009F4A140A6958FEF811D811D089597F9EC
S11330E09F6780E870E060E008959FEF80EC0895AA
S11330F000240A94161617061806090608950024D3
S11331000A9412161306140605060895092E03944C
S1133110000C11F4882352F0BB0F40F4BF2B11F4C0
S113312060FF04C06F5F7F4F8F4F9F4F089557FD1F
S11331309058440F551F59F05F3F71F04795880F21
S113314097FB991F61F09F3F79F0879508951216B8
S113315013061406551FF2CF4695F1DF08C0161664
S113316017061806991FF1CF869571056105089415
S11331700895E894BB2766277727CB0197F908952C
S11331800BD0C4CFB5DF28F0BADF18F0952309F0CF
S1133190A6CFABCF1124EECFCADFA0F3959FD1F316
S11331A0950F50E0551F629FF001729FBB27F00DF1
S11331B0B11D639FAA27F00DB11DAA1F649F662746
S11331C0B00DA11D661F829F2227B00DA11D621F95
S11331D0739FB00DA11D621F839FA00D611D221F4F
S11331E0749F3327A00D611D231F849F600D211D33
S11331F0822F762F6A2F11249F5750408AF0E1F0D6
S113320088234AF0EE0FFF1FBB1F661F771F881F1E
S113321091505040A9F79E3F510570F060CFAACF5E
S11332205F3FECF3983EDCF3869577956795B79509
S1133230F795E7959F5FC1F7FE2B880F911D969533
S1133240879597F90895FA01EE0FFF1F309621052F
S1133250310599F16115710561F48038BFE39B076D
S113326049F168949038810561F08038BFEF9B077D
S113327041F0992342F5FF3FE1053105210511F1A4
S1133280E8940894E795D901AA2329F4AB2FBE2F1B
S1133290F85FD0F310C0FF5F70F4A695E0F7F7393C
S11332A050F019F0FF3A38F49F779F930CD00F90A9
S11332B007FC905808953EF018CF60E070E080E875
S11332C09FE308954FE79F775F934F933F932F9327
S11332D09ED02F913F914F915F9152DF05C019F419
S11332E00EF0FDCE46CF01CF2ADFC8F39638C0F7E3
S11332F007F80F92E8942BE33AEA48EB5FE74EDFD6
S11333000F920F920F924DB75EB70F92C0D0E6EFB7
S1133310F0E016D04F915F91EF91FF91E595EE1F8C
S1133320FF1F49F0FE57E0684427EE0F441FFA954B
S1133330E1F74195550B32D00F9007FE26C0089552
S1133340DF93CF931F930F93FF92EF92DF927B0152
S11333508C01689405C0DA2EEF011EDFFE01E894AB
S1133360A5912591359145915591AEF3EF0166DD17
S1133370FE019701A801DA9479F7DF90EF90FF90AE
S11333800F911F91CF91DF9108959B01AC0160E0F3
S113339070E080E89FE3A9CDA2CEACC0D0DEE8F314
S11333A09923D9F3940F511DBBF39150504094F0DD
S11333B059F0882332F0660F771F881F91505040D0
S11333C0C1F79E3F510544F7880F911D9695879547
S11333D097F908955F3FACF0983E9CF0BB27869523
S11333E077956795B79508F4B1609395C1F7BB0FCE
S11333F058F711F460FFE8CF6F5F7F4F8F4F9F4FF7
S1133400E3CFB8CE0EF076C070CE689468CE97DE67
S1133410C8F39923D1F3C6F3DF93CF931F930F938C
S1133420FF92C92FDD2788232AF02197660F771F83
S1133430881FDAF720E030E040E85FEB9FE388394B
S113344020F0803E30F021968F77E7DCEEE1F1E06A
S113345003C0E3DCEBE4F1E073DF8B01BE01EC01BC
S1133460FB2E6F5771097595771F880B990BD8DD63
S113347028E132E741E35FE38FDEAF2D9801AE012F
S1133480FF900F911F91CF91DF91D8DC3FCEFA01CD
S1133490DC01AA0FBB1F9B01AC01BF5728F42227F4
S11334A03327442750781FC0B75188F4AB2F00242A
S11334B0469537952795011CA395D2F3002069F012
S11334C0220F331F441FB395DAF30DD0A5CC61301E
S11334D07105A0E88A07B94630F49B01AC01662760
S11334E0772788279078309621F020833183428390
S11334F0538308959F3F31F0915020F48795779539
S11335006795B795880F911D9695879597F90895B6
S1133510DB018F939F9388D0BF91AF91A29F800DC1
S1133520911DA39F900DB29F900D11240895AA1B85
S1133530BB1B51E107C0AA1FBB1FA617B70710F09A
S1133540A61BB70B881F991F5A95A9F780959095CC
S1133550BC01CD01089597FB072E16F4009406D004
S113356077FD08D0E4DF07FC05D03EF49095819503
S11335709F4F0895709561957F4F0895A1E21A2E8B
S1133580AA1BBB1BFD010DC0AA1FBB1FEE1FFF1F03
S1133590A217B307E407F50720F0A21BB30BE40B53
S11335A0F50B661F771F881F991F1A9469F760959A
S11335B07095809590959B01AC01BD01CF01089554
S11335C0052E97FB16F400940FD057FD05D0D6DFD7
S11335D007FC02D046F408C05095409530952195DB
S11335E03F4F4F4F5F4F089590958095709561952B
S11335F07F4F8F4F9F4F0895EE0FFF1F0024001C35
S11336000BBE0790F691E02D0994A29FB001B39FE1
S1133610C001A39F700D811D1124911DB29F700DD7
S1133620811D1124911D0895F0DFA59F900DB49F75
S1133630900DA49F800D911D112408950F931F9345
S1133640CF93DF93CDB7DEB72E970FB6F894DEBFD6
S11336500FBECDBF8C01FA0186E08C831A830983E7
S113366077FF02C060E070E8CB0101979E838D83F1
S1133670A901BF01CE01019619D04D815E8157FD8C
S11336800AC02F813885421753070CF49A01F801B8
S1133690E20FF31F10822E960FB6F894DEBF0FBE12
S11336A0CDBFDF91CF911F910F9108952F923F923B
S11336B04F925F926F927F928F929F92AF92BF923E
S11336C0CF92DF92EF92FF920F931F93CF93DF93EA
S11336D0CDB7DEB72B970FB6F894DEBF0FBECDBFC4
S11336E06C017B018A01FC0117821682838181FFB0
S11336F0BFC1CE0101963C01F6019381F70193FD10
S1133700859193FF81917F01882309F4ADC18532AE
S113371039F493FD859193FF81917F01853221F4E2
S1133720B60190E0D6D1E8CF912C212C312CFFE1C9
S1133730F315D8F08B3279F038F4803279F0833293
S1133740A1F4232D20611DC08D3261F0803369F412
S1133750232D216016C0832D8260382EE32DE46072
S11337603E2E2AC0F32DF8601DC037FC2DC020ED7D
S1133770280F2A3040F08E32B9F436FC75C1232D5F
S11337802064322E19C036FE06C08AE0989E200DB1
S11337901124922E11C0EAE02E9E200D1124222E17
S11337A0F32DF0623F2E08C08C3621F4832D8068FF
S11337B0382E02C0883641F4F70193FD859193FFBA
S11337C081917F018111B3CF982F9F7D95549330C0
S11337D028F40C5F1F4F9FE399830DC0833631F0AB
S11337E0833771F0833509F055C020C0F80180811A
S11337F089830E5F1F4F88248394912C530112C038
S11338002801F2E04F0E511CF801A080B18036FE71
S113381003C0692D70E002C06FEF7FEFC5014ED188
S11338204C018201F32DFF773F2E15C0280122E0C1
S1133830420E511CF801A080B18036FE03C0692DF0
S113384070E002C06FEF7FEFC5012DD14C01F32D65
S1133850F0683F2E820133FC19C0822D90E0881657
S11338609906A0F4B60180E290E033D12A94F5CF12
S1133870F50137FC859137FE81915F01B60190E037
S113388028D121102A9421E0821A910881149104EC
S113389079F7E1C0843611F0893639F5F80137FE3D
S11338A007C060817181828193810C5F1F4F08C0C2
S11338B060817181072E000C880B990B0E5F1F4FDE
S11338C0F32DFF763F2E97FF09C090958095709554
S11338D061957F4F8F4F9F4FF0683F2E2AE030E075
S11338E0A30133D1882E861844C0853731F4232DA3
S11338F02F7EB22E2AE030E025C0932D997FB92E79
S11339008F36C1F018F4883579F0AEC0803719F0DD
S1133910883721F0A9C0E92FE061BE2EB4FE0DC0A6
S1133920FB2DF460BF2E09C034FE0AC0292F266087
S1133930B22E06C028E030E005C020E130E002C02D
S113394020E132E0F801B7FE07C060817181828115
S113395093810C5F1F4F06C06081718180E090E00D
S11339600E5F1F4FA301F1D0882E8618FB2DFF7721
S11339703F2E36FE0DC0232D2E7FA22E891458F41F
S113398034FE0BC032FC09C0832D8E7EA82E05C0E8
S1133990B82CA32C03C0B82C01C0B92CA4FE0FC0B2
S11339A0FE01E80DF11D8081803321F49A2D997E6A
S11339B0A92E09C0A2FE06C0B394B39404C08A2DF4
S11339C0867809F0B394A3FC10C0A0FE06C0B2141C
S11339D080F4280C922C9B180DC0B21458F4B60134
S11339E080E290E076D0B394F8CFB21418F42B1898
S11339F002C0982C212CA4FE0FC0B60180E390E0F5
S1133A0068D0A2FE16C0A1FC03C088E790E002C003
S1133A1088E590E0B6010CC08A2D867851F0A1FEAD
S1133A2002C08BE201C080E2A7FC8DE2B60190E007
S1133A3050D0891430F4B60180E390E04AD09A94CF
S1133A40F8CF8A94F301E80DF11D8081B60190E06E
S1133A5040D08110F6CF222009F44ECEB60180E288
S1133A6090E037D02A94F7CFF6018681978102C07F
S1133A708FEF9FEF2B960FB6F894DEBF0FBECDBF2E
S1133A80DF91CF911F910F91FF90EF90DF90CF9036
S1133A90BF90AF909F908F907F906F905F904F906A
S1133AA03F902F900895FC010590615070400110E3
S1133AB0D8F7809590958E0F9F1F0895FC01615053
S1133AC0704001900110D8F7809590958E0F9F1F3C
S1133AD008950F931F93CF93DF93FB01238121FD5F
S1133AE003C08FEF9FEF2CC022FF16C04681578181
S1133AF0248135814217530744F4A081B1819D018B
S1133B002F5F3F4F318320838C93268137812F5F32
S1133B103F4F3783268314C08B01EC01FB010084E3
S1133B20F185E02D0995892BE1F6D80116968D9142
S1133B309C911797019617969C938E931697CE0196
S1133B40DF91CF911F910F910895FA01AA27283090
S1133B5051F1203181F1E8946F936E7F6E5F7F4F56
S1133B608F4F9F4FAF4FB1E03ED0B4E03CD0670FD2
S1133B70781F891F9A1FA11D680F791F8A1F911D25
S1133B80A11D6A0F711D811D911DA11D20D009F475
S1133B9068943F912AE0269F11243019305D3193B7
S1133BA0DEF6CF010895462F4770405D4193B3E0A0
S1133BB00FD0C9F7F6CF462F4F70405D4A3318F047
S1133BC0495D31FD4052419302D0A9F7EACFB4E0F8
S1133BD0A6959795879577956795BA95C9F70097B0
S1133BE06105710508959B01AC010A2E0694579551
S1133BF0479537952795BA95C9F7620F731F841FA8
S1133C00951FA01D0895DC01CB01FC01E199FECFB5
S1133C1006C0FFBBEEBBE09A31960DB20D92415047
S1133C205040B8F70895E199FECF9FBB8EBBE09A50
S1133C3099278DB30895A8E1B0E042E050E0E5CFC4
S1133C40DC01A40FB51F4150504040F0CB01840F5C
S1133C50951F2E9105D041505040D8F70895262F36
S1133C60E199FECF9FBB8EBBE09A01970DB202167D
S1133C7031F02DBB0FB6F894E29AE19A0FBE089585
S1133C800396272FEDDFEBDF252FEADF242FE8CF84
S1133C900196272FE5DFE3CFDC01CB0102C02D9194
S1133CA005D041505040D8F70895262FE199FECF12
S1133CB09FBB8EBB2DBB0FB6F894E29AE19A0FBE60
S1133CC001960895242FF2DF252FF0DF00C0EDDFE9
S10B3CD0272FECCFF894FFCF7D
S1133CD83132334134353642373839432A30234474
S1133CE852756E6E696E672000456E7465723A206F
S1133CF800496E20204F757420204D61736B20207D
S1133D08506167650064697361626C656400657815
S1133D18697374730075706C6F61640066756C6C9C
S1133D2800312D44656C65746520342D7175616EA0
S1133D387400322D52656D6F766520332D45786990
S1133D48740064656C6574656400496E707574000C
S1133D584E6F6E00556E6B6E6F776E0067206C6FDA
S1133D68676963006C206C6F676963006C6F6361DB
S1133D786C0061626F76650062656C6C6F77004FEA
S10B3D887574707574200000CD
S9030000FC
