:100000000C9497000C94B4000C94B4000C94B400BD
:100010000C94B4000C94B4000C94B4000C94B40090
:100020000C94B4000C94B4000C94B4000C94B40080
:100030000C94B4000C94B3140C94B4000C94B4005D
:100040000C94B4000C94B4000C94B4000C94B40060
:100050000C942B0F0C948E0F0C94B4000C94B400E1
:100060000C94B6000C94B4000C94B4000C94B4003E
:100070000C94620F0C94C50F0C94B400C502CB0213
:10008000D102D702DD02E802F302FE0204031403E8
:100090001F032F034F03350340035E0364036A030A
:1000A00070038D0376037C03820388030763423663
:1000B000B79BD8A71A39685618AEBAAB558C1D3CF9
:1000C000B7CC5763BD6DEDFD753EF6177231BF00BD
:1000D0000000803F08000000BE922449123EABAAF7
:1000E000AA2ABECDCCCC4C3E00000080BEABAAAA52
:1000F000AA3E00000000BF000000803F000000009A
:1001000000084178D3BB4387D1133D190E3CC3BDD2
:100110004282AD2B3E68EC8276BED98FE1A93E4C7F
:1001200080EFFFBE01C4FF7F3F00000000001124EC
:100130001FBECFEFD8E0DEBFCDBF11E0A0E0B1E041
:10014000E0E7F9E302C005900D92A633B107D9F7B5
:1001500023E0A6E3B1E001C01D92AC31B207E1F7A4
:100160000E94F50F0C94B61C0C9400001F920F9285
:100170000FB60F9211242F933F938F939F93AF93BA
:10018000BF93EF93FF938091780090E09093D50216
:100190008093D402209179008091D4029091D5026D
:1001A000922B9093D5028093D4028091D302843015
:1001B000A0F48091D3028F5F8093D3022091D40268
:1001C0003091D5028091CF029091D002820F931F7F
:1001D0009093D0028093CF0245C0E091CD02F09180
:1001E000CE028091CF029091D002959587959595FA
:1001F0008795EE0FFF1FEA5BFE4F9183808310927D
:10020000D0021092CF021092D3022091CD023091F1
:10021000CE028091D1029091D2022817390754F46E
:100220008091CD029091CE0201969093CE02809360
:10023000CD0204C01092CE021092CD02ACE7B0E025
:100240008C91807E8C93E091CD02F091CE02EE0FE6
:10025000FF1FEA5CFE4F808191812C918F7199275D
:10026000822B8C93FF91EF91BF91AF919F918F91D2
:100270003F912F910F900FBE0F901F901895E6E5BC
:10028000F1E0848180838581818386818283878177
:10029000838380B1848383B1858386B1868389B16A
:1002A00087830895823481F018F4813431F021C0BD
:1002B000833489F08434B1F01CC0E6E5F1E090812C
:1002C0008481892789230895E6E5F1E0918185817C
:1002D000892789230895E6E5F1E0928186818927BF
:1002E00089230895E6E5F1E09381878189278923B1
:1002F000089580E00895823481F018F4813431F05B
:1003000021C0833489F08434B1F01CC0E6E5F1E00B
:1003100090818481892B80950895E6E5F1E09181B3
:100320008581892B80950895E6E5F1E092818681AB
:10033000892B80950895E6E5F1E093818781892BEB
:100340008095089580E00895823481F018F4813416
:1003500031F021C0833489F08434B1F01CC0E6E56B
:10036000F1E094818081892789230895E6E5F1E011
:1003700095818181892789230895E6E5F1E09681B9
:100380008281892789230895E6E5F1E097818381B9
:1003900089278923089580E00895823479F018F43C
:1003A000813431F01DC0833479F0843499F018C061
:1003B000E6E5F1E09081848189230895E6E5F1E0A6
:1003C0009181858189230895E6E5F1E09281868116
:1003D00089230895E6E5F1E09381878189230895D3
:1003E00080E00895FC0180B1A6E5B1E014968C93FD
:1003F000149783B115968C93159786B116968C93A6
:10040000169789B117968C938FE391E0918380833F
:1004100082E591E0938382838BE791E095838483E7
:1004200084EA91E0978386838DEC91E091878087C1
:10043000CF01089520915E01211137C010928500EF
:100440001092840088309105B1F048F48330910512
:10045000D1F085309105C9F00197C9F41AC0811512
:1004600021E0920761F0811524E0920751F0803479
:10047000910569F402C092E00DC093E00BC094E0D6
:1004800009C095E007C096E005C097E003C095E07D
:1004900001C091E0E1E8F0E08081892B80838FB793
:1004A00080688FBF81E080935E010895E0E8F0E00E
:1004B00090819F739083823041F0833061F081306E
:1004C00079F48081806480830895E0E8F0E08081A1
:1004D000806880830895E0E8F0E08081806C80830C
:1004E0000895E0E8F0E090819F7C9083823041F0B5
:1004F000833061F0813079F4808180618083089558
:10050000E0E8F0E08081806280830895E0E8F0E038
:100510008081806380830895909389008093880010
:10052000089590938B0080938A000895E1E8F0E0AD
:100530008081887F808310925E0108950F931F93BE
:10054000CF93DF93DC0110925E018FEF9FEF9093CA
:1005500089008093880090938B0080938A00C0E884
:10056000D0E088818C7F8883C1E8D0E08881877E55
:100570008883062F10E0F8013197EF30F10508F07D
:100580008EC0E25CFF4F0C94F518E0E8F0E080814B
:100590008160808384C0E0E8F0E0808182608083B5
:1005A0007EC0E0E8F0E080818360808378C0E1E88D
:1005B000F0E080818860808372C0E0E8F0E08081B4
:1005C00081608083E1E8F0E080818860808367C09B
:1005D000E0E8F0E0808182608083E1E8F0E0808103
:1005E000886080835CC0E0E8F0E080818360808385
:1005F000E1E8F0E080818860808351C0E1E8F0E0CC
:100600008081806180834BC0E2E8F0E080818F735D
:100610008083E0E8F0E0808181608083E1E8F0E0C1
:100620008081806180833BC0E0E8F0E0808182606F
:100630008083E1E8F0E080818061808330C0E2E87F
:10064000F0E080818F738083E0E8F0E08081836058
:100650008083E1E8F0E080818061808320C0E1E870
:10066000F0E08081886180831AC0E0E8F0E080815A
:1006700082608083E1E8F0E08081886180830FC040
:10068000E2E8F0E080818F738083E0E8F0E0808131
:1006900083608083E1E8F0E0808188618083EFE619
:1006A000F0E08081887D808350E0FA013197E93065
:1006B000F10598F5E35BFF4F0C94F518EFE6F0E0D9
:1006C00080818160808329C0EFE6F0E080818460D2
:1006D000808323C0EFE6F0E08081826080831DC0CC
:1006E000EFE6F0E080818062808317C0EFE6F0E003
:1006F00080818560808311C0EFE6F0E080818360B7
:1007000080830BC0EFE6F0E080818660808305C0C7
:10071000EFE6F0E080818760808386E592E01196C5
:100720009C938E9381E792E013969C938E931297FD
:100730008CE892E015969C938E93149781E992E051
:1007400017969C938E9316978AE192E019969C9344
:100750008E93189786E992E01B969C938E931A9736
:10076000CD01DF91CF911F910F910895FC0188E198
:100770009CE19183808384E69CE19383828386E37A
:100780009CE19583848380E29CE1978386838AE75A
:100790009CE19187808784E59CE19387828782E74B
:1007A0009CE19787868782E79CE1958B848B88E420
:1007B0009CE1978B868B88E09CE1918F808F8AE506
:1007C0009CE1938F828F86E29CE1958F848FCF018D
:1007D0000895CF92DF92EF92FF920F931F93FC0147
:1007E0000081118122813381FB01C080D180E280B0
:1007F000F380FC01C082D182E282F382FB0100839C
:100800001183228333831F910F91FF90EF90DF902C
:10081000CF900895FB012081FC012083222339F031
:10082000DB01119631969D9191939111FCCF089522
:10083000CF93DF93EC019881992399F0FE013196D3
:1008400020E030E0492F50E04617570731F0DE0135
:10085000A20FB31F9C932F5F3F4F91919111F2CF45
:1008600002C020E030E0FE01E20FF31F1082DF91B2
:10087000CF9108952F923F924F925F926F927F9205
:100880008F929F92AF92BF92CF92DF92EF92FF92A0
:100890000F931F93CF93DF9300D000D0CDB7DEB777
:1008A0002C011B014B0177231CF42FEF821A920AB3
:1008B00095948794181419040CF451C06AC09601D9
:1008C000DD209CF1F50140815181F401608171814D
:1008D0006417750754F58C010A0D1B1DD401BC82E9
:1008E000AB82BA82A982EB81FC817183608311960D
:1008F0005C934E932E193F09C2F0F801408151815B
:10090000E981FA8160817181080F191FE80FF91FD1
:10091000FA83E983EB81FC81E80FF91FFC83EB8309
:10092000A80FB91F64177507F4F2FFEFCF1ADF0A9B
:1009300022E0A20EB11CE2E08E0E911CC614D70478
:1009400009F0BDCF4701FF201CF4FFEF8F1A9F0A6B
:100950009594879418141904E4F4740101C0740187
:10096000821493047CF76401CE18DF085601AA0CA8
:10097000BB1CA40CB51C880C991C840C951C310163
:100980006E187F08C701880F991F9195819591096D
:1009900096CF0F900F900F900F90DF91CF911F91F6
:1009A0000F91FF90EF90DF90CF90BF90AF909F900E
:1009B0008F907F906F905F904F903F902F90089511
:1009C000861797070CF4CB0108959B01672B11F450
:1009D00008959A01B9010E94C218AC01822F932F89
:1009E00041155105B1F70895FC01908180ED890F03
:1009F0008A30D0F4319620E030E0A901440F551F31
:100A0000220F331F220F331F220F331F420F531F9A
:100A1000292F30E020533109240F351F919180EDAB
:100A2000890F8A3050F302C020E030E0C9010895F8
:100A300086230895009739F020E030E02F5F3F4F84
:100A400082179307D9F7089587FF08C0919581957C
:100A50009109992791958195910908958F77992703
:100A6000089591FF08C09195819591099370919592
:100A700081959109089591700895615021E030E0C9
:100A800002C0220F331F6A95E2F7A90141505109B4
:100A9000B90168237923672B29F084239523821BCE
:100AA000930B08958423952308959DEC899F912DA0
:100AB0001124969596959695392F330F232F220F53
:100AC000220F230F821B20E1929F800D1124089595
:100AD000982F92959F70990F292F220F220F920F16
:100AE0008F70890F0895FC01DB01A15ABE4F1C9243
:100AF0001616170614F5908191110CC017C091912C
:100B000091110DC015C081932F5F3F4F26173707F6
:100B1000D4F313C0AFE5B1E0319620E030E09D930F
:100B20002F5F3F4F6217730751F707C020E030E097
:100B3000F901E15AFE4F80E2E6CF8FE591E008959A
:100B40004F925F926F927F92AF92BF92CF92DF925D
:100B5000EF92FF920F931F93CF93DF93CDB7DEB742
:100B600029013A019B01AC012419350946095709AD
:100B700089899A89AB89BC89BC01CD016A197B0935
:100B80008C099D090E94B218A80197012419350902
:100B9000460957090E94D618CA01B9016A0D7B1D82
:100BA0008C1D9D1DDF91CF911F910F91FF90EF90B4
:100BB000DF90CF90BF90AF907F906F905F904F90FD
:100BC0000895FC012081222341F0319680E090E0DD
:100BD000019621912111FCCF089580E090E00895C5
:100BE000CF93DF93EC010E94E1059C012150310974
:100BF00062F0FE01E80FF91F9291903219F09950BE
:100C0000923018F421503109B8F7C20FD31F19825E
:100C1000C901DF91CF910895CF93DF93EC010E943A
:100C2000E1059C01215031091216130684F4DE01FE
:100C3000A80FB91FFE0180E090E040815E915193C2
:100C40004C9301962150310982179307B4F3DF9139
:100C5000CF9108958F929F92AF92BF92CF92DF92E1
:100C6000EF92FF920F931F93CF93DF936B017C0161
:100C7000DC01CB01FF203CF488279927DC018C198B
:100C80009D09AE09BF09BC01CD0110E00F2EFAE0AD
:100C90008F2E912CA12CB12CF02D01C0102F01E032
:100CA000010FC12FD0E0C15ADE4FA50194010E946F
:100CB000D618605D6883622F732F842F952F1616C8
:100CC00017061806190654F3FF2044F4E02FF0E04D
:100CD000E15AFE4F8DE2808302E0010FE02FF0E049
:100CE000E15AFE4F10828FE591E00E940C068FE5DD
:100CF00091E0DF91CF911F910F91FF90EF90DF90E6
:100D0000CF90BF90AF909F908F9008950F931F93B7
:100D1000CF93DF93EC01992324F4882799278C1B28
:100D20009D0B20E00AE010E001C0232F31E0320FDC
:100D3000E22FF0E0E15AFE4FB8010E94C218805D38
:100D40008083862F972F181619067CF3DD2344F431
:100D5000E32FF0E0E15AFE4F8DE2808332E0320F64
:100D6000E32FF0E0E15AFE4F10828FE591E00E9400
:100D70000C068FE591E0DF91CF911F910F910895BF
:100D8000CF93AC019C01ADECBCEC0E94FB18969596
:100D9000879596958795969587959C01220F331F89
:100DA000880F991F880F991F880F991F820F931F13
:100DB0009A01281B390BC901805D80935F019A015C
:100DC0000E94FB18AC015695479556954795569548
:100DD00047954115510589F1E1E0C1E0CE0FF0E002
:100DE000E15AFE4F9A01ADECBCEC0E94FB189695BF
:100DF000879596958795969587959C01220F331F29
:100E0000880F991F880F991F880F991F820F931FB2
:100E10009A01281B390BC901805D80839A010E94C9
:100E2000FB18AC01569547955695479556954795AD
:100E3000EC2F4115510589F601C0C1E0EC2FF0E01F
:100E4000E15AFE4F10828FE591E00E940C068FE57B
:100E500091E0CF910895982F92959F70990F292F27
:100E6000220F220F920F8F70890F0895AC019C0101
:100E7000ADECBCEC0E94FB189695879596958795EE
:100E800096958795BC01660F771F9C01220F331F33
:100E9000220F331F220F331F260F371F421B530B06
:100EA000342F20E1829F300D1124832F0895CF929B
:100EB000DF92EF92FF92CF93DF93CDB7DEB7289703
:100EC0000FB6F894DEBF0FBECDBF6B017C01698306
:100ED0007A838B839C832D833E834F835887C216EE
:100EE000D306E406F5063CF4BE016B5F7F4FCE01EE
:100EF00001960E94E9038D819E81AF81B885892B7F
:100F00008A2B8B2B71F469817A818B819C8120E003
:100F100030E0A9010E94D61861157105810591057F
:100F200029F46D817E818F81988505C06D837E83D4
:100F30008F839887F6CF28960FB6F894DEBF0FBE42
:100F4000CDBFDF91CF91FF90EF90DF90CF900895CC
:100F500090E002C0959587956A95E2F781700895B3
:100F60009C012150310981E090E002C0880F991F57
:100F70002A95E2F70097B1F0EFE5F1E020E030E0EC
:100F8000B0E3A1E3AB0148235923452B11F0A08323
:100F900001C0B083969587952F5F3F4F319600979C
:100FA00089F702C020E030E0F901E15AFE4F1082DB
:100FB0008FE591E00895AB01BC0110925F014115EE
:100FC00051056105710509F442C021E0EFEFE20F20
:100FD000DB01CA018F709927AA27B078BB2354F48C
:100FE0000197A109B109806F9F6FAF6FBF6F019625
:100FF000A11DB11D8A309105A105B10534F4F0E0C1
:10100000E15AFE4F805D808305C0F0E0E15AFE4F5B
:10101000895C8083E22FF0E0E15AFE4F1082DB0111
:10102000CA0177231CF40F96A11DB11DAC01BD01AF
:10103000689413F875956795579547951694D1F769
:101040002F5F411551056105710509F0BFCF8FE58F
:1010500091E00E940C068FE591E00895282F30E082
:10106000322F2227A901492BCA010895292F30E0E8
:10107000322F2227A901482BCA010895282F892F32
:10108000922F089508959827892798270895FF9209
:101090000F931F93CF93DF938C01EB01F42E642FFA
:1010A00070E080E090E00E949C159B01AC0160E044
:1010B00070E080E090E40E94BB1620E030E040E861
:1010C0005FE30E94F4140E946D159E0126233723CE
:1010D00060237123CB01822793272823392302C061
:1010E000220F331FFA94E2F7822B932BDF91CF91DB
:1010F0001F910F91FF900895CF93DF93CDB7DEB787
:101100009E012B5F3F4FF901419151919F016FE586
:1011100070E08FE591E00E944B1999231CF08FE558
:1011200091E002C080E090E0DF91CF910895FC0152
:101130001092BE0181EE95E0918380838CE096E071
:101140009383828387E498E09583848389EE93E098
:10115000978386838AE094E09187808788E194E092
:10116000938782878AE394E09587848786E896E070
:101170009787868780EC96E0918B808B8AE296E059
:10118000938B828B80EF95E0958B848B80EE94E03F
:10119000978B868B85EE94E0918F808F84EF94E01F
:1011A000938F828F88E195E0958F848F8AE195E017
:1011B000978F868F84E295E091A380A381E395E0E9
:1011C00093A382A38DE395E095A384A385E595E0A1
:1011D00097A386A388E695E091A780A783E795E08B
:1011E00093A782A780EA95E095A784A78BE297E072
:1011F00097A786A786E397E091AB80AB87E597E05A
:1012000093AB82AB88EA97E095AB84AB80EB97E039
:1012100097AB86AB8FE899E091AF80AF8BED97E00D
:1012200093AF82AF8EE298E095AF84AF86E398E00B
:1012300097AF86AFDF01A05CBF4F8EE398E01196B9
:101240009C938E93129682E498E011969C938E93D1
:10125000129683E498E011969C938E9312968CE7F5
:1012600098E08D939C93CF0108958F929F92AF92B7
:10127000BF92EF92FF920F931F93CF93DF938A0158
:10128000D22F2AE030E040E050E00E94D618605DA6
:10129000F8016083622F732F842F952F161617067F
:1012A00018061906FCF421E00F2EFAE08F2E912C7F
:1012B000A12CB12CF02DC1E0C20F7801E20EF11C7F
:1012C000A50194010E94D618605DF7016083622F2A
:1012D000732F842F952F2C2F161617061806190614
:1012E00054F301C0C1E0CD1748F480E3F801EC0FDE
:1012F000F11D8083CF5FDC13F9CF01C0DC2FF80133
:10130000ED0FF11D10828D2FDF91CF911F910F9165
:10131000FF90EF90BF90AF909F908F9008958F9225
:101320009F92AF92BF92CF92DF92EF92FF920F9374
:101330001F93CF93DF936B017C01EA01022F20E022
:1013400030E0A9010E94611588230CF06CC0F7FA07
:10135000F094F7F8F094C701B6010E946D154B01A7
:101360005C010E949C159B01AC01C701B6010E9463
:10137000F4146B017C01B401990C880B990B21E0EA
:10138000AE010E94350911E0180FFE01E80FF11DB2
:101390008DE280835E01A10EB11CF5011082CE01A9
:1013A0000E940C068FEF800F863018F58EE2F50153
:1013B00080831F5F5E01A10EB11C602F70E080E092
:1013C00090E00E949C159B01AC0160E070E080E21F
:1013D00091E40E94BB16A70196010E944E160E943E
:1013E0006615202FA5010E943509C5010E940C0633
:1013F0003AC08EE2F50180831F5FCE01810F911DFF
:101400008C0120E030E048EC52E4C701B6010E94B4
:101410004E160E94661522E0A8010E943509C801F7
:101420000E940C0620C0C701B6010E946D154B0139
:101430005C010E949C159B01AC01C701B6010E9492
:10144000F4146B017C01B401990C880B990B21E019
:10145000AE010E94350911E0180FFE01E80FF11DE1
:1014600080E2808397CFCE01DF91CF911F910F91C2
:10147000FF90EF90DF90CF90BF90AF909F908F90B4
:101480000895CF93DF9300D000D01F92CDB7DEB781
:1014900085E0E6E0F3E0DE01119601900D928A9579
:1014A000E1F729813A814B815C816D8170E080E0B8
:1014B00090E00F900F900F900F900F90DF91CF91D1
:1014C00008951092E102E6E0F3E080E280838FEB82
:1014D00091E092838183948383830895CF93DF93F4
:1014E00021E080E0A9EDB2E0EDEDF2E060E071E036
:1014F00001C02F5F9FEF920F913009F44BC038F07D
:10150000923009F48CC0933009F4CEC00EC14091E2
:10151000E4025091E502EA01988190689883409135
:10152000D6025091D702EA0198819F779883409123
:10153000E2025091E302EA01388134773C939081D2
:10154000432F492794233083992399F0943019F439
:10155000EB0188810AC0903119F4EB01898109C03F
:10156000903219F4EB018A8104C0903411F4EB013C
:101570008B814091E4025091E502EA0198819F77C6
:1015800098834091D6025091D702EA0198819068E1
:101590009883AFCF4091E4025091E502EA0198812F
:1015A000916098834091D6025091D702EA019881C8
:1015B0009E7F98834091E2025091E302EA013881D4
:1015C000347711963C9311979181432F49279423A7
:1015D0003183992399F0943019F4EB018C810AC07E
:1015E000903119F4EB018D8109C0903219F4EB01AF
:1015F0008E8104C0903411F4EB018F814091E4029C
:101600005091E502EA0198819E7F98834091D6022D
:101610005091D702EA019881916098836ACF4091F6
:10162000E4025091E502EA0198819260988340912A
:10163000D6025091D702EA0198819D7F988340910C
:10164000E2025091E302EA013881347712963C932A
:1016500012979281432F492794233283992399F03B
:10166000943019F4EB0188850AC0903119F4EB012C
:10167000898509C0903219F4EB018A8504C0903441
:1016800011F4EB018B854091E4025091E502EA01EF
:1016900098819D7F98834091D6025091D702EA01AC
:1016A00098819260988325CFE091E402F091E50261
:1016B000908198609083E091D602F091D70290815A
:1016C000977F9083E091E202F091E30220812477FA
:1016D0002093DC02EDEDF2E09381322F3927932342
:1016E0002383992399F0943019F480910C010AC056
:1016F000903119F480910D0109C0903219F4809154
:101700000E0104C0903411F480910F01E091E402C5
:10171000F091E5029081977F9083E091D602F0915D
:10172000D70290819860908303C0243008F4E1CE02
:10173000DF91CF9108950E946E0A882309F445C075
:1017400080930603843499F4E091E102F0E0EA51D9
:10175000FD4F10821092E102E6E0F3E08FEB91E0A2
:101760009283818386EE92E0948383830895E0914F
:10177000E102E630B8F4AE2FB0E0AA51BD4F8C9331
:10178000EF5FE093E102F0E0EA51FD4F1082E6E006
:10179000F3E086EE92E0928381838FEB91E0948375
:1017A00083830895E6EEF2E0808381E08093E10296
:1017B0001182A6E0B3E01296FC93EE9311978FEBA3
:1017C00091E014969C938E9313970895CF93DF9393
:1017D000CDB7DEB728970FB6F894DEBF0FBECDBFEA
:1017E00020E2209306039093E5028093E402709335
:1017F000E3026093E2025093D7024093D6022BE8B3
:10180000FC012083E091D602F091D70284E7808327
:10181000A9EDB2E08C93EDEDF2E0808311968C930C
:101820001197818312968C931297828313968C93CF
:1018300083831092E102E091D602F091D702808179
:101840008B6880832EE63AE03A8329834BE95BE09C
:101850005C834B8361E47AE07E836D8381E69AE06A
:1018600098878F833A815C817E81988528960FB610
:10187000F894DEBF0FBECDBFDF91CF910895E09108
:10188000F702F091F80280818B7F8083E091F7026C
:10189000F091F80280818460808308950F931F93F4
:1018A000CF93C82F8B01E091F702F091F80280816D
:1018B0008D7F8083E091F402F091F5028081806F4A
:1018C0008083672B41F0E091F702F091F80280816C
:1018D0008160808307C0E091F702F091F802808177
:1018E0008E7F808380E090E00E943F0CCC2344F404
:1018F000E091F702F091F80280818068808307C050
:10190000E091F702F091F80280818F778083C6FF23
:1019100008C0E091F702F091F80280818064808332
:1019200007C0E091F702F091F80280818F7B8083FD
:10193000C5FF08C0E091F702F091F8028081806253
:10194000808307C0E091F702F091F80280818F7DDB
:101950008083C4FF08C0E091F702F091F802808113
:101960008061808307C0E091F702F091F8028081E6
:101970008F7E8083012B41F0E091F702F091F80215
:1019800080818160808307C0E091F702F091F802C6
:1019900080818E7F808380E090E00E943F0CC3FFB7
:1019A00008C0E091F702F091F8028081806880839E
:1019B00007C0E091F702F091F80280818F77808371
:1019C000C2FF08C0E091F702F091F80280818064C4
:1019D000808307C0E091F702F091F80280818F7B4D
:1019E0008083C1FF08C0E091F702F091F802808186
:1019F0008062808307C0E091F702F091F802808155
:101A00008F7D8083C0FF08C0E091F702F091F8025B
:101A100080818061808307C0E091F702F091F80235
:101A200080818F7E8083E091F702F091F8028081BF
:101A30008B7F8083CF911F910F91089560E070E0BC
:101A400081E00E944E0C87EE97E10197F1F700C00C
:101A5000000008950F931F93CF938C01E091F4023F
:101A6000F091F50280818F708083E091F702F09110
:101A7000F8028081806F8083E091F702F091F80294
:101A80008081826080830115110541F0E091F702A9
:101A9000F091F80280818160808307C0E091F702B5
:101AA000F091F80280818E7F808380E090E00E9438
:101AB0003F0CE091ED02F091EE028081882314F05A
:101AC000C0E001C0C0E8808186FF02C0C06401C0E0
:101AD000CF7B808185FF02C0C06201C0CF7D808145
:101AE00084FF02C0C06101C0CF7E012B41F0E091B4
:101AF000F702F091F80280818160808307C0E09155
:101B0000F702F091F80280818E7F808380E090E080
:101B10000E943F0CE091ED02F091EE02808188235B
:101B20001CF48C2F886002C08C2F877F908196FFD9
:101B300002C0846001C08B7F908195FF02C08260EB
:101B400001C08D7F908194FF02C0816001C08E7FB3
:101B5000E091F702F091F80290819B7F9083CF9102
:101B60001F910F91089580E090E00E942A0D882334
:101B700054F480E090E00E942A0D882324F480E051
:101B800090E00E942A0D089561E070E00E944E0CE2
:101B90000E94B30D0895CF93DF93EC0188818823D1
:101BA00031F021960E94C40D89918111FBCFDF9104
:101BB000CF9108950F931F93CF93DF93FC01D62FFE
:101BC0008081882351F08F010F5F1F4F611109C081
:101BD00017C0CF5FDC1730F401C0C0E0CD1750F064
:101BE0000FC0C1E00E94C40DF80181918F018111E5
:101BF000F0CFF4CF80E20E94C40DCF5FCD17D0F3B9
:101C0000DF91CF911F910F910895CF93C82F882313
:101C100029F080E20E94C40DC150D9F7CF910895F8
:101C2000262F8130910581F030F082309105A9F0A6
:101C30000397E1F0089560E070E080E8820F0E9471
:101C40004E0C0E94B30D089560E070E080EC820FAE
:101C50000E944E0C0E94B30D089560E070E084E98C
:101C6000820F0E944E0C0E94B30D089560E070E058
:101C700084ED820F0E944E0C0E94B30D0895E091F6
:101C8000F402F091F50287E08083E091F702F09191
:101C9000F80288E080832FEF83EF91E021508040AD
:101CA0009040E1F700C0000060E070E088E30E942F
:101CB0004E0C20ED2A95F1F760E070E088E30E9479
:101CC0004E0C80ED8A95F1F760E070E088E30E94A9
:101CD0004E0C90ED9A95F1F760E070E088E20E947A
:101CE0004E0C25EC2A95F1F7000060E070E088E2E8
:101CF0000E944E0C85EC8A95F1F7000060E070E0E0
:101D000088E20E944E0C0E94B30D60E070E088E211
:101D10000E944E0C0E94B30D60E070E08CE00E94C7
:101D20004E0C0E94B30D60E070E08CE00E944E0CFF
:101D30000E94B30D60E070E081E00E944E0C0E94B2
:101D4000B30D60E070E081E00E944E0C0E94B30D84
:101D500060E070E086E00E944E0C0E94B30D60E0EF
:101D600070E086E00E944E0C0E94B30D60E070E0CF
:101D700080E090E00E94100E0895CF93DF93EC0175
:101D80007093F5026093F4025093EE024093ED02DB
:101D90003093F8022093F702FB011082E091F702E2
:101DA000F091F8028FEF8083E091ED02F091EE0266
:101DB000808188708093F6020E943F0E8EE49CE042
:101DC000998388838AE29DE09B838A8383EB9DE0ED
:101DD0009D838C8384EC9DE09F838E8380E29FE0D3
:101DE000998788878BEC9DE09B878A878AED9DE0A9
:101DF0009D878C8785E09EE09F878E878EE19DE0A2
:101E0000998B888B80E19EE09B8B8A8B8EE09FE094
:101E10009D8B8C8BCE01DF91CF910895CF93E09174
:101E2000ED02F091EE02C081C8708091F6028C271D
:101E30008C2311F00E943F0EC093F602CF910895BB
:101E4000CF9381E090E00E942A0DC82F0E94B30D2D
:101E50008C2FCF9108951F920F920FB60F921124DD
:101E60008F939F93EF93FF938091C0009091C10057
:101E7000887180934602E0914802EF5FEF73809192
:101E80004702E81304C082E08093460212C090919A
:101E9000C600E093480280914602882331F0F0E0CA
:101EA000E55BFD4F88E5808304C0F0E0E55BFD4F16
:101EB0009083FF91EF919F918F910F900FBE0F90A4
:101EC0001F9018951F920F920FB60F9211248F93A7
:101ED0009F93EF93FF93E0914902F0E0E557FD4FA8
:101EE00080818093C6001082809149028F5F8F733A
:101EF000809349029091490280914A02981305C04B
:101F0000E1ECF0E080818F7D8083FF91EF919F91E4
:101F10008F910F900FBE0F901F9018951F920F92E8
:101F20000FB60F9211248F939F93EF93FF9380919D
:101F3000C8009091C90088718093C101E091C301EC
:101F4000EF5FEF738091C201E81304C082E08093D9
:101F5000C10112C09091CE00E093C3018091C101F4
:101F6000882331F0F0E0EA53FE4F88E5808304C017
:101F7000F0E0EA53FE4F9083FF91EF919F918F9194
:101F80000F900FBE0F901F9018951F920F920FB6D3
:101F90000F9211248F939F93EF93FF93E091C401CD
:101FA0008091C4018F5F8F738093C401F0E0EA5F7A
:101FB000FD4F80818093CE009091C4018091C50136
:101FC000981305C0E9ECF0E080818F7D8083FF915C
:101FD000EF919F918F910F900FBE0F901F901895CA
:101FE00081E38AB980E38BB90895CF93DF93CDB7AE
:101FF000DEB7CF5AD1090FB6F894DEBF0FBECDBF02
:102000000E94F00FCE0101960E94F20143E064E0CD
:10201000CE010B960E949E022B853C85C255DF4F58
:1020200039832883CE5AD0408F859889CB55DF4F8E
:1020300099838883C55AD040EB89FC89C655DF4F08
:10204000F983E883CA5AD0402D893E89C455DF4FB1
:1020500039832883CC5AD04042E250E060E270E0FD
:1020600081E290E00E94E60B2F8B388F28E230E06F
:1020700046E250E067E270E0CE014F960E94BD0E4E
:102080000BA11CA189A59AA5C356DF4F998388830C
:10209000CD59D040CBA4DCA4ADA4BEA449A85AA875
:1020A000CE01C5960E94970829966EAC7FAC299701
:1020B000CE0183589F4F0E94B603CD57DF4F8880D3
:1020C0009980C358D040C957DF4FE881F981C7587C
:1020D000D040CD55DF4FF983E883C35AD04060E04C
:1020E00070E080E090E0F20109956CE084E191E01D
:1020F000F6010995F801099580E090E0F401099551
:102100007C0184E090E0F4010995C156DF4F99838A
:102110008883CF59D04088E090E0F4010995C955F3
:10212000DF4F99838883C75AD040909313018093DF
:1021300012018CE090E0F40109951C0190931101CB
:1021400080931001C156DF4F28813981CF59D0408B
:1021500028303105C9F020F42130310571F029C053
:10216000C156DF4F88819981CF59D0408034910585
:1021700091F081159140B1F01CC0F1E0C755DF4FDF
:10218000F883C95AD0401AC022E0C755DF4F2883D0
:10219000C95AD04013C033E0C755DF4F3883C95AFE
:1021A000D0400CC084E0C755DF4F8883C95AD04067
:1021B00005C0C755DF4F1882C95AD04081E0C255CB
:1021C000DF4FE881F981CE5AD0400995C701CB5540
:1021D000DF4FE881F981C55AD0400995C156DF4FDC
:1021E00088819981CF59D040C655DF4FE881F98168
:1021F000CA5AD0400995CF55DF4FF982E882C15ABB
:10220000D04088248394E981FA810995EF89F88D7B
:102210000995982E882309F42BC3F801099560E0ED
:1022200070E081E090E0F20109958EE191E0C35603
:10223000DF4FE881F981CD59D0400995EDA1FEA18C
:10224000892D099583E0F5010995F801099560E06C
:1022500070E080E090E0F20109956CE084E291E0AA
:10226000F6010995F8010995F4E49F1258C02AE097
:1022700030E0309313012093120180E49FE19093AA
:10228000110180931001C455DF4FE881F981CC5AC8
:10229000D0400995882DC255DF4FE881F981CE5A8B
:1022A000D040099580E098E0CB55DF4FE881F98177
:1022B000C55AD040099580E094E0C655DF4FE881CB
:1022C000F981CA5AD04009952AE030E0C955DF4F5C
:1022D00039832883C75AD040C755DF4F1882C95A5F
:1022E000D040C156DF4F1882CF59D04034E0C0569D
:1022F000DF4F3883C05AD04080E098E0CF55DF4FA1
:1023000099838883C15AD040E12C6894FF24F3F864
:102310000F2EF0E42F2EFFE13F2EF02D32C09AE277
:10232000991216C0E1E02E1A3108809110019091A7
:1023300011018215930538F41092110110921001C9
:10234000212C312C39C0309211012092100134C05F
:10235000F0E39F1216C02AE0221A31088091100182
:10236000909111018215930538F410921101109289
:102370001001212C312C3BC0309211012092100110
:1023800036C037E3931218C08FEF281A380A8091AD
:102390001001909111012816390648F49FEF90938F
:1023A00010019093110122242A94322C53C03092B0
:1023B0001101209210014EC0E8E39E1218C0FAE00D
:1023C0002F0E311C809110019091110128163906B1
:1023D00048F42FEF209310012093110122242A9416
:1023E000322C6EC0309211012092100169C033E28C
:1023F000931230C0C955DF4F88819981C75AD040A8
:102400000197C955DF4F99838883C75AD04080917F
:10241000120190911301C955DF4FE881F981C75A24
:10242000D0408E179F0758F410921301109212019A
:10243000C955DF4F19821882C75AD0406DC0C9559F
:10244000DF4F28813981C75AD04030931301209340
:10245000120162C039E3931233C0C955DF4F88813E
:102460009981C75AD0400196C955DF4F9983888317
:10247000C75AD0408091120190911301C955DF4F86
:10248000E881F981C75AD040E817F90770F4FFEFE7
:10249000F0931201F09313012FEF3FEFC955DF4F77
:1024A00039832883C75AD0405AC0C955DF4F888125
:1024B0009981C75AD04090931301809312014FC065
:1024C00094E3991229C0CF55DF4F88819981C15A71
:1024D000D0400197E816F90628F08330910540F0C6
:1024E0007C010BC00F2EF3E0EF2EF02DF12C05C078
:1024F0000F2EF3E0EF2EF02DF12CC701CB55DF4F5F
:10250000E881F981C55AD0400995CF55DF4FF9824E
:10251000E882C15AD04047C0F5E39F1220C0CF5592
:10252000DF4F88819981C15AD0400A97E816F90691
:1025300010F07C0105C00F2EF3E0EF2EF02DF12CF2
:10254000C701CB55DF4FE881F981C55AD0400995C5
:10255000CF55DF4FF982E882C15AD04048C0F6E338
:102560009F1221C0CF55DF4F88819981C15AD04039
:1025700084569109E816F90610F07C0105C00F2E6B
:10258000F3E0EF2EF02DF12CC701CB55DF4FE881A2
:10259000F981C55AD0400995CF55DF4FF982E882BD
:1025A000C15AD04046C0F2E49F1221C0CF55DF4F40
:1025B00088819981C15AD040885E9340E816F90617
:1025C00010F07C0105C00F2EF3E0EF2EF02DF12C62
:1025D000C701CB55DF4FE881F981C55AD040099535
:1025E000CF55DF4FF982E882C15AD04044C0F1E3B1
:1025F0009F121FC0CF55DF4F88819981C15AD040AB
:1026000001968E159F0510F07C0104C0EE24EA941B
:10261000FF24FA94C701CB55DF4FE881F981C55AF1
:10262000D0400995CF55DF4FF982E882C15AD0409A
:1026300045C0F2E39F121FC0CF55DF4F88819981BB
:10264000C15AD0400A968E159F0510F07C0104C037
:10265000EE24EA94FF24FA94C701CB55DF4FE881BA
:10266000F981C55AD0400995CF55DF4FF982E882EC
:10267000C15AD04046C0F3E39F1220C0CF55DF4F70
:1026800088819981C15AD0408C599F4F8E159F05E2
:1026900010F07C0104C0EE24EA94FF24FA94C701F0
:1026A000CB55DF4FE881F981C55AD0400995CF5508
:1026B000DF4FF982E882C15AD040A7C0F1E49F12EF
:1026C00020C0CF55DF4F88819981C15AD0408851B1
:1026D0009C4F8E159F0510F07C0104C0EE24EA94F7
:1026E000FF24FA94C701CB55DF4FE881F981C55A21
:1026F000D0400995CF55DF4FF982E882C15AD040CA
:1027000084C0F3E49F1281C0C755DF4F2881C95AA6
:10271000D040223001F130F4222309F455C0213099
:1027200059F04BC0C755DF4F3881C95AD0403330BC
:1027300009F1343089F141C082E0C755DF4F888309
:10274000C95AD040E8E0F0E0C156DF4FF983E88392
:10275000CF59D04046C0F3E0C755DF4FF883C95A80
:10276000D04020E430E0C156DF4F39832883CF5971
:10277000D04037C034E0C755DF4F3883C95AD04006
:10278000C156DF4F1882CF59D04081E0C056DF4F8D
:102790008883C05AD04025C0C755DF4F1882C95A18
:1027A000D040C156DF4F1882CF59D04094E0C05678
:1027B000DF4F9883C05AD04014C0E4E0C755DF4FC4
:1027C000E883C95AD0400DC0C755DF4F8882C95A27
:1027D000D04021E030E0C156DF4F39832883CF5904
:1027E000D040C455DF4FE881F981CC5AD0400995DB
:1027F000C156DF4F88819981CF59D040C655DF4FF0
:10280000E881F981CA5AD0400995B70180E090E08B
:10281000CD55DF4FE881F981C35AD0400995C156A3
:10282000DF4F68817981CF59D04084E090E0CD5569
:10283000DF4FE881F981C35AD040099560911201B8
:102840007091130188E090E0CD55DF4FE881F98168
:10285000C35AD040099560911001709111018CE02C
:1028600090E0CD55DF4FE881F981C35AD0400995FA
:10287000B70180E090E0F3010995C556DF4F9983D9
:102880008883CB59D04060E070E082E090E0F201B4
:10289000099565E0C556DF4F88819981CB59D040B5
:1028A000F6010995F8010995882DF50109958EE243
:1028B00091E0C356DF4FE881F981CD59D0400995A9
:1028C000882DF5010995C156DF4F28813981CF59EF
:1028D000D040B90180E090E0F301099565E0F60190
:1028E0000995F80109956091100170911101769593
:1028F000679580E090E0F3010995C556DF4F998315
:102900008883CB59D04060E070E083E090E0F20132
:10291000099565E0C556DF4F88819981CB59D04034
:10292000F6010995F8010995882DF501099581E3CE
:1029300091E0C356DF4FE881F981CD59D040099528
:10294000882DF5010995609112017091130176951A
:10295000679580E090E0F301099565E0F60109953F
:10296000F801099550CC1F920F920FB60F921124C7
:102970002F933F934F935F938F939F938091CB02BD
:102980009091CC0201969093CC028093CB0220913F
:10299000CB023091CC0280911201909113018217E9
:1029A000930708F45C982091CB023091CC024091BF
:1029B0001201509113018091100190911101840F27
:1029C000951F8217930728F45C9A1092CC021092FC
:1029D000CB029F918F915F914F913F912F910F90DB
:1029E0000FBE0F901F9018955058BB27AA270E9422
:1029F0000C150C9414160E94061638F00E940D1641
:102A000020F039F49F3F19F426F40C9403160EF4C9
:102A1000E095E7FB0C94FD15E92F0E94251658F36D
:102A2000BA17620773078407950720F079F4A6F5B3
:102A30000C9447160EF4E0950B2EBA2FA02D0B0127
:102A4000B90190010C01CA01A0011124FF27591BF3
:102A500099F0593F50F4503E68F11A16F040A22FF9
:102A6000232F342F4427585FF3CF4695379527956A
:102A7000A795F0405395C9F77EF41F16BA0B620B69
:102A8000730B840BBAF09150A1F0FF0FBB1F661FB0
:102A9000771F881FC2F70EC0BA0F621F731F841FF3
:102AA00048F4879577956795B795F7959E3F08F019
:102AB000B0CF9395880F08F09927EE0F97958795DB
:102AC00008950E94D91508F481E008950E946D15BB
:102AD0006894B1110C94481608950E942D1688F040
:102AE0009F5798F0B92F9927B751B0F0E1F0660FD2
:102AF000771F881F991F1AF0BA95C9F714C0B13013
:102B000091F00E944716B1E008950C944716672F84
:102B1000782F8827B85F39F0B93FCCF38695779541
:102B20006795B395D9F73EF490958095709561952A
:102B30007F4F8F4F9F4F0895E89409C097FB3EF455
:102B400090958095709561957F4F8F4F9F4F9923FA
:102B5000A9F0F92F96E9BB279395F6958795779578
:102B60006795B795F111F8CFFAF4BB0F11F460FF38
:102B70001BC06F5F7F4F8F4F9F4F16C0882311F090
:102B800096E911C0772321F09EE8872F762F05C0A4
:102B9000662371F096E8862F70E060E02AF09A953F
:102BA000660F771F881FDAF7880F9695879597F934
:102BB0000895990F0008550FAA0BE0E8FEEF1616CE
:102BC0001706E807F907C0F012161306E407F50721
:102BD00098F0621B730B840B950B39F40A2661F095
:102BE000232B242B252B21F408950A2609F4A14038
:102BF000A6958FEF811D811D089597F99F6780E845
:102C000070E060E008959FEF80EC089500240A943E
:102C10001616170618060906089500240A941216B7
:102C20001306140605060895092E0394000C11F4EA
:102C3000882352F0BB0F40F4BF2B11F460FF04C097
:102C40006F5F7F4F8F4F9F4F089557FD9058440FF0
:102C5000551F59F05F3F71F04795880F97FB991FFB
:102C600061F09F3F79F087950895121613061406B8
:102C7000551FF2CF4695F1DF08C016161706180645
:102C8000991FF1CF86957105610508940895E89420
:102C9000BB2766277727CB0197F908950E94611615
:102CA0000C9414160E94061638F00E940D1620F09F
:102CB000952311F00C94FD150C94031611240C941B
:102CC00048160E94251670F3959FC1F3950F50E0AA
:102CD000551F629FF001729FBB27F00DB11D639FCE
:102CE000AA27F00DB11DAA1F649F6627B00DA11D74
:102CF000661F829F2227B00DA11D621F739FB00D1A
:102D0000A11D621F839FA00D611D221F749F332789
:102D1000A00D611D231F849F600D211D822F762F22
:102D20006A2F11249F5750409AF0F1F088234AF0FF
:102D3000EE0FFF1FBB1F661F771F881F915050406B
:102D4000A9F79E3F510580F00C94FD150C94481690
:102D50005F3FE4F3983ED4F3869577956795B795F2
:102D6000F795E7959F5FC1F7FE2B880F911D96950C
:102D7000879597F90895FA01EE0FFF1F3096210508
:102D80003105A1F16115710561F48038BFE39B073E
:102D900049F168949038810561F08038BFEF9B0756
:102DA00041F099234AF5FF3FE1053105210519F16D
:102DB000E8940894E795D901AA2329F4AB2FBE2FF4
:102DC000F85FD0F310C0FF5F70F4A695E0F7F73915
:102DD00050F019F0FF3A38F49F779F930DD00F9081
:102DE00007FC9058089546F00C94031660E070E0DC
:102DF00080E89FE308954FE79F775F934F933F935A
:102E00002F930E94B6172F913F914F915F910E948F
:102E10004E160C94131729F416F00C94FD150C940F
:102E200047160C9403160E942D16A8F39638A0F7A7
:102E300007F80F92E8942BE33AEA48EB5FE70E9429
:102E400064160F920F920F924DB75EB70F920E94C9
:102E5000FE17ECEAF0E00E9445174F915F91EF9169
:102E6000FF91E595EE1FFF1F49F0FE57E0684427EC
:102E7000EE0F441FFA95E1F74195550B0E94781724
:102E80000F9007FE0C946C170895DF93CF931F9358
:102E90000F93FF92EF92DF927B018C01689406C042
:102EA000DA2EEF010E946116FE01E894A5912591AA
:102EB000359145915591A6F3EF010E940C15FE0145
:102EC0009701A801DA9469F7DF90EF90FF900F91D6
:102ED0001F91CF91DF9108959B01AC0160E070E0FC
:102EE00080E89FE30C9432180C94FD150C94A41800
:102EF0000E942D16D8F39923C9F3940F511DA3F303
:102F00009150504094F059F0882332F0660F771FAB
:102F1000881F91505040C1F79E3F51052CF7880FF4
:102F2000911D9695879597F908955F3FACF0983E6F
:102F30009CF0BB27869577956795B79508F4B160A7
:102F40009395C1F7BB0F58F711F460FFE8CF6F5F9F
:102F50007F4F8F4F9F4FE3CF0C94481616F00C9481
:102F6000A4180C94031668940C94FD150E942D1659
:102F7000A8F39923C1F3AEF3DF93CF931F930F937D
:102F8000FF92C92FDD2788232AF02197660F771F2C
:102F9000881FDAF720E030E040E85FEB9FE38839F4
:102FA00020F0803E38F021968F770E94F514E4EDF2
:102FB000F0E004C00E94F514E1E0F1E00E94451742
:102FC0008B01BE01EC01FB2E6F5771097595771FC0
:102FD000880B990B0E949E1528E132E741E35FE3DD
:102FE0000E946116AF2D9801AE01FF900F911F91C5
:102FF000CF91DF910E940C150C941416FA01DC019C
:10300000AA0FBB1F9B01AC01BF5728F4222733270F
:103010004427507820C0B75190F4AB2F0024469538
:1030200037952795011CA395D2F3002071F0220F4C
:10303000331F441FB395DAF30ED00C94F4146130AF
:103040007105A0E88A07B94630F49B01AC016627F8
:10305000772788279078309621F020833183428328
:10306000538308950E9446180C9414160E940D165E
:1030700058F00E94061640F029F45F3F29F00C94A6
:10308000FD1551110C9448160C9403160E94251638
:1030900068F39923B1F3552391F3951B550BBB2787
:1030A000AA2762177307840738F09F5F5F4F220FCC
:1030B000331F441FAA1FA9F335D00E2E3AF0E0E8C3
:1030C00032D091505040E695001CCAF72BD0FE2F0D
:1030D00029D0660F771F881FBB1F261737074807A1
:1030E000AB07B0E809F0BB0B802DBF01FF27935859
:1030F0005F4F3AF09E3F510578F00C94FD150C940B
:1031000048165F3FE4F3983ED4F38695779567952C
:10311000B795F7959F5FC9F7880F911D969587958D
:1031200097F90895E1E0660F771F881FBB1F6217AC
:1031300073078407BA0720F0621B730B840BBA0B6A
:10314000EE1F88F7E09508959F3F31F0915020F4ED
:10315000879577956795B795880F911D9695879573
:1031600097F90895DB018F939F930E940A19BF91ED
:10317000AF91A29F800D911DA39F900DB29F900DC6
:103180001124089597FB072E16F4009407D077FDBD
:1031900009D00E94151907FC05D03EF49095819541
:1031A0009F4F0895709561957F4F0895052E97FB69
:1031B0001EF400940E94ED1857FD07D00E942919B3
:1031C00007FC03D04EF40C94ED18509540953095C3
:1031D00021953F4F4F4F5F4F089590958095709583
:1031E00061957F4F8F4F9F4F0895EE0FFF1F059002
:1031F000F491E02D0994A29FB001B39FC001A39F59
:10320000700D811D1124911DB29F700D811D11241F
:10321000911D08950E94FB18A59F900DB49F900DDD
:10322000A49F800D911D11240895AA1BBB1B51E181
:1032300007C0AA1FBB1FA617B70710F0A61BB70B26
:10324000881F991F5A95A9F780959095BC01CD01CB
:103250000895A1E21A2EAA1BBB1BFD010DC0AA1FD7
:10326000BB1FEE1FFF1FA217B307E407F50720F0EF
:10327000A21BB30BE40BF50B661F771F881F991F6A
:103280001A9469F760957095809590959B01AC01B3
:10329000BD01CF010895AEE0B0E0E1E5F9E10C94A5
:1032A0008D1C8C01FA0186E08C831A83098377FFD9
:1032B00002C060E070E8CB0101979E838D83A90175
:1032C000BF01CE0101960E9477194D815E8157FDA5
:1032D0000AC02F813885421753070CF49A01F80170
:1032E000E20FF31F10822E96E4E00C94A91CABE0D1
:1032F000B0E0EDE7F9E10C947F1C6C017B018A01E1
:10330000FC0117821682838181FFCCC1CE01019618
:103310003C01F6019381F70193FD859193FF819123
:103320007F01882309F4BAC1853239F493FD859170
:1033300093FF81917F01853229F4B60190E00E94CC
:103340006E1BE7CF912C212C312CFFE1F315D8F027
:103350008B3279F038F4803279F08332A1F4232D66
:1033600020611DC08D3261F0803369F4232D21600E
:1033700016C0832D8260382EE32DE4603E2E2AC0D5
:10338000F32DF8601DC037FC2DC020ED280F2A302A
:1033900040F08E32B9F436FC81C1232D2064322EE8
:1033A00019C036FE06C08AE0989E200D1124922E88
:1033B00011C0EAE02E9E200D1124222EF32DF06282
:1033C0003F2E08C08C3621F4832D8068382E02C031
:1033D000883641F4F70193FD859193FF81917F0138
:1033E0008111B3CF982F9F7D9554933028F40C5FB3
:1033F0001F4F9FE399830DC0833631F0833771F0FF
:10340000833509F059C021C0F801808189830E5F9E
:103410001F4F88248394912C530113C02801F2E09C
:103420004F0E511CF801A080B18036FE03C0692DFB
:1034300070E002C06FEF7FEFC5010E94631B4C017B
:103440008201F32DFF773F2E16C0280122E0420EA5
:10345000511CF801A080B18036FE03C0692D70E0D8
:1034600002C06FEF7FEFC5010E94581B4C01F32D86
:10347000F0683F2E820133FC1BC0822D90E088163D
:103480009906B0F4B60180E290E00E946E1B2A9487
:10349000F4CFF50137FC859137FE81915F01B601CC
:1034A00090E00E946E1B21102A9421E0821A91085C
:1034B0008114910471F7E8C0843611F0893641F522
:1034C000F80137FE07C060817181828193810C5FB2
:1034D0001F4F08C060817181072E000C880B990B6B
:1034E0000E5F1F4FF32DFF763F2E97FF09C090957B
:1034F0008095709561957F4F8F4F9F4FF0683F2E5D
:103500002AE030E0A3010E94AA1B882E861845C03D
:10351000853731F4232D2F7EB22E2AE030E025C0EE
:10352000932D997FB92E8F36C1F018F4883579F034
:10353000B5C0803719F0883721F0B0C0E92FE061BD
:10354000BE2EB4FE0DC0FB2DF460BF2E09C034FEAC
:103550000AC0292F2660B22E06C028E030E005C040
:1035600020E130E002C020E132E0F801B7FE07C000
:1035700060817181828193810C5F1F4F06C06081E1
:10358000718180E090E00E5F1F4FA3010E94AA1B93
:10359000882E8618FB2DFF773F2E36FE0DC0232D7B
:1035A0002E7FA22E891458F434FE0BC032FC09C0C1
:1035B000832D8E7EA82E05C0B82CA32C03C0B82C5A
:1035C00001C0B92CA4FE0FC0FE01E80DF11D8081E1
:1035D000803321F49A2D997EA92E09C0A2FE06C03F
:1035E000B394B39404C08A2D867809F0B394A3FCF5
:1035F00011C0A0FE06C0B21488F4280C922C9B18AF
:103600000EC0B21460F4B60180E290E00E946E1B1E
:10361000B394F7CFB21418F42B1802C0982C212CB5
:10362000A4FE10C0B60180E390E00E946E1BA2FED3
:1036300017C0A1FC03C088E790E002C088E590E0D5
:10364000B6010CC08A2D867859F0A1FE02C08BE22B
:1036500001C080E2A7FC8DE2B60190E00E946E1BE3
:10366000891438F4B60180E390E00E946E1B9A94AE
:10367000F7CF8A94F301E80DF11D8081B60190E047
:103680000E946E1B8110F5CF222009F442CEB601B4
:1036900080E290E00E946E1B2A94F6CFF6018681AC
:1036A000978102C08FEF9FEF2B96E2E10C949B1C59
:1036B000FC010590615070400110D8F780959095FD
:1036C0008E0F9F1F0895FC01615070400190011002
:1036D000D8F7809590958E0F9F1F08950F931F9395
:1036E000CF93DF93FB01238121FD03C08FEF9FEF79
:1036F0002CC022FF16C04681578124813581421794
:10370000530744F4A081B1819D012F5F3F4F318366
:1037100020838C93268137812F5F3F4F3783268309
:1037200014C08B01EC01FB010084F185E02D0995AB
:10373000892BE1F6D80116968D919C9117970196E9
:1037400017969C938E931697CE01DF91CF911F9180
:103750000F910895FA01AA27283051F1203181F103
:10376000E8946F936E7F6E5F7F4F8F4F9F4FAF4F89
:10377000B1E03ED0B4E03CD0670F781F891F9A1F9C
:10378000A11D680F791F8A1F911DA11D6A0F711D50
:10379000811D911DA11D20D009F468943F912AE05C
:1037A000269F11243019305D3193DEF6CF01089544
:1037B000462F4770405D4193B3E00FD0C9F7F6CF75
:1037C000462F4F70405D4A3318F0495D31FD40523D
:1037D000419302D0A9F7EACFB4E0A69597958795D3
:1037E00077956795BA95C9F70097610571050895B2
:1037F0009B01AC010A2E069457954795379527955E
:10380000BA95C9F7620F731F841F951FA01D0895F5
:10381000DC01CB01FC01F999FECF06C0F2BDE1BD90
:10382000F89A319600B40D9241505040B8F708957F
:10383000F999FECF92BD81BDF89A992780B5089578
:10384000A8E1B0E042E050E00C940A1CDC01A40FB7
:10385000B51F4150504048F0CB01840F951F2E9169
:103860000E94371C41505040D0F70895262FF999F7
:10387000FECF92BD81BDF89A019700B4021639F0CF
:103880001FBA20BD0FB6F894FA9AF99A0FBE0895A0
:103890000396272F0E94371C0E94361C252F0E945A
:1038A000371C242F0C94371C0196272F0E94371C9D
:1038B0000C94361CDC01CB0103C02D910E94651CC9
:1038C00041505040D0F70895262FF999FECF1FBAE6
:1038D00092BD81BD20BD0FB6F894FA9AF99A0FBE39
:1038E00001960895242F0E94651C252F0E94651CB7
:1038F0000C947A1C0E94641C272F0C94651C2F9238
:103900003F924F925F926F927F928F929F92AF926F
:10391000BF92CF92DF92EF92FF920F931F93CF93BC
:10392000DF93CDB7DEB7CA1BDB0B0FB6F894DEBF53
:103930000FBECDBF09942A88398848885F846E8479
:103940007D848C849B84AA84B984C884DF80EE80C3
:10395000FD800C811B81AA81B981CE0FD11D0FB6CC
:10396000F894DEBF0FBECDBFED010895F894FFCFF0
:103970003132334134353642373839432A302344E3
:10398000401F0A00426F6D206469612021004B6571
:10399000793A200052756E6E696E6720210061745D
:0639A00000616E640000EE
:00000001FF
