:10000000DBC00000F8C00000F6C00000F4C0000033
:10001000F2C00000F0C00000EEC00000ECC0000024
:10002000EAC000000C94A437E6C00000E4C0000061
:10003000E2C00000E0C00000DEC000000C943D37CC
:10004000DAC00000D8C000000C9426190C945E1988
:10005000D2C0000052C40000CEC00000CCC00000DE
:10006000CAC00000C8C00000C6C00000C4C0000074
:10007000C2C00000C0C000000C9479190C94B119E2
:10008000BAC00000B8C00000B6C0000045056A054F
:100090008F05B405D905170655069306E106E9064E
:1000A000F106F90601070907110719073107420789
:1000B00053076407750786079707A807C20FCA0F7B
:1000C000D20FDA0FE20FF30F041015101D102E10CF
:1000D0003F105010581069107A10B110BF10CD1099
:1000E000DB10E610F4100211101127113511431125
:1000F0005A11E012E612EC12F212F81201130A136E
:100100001313191322132B1334133A1343134C13E1
:100110006C13781383138F139A13A613B113BD13A3
:10012000C813D413DF13EB13302A172C8A2DBD30DC
:1001300062334234523607634236B79BD8A71A3926
:10014000685618AEBAAB558C1D3CB7CC5763BD6D25
:10015000EDFD753EF6177231BF000000803F0800CC
:100160000000BE922449123EABAAAA2ABECDCCCC36
:100170004C3E00000080BEABAAAAAA3E00000000D0
:10018000BF000000803F0000000000084178D3BBA2
:100190004387D1133D190E3CC3BD4282AD2B3E684F
:1001A000EC8276BED98FE1A93E4C80EFFFBE01C440
:1001B000FF7F3F000000000011241FBECFEFD0E101
:1001C000DEBFCDBF18E0A0E0B1E0EEEEFDE700E05D
:1001D0000BBF02C007900D92A43DB107D9F72BE0E9
:1001E000A4EDB8E001C01D92AF3AB207E1F70E945A
:1001F00094270C94F53E04CF882389F0E091C3093D
:10020000F091C409208181E090E00090C50902C00E
:10021000880F991F0A94E2F7822B808311C0E09126
:10022000C309F091C409208181E090E00090C509E4
:1002300002C0880F991F0A94E2F780958223808379
:10024000E091C309F091C409408181E090E09C01F4
:100250000090C70902C0220F331F0A94E2F7242B33
:100260002083E091C309F091C40920810090C7095F
:1002700002C0880F991F0A94E2F780958223808339
:100280000895E091C309F091C409408181E090E0B4
:100290009C010090C60902C0220F331F0A94E2F7A6
:1002A000242B2083E091C309F091C40920810090A0
:1002B000C60902C0880F991F0A94E2F7809582232D
:1002C00080830895FF920F931F93CF93DF93F82EAF
:1002D000C0E0D0E001E010E0C8010C2E02C0880FA1
:1002E000991F0A94E2F78F2187DF2196C830D10544
:1002F00099F7C7DFDF91CF911F910F91FF9008957C
:100300000F93CF93DF9300D000D000D0CDB7DEB7EE
:100310009093C2098093C1097093C4096093C30983
:100320004093C5092093C7090093C609FC01308199
:1003300061E070E0DB0102C0AA0FBB1F2A95E2F763
:10034000FB0102C0EE0FFF1F0A95E2F7EA2B02C085
:10035000660F771F4A95E2F76E2B232F262BFC01A1
:100360002083E091C309F091C409808160956823DE
:1003700060832CEF30E03A83298342E651E05C83CE
:100380004B8361E471E07E836D833A815C817E8181
:1003900080E090E026960FB6F894DEBF0FBECDBF8A
:1003A000DF91CF910F9108958636910509F4F5C03C
:1003B00008F069C08331910509F431C180F58C30B2
:1003C000910509F4F6C0B8F48430910509F4D9C058
:1003D00040F48230910509F4CEC0039709F4CEC0F1
:1003E000C7C08A30910509F4D2C008F0DFC0059774
:1003F00009F4CAC0BDC08F30910509F404C140F4AE
:100400008D30910509F4EDC00E9709F4F6C0B0C027
:100410008131910509F4FDC008F4F8C0FDC08A31AE
:10042000910509F432C1B8F48831910560F4863140
:10043000910508F02AC18431910509F4F3C045976C
:1004400009F4F3C095C08831910509F4F7C04997C4
:1004500009F4F7C08DC08D31910509F4F8C040F45E
:100460008B31910509F4F0C04C9709F40EC180C09E
:100470008F31910509F4EEC008F407C18536910566
:1004800009F488C075C082399105E0F58D38910571
:1004900008F0FBC08C37910509F497C0C8F4893681
:1004A000910509F483C048F48736910509F478C0B2
:1004B0008836910509F477C05BC08A37910509F445
:1004C0007EC008F07FC08937910509F475C050C01F
:1004D0008F37910509F482C048F48D37910509F4EE
:1004E00077C08E37910509F476C042C084389105F3
:1004F00009F47DC08538910509F47CC083389105E5
:10050000B9F572C0823223E0920709F4A9C0A8F4B9
:100510008539910528F48339910508F471C0B5C077
:10052000843D910509F487C0813223E0920709F4E4
:1005300094C0833D9105E1F47BC0863823E09207A7
:1005400009F497C050F4833223E0920709F48BC07A
:100550008538934009F48AC00BC0883823E092079D
:1005600009F48DC008F488C08938934009F48AC022
:1005700088E391E0089580E191E008958DE191E0B4
:10058000089587E291E0089580E391E008958DE376
:1005900091E0089587E491E0089582E591E008955F
:1005A0008DE591E0089588E691E0089583E791E074
:1005B00008958EE791E0089588E891E0089583E931
:1005C00091E008958EE991E0089589EA91E0089517
:1005D00084EB91E008958FEB91E008958AEC91E02F
:1005E000089585ED91E008958FED91E008958AEEEC
:1005F00091E0089585EF91E0089580E092E00895FC
:1006000082E492E008958AE692E0089584E792E019
:1006100008958EE792E008958BE892E0089586E9C8
:1006200092E0089581EA92E008958CEA92E00895BC
:1006300085EB92E008958FEB92E0089587EE92E0CB
:10064000089581EF92E008958DE093E008958AE0A7
:1006500092E0089587E193E008958EEF92E0089587
:1006600088ED92E0089589EC92E008958CE592E09F
:1006700008958DE492E0089583E392E0089584E282
:1006800092E0089585E192E0089580E090E0089579
:10069000E091D009F091D109228126FD02C02064A9
:1006A0002283FC01EE0FFF1FE75EF64F80819181F0
:1006B0000895EF92FF920F931F93CF93DF93CDB7DF
:1006C000DEB7C255D1090FB6F894DEBF0FBECDBF5D
:1006D0006C960FAD6C976D961FAD6D976F96EEACE7
:1006E000FFAC6F97C7018F7199279093C9098093C9
:1006F000C8091092D8081092D7081092D408CE01D9
:1007000001968AD482E5FE013196ACECB9E0019005
:100710000D928A95E1F7E091D009F091D10983819A
:100720008F738383013019F0033051F012C0E091D0
:10073000D009F091D10983818064838341E00AC0AC
:10074000E091D009F091D1098381806C838343E0EB
:1007500001C040E0E091D009F091D10983818F7D03
:1007600083831E141F0494F4DE01A15ABF4F80E05E
:1007700090E02D913D91FC01EE0FFF1FE752F74FE6
:10078000318320830196E816F90699F7ECECF9E03D
:10079000A481B58113968C911397807E13968C93C8
:1007A000A091D708B091D808AA0FBB1FA752B74F86
:1007B0008D919C91A481B5818F71992713969C91FD
:1007C0001397892B13968C93A481B58112968C91E3
:1007D0001297806812968C93A481B58112968C91A1
:1007E0001297806412968C93A481B58112968C9195
:1007F00012978F7D12968C93A481B58112968C915D
:100800001297886012968C930480F581E02D828186
:10081000887F8283103161F140F41430B9F01830D0
:10082000F1F0123009F048C008C0103499F11038C6
:10083000D1F1103209F040C024C0E091D009F0910C
:10084000D10982818160828322E03EC0E091D0099B
:10085000F091D10982818260828324E035C0E091E9
:10086000D009F091D10982818360828328E02CC075
:10087000E091D009F091D10982818460828320E1E6
:1008800023C0E091D009F091D109828185608283F3
:1008900020E21AC0E091D009F091D10982818660EE
:1008A000828320E411C0E091D009F091D1098281C6
:1008B0008760828320E808C0E091D009F091D109D7
:1008C00082818760828320E8E091D609F091D70980
:1008D000838580688387642F722F88E493E0CE5AE3
:1008E000DF4F0FB6F894DEBF0FBECDBFDF91CF91C3
:1008F0001F910F91FF90EF9008951F920F920FB6E6
:100900000F9211240BB60F922F933F934F935F9347
:100910006F937F938F939F93AF93BF93EF93FF93C7
:10092000E091D009F091D109808191815CD39093BD
:10093000CB098093CA092091D408243080F42091F7
:10094000D4082F5F2093D4082091D5083091D60881
:10095000820F931F9093D6088093D5084DC0E091E5
:10096000D708F091D8088091D5089091D608959530
:10097000879595958795EE0FFF1FE75EF64F91835C
:1009800080831092D6081092D5081092D408209136
:10099000D7083091D8088091C8099091C9092817C3
:1009A000390754F48091D7089091D8080196909314
:1009B000D8088093D70804C01092D8081092D7089E
:1009C000ACECB9E01496ED91FC9115978381807E93
:1009D0008383E091D708F091D808EE0FFF1FE7520C
:1009E000F74F808191811496ED91FC9115978F714D
:1009F00099279381892B8383FF91EF91BF91AF91C9
:100A00009F918F917F916F915F914F913F912F9126
:100A10000F900BBE0F900FBE0F901F901895E09196
:100A2000D609F091D7098081982F9F71943099F061
:100A300028F4913041F0923051F019C0983079F09B
:100A4000903189F014C08E7F808380E008958D7F7F
:100A5000808381E008958B7F808382E00895877F83
:100A6000808383E008958F7E808384E00895807E74
:100A7000808380E0089590E08830910508F091C16E
:100A8000FC01EA5BFF4F0C94CF3BECECF9E0A68550
:100A9000B78511968C9111978E7F11968C93068451
:100AA000F785E02D82898C7F623021F0633029F058
:100AB000828B05C08260828B02C08360828B8181C1
:100AC00081608183E091D609F091D70983858068A0
:100AD00083870895ECECF9E0A685B78511968C9193
:100AE00011978D7F11968C930684F785E02D82896E
:100AF000837F623021F0633029F0828B05C08860EB
:100B0000828B02C08C60828B818182608183E091C4
:100B1000D609F091D7098385806883870895ECEC26
:100B2000F9E0A685B78511968C9111978B7F119668
:100B30008C930684F785E02D82898F7C623021F0CA
:100B4000633029F0828B05C08062828B02C0806393
:100B5000828B818184608183E091D609F091D709ED
:100B60008385806883870895ECECF9E0A685B785D6
:100B700011968C911197877F11968C930684F78537
:100B8000E02D82898F73623021F0633029F0828BEF
:100B900005C08068828B02C0806C828B81818860F6
:100BA0008183E091D609F091D70983858068838796
:100BB0000895ECECF9E0A685B78511968C91119714
:100BC0008F7E11968C930684F785E02D82818C7F31
:100BD0008283623061F0633091F06130B9F4E0916A
:100BE000DA09F091DB098281816082830FC0E09194
:100BF000DA09F091DB0982818260828307C0E0918B
:100C0000DA09F091DB09828183608283ECECF9E000
:100C1000A685B78511968C911197806111968C935A
:100C20000284F385E02D8385806883870895ECEC4A
:100C3000F9E0A685B78511968C9111978F7D119655
:100C40008C930684F785E02D8281837F82836230D6
:100C500061F0633091F06130B9F4E091DA09F0911C
:100C6000DB098281846082830FC0E091DA09F09110
:100C7000DB0982818860828307C0E091DA09F09104
:100C8000DB0982818C608283ECECF9E0A685B78574
:100C900011968C911197806211968C930284F38542
:100CA000E02D8385806883870895ECECF9E0A685C4
:100CB000B78511968C9111978F7B11968C93068432
:100CC000F785E02D82818F7C8283623061F0633012
:100CD00091F06130B9F4E091DA09F091DB09828199
:100CE000806182830FC0E091DA09F091DB09828193
:100CF0008062828307C0E091DA09F091DB0982818A
:100D000080638283ECECF9E0A685B78511968C911F
:100D10001197806411968C930284F385E02D83856E
:100D2000806883870895ECECF9E0A685B785119675
:100D30008C9111978F7711968C930684F785E02D0F
:100D400082818F738283623061F0633091F0613011
:100D5000B9F4E091DA09F091DB0982818064828341
:100D60000FC0E091DA09F091DB098281806882830B
:100D700007C0E091DA09F091DB098281806C8283FF
:100D8000ECECF9E0A685B78511968C9111978068F7
:100D900011968C930284F385E02D83858068838788
:100DA0000895E091DA09F091DB091182089590E04D
:100DB0008830910508F045C0FC01E25BFF4F0C94C0
:100DC000CF3BE091DA09F091DB0981818E7F81834D
:100DD0000895E091DA09F091DB0981818D7F8183AB
:100DE0000895E091DA09F091DB0981818B7F81839D
:100DF0000895E091DA09F091DB098181877F818391
:100E00000895E091DA09F091DB0981818F7E818379
:100E10000895E091DA09F091DB0981818F7D81836A
:100E20000895E091DA09F091DB0981818F7B81835C
:100E30000895E091DA09F091DB0981818F77818350
:100E40000895E091DA09F091DB091182089590E0AC
:100E50008830910508F08CC0FC01EA5AFF4F0C94D1
:100E6000CF3BECECF9E0A685B78511968C911197F4
:100E7000816011968C930284F385E02D83858068D0
:100E800083870895ECECF9E0A685B78511968C91DF
:100E90001197826011968C930284F385E02D8385EF
:100EA000806883870895ECECF9E0A685B7851196F4
:100EB0008C911197846011968C930284F385E02DB8
:100EC0008385806883870895ECECF9E0A685B78573
:100ED00011968C911197886011968C930284F385FA
:100EE000E02D8385806883870895ECECF9E0A68582
:100EF000B78511968C911197806111968C9302841D
:100F0000F385E02D8385806883870895ECECF9E014
:100F1000A685B78511968C911197806211968C9356
:100F20000284F385E02D8385806883870895ECEC47
:100F3000F9E0A685B78511968C911197806411967A
:100F40008C930284F385E02D8385806883870895E0
:100F5000ECECF9E0A685B78511968C911197806825
:100F600011968C930284F385E02D838580688387B6
:100F70000895CF93DF93CDB7DEB7CA55D1090FB629
:100F8000F894DEBF0FBECDBFCE01099645D082E5F5
:100F9000FE013996ACECB9E001900D928A95E1F72B
:100FA000E091DA09F091DB0911822BE335E03A8315
:100FB000298347ED56E05C834B8367E277E07E83CD
:100FC0006D838FE095E098878F833A815C817E8185
:100FD0009885C65ADF4F0FB6F894DEBF0FBECDBF5F
:100FE000DF91CF910895292F30E0322F2227A901D8
:100FF000482BCA010895282F30E0322F2227A9015B
:10100000492BCA0108950895282F892F922F0895FA
:101010009827892798270895FC011182108288E279
:1010200090E09383828384E290E09583848389E5D2
:1010300093E09783868388E690E09187808784E5B4
:1010400090E0938782878CE390E09587848788E59A
:1010500090E09787868789EB97E0918B808B89E377
:1010600090E0938B828B86E390E0958B848B83E377
:1010700090E0978B868B80E390E0918F808F81E268
:1010800090E0938F828F80E290E0958F848F83E64B
:1010900090E0978F868F82E490E091A380A380E414
:1010A00090E093A382A32DE230E035A324A32BE1AB
:1010B00039E037A326A391A780A722E83FE033A712
:1010C00022A795A784A721EA32E137A726A723E420
:1010D00030E031AB20AB29EE31E133AB22AB95AB45
:1010E00084AB8AEC9EE097AB86AB80E790E091AF53
:1010F00080AF80EF94E193AF82AF89E290E095AF4B
:1011000084AF8EE196E197AF86AFDF01A05CBF4F61
:1011100088E990E011969C938E93129680EB97E16C
:1011200011969C938E93129681E490E011969C9375
:101130008E93129680E091E011969C938E93129676
:1011400083EF97E011969C938E9312968BEF97E026
:1011500011969C938E93129683E098E011969C933F
:101160008E93129684E098E011969C938E9312963B
:1011700088E098E08D939C93CF0108950F931F937F
:10118000CF93DF93442319F1FC01062F172F415011
:1011900050E04F5F5F4F480F591F2CEC39E0D901E9
:1011A0009496CD91DC91959791919A8394960D9018
:1011B000BC91A02D11969C9111979923F4F712964A
:1011C0009C91E80199938E01E417F50741F7DF91AF
:1011D000CF911F910F910895CF93DF936623D1F0A4
:1011E000FC016150262F30E02F5F3F4F280F391F41
:1011F000ACECB9E09496CD91DC91959791919A835E
:101200009496CD91DC91959799819923F4F7E21703
:10121000F30781F7DF91CF910895ECECF9E0A4A1F9
:10122000B5A112968C9304A0F5A1E02D81818823AD
:10123000F4F782810895EF92FF920F931F93CF935B
:10124000DF93CDB7DEB7C855D1090FB6F894DEBF2E
:101250000FBECDBFF82EE62E042F122FCE0107961B
:10126000DBDE82E5FE013796ACECB9E001900D9231
:101270008A95E1F7E091E009F091E1098181807FB1
:101280008183FF20C9F081E0F81224C0ECECF9E082
:10129000A4A1B5A18C9180618C93A489B589119684
:1012A0008C911197876011968C930488F589E02DB5
:1012B0008281816082831BC0ECECF9E0A4A1B5A11E
:1012C0008C9180618C930488F589E02D8181886000
:1012D00081830DC0ECECF9E0A4A1B5A18C918061F3
:1012E0008C930488F589E02D818187608183EE20CD
:1012F00059F081E0E81210C0E091F009F091F10995
:101300008081806280830FC0E091F009F091F10943
:1013100080818F7D808307C0E091F009F091F10911
:1013200080818F7D8083013071F028F0023099F048
:101330000330C9F020C0E091F009F091F1098081FB
:10134000837F80831FC0E091F009F091F1098081D3
:101350008460808317C0E091F009F091F1098081E9
:10136000886080830FC0E091F009F091F1098081DD
:101370008C60808307C0E091F009F091F1098081D1
:10138000837F8083103109F446C040F4143009F1A2
:10139000183081F1123009F082C00AC0103409F40B
:1013A0005CC0103809F46AC0103209F078C044C03B
:1013B000ECECF9E0A4A1B5A111968C911197816094
:1013C00011968C9304A0F5A1E02D80818C7F808301
:1013D00076C0ECECF9E0A4A1B5A111968C9111971F
:1013E0008E7F11968C9304A0F5A1E02D80818C7FD7
:1013F000808365C0ECECF9E0A4A1B5A111968C91B5
:101400001197816011968C9304A0F5A1E02D808145
:101410008160808354C0ECECF9E0A4A1B5A11196E1
:101420008C9111978E7F11968C9304A0F5A1E02DDD
:1014300080818160808343C0ECECF9E0A4A1B5A178
:1014400011968C911197816011968C9304A0F5A14F
:10145000E02D80818260808332C0ECECF9E0A4A1B1
:10146000B5A111968C9111978E7F11968C9304A043
:10147000F5A1E02D80818260808321C0ECECF9E051
:10148000A4A1B5A111968C911197817011968C939E
:1014900004A0F5A1E02D80818360808310C0ECEC76
:1014A000F9E0A4A1B5A111968C91119781601196D4
:1014B0008C9304A0F5A1E02D808181608083E09170
:1014C000F009F091F1098081806480832EEB38E08F
:1014D0003A8329834CEE58E05C834B836DE079E0DE
:1014E0007E836D833A815C817E8180E090E0C85A82
:1014F000DF4F0FB6F894DEBF0FBECDBFDF91CF91A7
:101500001F910F91FF90EF9008952091210A2111D2
:1015100063C0E091000AF091010A2389287F238BA0
:101520008034910579F150F488309105D9F08032FA
:10153000910501F1019709F045C00CC0811521E02A
:10154000920781F1811524E09207A1F1803891057D
:10155000C9F520C0E091000AF091010A83898160F9
:10156000838B37C0E091000AF091010A8389826081
:10157000838B2FC0E091000AF091010A8389836078
:10158000838B27C0E091000AF091010A838984606F
:10159000838B1FC0E091000AF091010A8389856066
:1015A000838B17C0E091000AF091010A838986605D
:1015B000838B0FC0E091000AF091010A8389876054
:1015C000838B07C0E091000AF091010A838987604C
:1015D000838B85E58093210A8091210A0895E0910B
:1015E000000AF091010A93899F7C938B823091F0DD
:1015F0008330F1F0813049F5ECECF9E0A489B5894C
:1016000080E111968C9304A8F5A9E02D838980616F
:10161000838B0895ECECF9E0A489B58980E11196FB
:101620008C9304A8F5A9E02D83898062838B0895AB
:10163000ECECF9E0A489B58980E111968C9304A8BB
:10164000F5A9E02D83898063838B0895E091000ADA
:10165000F091010A818B0895E091000AF091010A4E
:101660008389887F838B1092210A80E008952091DE
:101670001E0A211161C0E091F409F091F509268557
:10168000287F268788309105E9F040F4863091055F
:10169000C9F108F03FC0019769F044C0811521E00D
:1016A000920701F1811524E0920721F18034910520
:1016B000C9F510C0E091F409F091F50986858160C3
:1016C000868737C0E091F409F091F509868582603C
:1016D00086872FC0E091F409F091F5098685836033
:1016E000868727C0E091F409F091F509868584602A
:1016F00086871FC0E091F409F091F5098685856021
:10170000868717C0E091F409F091F5098685866017
:1017100086870FC0E091F409F091F509868587600E
:10172000868707C0E091F409F091F5098685856008
:10173000868785E580931E0A80911E0A0895E091B0
:10174000F409F091F50997859F7397878230A9F086
:10175000833021F1813091F5ECECF9E0A489B58971
:1017600011968C911197806211968C9300A4F1A52B
:10177000E02D8785806487870895ECECF9E0A489E3
:10178000B58911968C911197806211968C9300A463
:10179000F1A5E02D8785806887870895ECECF9E056
:1017A000A489B58911968C911197806211968C93BA
:1017B00000A4F1A5E02D8785806C87870895E091CE
:1017C000F409F091F50997859F7C97878230A9F0FD
:1017D000833021F1813091F5ECECF9E0A489B589F1
:1017E00011968C911197806411968C9300A4F1A5A9
:1017F000E02D8785806187870895ECECF9E0A48966
:10180000B58911968C911197806411968C9300A4E0
:10181000F1A5E02D8785806287870895ECECF9E0DB
:10182000A489B58911968C911197806411968C9337
:1018300000A4F1A5E02D8785806387870895E09156
:10184000F409F091F5099785937F97878230A9F085
:10185000833021F1813091F5ECECF9E0A489B58970
:1018600011968C911197806811968C9300A4F1A524
:10187000E02D8785846087870895ECECF9E0A489E2
:10188000B58911968C911197806811968C9300A45C
:10189000F1A5E02D8785886087870895ECECF9E055
:1018A000A489B58911968C911197806811968C93B3
:1018B00000A4F1A5E02D87858C6087870895CF93DC
:1018C000DF93C091F409D091F509E0911A0AF091E3
:1018D0001B0A09959B878A87DF91CF910895CF9343
:1018E000DF93C091F409D091F509E0911A0AF091C3
:1018F0001B0A099599878887DF91CF910895CF9327
:10190000DF93C091F409D091F509E0911A0AF091A2
:101910001B0A099599AF88AFDF91CF910895E091A7
:10192000F409F091F5098685887F868710921E0A52
:1019300080E008952091200A211161C0E091FC0906
:10194000F091FD092281287F228388309105E9F0FA
:1019500040F486309105C9F108F03FC0019769F065
:1019600044C0811521E0920701F1811524E092071E
:1019700021F180349105C9F510C0E091FC09F09186
:10198000FD0982818160828337C0E091FC09F0917A
:10199000FD098281826082832FC0E091FC09F09171
:1019A000FD0982818360828327C0E091FC09F09168
:1019B000FD098281846082831FC0E091FC09F0915F
:1019C000FD0982818560828317C0E091FC09F09156
:1019D000FD098281866082830FC0E091FC09F0914D
:1019E000FD0982818760828307C0E091FC09F09144
:1019F000FD0982818560828385E58093200A80913C
:101A0000200A0895E091FC09F091FD0992819F7CE4
:101A100092838230A9F0833021F1813091F5ECEC92
:101A2000F9E0A489B58911968C9111978068119677
:101A30008C9300A8F1A9E02D8281806182830895B2
:101A4000ECECF9E0A489B58911968C911197806826
:101A500011968C9300A8F1A9E02D82818062828387
:101A60000895ECECF9E0A489B58911968C91119751
:101A7000806811968C9300A8F1A9E02D8281806383
:101A800082830895E091FC09F091FD098083089517
:101A9000E091FC09F091FD098281887F8283109298
:101AA000200A80E008959C0180911F0A811154C092
:101AB0004091F8095091F909FA01E65BFF4F9081D6
:101AC000987F908328303105D9F040F426303105D5
:101AD00079F1A0F52130310569F036C0211581E09A
:101AE0003807D1F0211584E03807E1F020343105C2
:101AF00059F50CC0FA01E65BFF4F9160908329C055
:101B0000FA01E65BFF4F9260908323C0FA01E65B27
:101B1000FF4F936090831DC0FA01E65BFF4F946016
:101B2000908317C0FA01E65BFF4F9560908311C068
:101B3000FA01E65BFF4F966090830BC0FA01E65B0B
:101B4000FF4F9760908305C0FA01E65BFF4F9560F9
:101B5000908385E580931F0A80911F0A0895E09184
:101B6000F809F091F909E55BFF4F90819F7390832D
:101B70008230B9F0833041F18130C1F5ECECF9E00D
:101B8000A28DB38D11968C911197886011968C93CC
:101B900004A4F5A5E02DE55BFF4F80818064808380
:101BA0000895ECECF9E0A28DB38D11968C9111970C
:101BB000886011968C9304A4F5A5E02DE55BFF4F9A
:101BC0008081806880830895ECECF9E0A28DB38D6C
:101BD00011968C911197886011968C9304A4F5A5A9
:101BE000E02DE55BFF4F8081806C80830895E0915C
:101BF000F809F091F909E55BFF4F90819F7C908394
:101C00008230B9F0833041F18130C1F5ECECF9E07C
:101C1000A28DB38D11968C911197806111968C9342
:101C200004A4F5A5E02DE55BFF4F808180618083F2
:101C30000895ECECF9E0A28DB38D11968C9111977B
:101C4000806111968C9304A4F5A5E02DE55BFF4F10
:101C50008081806280830895ECECF9E0A28DB38DE1
:101C600011968C911197806111968C9304A4F5A51F
:101C7000E02DE55BFF4F8081806380830895E091D4
:101C8000F809F091F909E55BFF4F9081937F90830C
:101C90008230B9F0833041F18130C1F5ECECF9E0EC
:101CA000A28DB38D11968C911197806211968C93B1
:101CB00004A4F5A5E02DE55BFF4F8081846080835F
:101CC0000895ECECF9E0A28DB38D11968C911197EB
:101CD000806211968C9304A4F5A5E02DE55BFF4F7F
:101CE0008081886080830895ECECF9E0A28DB38D4B
:101CF00011968C911197806211968C9304A4F5A58E
:101D0000E02DE55BFF4F80818C6080830895CF9349
:101D1000DF93C091F809D091F909CA5BDF4FE091D8
:101D20001A0AF0911B0A099599838883DF91CF9154
:101D30000895CF93DF93C091F809D091F909CC5B56
:101D4000DF4FE0911A0AF0911B0A09959983888365
:101D5000DF91CF910895CF93DF93C091F809D0918F
:101D6000F909CE5BDF4FE0911A0AF0911B0A099541
:101D700099838883DF91CF910895E091F809F091DC
:101D8000F909E65BFF4F8081887F808310921F0AEC
:101D900080E00895EF92FF920F931F93CF93DF930C
:101DA000CDB7DEB7C255D1090FB6F894DEBF0FBE6E
:101DB000CDBF8C01E62EF42ECE0101962DD982E501
:101DC000FE013196ACECB9E001900D928A95E1F7F5
:101DD0001092210AE091000AF091010A8389877B21
:101DE000838B82E0E81671F0E3E0EE1699F0F1E003
:101DF000EF1217C0E091000AF091010A8389806414
:101E0000838B0FC0E091000AF091010A83898860FA
:101E1000838B07C0E091000AF091010A83898864EE
:101E2000838BECECF9E0A4A9B5A957968C91579750
:101E30008E7F57968C9304A8F5A9E02D87898D7F16
:101E4000878B82E0F816B9F0E3E0FE1629F1F1E0A5
:101E5000FF1232C0ECECF9E0A4A9B5A957968C9119
:101E60005797816057968C930284F385E02D838584
:101E70008068838721C0ECECF9E0A4A9B5A9579646
:101E80008C915797826057968C930284F385E02D4E
:101E900083858068838710C0ECECF9E0A4A9B5A91C
:101EA00057968C915797836057968C930284F3854D
:101EB000E02D838580688387E091000AF091010A14
:101EC0008FEF818B8FEE9AE0F8019183808386E219
:101ED0009BE09783868385E89AE0958784878CE2E8
:101EE0009BE097878687C801CE5ADF4F0FB6F894DC
:101EF000DEBF0FBECDBFDF91CF911F910F91FF903D
:101F0000EF900895AF92BF92CF92DF92EF92FF923F
:101F10000F931F93CF93DF93CDB7DEB7C255D1098F
:101F20000FB6F894DEBF0FBECDBF8C01E62EF42EA7
:101F3000CE01019671D882E5FE013196ACECB9E094
:101F400001900D928A95E1F710921E0AECECF9E0EF
:101F5000A0A5B1A51F968C911F978C7F1F968C937F
:101F600000A4F1A5E02D8685877E86878E2D90E0E2
:101F7000FC013197EF30F10508F0CCC0E25AFF4F79
:101F80000C94CF3BE091F409F091F50987858160CD
:101F90008787C0C0E091F409F091F50987858260D8
:101FA0008787B8C0E091F409F091F50987858360CF
:101FB0008787B0C0E091F409F091F50986858860C3
:101FC0008687A8C0ECECF9E0A0A5B1A51F968C917E
:101FD0001F9781601F968C9300A4F1A5E02D868544
:101FE0008860868797C0ECECF9E0A0A5B1A51F96A4
:101FF0008C911F9782601F968C9300A4F1A5E02D11
:1020000086858860868786C0ECECF9E0A0A5B1A53E
:102010001F968C911F9783601F968C9300A4F1A547
:10202000E02D86858860868775C0E091F409F0917F
:10203000F5098685806186876DC0ECECF9E0A0A586
:10204000B1A51F968C911F9781601F968C9300A459
:10205000F1A5E02D8685806186875CC0ECECF9E017
:10206000A0A5B1A51F968C911F9782601F968C9397
:1020700000A4F1A5E02D8685806186874BC0ECEC3D
:10208000F9E0A0A5B1A51F968C911F9783601F96BC
:102090008C9300A4F1A5E02D8685806186873AC0E7
:1020A000E091F409F091F50986858861868732C050
:1020B000ECECF9E0A0A5B1A51F968C911F9781606B
:1020C0001F968C9300A4F1A5E02D868588618687F4
:1020D00021C0ECECF9E0A0A5B1A51F968C911F974B
:1020E00082601F968C9300A4F1A5E02D86858861FF
:1020F000868710C0ECECF9E0A0A5B1A51F968C91E5
:102100001F9783601F968C9300A4F1A5E02D868510
:1021100088618687ECECF9E0A0A5B1A51F968C91AB
:102120001F9783701F968C93A0A5B1A557968C918D
:102130005797837C57968C93A0A5B1A5DD968C917B
:10214000DD978E7FDD968C93DD974F2D50E0FA0161
:102150003197EC30F10508F0C3C0E359FF4F0C9400
:10216000CF3B57968C915797846057968C93E0910C
:10217000D609F091D709838580688387B1C05796C7
:102180008C915797806157968C93E091D609F09186
:10219000D709838580688387A3C057968C9157970A
:1021A000886057968C93E091D609F091D709838582
:1021B0008068838795C08160DD968C93E091D60915
:1021C000F091D7098385806883878AC057968C9160
:1021D0005797806257968C93E091D609F091D70972
:1021E0008385806883877CC057968C9157978461DC
:1021F00057968C93E091D609F091D7098385806832
:1022000083876EC057968C9157978C6057968C93A6
:10221000E091D609F091D70983858068838760C0F3
:1022200057968C915797846057968C93ECECF9E015
:10223000A0A5B1A5DD968C91DD978160DD968C938C
:102240000284F385E02D83858068838749C0579693
:102250008C915797846257968C93E091D609F091B0
:10226000D7098385806883873BC057968C915797A1
:102270008C6157968C93E091D609F091D7098385AC
:10228000806883872DC057968C9157978C6157969D
:102290008C93ECECF9E0A0A5B1A5DD968C91DD97CF
:1022A0008160DD968C930284F385E02D83858068C0
:1022B000838716C057968C915797886157968C9351
:1022C000ECECF9E0A0A5B1A5DD968C91DD978160DD
:1022D000DD968C930284F385E02D83858068838767
:1022E0000F2EFCECCF2EF9E0DF2EF02DD6019896C4
:1022F000AD90BC9099970F2EFAE1EF2EFAE0FF2EE9
:10230000F02DD701ED91FC918FEF9FEF0995F5012D
:1023100093878287D6019896AD90BC909997D70104
:10232000ED91FC918FEF9FEF0995F50191878087E3
:10233000D6019896CD90DC909997D701ED91FC91BC
:102340008FEF9FEF0995F60191AF80AF8FE99BE08A
:10235000D80111969C938E938FED9BE013969C93DE
:102360008E9312978FE19CE015969C938E93149711
:102370008FE59CE017969C938E9316978FE69CE0D2
:1023800019969C938E9318978FE79CE01B969C93CD
:102390008E931A9787E39BE01D969C938E931C97D0
:1023A0008FE89CE01F969C938E931E97C801CE5A8F
:1023B000DF4F0FB6F894DEBF0FBECDBFDF91CF91D8
:1023C0001F910F91FF90EF90DF90CF90BF90AF9053
:1023D0000895EF92FF920F931F93CF93DF93CDB7A2
:1023E000DEB7C255D1090FB6F894DEBF0FBECDBF20
:1023F0008C01E62EF42ECE0101960E940C0882E597
:10240000FE013196ACECB9E001900D928A95E1F7AE
:102410001092200AE091FC09F091FD098281877BEE
:10242000828382E0E81671F0E3E0EE1699F0F1E0C5
:10243000EF1217C0E091FC09F091FD0982818064E0
:1024400082830FC0E091FC09F091FD0982818860D0
:10245000828307C0E091FC09F091FD0982818864C4
:102460008283E091FC09F091FD0984898F73848B4C
:1024700082E0F816B9F0E3E0FE1629F1F1E0FF1270
:102480003AC0ECECF9E0A0A9B1A954968C9154970C
:10249000806454968C930284F385E02D8385806854
:1024A000838729C0ECECF9E0A0A9B1A954968C91DE
:1024B0005497806854968C930284F385E02D83852D
:1024C0008068838718C0ECECF9E0A0A9B1A9549604
:1024D0008C915497806454968C93A0A9B1A954967A
:1024E0008C915497806854968C930284F385E02DE8
:1024F000838580688387E091FC09F091FD098FEF67
:10250000808382E09DE0F8019183808382E49DE0F6
:10251000978386838AE99CE09587848788E49DE099
:1025200097878687C801CE5ADF4F0FB6F894DEBF73
:102530000FBECDBFDF91CF911F910F91FF90EF9014
:102540000895AF92BF92CF92DF92EF92FF920F93D6
:102550001F93CF93DF93CDB7DEB7C255D1090FB626
:10256000F894DEBF0FBECDBF8C01E62EF42ECE0157
:1025700001960E940C0882E5FE013196ACECB9E0B0
:1025800001900D928A95E1F710921F0A2091F809A7
:102590003091F909F901E55BFF4F50815C7F508371
:1025A00031974081477E40838E2D90E0FC0131972A
:1025B000EF30F10508F078C0E758FF4F0C94CF3B9F
:1025C000F901E55BFF4F516050836EC0F901E55B97
:1025D000FF4F5260508368C0F901E55BFF4F5360C5
:1025E000508362C0F901E65BFF4F486040835CC0E6
:1025F000F901E55BFF4F516050833197486040839C
:1026000053C0F901E55BFF4F52605083319748603A
:1026100040834AC0F901E55BFF4F53605083319717
:102620004860408341C0F901E65BFF4F4061408351
:102630003BC0F901E55BFF4F51605083319740612A
:10264000408332C0F901E55BFF4F52605083319700
:102650004061408329C0F901E55BFF4F536050831F
:1026600031974061408320C0F901E65BFF4F48612C
:1026700040831AC0F901E55BFF4F516050833197E9
:102680004861408311C0F901E55BFF4F5260508300
:1026900031974861408308C0F901E55BFF4F536003
:1026A0005083319748614083F901E55BFF4F80819A
:1026B00083708083D901DD968C91817C4F2D50E011
:1026C000FA013197EC30F10520F4E857FF4F0C94F4
:1026D000CF3BF90185AF89C08460D901DD968C9329
:1026E000E091D609F091D7098385806883877DC002
:1026F0008061F90185AFE091D609F091D709838512
:102700008068838772C08860D901DD968C93E091E0
:10271000D609F091D70983858068838766C0826077
:10272000F90185AFE091D609F091D70983858068DA
:1027300083875BC08062D901DD968C93E091D609D6
:10274000F091D7098385806883874FC08461F90140
:1027500085AFE091D609F091D7098385806883879A
:1027600044C08C60D901DD968C93E091D609F0913C
:10277000D70983858068838738C08660F90185AF73
:10278000E091D609F091D7098385806883872DC0B1
:102790008462D901DD968C93E091D609F091D70936
:1027A00083858068838721C08C61F90185AFE091C2
:1027B000D609F091D70983858068838716C08E611A
:1027C000D901DD968C93E091D609F091D7098385E4
:1027D000806883870AC08A61F90185AFE091D609D4
:1027E000F091D7098385806883870F2EFCECEF2E4C
:1027F000F9E0FF2EF02DD7019C96AD90BC909D97EF
:10280000B6E4AB0EB11C0F2EFAE1CF2EFAE0DF2EAC
:10281000F02DD601ED91FC918FEF9FEF0995F50119
:1028200091838083D7019C96AD90BC909D97B4E432
:10283000AB0EB11CD601ED91FC918FEF9FEF099586
:10284000F50191838083D7019C96ED90FC909D9734
:10285000B2E4EB0EF11CD601ED91FC918FEF9FEFEE
:102860000995F701918380838FEA9DE0D801119645
:102870009C938E9387EF9DE013969C938E93129773
:102880008FE39EE015969C938E93149787E89EE0C5
:1028900017969C938E93169789E99EE019969C93C0
:1028A0008E9318978BEA9EE01B969C938E931A97B3
:1028B00083E59DE01D969C938E931C978DEB9EE087
:1028C0001F969C938E931E97C801CE5ADF4F0FB66A
:1028D000F894DEBF0FBECDBFDF91CF911F910F9156
:1028E000FF90EF90DF90CF90BF90AF900895E09170
:1028F000040AF091050A8181887F0895E091040A15
:10290000F091050A84E984838FE891E00197F1F75B
:1029100000C000000895CF93DF9318161CF4880FB1
:10292000816001C081E0ECECF9E0A0ADB1AD1296A0
:102930008C93A08DB18D11968C9111978360119617
:102940008C93008CF18DE02D8281836082836430D2
:1029500089F018F4613031F025C0603199F06034AD
:10296000C9F020C0E091040AF091050A81818C7FB2
:10297000818320C0E091040AF091050A8181816081
:10298000818318C0E091040AF091050A8181826078
:10299000818310C0E091040AF091050A818183606F
:1029A000818308C0E091040AF091050A81818C7F3F
:1029B000818361E0C091040AD091050A262F30E09E
:1029C000220F331F032E000C440B550B60E970E0FF
:1029D00080E090E00E94913B2883DF91CF910895A1
:1029E000EF92FF920F931F93CF93DF93CDB7DEB794
:1029F000C255D1090FB6F894DEBF0FBECDBF8C0112
:102A0000F62EE42ECE0101960E940C0882E5FE010E
:102A10003196ACECB9E001900D928A95E1F76E2DFC
:102A20008F2D79DF8AE495E1F8019183808388E531
:102A300095E19383828383E795E19583848386E898
:102A400095E1978386838EE794E19187808787E776
:102A500094E193878287C801CE5ADF4F0FB6F8946E
:102A6000DEBF0FBECDBFDF91CF911F910F91FF90C1
:102A7000EF900895E091040AF091050A2481222341
:102A800044F021E030E08217930718F02F5F3F4FAA
:102A9000FACF0895E091040AF091050A84EA84834C
:102AA0008FEF93E0E7DF23DF883009F027CF089529
:102AB000662319F0880F816001C0880FECECF9E003
:102AC000A0ADB1AD13968C9300ACF1ADE02D84E8D0
:102AD00084838FEF93E0CEDF0ADF883119F08034F2
:102AE00009F00CCF0895ECECF9E0A0ADB1AD139670
:102AF0008C9300ACF1ADE02D84E884838FEF93E0FC
:102B0000B9DFF5DE883209F0F9CE0895882311F097
:102B100080E401C080E0E091040AF091050A846835
:102B200084838FEF93E0A6DFE2DE883309F4E6DEEC
:102B3000E091040AF091050A83810895E0914F0A1B
:102B4000F091500A85E49AE009950895E091510AC0
:102B5000F091520A85E49AE009950895E091800A7F
:102B6000F091810A86E79AE009950895E091820A3A
:102B7000F091830A86E79AE0099508958091440AC6
:102B80001092440AEFE9FFE03197F1F700C000002E
:102B90000895F4CF0895ECECF9E0A4ADB5AD13962B
:102BA0008C9304ACF5ADE02D8181806281838FE947
:102BB0009FE00197F1F700C000000895ECCF089561
:102BC0008091430A1092430AEFE9FFE03197F1F751
:102BD00000C000000895F4CF0895ECE0FAE0A08171
:102BE000B18114968C930190F081E02D82818062F6
:102BF00082838FE99FE00197F1F700C000000895FC
:102C0000ECCF0895CF93DF93EC018881882329F0DE
:102C10002196E3DF89918111FCCFDF91CF91089557
:102C2000CF93DF93EC018881882329F02196B3DFCD
:102C300089918111FCCFDF91CF9108958F929F925E
:102C4000AF92BF92CF92DF92EF92FF920F931F93BA
:102C5000CF93DF93CDB7DEB7C255D1090FB6F89445
:102C6000DEBF0FBECDBF7C016B015A014901CE0111
:102C700001960E940C0882E5FE013196ACECB9E0A9
:102C800001900D928A95E1F742E25AE060E2CE01AE
:102C90000196ABD38EE0FE013196A5E4BAE0019037
:102CA0000D928A95E1F73C2DDD2044F4E091080A6D
:102CB000F091090A82E08283E894D7F84CEC59E05D
:102CC000FA01A4ADB5ADCD0189599F4FFC01D08269
:102CD000CC92DA01DC96ED91FC91DD9788E9818355
:102CE000B7E0AB16B104E9F158F4F5E0AF16B10462
:102CF00009F461C086E0A816B10409F447C06FC0AA
:102D0000A8E0AA16B104C9F0B9E0AB16B10409F005
:102D100066C0ECECF9E0A4ADB5AD11968C911197BD
:102D2000846011968C9304ACF5ADE02DE459FF4F0F
:102D300080818660808349E065C0ECECF9E0A4AD59
:102D4000B5AD11968C9111978B7F11968C9304AC35
:102D5000F5ADE02DE459FF4F80818660808348E027
:102D600051C0ECECF9E0A4ADB5AD11968C91119782
:102D70008B7F11968C9304ACF5ADE02DE459FF4F99
:102D800080818D7F8460808347E03CC0ECECF9E07B
:102D9000A4ADB5AD11968C9111978B7F11968C9344
:102DA00004ACF5ADE02DE459FF4F80818B7F82604C
:102DB000808346E027C0ECECF9E0A4ADB5AD1196F8
:102DC0008C9111978B7F11968C9304ACF5ADE02D0F
:102DD000E459FF4F8081897F808345E013C0ECEC8C
:102DE000F9E0A4ADB5AD11968C9111978B7F11963A
:102DF0008C9304ACF5ADE02DE459FF4F80818660E3
:102E0000808348E0E1E08E16910429F0F2E08F160D
:102E1000910461F016C0E091080AF091090AE459A2
:102E2000FF4F8081877F808321E015C0E091080AF1
:102E3000F091090AE459FF4F80818860808322E085
:102E40000AC0E091080AF091090AE459FF4F808115
:102E5000877F808321E00230110581F00330110566
:102E6000C9F0012B11F5E091080AF091090AE45923
:102E7000FF4F80818F7C808390E021C0E091080A21
:102E8000F091090AE459FF4F80818F7E8062808330
:102E900092E015C0E091080AF091090AE459FF4F49
:102EA00080818063808393E00AC0E091080AF091FA
:102EB000090AE459FF4F80818F7C808390E0E09184
:102EC000D609F091D709838580688387D7013C9321
:102ED00011964C93119712962C93129713969C93DC
:102EE00013978EEB95E115969C938E93149789EC2E
:102EF00095E117969C938E9316978EE995E1199616
:102F00009C938E93189786EA95E11B969C938E93DB
:102F10001A978BEC95E11D969C938E931C978EEDE2
:102F200095E11F969C938E931E9780E196E15196B2
:102F30009C938E935097C701CE5ADF4F0FB6F894EB
:102F4000DEBF0FBECDBFDF91CF911F910F91FF90DC
:102F5000EF90DF90CF90BF90AF909F908F900895AB
:102F60008F929F92AF92BF92CF92DF92EF92FF9299
:102F70000F931F93CF93DF93CDB7DEB7C255D1091F
:102F80000FB6F894DEBF0FBECDBF7C016B015A01B6
:102F90004901CE0101960E940C0882E5FE0131969E
:102FA000ACECB9E001900D928A95E1F743E55AE067
:102FB00060E2CE01019619D28EE0FE013196A6E7BD
:102FC000BAE001900D928A95E1F73C2DDD2044F4A2
:102FD000E0910C0AF0910D0A82E08383E894D7F81F
:102FE000ECE0FAE0A081B181DC92A081B181119680
:102FF000CC920190F081E02D88E9828387E0A816C9
:10300000B104C9F158F4F5E0AF16B10409F467C092
:1030100086E0A816B10409F448C073C0E8E0AE1613
:10302000B104B9F0F9E0AF16B10409F06AC0ECE000
:10303000FAE0A081B18112968C9112978460129669
:103040008C930190F081E02D85818660858349E035
:1030500069C0ECE0FAE0A081B18112968C911297E0
:103060008B7F12968C930190F081E02D8581866094
:10307000858348E057C0ECE0FAE0A081B181129668
:103080008C9112978B7F12968C93A081B1811596AB
:103090008C911597846015968C930190F081E02DAA
:1030A00085818D7F858347E03DC0ECE0FAE0A0811B
:1030B000B18112968C9112978B7F12968C93A0817E
:1030C000B18115968C9115978B7F15968C930190F5
:1030D000F081E02D85818260858346E023C0ECE0AD
:1030E000FAE0A081B18112968C9112978B7F129693
:1030F0008C930190F081E02D8581897F858345E067
:1031000011C0ECE0FAE0A081B18112968C91129787
:103110008B7F12968C930190F081E02D85818660E3
:10312000858348E081E08816910429F0E2E08E165C
:10313000910451F012C0E0910C0AF0910D0A8581C2
:10314000877F858321E011C0E0910C0AF0910D0A80
:1031500085818860858322E008C0E0910C0AF091A7
:103160000D0A8581877F858321E00230110571F08A
:1031700003301105E9F0012B21F5E0910C0AF091E3
:103180000D0A85818F7C858390E023C0ECE0FAE016
:10319000A081B18115968C911597806215968C93BC
:1031A0000190F081E02D85818F7E858392E011C0B2
:1031B000E0910C0AF0910D0A85818063858393E08C
:1031C00008C0E0910C0AF0910D0A85818F7C8583FF
:1031D00090E0E091D609F091D709838580688387D4
:1031E000F701308341832283938380EE95E19583B9
:1031F00084838BEE95E1978386838EEA95E19187B0
:10320000808786EB95E1938782878DEE95E19587A0
:10321000848780E096E19787868782E096E1918BAC
:10322000808BC701CE5ADF4F0FB6F894DEBF0FBEBA
:10323000CDBFDF91CF911F910F91FF90EF90DF9065
:10324000CF90BF90AF909F908F9008951F920F9254
:103250000FB60F9211240BB60F922F933F934F93FB
:103260005F936F937F938F939F93AF93BF93EF93EE
:10327000FF93E091080AF091090A82818871809396
:10328000750A63816093440AE0914D0AF0914E0AF9
:1032900085E49AE00995FF91EF91BF91AF919F91DD
:1032A0008F917F916F915F914F913F912F910F90EF
:1032B0000BBE0F900FBE0F901F9018951F920F928C
:1032C0000FB60F9211240BB60F928F93EF93FF93CB
:1032D000E091080AF091090A81818F7D8183FF9135
:1032E000EF918F910F900BBE0F900FBE0F901F901C
:1032F00018951F920F920FB60F9211240BB60F92D2
:103300002F933F934F935F936F937F938F939F93ED
:10331000AF93BF93EF93FF93E0910C0AF0910D0AE6
:10332000838188718093740A64816093430AE09179
:103330007E0AF0917F0A86E79AE00995FF91EF9166
:10334000BF91AF919F918F917F916F915F914F91BD
:103350003F912F910F900BBE0F900FBE0F901F90BB
:1033600018951F920F920FB60F9211240BB60F9261
:103370008F93EF93FF93E0910C0AF0910D0A8281F5
:103380008F7D8283FF91EF918F910F900BBE0F90F5
:103390000FBE0F901F9018956623C1F0DC011296A6
:1033A000ED91FC91139714962D913C911597E2178E
:1033B000F30729F4ED91FC91DF01119602C0DF01C2
:1033C000119660831C92FC01B383A2830895FC01D3
:1033D000808191810895DC01ED91FC911197139604
:1033E000FC93EE93129710820895FC015183408361
:1033F0005383428370E061507109460F571F558314
:1034000044838CEC99E19187808787EE99E19387DB
:1034100082878BEE99E195878487CF010895CF92BB
:10342000DF92EF92FF920F931F93FC0100811181B5
:1034300022813381FB01C080D180E280F380FC01D6
:10344000C082D182E282F382FB0100831183228356
:1034500033831F910F91FF90EF90DF90CF900895ED
:10346000FB012081FC012083222339F0DB0111962E
:1034700031969D9191939111FCCF0895CF93DF9355
:10348000EC019881992399F0FE01319620E030E01B
:10349000492F50E04617570731F0DE01A20FB31F46
:1034A0009C932F5F3F4F91919111F2CF02C020E08A
:1034B00030E0FE01E20FF31F1082DF91CF910895FB
:1034C0002F923F924F925F926F927F928F929F9234
:1034D000AF92BF92CF92DF92EF92FF920F931F9322
:1034E000CF93DF9300D000D0CDB7DEB72C011B0106
:1034F0004B0177231CF42FEF821A920A959487943C
:10350000181419040CF451C06AC09601DD209CF116
:10351000F50140815181F401608171816417750763
:1035200054F58C010A0D1B1DD401BC82AB82BA82FA
:10353000A982EB81FC817183608311965C934E9329
:103540002E193F09C2F0F80140815181E981FA81C9
:1035500060817181080F191FE80FF91FFA83E98351
:10356000EB81FC81E80FF91FFC83EB83A80FB91FE7
:1035700064177507F4F2FFEFCF1ADF0A22E0A20EFC
:10358000B11CE2E08E0E911CC614D70409F0BDCF29
:103590004701FF201CF4FFEF8F1A9F0A9594879430
:1035A00018141904E4F4740101C074018214930422
:1035B0007CF76401CE18DF085601AA0CBB1CA40CD2
:1035C000B51C880C991C840C951C31016E187F0861
:1035D000C701880F991F91958195910996CF0F90FA
:1035E0000F900F900F90DF91CF911F910F91FF904F
:1035F000EF90DF90CF90BF90AF909F908F907F9093
:103600006F905F904F903F902F9008958617970787
:103610000CF4CB0108959B01672B11F408959A01D6
:10362000B9010E947E3BAC01822F932F41155105B9
:10363000B1F70895FC01908180ED890F8A30D0F4B4
:10364000319620E030E0A901440F551F220F331FAF
:10365000220F331F220F331F420F531F292F30E039
:1036600020533109240F351F919180ED890F8A3045
:1036700050F302C020E030E0C90108958623089588
:10368000009739F020E030E02F5F3F4F821793071B
:10369000D9F7089587FF08C09195819591099927D9
:1036A00091958195910908958F779927089591FFB4
:1036B00008C0919581959109937091958195910993
:1036C000089591700895615021E030E002C0220F0A
:1036D000331F6A95E2F7A90141505109B9016823E6
:1036E0007923672B29F084239523821B930B08955C
:1036F0008423952308959DEC899F912D11249695FF
:1037000096959695392F330F232F220F220F230FD3
:10371000821B20E1929F800D11240895982F92958D
:103720009F70990F292F220F220F920F8F70890FF0
:103730000895FC01DB01A75AB64F1C921616170616
:1037400014F5908191110CC017C0919191110DC089
:1037500015C081932F5F3F4F26173707D4F313C04F
:10376000A9E5B9E0319620E030E09D932F5F3F4F0F
:103770006217730751F707C020E030E0F901E75AFC
:10378000F64F80E2E6CF89E599E008954F925F9287
:103790006F927F92AF92BF92CF92DF92EF92FF92A1
:1037A0000F931F93CF93DF93CDB7DEB729013A0173
:1037B0009B01AC01241935094609570989899A8961
:1037C000AB89BC89BC01CD016A197B098C099D09B3
:1037D0000E945B3BA8019701241935094609570946
:1037E0000E94B33BCA01B9016A0D7B1D8C1D9D1D52
:1037F000DF91CF911F910F91FF90EF90DF90CF90CD
:10380000BF90AF907F906F905F904F900895FC01B4
:103810002081222341F0319680E090E001962191B1
:103820002111FCCF089580E090E00895CF93DF93BD
:10383000EC01EDDF9C012150310962F0FE01E80F3F
:10384000F91F9291903219F09950923018F421504A
:103850003109B8F7C20FD31F1982C901DF91CF9187
:103860000895CF93DF93EC01D2DF9C012150310901
:103870001216130684F4DE01A80FB91FFE0180E0C2
:1038800090E040815E9151934C9301962150310913
:1038900082179307B4F3DF91CF9108958F929F928F
:1038A000AF92BF92CF92DF92EF92FF920F931F934E
:1038B000CF93DF936B017C01DC01CB01FF203CF453
:1038C00088279927DC018C199D09AE09BF09BC0125
:1038D000CD0110E00F2EFAE08F2E912CA12CB12CEF
:1038E000F02D01C0102F01E0010FC12FD0E0C75A09
:1038F000D64FA50194010E94B33B605D6883622F9F
:10390000732F842F952F161617061806190654F3D1
:10391000FF2044F4E02FF0E0E75AF64F8DE2808379
:1039200002E0010FE02FF0E0E75AF64F108289E540
:1039300099E097DF89E599E0DF91CF911F910F9191
:10394000FF90EF90DF90CF90BF90AF909F908F90BF
:1039500008950F931F93CF93DF93EC01992324F4E1
:10396000882799278C1B9D0B20E00AE010E001C0FE
:10397000232F31E0320FE22FF0E0E75AF64FB80183
:103980000E947E3B805D8083862F972F1816190634
:103990007CF3DD2344F4E32FF0E0E75AF64F8DE2A9
:1039A000808332E0320FE32FF0E0E75AF64F1082C7
:1039B00089E599E056DF89E599E0DF91CF911F9184
:1039C0000F910895CF93AC019C01ADECBCEC0E942B
:1039D000D83B9695879596958795969587959C0162
:1039E000220F331F880F991F880F991F880F991F67
:1039F000820F931F9A01281B390BC901805D8093A8
:103A000059099A010E94D83BAC01569547955695A5
:103A10004795569547954115510589F1E1E0C1E07B
:103A2000CE0FF0E0E75AF64F9A01ADECBCEC0E94E5
:103A3000D83B9695879596958795969587959C0101
:103A4000220F331F880F991F880F991F880F991F06
:103A5000820F931F9A01281B390BC901805D808357
:103A60009A010E94D83BAC015695479556954795CB
:103A700056954795EC2F4115510589F601C0C1E0D7
:103A8000EC2FF0E0E75AF64F108289E599E0E9DE85
:103A900089E599E0CF910895982F92959F70990F9D
:103AA000292F220F220F920F8F70890F0895AC01DA
:103AB0009C01ADECBCEC0E94D83B96958795969501
:103AC000879596958795BC01660F771F9C01220FFD
:103AD000331F220F331F220F331F260F371F421BA6
:103AE000530B342F20E1829F300D1124832F089532
:103AF000CF92DF92EF92FF92CF93DF93CDB7DEB7F5
:103B000028970FB6F894DEBF0FBECDBF6B017C01C6
:103B100069837A838B839C832D833E834F8358876D
:103B2000C216D306E406F50634F4BE016B5F7F4F80
:103B3000CE01019674DC8D819E81AF81B885892B81
:103B40008A2B8B2B71F469817A818B819C8120E097
:103B500030E0A9010E94B33B611571058105910513
:103B600029F46D817E818F81988505C06D837E8368
:103B70008F839887F6CF28960FB6F894DEBF0FBED6
:103B8000CDBFDF91CF91FF90EF90DF90CF90089560
:103B900090E002C0959587956A95E2F78170089547
:103BA0009C012150310981E090E002C0880F991FEB
:103BB0002A95E2F70097B1F0E9E5F9E020E030E07E
:103BC000B0E3A1E3AB0148235923452B11F0A083B7
:103BD00001C0B083969587952F5F3F4F3196009730
:103BE00089F702C020E030E0F901E75AF64F108271
:103BF00089E599E00895AB01BC011092590941157E
:103C000051056105710509F442C021E0EFEFE20FB3
:103C1000DB01CA018F709927AA27B078BB2354F41F
:103C20000197A109B109806F9F6FAF6FBF6F0196B8
:103C3000A11DB11D8A309105A105B10534F4F0E054
:103C4000E75AF64F805D808305C0F0E0E75AF64FF3
:103C5000895C8083E22FF0E0E75AF64F1082DB01A7
:103C6000CA0177231CF40F96A11DB11DAC01BD0143
:103C7000689413F875956795579547951694D1F7FD
:103C80002F5F411551056105710509F0BFCF89E529
:103C900099E0E7DD89E599E00895282F30E0322F9B
:103CA0002227A901492BCA010895292F30E0322F7C
:103CB0002227A901482BCA010895282F892F922F66
:103CC000089508959827892798270895FF920F93BC
:103CD0001F93CF93DF938C01EB01F42E642F70E0E0
:103CE00080E090E00E94E1389B01AC0160E070E070
:103CF00080E090E40E94F63920E030E040E85FE3A5
:103D00000E94DF370E94B5389E01262337236023A7
:103D10007123CB01822793272823392302C0220F46
:103D2000331FFA94E2F7822B932BDF91CF911F91EF
:103D30000F91FF900895CF93DF93CDB7DEB79E012B
:103D40002B5F3F4FF901419151919F016FE570E069
:103D500089E599E00E94103C99231CF089E599E0DF
:103D600002C080E090E0DF91CF910895FC011092B5
:103D7000B80987E09CE19183808381E39CE1938390
:103D8000828386E69EE1958384838FE09AE1978320
:103D9000868380E39AE1918780878EE39AE1938717
:103DA000828780E69AE19587848789EA9CE19787F4
:103DB000868782EE9CE1918B808B8EE49CE1938BD5
:103DC000828B86E19CE1958B848B86E09BE1978BCF
:103DD000868B8BE09BE1918F808F8AE19BE1938FB3
:103DE000828F8EE39BE1958F848F80E49BE1978F98
:103DF000868F8AE49BE191A380A387E59BE193A34F
:103E000082A383E69BE195A384A38BE79BE197A321
:103E100086A38EE89BE191A780A789E99BE193A700
:103E200082A786EC9BE195A784A78CE49DE197A7E8
:103E300086A787E59DE191AB80AB88E79DE193ABD9
:103E400082AB88EC9DE195AB84AB80ED9DE197ABB7
:103E500086AB8EEA9FE191AF80AF8BEF9DE193AF90
:103E600082AF8DE49EE195AF84AF85E59EE197AF8B
:103E700086AFDF01A05CBF4F8DE59EE111969C935C
:103E80008E93129681E69EE111969C938E931296E4
:103E900082E69EE111969C938E9312968BE99EE1A9
:103EA0008D939C93CF0108958F929F92AF92BF9272
:103EB000EF92FF920F931F93CF93DF938A01D22F3C
:103EC0002AE030E040E050E00E94B33B605DF80142
:103ED0006083622F732F842F952F161617061806EE
:103EE0001906FCF421E00F2EFAE08F2E912CA12C64
:103EF000B12CF02DC1E0C20F7801E20EF11CA5013A
:103F000094010E94B33B605DF7016083622F732FC1
:103F1000842F952F2C2F161617061806190654F302
:103F200001C0C1E0CD1748F480E3F801EC0FF11DAA
:103F30008083CF5FDC13F9CF01C0DC2FF801ED0FD8
:103F4000F11D10828D2FDF91CF911F910F91FF9066
:103F5000EF90BF90AF909F908F9008958F929F9217
:103F6000AF92BF92CF92DF92EF92FF920F931F9387
:103F7000CF93DF936B017C01EA01022F20E030E058
:103F8000A9010E94443888230CF066C0F7FAF09427
:103F9000F7F8F094C701B6010E94B5384B015C01F7
:103FA0000E94E1389B01AC01C701B6010E94DF37D6
:103FB0006B017C01B401990C880B990B21E0AE01D7
:103FC00073DF11E0180FFE01E80FF11D8DE2808311
:103FD0005E01A10EB11CF5011082CE0142DC8FEF13
:103FE000800F863008F58EE2F50180831F5F5E0149
:103FF000A10EB11C602F70E080E090E00E94E138DB
:104000009B01AC0160E070E080E291E40E94F6392F
:10401000A70196010E9493390E94B038202FA50174
:1040200043DFC5011EDC37C08EE2F50180831F5FD0
:10403000CE01810F911D8C0120E030E048EC52E46C
:10404000C701B6010E9493390E94B03822E0A8014E
:104050002BDFC80106DC1FC0C701B6010E94B538BE
:104060004B015C010E94E1389B01AC01C701B60124
:104070000E94DF376B017C01B401990C880B990B0E
:1040800021E0AE0111DF11E0180FFE01E80FF11D74
:1040900080E280839DCFCE01DF91CF911F910F9160
:1040A000FF90EF90DF90CF90BF90AF909F908F9058
:1040B0000895CF93DF9300D000D01F92CDB7DEB725
:1040C00085E0E4EBFAE0DE01119601900D928A950D
:1040D000E1F729813A814B815C816D8170E080E05C
:1040E00090E00F900F900F900F900F90DF91CF9175
:1040F000089510928F0AE4EBFAE080E2808389EB66
:1041000099E092838183948383830895CF93DF938F
:1041100021E080E0A7E8BAE0EBE8FAE060E071E0D7
:1041200001C02F5F9FEF920F913009F44BC038F020
:10413000923009F48CC0933009F4CEC00EC1409186
:10414000920A5091930AEA0198819068988340916D
:10415000840A5091850AEA0198819F77988340915B
:10416000900A5091910AEA01388134773C9390810A
:10417000432F492794233083992399F0943019F4DD
:10418000EB0188810AC0903119F4EB01898109C0E3
:10419000903219F4EB018A8104C0903411F4EB01E0
:1041A0008B814091920A5091930AEA0198819F77FE
:1041B00098834091840A5091850AEA019881906819
:1041C0009883AFCF4091920A5091930AEA01988167
:1041D000916098834091840A5091850AEA01988100
:1041E0009E7F98834091900A5091910AEA0138810C
:1041F000347711963C9311979181432F492794234B
:104200003183992399F0943019F4EB018C810AC021
:10421000903119F4EB018D8109C0903219F4EB0152
:104220008E8104C0903411F4EB018F814091920A89
:104230005091930AEA0198819E7F98834091840A65
:104240005091850AEA019881916098836ACF4091E4
:10425000920A5091930AEA01988192609883409162
:10426000840A5091850AEA0198819D7F9883409144
:10427000900A5091910AEA013881347712963C9362
:1042800012979281432F492794233283992399F0DF
:10429000943019F4EB0188850AC0903119F4EB01D0
:1042A000898509C0903219F4EB018A8504C09034E5
:1042B00011F4EB018B854091920A5091930AEA0127
:1042C00098819D7F98834091840A5091850AEA01E4
:1042D00098819260988325CFE091920AF091930A99
:1042E000908198609083E091840AF091850A908192
:1042F000977F9083E091900AF091910A2081247732
:1043000020938A0AEBE8FAE09381322F392793232E
:104310002383992399F0943019F480910C010AC0F9
:10432000903119F480910D0109C0903219F48091F7
:104330000E0104C0903411F480910F01E091920AB3
:10434000F091930A9081977F9083E091840AF09195
:10435000850A90819860908303C0243008F4E1CEF0
:10436000DF91CF910895D2DE882309F445C0809370
:10437000B40A843499F4E0918F0AF0E0EC56F54FDA
:10438000108210928F0AE4EBFAE089EB99E09283B5
:10439000818384E99AE0948383830895E0918F0A6E
:1043A000E630B8F4AE2FB0E0AC56B54F8C93EF5F6B
:1043B000E0938F0AF0E0EC56F54F1082E4EBFAE060
:1043C00084E99AE09283818389EB99E094838383E3
:1043D0000895E4E9FAE0808381E080938F0A1182F6
:1043E000A4EBBAE01296FC93EE93119789EB99E057
:1043F00014969C938E9313970895CF93DF93CDB724
:10440000DEB728970FB6F894DEBF0FBECDBF20E20F
:104410002093B40A9093930A8093920A7093910A1E
:104420006093900A5093850A4093840A2BE8FC011C
:104430002083E091840AF091850A84E78083A7E8CD
:10444000BAE08C93EBE8FAE0808311968C93119795
:10445000818312968C931297828313968C93838315
:1044600010928F0AE091840AF091850A80818B680E
:10447000808326E830E23A83298343EB51E25C8370
:104480004B8369E570E27E836D8389E790E29887CC
:104490008F833A815C817E81988528960FB6F89447
:1044A000DEBF0FBECDBFDF91CF910895E091A50A89
:1044B000F091A60A80818B7F8083E091A50AF0911C
:1044C000A60A80818460808308950F931F93CF9301
:1044D000C82F8B01E091A50AF091A60A80818D7FFB
:1044E0008083E091A20AF091A30A8081806F80838B
:1044F000672B41F0E091A50AF091A60A80818160C6
:10450000808307C0E091A50AF091A60A80818E7F82
:10451000808380E090E0CADFCC2344F4E091A50AD8
:10452000F091A60A80818068808307C0E091A50A87
:10453000F091A60A80818F778083C6FF08C0E09142
:10454000A50AF091A60A80818064808307C0E0916B
:10455000A50AF091A60A80818F7B8083C5FF08C0E1
:10456000E091A50AF091A60A80818062808307C04D
:10457000E091A50AF091A60A80818F7D8083C4FF17
:1045800008C0E091A50AF091A60A8081806180832D
:1045900007C0E091A50AF091A60A80818F7E8083F2
:1045A000012B41F0E091A50AF091A60A808181607B
:1045B000808307C0E091A50AF091A60A80818E7FD2
:1045C000808380E090E072DFC3FF08C0E091A50A1D
:1045D000F091A60A80818068808307C0E091A50AD7
:1045E000F091A60A80818F778083C2FF08C0E09196
:1045F000A50AF091A60A80818064808307C0E091BB
:10460000A50AF091A60A80818F7B8083C1FF08C034
:10461000E091A50AF091A60A80818062808307C09C
:10462000E091A50AF091A60A80818F7D8083C0FF6A
:1046300008C0E091A50AF091A60A8081806180837C
:1046400007C0E091A50AF091A60A80818F7E808341
:10465000E091A50AF091A60A80818B7F8083CF919B
:104660001F910F91089560E070E081E02EDF87EEEA
:1046700097E10197F1F700C0000008950F931F9391
:10468000CF938C01E091A20AF091A30A80818F70F0
:104690008083E091A50AF091A60A8081806F8083D3
:1046A000E091A50AF091A60A8081826080830115BD
:1046B000110541F0E091A50AF091A60A8081816080
:1046C000808307C0E091A50AF091A60A80818E7FC1
:1046D000808380E090E0EADEE0919B0AF0919C0A02
:1046E0008081882314F0C0E001C0C0E8808186FF8B
:1046F00002C0C06401C0CF7B808185FF02C0C06260
:1047000001C0CF7D808184FF02C0C06101C0CF7E27
:10471000012B41F0E091A50AF091A60A8081816009
:10472000808307C0E091A50AF091A60A80818E7F60
:10473000808380E090E0BADEE0919B0AF0919C0AD1
:10474000808188231CF48C2F886002C08C2F877F87
:10475000908196FF02C0846001C08B7F908195FF9D
:1047600002C0826001C08D7F908194FF02C0816091
:1047700001C08E7FE091A50AF091A60A90819B7FEF
:104780009083CF911F910F91089580E090E076DFA4
:10479000882344F480E090E071DF88231CF480E0FB
:1047A00090E06CCF089561E070E08FDEEECF089569
:1047B000CF93DF93EC018881882329F02196F3DFE2
:1047C00089918111FCCFDF91CF9108950F931F93B1
:1047D000CF93DF93FC01D62F8081882351F08F0186
:1047E0000F5F1F4F611109C015C0CF5FDC1730F498
:1047F00001C0C0E0CD1748F00DC0C1E0D4DFF80122
:1048000081918F018111F1CFF5CF80E2CCDFCF5FB5
:10481000CD17D8F3DF91CF911F910F910895CF93CA
:10482000C82F882321F080E2BEDFC150E1F7CF918D
:104830000895262F8130910571F030F08230910576
:1048400089F00397B1F0089560E070E080E8820F8E
:104850003CDE9BCF089560E070E080EC820F35DE97
:1048600094CF089560E070E084E9820F2EDE8DCF52
:10487000089560E070E084ED820F27DE86CF089512
:10488000E091A20AF091A30A87E08083E091A50A53
:10489000F091A60A88E080832FEF83EF91E021500A
:1048A00080409040E1F700C0000060E070E088E3E5
:1048B0000CDE20ED2A95F1F760E070E088E305DE7C
:1048C00080ED8A95F1F760E070E088E3FEDD90ED21
:1048D0009A95F1F760E070E088E2F7DD25EC2A9523
:1048E000F1F7000060E070E088E2EFDD85EC8A958A
:1048F000F1F7000060E070E088E2E7DD46DF60E0AD
:1049000070E088E2E2DD41DF60E070E08CE0DDDD58
:104910003CDF60E070E08CE0D8DD37DF60E070E025
:1049200081E0D3DD32DF60E070E081E0CEDD2DDFBD
:1049300060E070E086E0C9DD28DF60E070E086E0DE
:10494000C4DD23DF60E070E080E090E072CF089586
:10495000CF93DF93EC017093A30A6093A20A509364
:104960009C0A40939B0A3093A60A2093A50AFB0158
:104970001082E091A50AF091A60A8FEF8083E09162
:104980009B0AF0919C0A808188708093A40A78DF4A
:1049900085E692E2998388838EE393E29B838A8300
:1049A00085EC93E29D838C8383ED93E29F838E83DA
:1049B00089E095E29987888788ED93E29B878A87CB
:1049C00086EE93E29D878C878FE094E29F878E87A7
:1049D00083E393E2998B888B89E194E29B8B8A8BAA
:1049E00088EF94E29D8B8C8BCE01DF91CF9108955F
:1049F000CF93E0919B0AF0919C0AC081C87080918E
:104A0000A40A8C278C2309F03BDFC093A40ACF9122
:104A10000895CF9381E090E031DEC82FB6DE8C2F71
:104A2000CF910895FF920F931F93CF93DF93182F89
:104A3000062FF42ECAECDAE0E881F9810995EA81C3
:104A4000FB8160E081E50995EC81FD8182E00995BB
:104A5000EC81FD818F2D0995EC81FD81802F0995D9
:104A6000EC81FD81812F0995E885F9850995DF9114
:104A7000CF911F910F91FF9008951F93CF93DF93D4
:104A8000182FCAECDAE0E881F9810995EA81FB8107
:104A900060E081E50995EC81FD8184E00995EC8178
:104AA000FD81812F0995E885F9850995DF91CF91E1
:104AB0001F9108951F93CF93DF93182FCAECDAE06C
:104AC000E881F9810995EA81FB8160E081E509953A
:104AD000EC81FD8183E00995EC81FD81812F0995B1
:104AE000E885F9850995DF91CF911F9108951F936E
:104AF000CF93DF93182FCAECDAE0E881F9810995AA
:104B0000EA81FB8160E081E50995EC81FD8182E02D
:104B10000995EC81FD81812F0995E885F985099535
:104B2000DF91CF911F9108951F93CF93DF93882337
:104B300021F06370162F106801C010E0CAECDAE0B3
:104B4000E881F9810995EA81FB8160E081E50995B9
:104B5000EC81FD818DE00995EC81FD81812F099526
:104B6000E885F9850995DF91CF911F910895EF921E
:104B7000FF920F931F93CF93DF93E82EF62E042F0F
:104B8000122FCAECDAE0E881F9810995EA81FB810C
:104B900060E081E50995EC81FD8185E00995EC8176
:104BA000FD818E2D0995EC81FD818F2D0995EC817C
:104BB000FD81802F0995EC81FD81812F0995E88584
:104BC000F9850995DF91CF911F910F91FF90EF909B
:104BD00008951F93CF93DF93182FCAECDAE0E88192
:104BE000F9810995EA81FB8160E081E50995EC8115
:104BF000FD8188E00995EC81FD81812F0995E8858B
:104C0000F9850995DF91CF911F9108951F93CF9357
:104C1000DF93182FCAECDAE0E881F9810995EA817F
:104C2000FB8160E081E50995EC81FD8187E00995D4
:104C3000EC81FD81812F0995E885F9850995DF9142
:104C4000CF911F9108951F93CF93DF93182FCAEC34
:104C5000DAE0E881F9810995EA81FB8160E081E58C
:104C60000995EC81FD8186E00995EC81FD81812F1C
:104C70000995E885F9850995DF91CF911F910895F0
:104C80001F93CF93DF93182FCAECDAE0E881F98104
:104C90000995EA81FB8160E081E50995EC81FD8160
:104CA00085E00995EC81FD81812F0995E885F985DD
:104CB0000995DF91CF911F910895FF920F931F9354
:104CC000CF93DF93CAECDAE0E881F9810995EA81B4
:104CD000FB8160E081E50995EC81FD8182E0099529
:104CE000E885F9850995E881F9810995EA81FB81D3
:104CF00061E081E50995EE81FF8181E00995F82E5B
:104D0000EE81FF8181E00995182FEE81FF8180E01F
:104D10000995082FE885F9850995602F6F73712F24
:104D20007F778F2D8F77DF91CF911F910F91FF901C
:104D30000895EF92FF920F931F93CF93DF93CAECE6
:104D4000DAE0E881F9810995EA81FB8160E081E59B
:104D50000995EC81FD8185E00995E885F98509953E
:104D6000E881F9810995EA81FB8161E081E5099596
:104D7000EE81FF8181E00995082FEE81FF8181E0BE
:104D80000995F82EEE81FF8181E00995182FEE81BB
:104D9000FF8180E00995E82EE885F9850995712F56
:104DA0007F716E2D8F2D8770902F9F73DF91CF9124
:104DB0001F910F91FF90EF900895982F92959F70FB
:104DC000990F292F220F220F920F8F70890F0895AC
:104DD0009DEC899F912D1124969596959695392F46
:104DE000330F232F220F220F230F821B20E1929FCC
:104DF000800D11240895CF93DF93CAECDAE0E881A7
:104E0000F9810995EA81FB8160E081E50995EC81F2
:104E1000FD8180E00995EC81FD8180E00995E885C0
:104E2000F9850995DF91CF9108950F931F93CF9343
:104E3000DF93CDB7DEB72C970FB6F894DEBF0FBE69
:104E4000CDBF8C01462F61E4CE0101960E94F01483
:104E50008CE0FE013196AAECBAE001900D928A95A1
:104E6000E1F7C9DF82E195E2F801918380838DE368
:104E700095E2938382838AE595E29583848387E72D
:104E800095E29783868384E995E29187808787EB13
:104E900095E29387828780E496E29587848783E210
:104EA00096E29787868786E096E2918B808B89EEE3
:104EB00095E2938B828B8DE596E2958B848B89E9C5
:104EC00096E2978B868B8DED96E2918F808F88EEA0
:104ED00096E2938F828FC8012C960FB6F894DEBFAE
:104EE0000FBECDBFDF91CF911F910F910895E6E2E4
:104EF000FBE0848D958DDC01AF5BBF4F1C9211965A
:104F00002FE02C93A489B58911968C911197806E0E
:104F100011968C93A689B7898FEF11968C9306888A
:104F2000F789E02D12820895CF93DF93CDB7DEB7D6
:104F3000CA5CD1400FB6F894DEBF0FBECDBFCE0124
:104F40008E599E4F0E940C0882E5FE01EE59FE4FDD
:104F5000A6E2BBE001900D928A95E1F7C8DFCE0191
:104F60008E599E4F0E94B61E88E4FE01EE59FE4FF8
:104F7000AEEDBAE001900D928A95E1F72BE330E0B7
:104F800049E350E06AE370E0CE018E519F4FE0DCD0
:104F9000C851DF4F28813981C85ED040C854DE4FE8
:104FA00039832883C85BD140C251DF4F8880998004
:104FB000CE5ED040C051DF4F88819981C05FD04024
:104FC000C753DE4F99838883C95CD140CE50DF4FF1
:104FD000A881B981C25FD040CA54DE4FB983A8838B
:104FE000C65BD140CC50DF4F28803980C45FD040B1
:104FF00043E250E061E270E082E290E0FED9C85006
:10500000DF4F2883C85FD040C750DF4F3883C95F68
:10501000D040C650DF4F4883CA5FD040C550DF4FF5
:105020005883CB5FD040C450DF4F6883CC5FD04003
:10503000C350DF4F7883CD5FD040C250DF4F8883AD
:10504000CE5FD040C150DF4F9883CF5FD040C45077
:10505000DF4F48805980CC5FD040C250DF4FE8819D
:10506000F981CE5FD040C254DE4FF983E883CE5B36
:10507000D14006E21BE01F921F921F9281E08F93A6
:1050800090E89F938F93D80116966D917C91179716
:10509000FB010995C654DE4F688379838A839B831D
:1050A000CA5BD140D801D696ED91FC91D79742E0EA
:1050B00062E0CE0193950995D8019A96ED91FC9105
:1050C0009B9740E069E0CE01805F9E4F0995C85EE6
:1050D000DE4FE881F981C851D140CB53DE4FF983CF
:1050E000E883C55CD140D801D296ED91FC91D3976D
:1050F00042E062E0CE01805E9E4F099560E1CE0104
:105100008E599E4F92DE8CE1FE01EE59FE4FADE7C7
:10511000BBE001900D928A95E1F701E020E042E0CA
:1051200065E670E084E690E00E9480012093D60A54
:105130003093D70A4093D80A5093D90A6093DA0A79
:105140007093DB0AE091680BF091690B00E010E0CE
:1051500021E030E048E050E069E170E0CE018E5996
:105160009E4F099582E1FE01EE59FE4FADE9BBE08D
:1051700001900D928A95E1F7CE01805D9E4F40E34C
:1051800050E0FC014193519324E0DF01322F1D9246
:105190003A95E9F7FE01EA5CFE4F41935193DF0136
:1051A0001D922A95E9F79093BE098093BD0910924C
:1051B000790B1092780B1092DD0A1092DC0ACA5F0C
:1051C000DE4FE881F981C650D14089EF0995C45F6F
:1051D000DE4FE881F981CC50D14080E490E0099520
:1051E000CE5EDE4FE881F981C251D14082E009955F
:1051F000CA5EDE4FE881F981C651D14080E29EE46B
:105200000995C45EDE4FE881F981CC51D14088E038
:1052100090E00995C45DDE4FE881F981CC52D14020
:1052200080E090E00995E091850BF091860B62E0BB
:1052300081E00995CA50DF4FE881F981C65FD0400F
:105240000995C650DF4FE881F981CA5FD0400995C2
:105250000F900F900F900F900F900F90ECE0F0E0F8
:10526000CF53DE4FF983E883C15CD140F0E3C054F3
:10527000DE4FF883C05CD1400F2EF1E36F2EF02D8E
:10528000762C15C0CA50DF4FE881F981C65FD04047
:105290000995C650DF4FE881F981CA5FD040099572
:1052A000662029F0E091A70BF091A80B09950DE974
:1052B0001BE0D8011896ED91FC91199709959093F0
:1052C000BC098093BB09D8011696ED91FC91179704
:1052D00009958A3061F46091BB097091BC09CE01D7
:1052E0008E5B9E4F0E94FA3B6624639401C0612C42
:1052F0000DE71BE0D8015496ED91FC915597099567
:1053000060937A0B70937B0B80937C0BD80156963D
:10531000ED91FC91579709956093990B70939A0BB7
:1053200080939B0B90939C0B80E090E0C454DE4FE5
:10533000E881F981CC5BD1400995CC54DE4F99834B
:105340008883C45BD140E091EC0AF091ED0A0995A5
:10535000BC01CE01805D9E4F0E94FA3B60E070E090
:1053600081E090E0F10109958AE3C854DE4FE881BD
:10537000F981C85BD1400995F2010995C352DF4F0D
:105380002883CD5DD040C252DF4F3883CE5DD04000
:10539000C152DF4F4883CF5DD040C052DF4F5883AA
:1053A000C05ED040CF51DF4F6883C15ED04066E021
:1053B000C252DF4F88819981CE5DD040F4010995BA
:1053C00069E777E08091BB099091BC090E94F13BAD
:1053D000892B59F4CA54DE4FE881F981C65BD1406C
:1053E00009950F2EF6E37F2EF02D0091BB09109149
:1053F000BC096AE877E0C8010E94F13B892B99F467
:10540000CA54DE4FE881F981C65BD140099563E853
:1054100077E08091BB099091BC090E94F13B892BF8
:1054200049F00C94423463E877E0C8010E94F13BF4
:10543000892B49F4CA54DE4FE881F981C65BD1401B
:1054400009950C944234872D90E0FC01F197E730E8
:10545000F10510F00C941237EC56FF4F0C94CF3B33
:10546000F2010995C852DF4F2883C85DD040C7526A
:10547000DF4F3883C95DD040C652DF4F4883CA5DD5
:10548000D040C552DF4F5883CB5DD040C452DF4F70
:105490006883CC5DD04066E977E0C552DF4F8881F4
:1054A0009981CB5DD0400E94F13B892BA1F4C2547D
:1054B000DE4FE881F981CE5BD1400995CA54DE4FB9
:1054C000E881F981C65BD14009950F2EF7E37F2E65
:1054D000F02D0C942437F2010995CD52DF4F28832B
:1054E000C35DD040CC52DF4F3883C45DD040CB5237
:1054F000DF4F4883C55DD040CA52DF4F5883C65D39
:10550000D040C952DF4F6883C75DD04068E977E07B
:10551000CA52DF4F88819981C65DD0400E94F13B1D
:10552000892BA1F4C254DE4FE881F981CE5BD140D2
:105530000995CA54DE4FE881F981C65BD1400995CF
:105540000F2EF2E37F2EF02D0C942437CF53DE4F35
:1055500088819981C15CD14006970F9708F066C099
:10556000CF53DE4F28813981C15CD140B90180E041
:1055700090E01F921F9229E02F932EE22F93E0914B
:105580000A0BF0910B0B0F2EF4EFAF2EBB24B3944C
:10559000C12CD12CF02D17E1E12EF12C00E010E010
:1055A00022E030E040E050E00995CF53DE4F6883C1
:1055B00079838A839B83C15CD140CC54DE4FA88120
:1055C000B981C45BD140BD0180E090E01F921F9281
:1055D0001F9228EC2F93E0910A0BF0910B0B0F2EEA
:1055E000F8E3AF2EBB24BA94CB2CDB2CF02DEE24A9
:1055F000EA9413E0F12E00E010E020E030E0A90191
:105600000995CF53DE4F88819981C15CD140860FC7
:10561000971FCB53DE4FE881F981C55CD1400995D6
:105620000FB6F894DEBF0FBECDBF2CC01F921F92E5
:1056300089E08F938EE28F93E0910A0BF0910B0B30
:105640000F2EF4EFAF2EBB24B394C12CD12CF02D30
:1056500017E1E12EF12C00E010E022E030E040E024
:1056600050E066E070E080E090E00995CB01CB531C
:10567000DE4FE881F981C55CD14009950F900F900C
:105680000F900F9060E070E080E090E0F1010995EC
:1056900063E08AE997E0F401099565E0CE01805D59
:1056A0009E4FF401099568E070E080E090E0F10120
:1056B00009950F2EFEEDCF2EFAE0DF2EF02DD6014C
:1056C0005096ED90FC90519709E91BE00F2EFDE7F5
:1056D000AF2EFBE0BF2EF02DD5015896ED91FC9139
:1056E0005997D80113968C91099590E0F701099587
:1056F00062E0F40109958AE3C854DE4FE881F9813C
:10570000C85BD1400995D6015096ED90FC90519719
:10571000D5015896ED91FC915997D80111968C912D
:10572000099590E0F701099562E0F40109958AE393
:10573000C854DE4FE881F981C85BD1400995D60194
:105740005096ED90FC905197D5015896ED91FC91B3
:105750005997D8018C91099590E0F701099562E07D
:10576000F401099568E070E081E090E0F1010995AD
:105770000F2EFAE7EF2EFBE0FF2EF02DD501589605
:10578000ED91FC915997D7018C910995E82FF0E0A4
:10579000CF53DE4FF983E883C15CD140D6015096E8
:1057A000ED91FC915197CF53DE4F88819981C15C77
:1057B000D140099562E0F40109958AE3C854DE4FAF
:1057C000E881F981C85BD1400995D60150960D91C9
:1057D0001C915197D5015896ED91FC915997D7019D
:1057E00011968C91099590E0F801099562E0F40119
:1057F00009958AE3C854DE4FE881F981C85BD1403E
:105800000995D60150960D911C915197D501589646
:10581000ED91FC915997D70112968C91099590E0E2
:10582000F801099562E0F40109950C942437F2011E
:105830000995C253DF4F2883CE5CD040C153DF4F60
:105840003883CF5CD040C053DF4F4883C05DD04029
:10585000CF52DF4F5883C15DD040CE52DF4F6883B7
:10586000C25DD04066E977E0CF52DF4F88819981F1
:10587000C15DD0400E94F13B892BA1F4C254DE4FA0
:10588000E881F981CE5BD1400995CA54DE4FE881A9
:10589000F981C65BD14009950F2EF1E37F2EF02DE3
:1058A0000C942437F2010995C753DF4F2883C95C54
:1058B000D040C653DF4F3883CA5CD040C553DF4F5A
:1058C0004883CB5CD040C453DF4F5883CC5CD0407E
:1058D000C353DF4F6883CD5CD04068E977E0C453A1
:1058E000DF4F88819981CC5CD0400E94F13B892BAD
:1058F000A1F4C254DE4FE881F981CE5BD140099515
:10590000CA54DE4FE881F981C65BD14009950F2E5C
:10591000F3E37F2EF02D0C942437F2010995CC533C
:10592000DF4F2883C45CD040CB53DF4F3883C55C46
:10593000D040CA53DF4F4883C65CD040C953DF4FC5
:105940005883C75CD040C853DF4F6883C85CD040E1
:105950006DE977E0C953DF4F88819981C75CD040FA
:105960000E94F13B892BD9F4C254DE4FE881F981C2
:10597000CE5BD1400995CA54DE4FE881F981C65B00
:10598000D1400995E091AD0BF091AE0B8FE997E016
:1059900009950F2EF1E37F2EF02D0C94243760E053
:1059A00070E080E090E0F101099565E08DEA97E014
:1059B000F401099563E0CE018A5C9E4FF4010995DC
:1059C000F2010995C154DF4F2883CF5BD040C0540A
:1059D000DF4F3883C05CD040CF53DF4F4883C15C7A
:1059E000D040CE53DF4F5883C25CD040CD53DF4F01
:1059F0006883C35CD040243409F07FC0F20109956C
:105A0000C654DF4F2883CA5BD040C554DF4F38836C
:105A1000CB5BD040C454DF4F4883CC5BD040C354F1
:105A2000DF4F5883CD5BD040C254DF4F6883CE5BDD
:105A3000D040C354DF4F68817981CD5BD04046E0D0
:105A400050E0CE018A5C9E4F0E94013CE091F80A32
:105A5000F091F90ACE018A5C9E4F0995853B91052C
:105A6000D0F5BC01990F880B990B1F921F9229E06A
:105A70002F932EE22F93E0910A0BF0910B0B0F2E38
:105A8000F4EFAF2EBB24B394C12CD12CF02D14EB2A
:105A9000E12EF12C00E010E020E030E0A9010995B2
:105AA000CB01CB53DE4FE881F981C55CD14009952C
:105AB0006CE070E080E090E0F101099584E0C7536C
:105AC000DE4FE881F981C95CD14009950F900F90B4
:105AD0000F900F900BC06CE070E080E090E0F1015F
