S011000041746D6567613132382E7372656329
S1130000D4C00000F1C00000EFC00000EDC000004B
S1130010EBC00000E9C00000E7C00000E5C000003C
S1130020E3C00000E1C00000DFC00000DDC000004C
S1130030DBC00000D9C00000D7C000000C946829C0
S1130040D3C00000D1C000000C94AB170C94E3178C
S1130050CBC00000D7C20000C7C00000C5C000006C
S1130060C3C00000C1C00000BFC00000BDC000008C
S1130070BBC00000B9C000000C94FE170C943618E5
S1130080B3C00000B1C00000AFC00000CA03EF035A
S1130090140439045E049C04DA04180566056E052C
S11300A076057E0586058E0596059E05B605C7056B
S11300B0D805E905FA050B061C062D06470E4F0E5A
S11300C0570E5F0E670E780E890E9A0EA20EB30EAF
S11300D0C40ED50EDD0EEE0EFF0E360F440F520F7A
S11300E0600F6B0F790F870F950FAC0FBA0FC80F06
S11300F0DF0F65116B11711177117D1186118F114D
S113010098119E11A711B011B911BF11C811D111C5
S1130110F111FD11081214121F122B123612421281
S11301204D1259126412701207634236B79BD8A756
S11301301A39685618AEBAAB558C1D3CB7CC576308
S1130140BD6DEDFD753EF6177231BF000000803FB6
S113015008000000BE922449123EABAAAA2ABECDD2
S1130160CCCC4C3E00000080BEABAAAAAA3E000044
S11301700000BF000000803F00000000000841783C
S1130180D3BB4387D1133D190E3CC3BD4282AD2B73
S11301903E68EC8276BED98FE1A93E4C80EFFFBE6B
S11301A001C4FF7F3F000000000011241FBECFEFF9
S11301B0D0E1DEBFCDBF11E0A0E0B1E0E8E3F2E6BC
S11301C000E00BBF02C007900D92A235B107D9F72A
S11301D024E0A2E5B1E001C01D92AE30B207E1F720
S11301E00E9454250C941A310BCF882389F0E09196
S11301F03F02F0914002208181E090E000904102B2
S113020002C0880F991F0A94E2F7822B808311C0E1
S1130210E0913F02F0914002208181E090E0009063
S1130220410202C0880F991F0A94E2F78095822345
S11302308083E0913F02F0914002408181E090E0B0
S11302409C010090430202C0220F331F0A94E2F77C
S1130250242B2083E0913F02F09140022081009002
S1130260430202C0880F991F0A94E2F78095822303
S113027080830895E0913F02F0914002408181E043
S113028090E09C010090420202C0220F331F0A94A6
S1130290E2F7242B2083E0913F02F0914002208179
S11302A00090420202C0880F991F0A94E2F78095D9
S11302B0822380830895FF920F931F93CF93DF933C
S11302C0F82EC0E0D0E001E010E0C8010C2E02C01E
S11302D0880F991F0A94E2F78F2187DF2196C8308F
S11302E0D10599F7C7DFDF91CF911F910F91FF904F
S11302F008950F93CF93DF9300D000D000D0CDB7F3
S1130300DEB790933E0280933D0270934002609367
S11303103F02409341022093430200934202FC01B6
S1130320308161E070E0DB0102C0AA0FBB1F2A9597
S1130330E2F7FB0102C0EE0FFF1F0A95E2F7EA2B7A
S113034002C0660F771F4A95E2F76E2B232F262BE8
S1130350FC012083E0913F02F0914002808160958E
S11303606823608325EF30E03A8329834BE551E02D
S11303705C834B836AE371E07E836D833A815C81A5
S11303807E8180E090E026960FB6F894DEBF0FBE23
S1130390CDBFDF91CF910F910895E0914C02F09180
S11303A04D02228126FD02C020642283FC01EE0F4F
S11303B0FF1FE956FE4F808191810895EF92FF92CD
S11303C00F931F93CF93DF93CDB7DEB7C255D109F7
S11303D00FB6F894DEBF0FBECDBF6C960FAD6C9711
S11303E06D961FAD6D976F96EEACFFAC6F97C7011E
S11303F08F7199279093450280934402109256017D
S11304001092550110925201CE0101968AD482E5D0
S1130410FE013196A8E4B2E001900D928A95E1F7CD
S1130420E0914C02F0914D0283818F7383830130FC
S113043019F0033051F012C0E0914C02F0914D02DA
S113044083818064838341E00AC0E0914C02F0918F
S11304504D028381806C838343E001C040E0E091DE
S11304604C02F0914D0283818F7D83831E141F04FF
S113047094F4DE01A15ABF4F80E090E02D913D91AC
S1130480FC01EE0FFF1FE95AFE4F318320830196D2
S1130490E816F90699F7E8E4F2E0A481B581139629
S11304A08C911397807E13968C93A0915501B091F3
S11304B05601AA0FBB1FA95ABE4F8D919C91A481CE
S11304C0B5818F71992713969C911397892B139655
S11304D08C93A481B58112968C91129780681296A0
S11304E08C93A481B58112968C9112978064129694
S11304F08C93A481B58112968C9112978F7D12965C
S11305008C93A481B58112968C911297886012966F
S11305108C930480F581E02D8281887F8283103161
S113052061F140F41430B9F01830F1F0123009F0F0
S113053048C008C0103499F11038D1F1103209F0D4
S113054040C024C0E0914C02F0914D028281816050
S1130550828322E03EC0E0914C02F0914D02828100
S11305608260828324E035C0E0914C02F0914D0218
S113057082818360828328E02CC0E0914C02F09158
S11305804D0282818460828320E123C0E0914C0289
S1130590F0914D0282818560828320E21AC0E0914D
S11305A04C02F0914D0282818660828320E411C066
S11305B0E0914C02F0914D0282818760828320E8B1
S11305C008C0E0914C02F0914D02828187608283E1
S11305D020E8E0915202F09153028385806883877A
S11305E0642F722F8DEC91E0CE5ADF4F0FB6F89442
S11305F0DEBF0FBECDBFDF91CF911F910F91FF9052
S1130600EF9008951F920F920FB60F9211240BB61C
S11306100F922F933F934F935F936F937F938F9397
S11306209F93AF93BF93EF93FF93E0914C02F091AC
S11306304D02808191815CD390934702809346025E
S113064020915201243080F4209152012F5F209395
S113065052012091530130915401820F931F9093C2
S11306605401809353014DC0E0915501F09156011E
S1130670809153019091540195958795959587950F
S1130680EE0FFF1FE956FE4F9183808310925401B1
S1130690109253011092520120915501309156014C
S11306A080914402909145022817390754F48091AF
S11306B055019091560101969093560180935501EE
S11306C004C01092560110925501A8E4B2E01496A9
S11306D0ED91FC9115978381807E8383E091550190
S11306E0F0915601EE0FFF1FE95AFE4F8081918170
S11306F01496ED91FC9115978F7199279381892B0D
S11307008383FF91EF91BF91AF919F918F917F91DF
S11307106F915F914F913F912F910F900BBE0F906E
S11307200FBE0F901F901895E0915202F091530262
S11307308081982F9F71943099F028F4913041F082
S1130740923051F019C0983079F0903189F014C08A
S11307508E7F808380E008958D7F808381E008957B
S11307608B7F808382E00895877F808383E0089570
S11307708F7E808384E00895807E808380E0089566
S113078090E08830910508F091C1FC01EA5BFF4FCD
S11307900C94F42DE8E4F2E0A685B78511968C91CB
S11307A011978E7F11968C930684F785E02D8289AC
S11307B08C7F623021F0633029F0828B05C0826027
S11307C0828B02C08360828B818181608183E0910E
S11307D05202F09153028385806883870895E8E488
S11307E0F2E0A685B78511968C9111978D7F1196AD
S11307F08C930684F785E02D8289837F623021F013
S1130800633029F0828B05C08860828B02C08C60C3
S1130810828B818182608183E0915202F091530244
S11308208385806883870895E8E4F2E0A685B78528
S113083011968C9111978B7F11968C930684F78572
S1130840E02D82898F7C623021F0633029F0828B25
S113085005C08062828B02C08063828B8181846048
S11308608183E0915202F0915302838580688387EB
S11308700895E8E4F2E0A685B78511968C91119766
S1130880877F11968C930684F785E02D82898F7378
S1130890623021F0633029F0828B05C08068828B3E
S11308A002C0806C828B818188608183E0915202D6
S11308B0F09153028385806883870895E8E4F2E029
S11308C0A685B78511968C9111978F7E11968C937E
S11308D00684F785E02D82818C7F8283623061F00B
S11308E0633091F06130B9F4E0915602F09157020F
S11308F08281816082830FC0E0915602F091570299
S113090082818260828307C0E0915602F09157028F
S1130910828183608283E8E4F2E0A685B78511963C
S11309208C911197806111968C930284F385E02D4C
S11309308385806883870895E8E4F2E0A685B78517
S113094011968C9111978F7D11968C930684F7855F
S1130950E02D8281837F8283623061F0633091F085
S11309606130B9F4E0915602F091570282818460BB
S113097082830FC0E0915602F09157028281886011
S1130980828307C0E0915602F091570282818C6005
S11309908283E8E4F2E0A685B78511968C911197DD
S11309A0806211968C930284F385E02D83858068A0
S11309B083870895E8E4F2E0A685B78511968C91C3
S11309C011978F7B11968C930684F785E02D828195
S11309D08F7C8283623061F0633091F06130B9F4CE
S11309E0E0915602F09157028281806182830FC0A8
S11309F0E0915602F091570282818062828307C09F
S1130A00E0915602F0915702828180638283E8E488
S1130A10F2E0A685B78511968C91119780641196A2
S1130A208C930284F385E02D838580688387089501
S1130A30E8E4F2E0A685B78511968C9111978F773B
S1130A4011968C930684F785E02D82818F738283BF
S1130A50623061F0633091F06130B9F4E091560294
S1130A60F09157028281806482830FC0E091560224
S1130A70F091570282818068828307C0E091560218
S1130A80F09157028281806C8283E8E4F2E0A685CB
S1130A90B78511968C911197806811968C93028476
S1130AA0F385E02D8385806883870895E09156025D
S1130AB0F09157021182089590E08830910508F072
S1130AC045C0FC01E25BFF4F0C94F42DE09156020B
S1130AD0F091570281818E7F81830895E0915602BF
S1130AE0F091570281818D7F81830895E0915602B0
S1130AF0F091570281818B7F81830895E0915602A2
S1130B00F09157028181877F81830895E091560295
S1130B10F091570281818F7E81830895E09156027E
S1130B20F091570281818F7D81830895E09156026F
S1130B30F091570281818F7B81830895E091560261
S1130B40F091570281818F7781830895E091560255
S1130B50F09157021182089590E08830910508F0D1
S1130B608CC0FC01EA5AFF4F0C94F42DE8E4F2E047
S1130B70A685B78511968C911197816011968C93F7
S1130B800284F385E02D8385806883870895E8E4F3
S1130B90F2E0A685B78511968C9111978260119623
S1130BA08C930284F385E02D838580688387089580
S1130BB0E8E4F2E0A685B78511968C9111978460DC
S1130BC011968C930284F385E02D83858068838756
S1130BD00895E8E4F2E0A685B78511968C91119703
S1130BE0886011968C930284F385E02D8385806858
S1130BF083870895E8E4F2E0A685B78511968C9181
S1130C001197806111968C930284F385E02D83857E
S1130C10806883870895E8E4F2E0A685B785119695
S1130C208C911197806211968C930284F385E02D48
S1130C308385806883870895E8E4F2E0A685B78514
S1130C4011968C911197806411968C930284F3858C
S1130C50E02D8385806883870895E8E4F2E0A68523
S1130C60B78511968C911197806811968C930284A4
S1130C70F385E02D8385806883870895CF93DF9380
S1130C80CDB7DEB7CA55D1090FB6F894DEBF0FBE93
S1130C90CDBFCE01099645D082E5FE013996A8E480
S1130CA0B2E001900D928A95E1F7E0915602F0913D
S1130CB05702118220EC33E03A8329834CE555E056
S1130CC05C834B836CEA75E07E836D8384E993E0F7
S1130CD098878F833A815C817E819885C65ADF4FDD
S1130CE00FB6F894DEBF0FBECDBFDF91CF9108954C
S1130CF0292F30E0322F2227A901482BCA01089559
S1130D00282F30E0322F2227A901492BCA01089548
S1130D100895282F892F922F089598278927982797
S1130D200895FC011182108288E290E0938382830B
S1130D3084E290E0958384838EED91E097838683AB
S1130D4088E690E09187808784E590E093878287A6
S1130D508CE390E09587848788E590E09787868781
S1130D608EE396E0918B808B89E390E0938B828B6A
S1130D7086E390E0958B848B83E390E0978B868B5E
S1130D8080E390E0918F808F81E290E0938F828F57
S1130D9080E290E0958F848F83E690E0978F868F32
S1130DA082E490E091A380A380E490E093A382A3E3
S1130DB02DE230E035A324A320EA37E037A326A3AD
S1130DC091A780A727E03EE033A722A795A784A791
S1130DD026E231E137A726A723E430E031AB20AB8C
S1130DE02EE630E133AB22AB95AB84AB8FE49DE0D0
S1130DF097AB86AB80E790E091AF80AF85E793E156
S1130E0093AF82AF89E290E095AF84AF83EA94E137
S1130E1097AF86AFDF01A05CBF4F88E990E01196E1
S1130E209C938E93129685E396E111969C938E93F0
S1130E30129681E490E011969C938E93129680E032
S1130E4091E011969C938E93129688E796E0119602
S1130E509C938E93129680E896E011969C938E93C1
S1130E60129688E896E011969C938E93129689E8E0
S1130E7096E011969C938E9312968DE896E08D934E
S1130E809C93CF0108950F931F93CF93DF93442333
S1130E9019F1FC01062F172F415050E04F5F5F4FAF
S1130EA0480F591F28E432E0D9019496CD91DC9182
S1130EB0959791919A8394960D90BC91A02D11963B
S1130EC09C9111979923F4F712969C91E8019993B8
S1130ED08E01E417F50741F7DF91CF911F910F9130
S1130EE00895CF93DF936623D1F0FC016150262F40
S1130EF030E02F5F3F4F280F391FA8E4B2E09496EB
S1130F00CD91DC91959791919A839496CD91DC91B2
S1130F10959799819923F4F7E217F30781F7DF9105
S1130F20CF910895E8E4F2E0A4A1B5A112968C93C0
S1130F3004A0F5A1E02D81818823F4F7828108952E
S1130F40EF92FF920F931F93CF93DF93CDB7DEB74A
S1130F50C855D1090FB6F894DEBF0FBECDBFF82E29
S1130F60E62E042F122FCE010796DBDE82E5FE016A
S1130F703796A8E4B2E001900D928A95E1F7E091EA
S1130F805C02F0915D028181807F8183FF20C9F042
S1130F9081E0F81224C0E8E4F2E0A4A1B5A18C91A8
S1130FA080618C93A489B58911968C91119787607F
S1130FB011968C930488F589E02D82818160828367
S1130FC01BC0E8E4F2E0A4A1B5A18C9180618C93EC
S1130FD00488F589E02D8181886081830DC0E8E46F
S1130FE0F2E0A4A1B5A18C9180618C930488F58969
S1130FF0E02D818187608183EE2059F081E0E81241
S113100010C0E0916C02F0916D0280818062808357
S11310100FC0E0916C02F0916D0280818F7D80831E
S113102007C0E0916C02F0916D0280818F7D808316
S1131030013071F028F0023099F00330C9F020C07B
S1131040E0916C02F0916D028081837F80831FC0E8
S1131050E0916C02F0916D0280818460808317C0FE
S1131060E0916C02F0916D028081886080830FC0F2
S1131070E0916C02F0916D0280818C60808307C0E6
S1131080E0916C02F0916D028081837F8083103146
S113109009F446C040F4143009F1183081F11230DB
S11310A009F082C00AC0103409F45CC0103809F495
S11310B06AC0103209F078C044C0E8E4F2E0A4A1A8
S11310C0B5A111968C911197816011968C9304A00F
S11310D0F5A1E02D80818C7F808376C0E8E4F2E086
S11310E0A4A1B5A111968C9111978E7F11968C9322
S11310F004A0F5A1E02D80818C7F808365C0E8E4A5
S1131100F2E0A4A1B5A111968C911197816011967A
S11311108C9304A0F5A1E02D80818160808354C06C
S1131120E8E4F2E0A4A1B5A111968C9111978E7F09
S113113011968C9304A0F5A1E02D808181608083B9
S113114043C0E8E4F2E0A4A1B5A111968C911197F3
S1131150816011968C9304A0F5A1E02D80818260BA
S1131160808332C0E8E4F2E0A4A1B5A111968C9189
S113117011978E7F11968C9304A0F5A1E02D8081A8
S11311808260808321C0E8E4F2E0A4A1B5A11196B5
S11311908C911197817011968C9304A0F5A1E02D88
S11311A080818360808310C0E8E4F2E0A4A1B5A14B
S11311B011968C911197816011968C9304A0F5A1DE
S11311C0E02D808181608083E0916C02F0916D025A
S11311D080818064808323E437E03A83298341E774
S11311E057E05C834B8362E977E07E836D833A81C9
S11311F05C817E8180E090E0C85ADF4F0FB6F8949E
S1131200DEBF0FBECDBFDF91CF911F910F91FF9035
S1131210EF90089520919D02211163C0E0917C021A
S1131220F0917D022389287F238B8034910579F105
S113123050F488309105D9F08032910501F101977D
S113124009F045C00CC0811521E0920781F1811598
S113125024E09207A1F180389105C9F520C0E091FE
S11312607C02F0917D0283898160838B37C0E09199
S11312707C02F0917D0283898260838B2FC0E09190
S11312807C02F0917D0283898360838B27C0E09187
S11312907C02F0917D0283898460838B1FC0E0917E
S11312A07C02F0917D0283898560838B17C0E09175
S11312B07C02F0917D0283898660838B0FC0E0916C
S11312C07C02F0917D0283898760838B07C0E09163
S11312D07C02F0917D0283898760838B85E580930E
S11312E09D0280919D020895E0917C02F0917D021F
S11312F093899F7C938B823091F08330F1F081301D
S113130049F5E8E4F2E0A489B58980E111968C936B
S113131004A8F5A9E02D83898061838B0895E8E40E
S1131320F2E0A489B58980E111968C9304A8F5A90B
S1131330E02D83898062838B0895E8E4F2E0A48938
S1131340B58980E111968C9304A8F5A9E02D8389D1
S11313508063838B0895E0917C02F0917D02818B00
S11313600895E0917C02F0917D028389887F838BCC
S113137010929D0280E0089520919A02211161C08B
S1131380E0917002F09171022685287F26878830CB
S11313909105E9F040F486309105C9F108F03FC0A9
S11313A0019769F044C0811521E0920701F181158C
S11313B024E0920721F180349105C9F510C0E09131
S11313C07002F091710286858160868737C0E09152
S11313D07002F09171028685826086872FC0E09149
S11313E07002F091710286858360868727C0E09140
S11313F07002F09171028685846086871FC0E09137
S11314007002F091710286858560868717C0E0912D
S11314107002F09171028685866086870FC0E09124
S11314207002F091710286858760868707C0E0911B
S11314307002F091710286858560868785E58093C8
S11314409A0280919A020895E0917002F0917102DB
S113145097859F7397878230A9F0833021F181307B
S113146091F5E8E4F2E0A489B58911968C9111977D
S1131470806211968C9300A4F1A5E02D8785806489
S113148087870895E8E4F2E0A489B58911968C91E0
S11314901197806211968C9300A4F1A5E02D8785A5
S11314A0806887870895E8E4F2E0A489B5891196F5
S11314B08C911197806211968C9300A4F1A5E02D74
S11314C08785806C87870895E0917002F09171029E
S11314D097859F7C97878230A9F0833021F18130F2
S11314E091F5E8E4F2E0A489B58911968C911197FD
S11314F0806411968C9300A4F1A5E02D878580610A
S113150087870895E8E4F2E0A489B58911968C915F
S11315101197806411968C9300A4F1A5E02D878522
S1131520806287870895E8E4F2E0A489B58911967A
S11315308C911197806411968C9300A4F1A5E02DF1
S11315408785806387870895E0917002F091710226
S11315509785937F97878230A9F0833021F181307A
S113156091F5E8E4F2E0A489B58911968C9111977C
S1131570806811968C9300A4F1A5E02D8785846082
S113158087870895E8E4F2E0A489B58911968C91DF
S11315901197806811968C9300A4F1A5E02D87859E
S11315A0886087870895E8E4F2E0A489B5891196F4
S11315B08C911197806811968C9300A4F1A5E02D6D
S11315C087858C6087870895CF93DF93C0917002DD
S11315D0D0917102E0919602F091970209959B8750
S11315E08A87DF91CF910895CF93DF93C0917002E2
S11315F0D0917102E0919602F09197020995998732
S11316008887DF91CF910895CF93DF93C0917002C3
S1131610D0917102E0919602F0919702099599AFE9
S113162088AFDF91CF910895E0917002F09171023B
S11316308685887F868710929A0280E0089520919B
S11316409C02211161C0E0917802F091790222811B
S1131650287F228388309105E9F040F48630910593
S1131660C9F108F03FC0019769F044C0811521E039
S1131670920701F1811524E0920721F1803491054C
S1131680C9F510C0E0917802F091790282818160FD
S1131690828337C0E0917802F0917902828182607E
S11316A082832FC0E0917802F09179028281836075
S11316B0828327C0E0917802F0917902828184606C
S11316C082831FC0E0917802F09179028281856063
S11316D0828317C0E0917802F0917902828186605A
S11316E082830FC0E0917802F09179028281876051
S11316F0828307C0E0917802F0917902828185604B
S1131700828385E580939C0280919C020895E091F8
S11317107802F091790292819F7C92838230A9F0C1
S1131720833021F1813091F5E8E4F2E0A489B589B0
S113173011968C911197806811968C9300A8F1A949
S1131740E02D8281806182830895E8E4F2E0A48937
S1131750B58911968C911197806811968C9300A885
S1131760F1A9E02D8281806282830895E8E4F2E0A9
S1131770A489B58911968C911197806811968C93E0
S113178000A8F1A9E02D8281806382830895E0910D
S11317907802F091790280830895E0917802F091C3
S11317A079028281887F828310929C0280E008956E
S11317B09C0180919B02811154C04091740250910C
S11317C07502FA01E65BFF4F9081987F9083283081
S11317D03105D9F040F42630310579F1A0F52130F6
S11317E0310569F036C0211581E03807D1F02115A3
S11317F084E03807E1F02034310559F50CC0FA01D2
S1131800E65BFF4F9160908329C0FA01E65BFF4FCE
S11318109260908323C0FA01E65BFF4F936090834C
S11318201DC0FA01E65BFF4F9460908317C0FA0174
S1131830E65BFF4F9560908311C0FA01E65BFF4FB2
S1131840966090830BC0FA01E65BFF4F976090832C
S113185005C0FA01E65BFF4F9560908385E58093B0
S11318609B0280919B020895E0917402F0917502AD
S1131870E55BFF4F90819F7390838230B9F0833092
S113188041F18130C1F5E8E4F2E0A28DB38D119607
S11318908C911197886011968C9304A4F5A5E02D82
S11318A0E55BFF4F8081806480830895E8E4F2E083
S11318B0A28DB38D11968C911197886011968C939B
S11318C004A4F5A5E02DE55BFF4F8081806880834B
S11318D00895E8E4F2E0A28DB38D11968C911197EE
S11318E0886011968C9304A4F5A5E02DE55BFF4F69
S11318F08081806C80830895E0917402F091750278
S1131900E55BFF4F90819F7C90838230B9F08330F8
S113191041F18130C1F5E8E4F2E0A28DB38D119676
S11319208C911197806111968C9304A4F5A5E02DF8
S1131930E55BFF4F8081806180830895E8E4F2E0F5
S1131940A28DB38D11968C911197806111968C9311
S113195004A4F5A5E02DE55BFF4F808180628083C0
S11319600895E8E4F2E0A28DB38D11968C9111975D
S1131970806111968C9304A4F5A5E02DE55BFF4FDF
S11319808081806380830895E0917402F0917502F0
S1131990E55BFF4F9081937F90838230B9F0833071
S11319A041F18130C1F5E8E4F2E0A28DB38D1196E6
S11319B08C911197806211968C9304A4F5A5E02D67
S11319C0E55BFF4F8081846080830895E8E4F2E062
S11319D0A28DB38D11968C911197806211968C9380
S11319E004A4F5A5E02DE55BFF4F8081886080832A
S11319F00895E8E4F2E0A28DB38D11968C911197CD
S1131A00806211968C9304A4F5A5E02DE55BFF4F4D
S1131A1080818C6080830895CF93DF93C09174029A
S1131A20D0917502CA5BDF4FE0919602F091970264
S1131A30099599838883DF91CF910895CF93DF939C
S1131A40C0917402D0917502CC5BDF4FE091960295
S1131A50F0919702099599838883DF91CF91089536
S1131A60CF93DF93C0917402D0917502CE5BDF4FA8
S1131A70E0919602F0919702099599838883DF910A
S1131A80CF910895E0917402F0917502E65BFF4FE7
S1131A908081887F808310929B0280E00895EF927A
S1131AA0FF920F931F93CF93DF93CDB7DEB7C25549
S1131AB0D1090FB6F894DEBF0FBECDBF8C01E62E60
S1131AC0F42ECE0101962DD982E5FE013196A8E4CB
S1131AD0B2E001900D928A95E1F710929D02E09197
S1131AE07C02F0917D028389877B838B82E0E816F8
S1131AF071F0E3E0EE1699F0F1E0EF1217C0E09117
S1131B007C02F0917D0283898064838B0FC0E09115
S1131B107C02F0917D0283898860838B07C0E09109
S1131B207C02F0917D0283898864838BE8E4F2E08F
S1131B30A4A9B5A957968C9157978E7F57968C93E5
S1131B4004A8F5A9E02D87898D7F878B82E0F8169C
S1131B50B9F0E3E0FE1629F1F1E0FF1232C0E8E447
S1131B60F2E0A4A9B5A957968C915797816057962E
S1131B708C930284F385E02D83858068838721C05C
S1131B80E8E4F2E0A4A9B5A957968C91579782602E
S1131B9057968C930284F385E02D83858068838730
S1131BA010C0E8E4F2E0A4A9B5A957968C91579720
S1131BB0836057968C930284F385E02D8385806837
S1131BC08387E0917C02F0917D028FEF818B84E723
S1131BD099E0F801918380838BEA99E09783868367
S1131BE08AE099E09587848781EB99E097878687D7
S1131BF0C801CE5ADF4F0FB6F894DEBF0FBECDBF7B
S1131C00DF91CF911F910F91FF90EF900895AF92C4
S1131C10BF92CF92DF92EF92FF920F931F93CF93D5
S1131C20DF93CDB7DEB7C255D1090FB6F894DEBF46
S1131C300FBECDBF8C01E62EF42ECE01019671D8D5
S1131C4082E5FE013196A8E4B2E001900D928A95F6
S1131C50E1F710929A02E8E4F2E0A0A5B1A51F967C
S1131C608C911F978C7F1F968C9300A4F1A5E02D77
S1131C708685877E86878E2D90E0FC013197EF3034
S1131C80F10508F0CCC0E25AFF4F0C94F42DE0911A
S1131C907002F0917102878581608787C0C0E091EE
S1131CA07002F0917102878582608787B8C0E091E5
S1131CB07002F0917102878583608787B0C0E091DC
S1131CC07002F0917102868588608687A8C0E8E476
S1131CD0F2E0A0A5B1A51F968C911F9781601F9675
S1131CE08C9300A4F1A5E02D86858860868797C033
S1131CF0E8E4F2E0A0A5B1A51F968C911F9782603D
S1131D001F968C9300A4F1A5E02D868588608687B4
S1131D1086C0E8E4F2E0A0A5B1A51F968C911F97B8
S1131D2083601F968C9300A4F1A5E02D86858860BE
S1131D30868775C0E0917002F0917102868580619A
S1131D4086876DC0E8E4F2E0A0A5B1A51F968C914A
S1131D501F9781601F968C9300A4F1A5E02D8685C2
S1131D60806186875CC0E8E4F2E0A0A5B1A51F9677
S1131D708C911F9782601F968C9300A4F1A5E02D8F
S1131D808685806186874BC0E8E4F2E0A0A5B1A512
S1131D901F968C911F9783601F968C9300A4F1A5C6
S1131DA0E02D8685806186873AC0E0917002F091CB
S1131DB0710286858861868732C0E8E4F2E0A0A5D6
S1131DC0B1A51F968C911F9781601F968C9300A4D8
S1131DD0F1A5E02D86858861868721C0E8E4F2E0DC
S1131DE0A0A5B1A51F968C911F9782601F968C9316
S1131DF000A4F1A5E02D86858861868710C0E8E4FB
S1131E00F2E0A0A5B1A51F968C911F9783601F9641
S1131E108C9300A4F1A5E02D868588618687E8E48B
S1131E20F2E0A0A5B1A51F968C911F9783701F9611
S1131E308C93A0A5B1A557968C915797837C579600
S1131E408C93A0A5B1A5DD968C91DD978E7FDD9650
S1131E508C93DD974F2D50E0FA013197EC30F1056A
S1131E6008F0C3C0E359FF4F0C94F42D57968C919E
S1131E705797846057968C93E0915202F0915302E5
S1131E80838580688387B1C057968C91579780610A
S1131E9057968C93E0915202F091530283858068A7
S1131EA08387A3C057968C915797886057968C93D5
S1131EB0E0915202F091530283858068838795C034
S1131EC08160DD968C93E0915202F09153028385F8
S1131ED0806883878AC057968C91579780625796FB
S1131EE08C93E0915202F09153028385806883873A
S1131EF07CC057968C915797846157968C93E09148
S1131F005202F09153028385806883876EC057968E
S1131F108C9157978C6057968C93E0915202F09174
S1131F20530283858068838760C057968C91579746
S1131F30846057968C93E8E4F2E0A0A5B1A5DD9601
S1131F408C91DD978160DD968C930284F385E02D7E
S1131F5083858068838749C057968C91579784629C
S1131F6057968C93E0915202F091530283858068D6
S1131F7083873BC057968C9157978C6157968C9367
S1131F80E0915202F09153028385806883872DC0CB
S1131F9057968C9157978C6157968C93E8E4F2E0AE
S1131FA0A0A5B1A5DD968C91DD978160DD968C931B
S1131FB00284F385E02D83858068838716C0579655
S1131FC08C915797886157968C93E8E4F2E0A0A52A
S1131FD0B1A5DD968C91DD978160DD968C930284AA
S1131FE0F385E02D8385806883870F2EF8E4CF2E58
S1131FF0F2E0DF2EF02DD6019896AD90BC90999723
S11320000F2EF6E9EF2EF2E0FF2EF02DD701ED9121
S1132010FC918FEF9FEF0995F50193878287D60195
S11320209896AD90BC909997D701ED91FC918FEF64
S11320309FEF0995F50191878087D6019896CD90F9
S1132040DC909997D701ED91FC918FEF9FEF099563
S1132050F60191AF80AF84E29AE0D80111969C9387
S11320608E9384E69AE013969C938E93129784EA57
S11320709AE015969C938E93149784EE9AE01796A3
S11320809C938E93169784EF9AE019969C938E9363
S1132090189784E09BE01B969C938E931A978CEB85
S11320A099E01D969C938E931C9784E19BE01F9668
S11320B09C938E931E97C801CE5ADF4F0FB6F894A7
S11320C0DEBF0FBECDBFDF91CF911F910F91FF9067
S11320D0EF90DF90CF90BF90AF900895EF92FF9272
S11320E00F931F93CF93DF93CDB7DEB7C255D109BA
S11320F00FB6F894DEBF0FBECDBF8C01E62EF42ED2
S1132100CE0101960E94910682E5FE013196A8E473
S1132110B2E001900D928A95E1F710929C02E09151
S11321207802F09179028281877B828382E0E816CB
S113213071F0E3E0EE1699F0F1E0EF1217C0E091D0
S11321407802F09179028281806482830FC0E091E9
S11321507802F091790282818860828307C0E091DD
S11321607802F0917902828188648283E091780216
S1132170F091790284898F73848B82E0F816B9F028
S1132180E3E0FE1629F1F1E0FF123AC0E8E4F2E0E0
S1132190A0A9B1A954968C915497806454968C93B9
S11321A00284F385E02D83858068838729C0E8E471
S11321B0F2E0A0A9B1A954968C91549780685496E2
S11321C08C930284F385E02D83858068838718C00F
S11321D0E8E4F2E0A0A9B1A954968C9154978064E4
S11321E054968C93A0A9B1A954968C915497806865
S11321F054968C930284F385E02D838580688387CD
S1132200E0917802F09179028FEF808387E89BE078
S1132210F8019183808387EC9BE0978386838FE129
S11322209BE0958784878DEC9BE097878687C80120
S1132230CE5ADF4F0FB6F894DEBF0FBECDBFDF918D
S1132240CF911F910F91FF90EF900895AF92BF929D
S1132250CF92DF92EF92FF920F931F93CF93DF936E
S1132260CDB7DEB7C255D1090FB6F894DEBF0FBEA5
S1132270CDBF8C01E62EF42ECE0101960E9491066C
S113228082E5FE013196A8E4B2E001900D928A95B0
S1132290E1F710929B022091740230917502F901CA
S11322A0E55BFF4F50815C7F508331974081477ECF
S11322B040838E2D90E0FC013197EF30F10508F05A
S11322C078C0E758FF4F0C94F42DF901E55BFF4FFC
S11322D0516050836EC0F901E55BFF4F526050833B
S11322E068C0F901E55BFF4F5360508362C0F90198
S11322F0E65BFF4F486040835CC0F901E55BFF4F3C
S11323005160508331974860408353C0F901E55BC5
S1132310FF4F526050833197486040834AC0F901AF
S1132320E55BFF4F5360508331974860408341C061
S1132330F901E65BFF4F406140833BC0F901E55B77
S1132340FF4F5160508331974061408332C0F9019F
S1132350E55BFF4F5260508331974061408329C051
S1132360F901E55BFF4F536050833197406140832F
S113237020C0F901E65BFF4F486140831AC0F901B0
S1132380E55BFF4F5160508331974861408311C032
S1132390F901E55BFF4F52605083319748614083F8
S11323A008C0F901E55BFF4F5360508331974861E2
S11323B04083F901E55BFF4F808183708083D901FD
S11323C0DD968C91817C4F2D50E0FA013197EC30F1
S11323D0F10520F4E857FF4F0C94F42DF90185AF73
S11323E089C08460D901DD968C93E0915202F0910A
S11323F053028385806883877DC08061F90185AF3E
S1132400E0915202F091530283858068838772C001
S11324108860D901DD968C93E0915202F0915302C9
S113242083858068838766C08260F90185AFE09107
S11324305202F09153028385806883875BC0806277
S1132440D901DD968C93E0915202F0915302838579
S1132450806883874FC08461F90185AFE09152029F
S1132460F091530283858068838744C08C60D901CE
S1132470DD968C93E0915202F0915302838580683B
S1132480838738C08660F90185AFE0915202F091EC
S113249053028385806883872DC08462D901DD96C9
S11324A08C93E0915202F091530283858068838774
S11324B021C08C61F90185AFE0915202F091530281
S11324C083858068838716C08E61D901DD968C93DD
S11324D0E0915202F09153028385806883870AC099
S11324E08A61F90185AFE0915202F091530283852C
S11324F0806883870F2EF8E4EF2EF2E0FF2EF02D94
S1132500D7019C96AD90BC909D97B6E4AB0EB11CE0
S11325100F2EF6E9CF2EF2E0DF2EF02DD601ED914D
S1132520FC918FEF9FEF0995F50191838083D7018B
S11325309C96AD90BC909D97B4E4AB0EB11CD601B3
S1132540ED91FC918FEF9FEF0995F50191838083C5
S1132550D7019C96ED90FC909D97B2E4EB0EF11C94
S1132560D601ED91FC918FEF9FEF0995F7019183CF
S1132570808384E39CE0D80111969C938E938CE72E
S11325809CE013969C938E93129784EC9CE0159692
S11325909C938E9314978CE09DE017969C938E9356
S11325A016978EE19DE019969C938E93189780E37D
S11325B09DE01B969C938E931A9788ED9BE01D9645
S11325C09C938E931C9782E49DE01F969C938E931C
S11325D01E97C801CE5ADF4F0FB6F894DEBF0FBE68
S11325E0CDBFDF91CF911F910F91FF90EF90DF90BE
S11325F0CF90BF90AF900895E0918002F091810256
S11326008181887F0895E0918002F091810284E9BC
S113261084838FE891E00197F1F700C000000895EA
S1132620CF93DF9318161CF4880F816001C081E0FA
S1132630E8E4F2E0A0ADB1AD12968C93A08DB18D1B
S113264011968C911197836011968C93008CF18D67
S1132650E02D828183608283643089F018F46130D4
S113266031F025C0603199F06034C9F020C0E091A8
S11326708002F091810281818C7F818320C0E0916E
S11326808002F091810281818160818318C0E09190
S11326908002F091810281818260818310C0E09187
S11326A08002F091810281818360818308C0E0917E
S11326B08002F091810281818C7F818361E0C091ED
S11326C08002D0918102262F30E0220F331F032E87
S11326D0000C440B550B60E970E080E090E00E9430
S11326E0B62D2883DF91CF910895EF92FF920F9337
S11326F01F93CF93DF93CDB7DEB7C255D1090FB681
S1132700F894DEBF0FBECDBF8C01F62EE42ECE01B1
S113271001960E94910682E5FE013196A8E4B2E09A
S113272001900D928A95E1F76E2D8F2D79DF8FEC54
S113273093E1F801918380838DED93E19383828308
S113274088EF93E1958384838BE094E19783868378
S113275083E093E1918780878CEF92E1938782876E
S1132760C801CE5ADF4F0FB6F894DEBF0FBECDBFFF
S1132770DF91CF911F910F91FF90EF900895E09119
S11327808002F09181022481222344F021E030E090
S11327908217930718F02F5F3F4FFACF0895E09107
S11327A08002F091810284EA84838FEF93E0E7DF73
S11327B023DF883009F027CF0895662319F0880FA6
S11327C0816001C0880FE8E4F2E0A0ADB1AD1396DA
S11327D08C9300ACF1ADE02D84E884838FEF93E01B
S11327E0CEDF0ADF883119F0803409F00CCF089568
S11327F0E8E4F2E0A0ADB1AD13968C9300ACF1AD7A
S1132800E02D84E884838FEF93E0B9DFF5DE88322E
S113281009F0F9CE0895882311F080E401C080E026
S1132820E0918002F0918102846884838FEF93E0C9
S1132830A6DFE2DE883309F4E6DEE0918002F0915F
S1132840810283810895E091CB02F091CC0281EC66
S113285092E009950895E091CD02F091CE0281ECC9
S113286092E009950895E091FC02F091FD0282EF57
S113287092E009950895E091FE02F091FF0282EF43
S113288092E0099508958091C0021092C002EFE988
S1132890FFE03197F1F700C000000895F4CF0895E8
S11328A0E8E4F2E0A4ADB5AD13968C9304ACF5ADB9
S11328B0E02D8181806281838FE99FE00197F1F7A8
S11328C000C000000895ECCF08958091BF021092DB
S11328D0BF02EFE9FFE03197F1F700C0000008956F
S11328E0F4CF0895E8E8F2E0A081B18114968C93C6
S11328F00190F081E02D8281806282838FE99FE0E4
S11329000197F1F700C000000895ECCF0895CF932C
S1132910DF93EC018881882329F02196E3DF8991F4
S11329208111FCCFDF91CF910895CF93DF93EC0118
S11329308881882329F02196B3DF89918111FCCF06
S1132940DF91CF9108958F929F92AF92BF92CF92D1
S1132950DF92EF92FF920F931F93CF93DF93CDB744
S1132960DEB7C255D1090FB6F894DEBF0FBECDBF96
S11329707C016B015A014901CE0101960E94910626
S113298082E5FE013196A8E4B2E001900D928A95A9
S1132990E1F74EE952E060E2CE010196ABD38EE05E
S11329A0FE013196A1ECB2E001900D928A95E1F717
S11329B03C2DDD2044F4E0918402F091850282E014
S11329C08283E894D7F848E452E0FA01A4ADB5ADA7
S11329D0CD0189599F4FFC01D082CC92DA01DC965B
S11329E0ED91FC91DD9788E98183B7E0AB16B104E2
S11329F0E9F158F4F5E0AF16B10409F461C086E0DA
S1132A00A816B10409F447C06FC0A8E0AA16B1041F
S1132A10C9F0B9E0AB16B10409F066C0E8E4F2E02D
S1132A20A4ADB5AD11968C911197846011968C93D9
S1132A3004ACF5ADE02DE459FF4F808186608083BE
S1132A4049E065C0E8E4F2E0A4ADB5AD11968C911F
S1132A5011978B7F11968C9304ACF5ADE02DE4595E
S1132A60FF4F80818660808348E051C0E8E4F2E053
S1132A70A4ADB5AD11968C9111978B7F11968C9363
S1132A8004ACF5ADE02DE459FF4F80818D7F846067
S1132A90808347E03CC0E8E4F2E0A4ADB5AD119614
S1132AA08C9111978B7F11968C9304ACF5ADE02D2E
S1132AB0E459FF4F80818B7F8260808346E027C08A
S1132AC0E8E4F2E0A4ADB5AD11968C9111978B7F3B
S1132AD011968C9304ACF5ADE02DE459FF4F808141
S1132AE0897F808345E013C0E8E4F2E0A4ADB5AD8E
S1132AF011968C9111978B7F11968C9304ACF5AD44
S1132B00E02DE459FF4F80818660808348E0E1E056
S1132B108E16910429F0F2E08F16910461F016C02C
S1132B20E0918402F0918502E459FF4F8081877F10
S1132B30808321E015C0E0918402F0918502E4597C
S1132B40FF4F80818860808322E00AC0E091840284
S1132B50F0918502E459FF4F8081877F808321E0D3
S1132B600230110581F003301105C9F0012B11F574
S1132B70E0918402F0918502E459FF4F80818F7CBB
S1132B80808390E021C0E0918402F0918502E459B1
S1132B90FF4F80818F7E8062808392E015C0E09138
S1132BA08402F0918502E459FF4F80818063808321
S1132BB093E00AC0E0918402F0918502E459FF4F4A
S1132BC080818F7C808390E0E0915202F0915302E7
S1132BD0838580688387D7013C9311964C93119722
S1132BE012962C93129713969C93139783E494E173
S1132BF015969C938E9314978EE494E117969C9368
S1132C008E93169783E294E119969C938E9318976A
S1132C108BE294E11B969C938E931A9780E594E142
S1132C201D969C938E931C9783E694E11F969C9328
S1132C308E931E9785E994E151969C938E935097B9
S1132C40C701CE5ADF4F0FB6F894DEBF0FBECDBF1B
S1132C50DF91CF911F910F91FF90EF90DF90CF9074
S1132C60BF90AF909F908F9008958F929F92AF9254
S1132C70BF92CF92DF92EF92FF920F931F93CF9365
S1132C80DF93CDB7DEB7C255D1090FB6F894DEBFD6
S1132C900FBECDBF7C016B015A014901CE010196E3
S1132CA00E94910682E5FE013196A8E4B2E001900B
S1132CB00D928A95E1F74FEC52E060E2CE01019665
S1132CC019D28EE0FE013196A2EFB2E001900D928E
S1132CD08A95E1F73C2DDD2044F4E0918802F091DF
S1132CE0890282E08383E894D7F8E8E8F2E0A081DF
S1132CF0B181DC92A081B1811196CC920190F081D6
S1132D00E02D88E9828387E0A816B104C9F158F45C
S1132D10F5E0AF16B10409F467C086E0A816B10463
S1132D2009F448C073C0E8E0AE16B104B9F0F9E0A4
S1132D30AF16B10409F06AC0E8E8F2E0A081B181FD
S1132D4012968C911297846012968C930190F08164
S1132D50E02D85818660858349E069C0E8E8F2E07A
S1132D60A081B18112968C9112978B7F12968C93CD
S1132D700190F081E02D85818660858348E057C00D
S1132D80E8E8F2E0A081B18112968C9112978B7FD2
S1132D9012968C93A081B18115968C9115978460BD
S1132DA015968C930190F081E02D85818D7F85832C
S1132DB047E03DC0E8E8F2E0A081B18112968C9131
S1132DC012978B7F12968C93A081B18115968C916A
S1132DD015978B7F15968C930190F081E02D85815A
S1132DE08260858346E023C0E8E8F2E0A081B181F7
S1132DF012968C9112978B7F12968C930190F0818E
S1132E00E02D8581897F858345E011C0E8E8F2E003
S1132E10A081B18112968C9112978B7F12968C931C
S1132E200190F081E02D85818660858348E081E012
S1132E308816910429F0E2E08E16910451F012C034
S1132E40E0918802F09189028581877F858321E062
S1132E5011C0E0918802F0918902858188608583A0
S1132E6022E008C0E0918802F09189028581877F81
S1132E70858321E00230110571F003301105E9F07A
S1132E80012B21F5E0918802F091890285818F7CE4
S1132E90858390E023C0E8E8F2E0A081B181159633
S1132EA08C911597806215968C930190F081E02D9A
S1132EB085818F7E858392E011C0E0918802F09134
S1132EC0890285818063858393E008C0E09188024C
S1132ED0F091890285818F7C858390E0E091520294
S1132EE0F0915302838580688387F701308341839F
S1132EF02283938385E694E19583848380E794E138
S1132F009783868383E394E1918780878BE394E1BD
S1132F109387828782E794E19587848785E894E1A3
S1132F209787868787E894E1918B808BC701CE5A77
S1132F30DF4F0FB6F894DEBF0FBECDBFDF91CF9148
S1132F401F910F91FF90EF90DF90CF90BF90AF90C3
S1132F509F908F9008951F920F920FB60F92112495
S1132F600BB60F922F933F934F935F936F937F937F
S1132F708F939F93AF93BF93EF93FF93E09184025A
S1132F80F0918502828188718093F102638160935C
S1132F90C002E091C902F091CA0281EC92E0099565
S1132FA0FF91EF91BF91AF919F918F917F916F911D
S1132FB05F914F913F912F910F900BBE0F900FBED9
S1132FC00F901F9018951F920F920FB60F92112415
S1132FD00BB60F928F93EF93FF93E0918402F091DD
S1132FE0850281818F7D8183FF91EF918F910F9075
S1132FF00BBE0F900FBE0F901F9018951F920F924B
S11330000FB60F9211240BB60F922F933F934F9349
S11330105F936F937F938F939F93AF93BF93EF933C
S1133020FF93E0918802F0918902838188718093F3
S1133030F00264816093BF02E091FA02F091FB0216
S113304082EF92E00995FF91EF91BF91AF919F912B
S11330508F917F916F915F914F913F912F910F903D
S11330600BBE0F900FBE0F901F9018951F920F92DA
S11330700FB60F9211240BB60F928F93EF93FF9319
S1133080E0918802F091890282818F7D8283FF9191
S1133090EF918F910F900BBE0F900FBE0F901F906A
S11330A018956623C1F0DC011296ED91FC911397FB
S11330B014962D913C911597E217F30729F4ED919D
S11330C0FC91DF01119602C0DF01119660831C920E
S11330D0FC01B383A2830895FC018081918108954A
S11330E0DC01ED91FC9111971396FC93EE931297EA
S11330F010820895FC01518340835383428370E01E
S113310061507109460F571F5583448381E598E147
S1133110918780878CE698E19387828780E798E19E
S113312095878487CF010895CF92DF92EF92FF9223
S11331300F931F93FC010081118122813381FB01D4
S1133140C080D180E280F380FC01C082D182E2821F
S1133150F382FB0100831183228333831F910F9138
S1133160FF90EF90DF90CF900895FB012081FC0148
S11331702083222339F0DB01119631969D9191939E
S11331809111FCCF0895CF93DF93EC01988199239B
S113319099F0FE01319620E030E0492F50E04617C7
S11331A0570731F0DE01A20FB31F9C932F5F3F4FEF
S11331B091919111F2CF02C020E030E0FE01E20FC4
S11331C0F31F1082DF91CF9108952F923F924F9277
S11331D05F926F927F928F929F92AF92BF92CF92A3
S11331E0DF92EF92FF920F931F93CF93DF9300D060
S11331F000D0CDB7DEB72C011B014B0177231CF4A3
S11332002FEF821A920A95948794181419040CF4D7
S113321051C06AC09601DD209CF1F50140815181C5
S1133220F401608171816417750754F58C010A0DEE
S11332301B1DD401BC82AB82BA82A982EB81FC81C2
S11332407183608311965C934E932E193F09C2F0EB
S1133250F80140815181E981FA8160817181080F0F
S1133260191FE80FF91FFA83E983EB81FC81E80F4A
S1133270F91FFC83EB83A80FB91F64177507F4F2D9
S1133280FFEFCF1ADF0A22E0A20EB11CE2E08E0E9D
S1133290911CC614D70409F0BDCF4701FF201CF4CC
S11332A0FFEF8F1A9F0A9594879418141904E4F475
S11332B0740101C07401821493047CF76401CE1874
S11332C0DF085601AA0CBB1CA40CB51C880C991C65
S11332D0840C951C31016E187F08C701880F991F53
S11332E091958195910996CF0F900F900F900F9023
S11332F0DF91CF911F910F91FF90EF90DF90CF90CE
S1133300BF90AF909F908F907F906F905F904F9001
S11333103F902F900895861797070CF4CB010895DA
S11333209B01672B11F408959A01B9010E94A32D02
S1133330AC01822F932F41155105B1F70895FC017B
S1133340908180ED890F8A30D0F4319620E030E00E
S1133350A901440F551F220F331F220F331F220FC1
S1133360331F420F531F292F30E020533109240FFC
S1133370351F919180ED890F8A3050F302C020E00F
S113338030E0C901089586230895009739F020E0BC
S113339030E02F5F3F4F82179307D9F7089587FFD7
S11333A008C09195819591099927919581959109E5
S11333B008958F779927089591FF08C09195819575
S11333C0910993709195819591090895917008954B
S11333D0615021E030E002C0220F331F6A95E2F70A
S11333E0A90141505109B90168237923672B29F0B8
S11333F084239523821B930B089584239523089596
S11334009DEC899F912D1124969596959695392F2B
S1133410330F232F220F220F230F821B20E1929FB1
S1133420800D11240895982F92959F70990F292F3C
S1133430220F220F920F8F70890F0895FC01DB0178
S1133440A952BE4F1C921616170614F590819111BD
S11334500CC017C0919191110DC015C081932F5FBD
S11334603F4F26173707D4F313C0A7EDB1E03196C9
S113347020E030E09D932F5F3F4F6217730751F7B1
S113348007C020E030E0F901E952FE4F80E2E6CFC8
S113349087ED91E008954F925F926F927F92AF9281
S11334A0BF92CF92DF92EF92FF920F931F93CF932D
S11334B0DF93CDB7DEB729013A019B01AC01241992
S11334C035094609570989899A89AB89BC89BC01A0
S11334D0CD016A197B098C099D090E94802DA801E0
S11334E0970124193509460957090E94D82DCA01A4
S11334F0B9016A0D7B1D8C1D9D1DDF91CF911F911C
S11335000F91FF90EF90DF90CF90BF90AF907F909E
S11335106F905F904F900895FC012081222341F029
S1133520319680E090E0019621912111FCCF08951D
S113353080E090E00895CF93DF93EC01EDDF9C01F0
S11335402150310962F0FE01E80FF91F9291903287
S113355019F09950923018F421503109B8F7C20F7C
S1133560D31F1982C901DF91CF910895CF93DF93BF
S1133570EC01D2DF9C01215031091216130684F4A8
S1133580DE01A80FB91FFE0180E090E040815E914A
S113359051934C9301962150310982179307B4F348
S11335A0DF91CF9108958F929F92AF92BF92CF9265
S11335B0DF92EF92FF920F931F93CF93DF936B01F0
S11335C07C01DC01CB01FF203CF488279927DC0136
S11335D08C199D09AE09BF09BC01CD0110E00F2E65
S11335E0FAE08F2E912CA12CB12CF02D01C0102FBC
S11335F001E0010FC12FD0E0C952DE4FA5019401B3
S11336000E94D82D605D6883622F732F842F952FBD
S1133610161617061806190654F3FF2044F4E02F73
S1133620F0E0E952FE4F8DE2808302E0010FE02FCB
S1133630F0E0E952FE4F108287ED91E097DF87EDCD
S113364091E0DF91CF911F910F91FF90EF90DF9068
S1133650CF90BF90AF909F908F9008950F931F933A
S1133660CF93DF93EC01992324F4882799278C1BAB
S11336709D0B20E00AE010E001C0232F31E0320F5F
S1133680E22FF0E0E952FE4FB8010E94A32D805DC5
S11336908083862F972F181619067CF3DD2344F4B4
S11336A0E32FF0E0E952FE4F8DE2808332E0320FE7
S11336B0E32FF0E0E952FE4F108287ED91E056DFF0
S11336C087ED91E0DF91CF911F910F910895CF93F2
S11336D0AC019C01ADECBCEC0E94FD2D9695879548
S11336E096958795969587959C01220F331F880F91
S11336F0991F880F991F880F991F820F931F9A0192
S1133700281B390BC901805D8093D7019A010E945F
S1133710FD2DAC0156954795569547955695479579
S11337204115510589F1E1E0C1E0CE0FF0E0E95225
S1133730FE4F9A01ADECBCEC0E94FD2D9695879549
S113374096958795969587959C01220F331F880F30
S1133750991F880F991F880F991F820F931F9A0131
S1133760281B390BC901805D80839A010E94FD2DBD
S1133770AC01569547955695479556954795EC2F28
S11337804115510589F601C0C1E0EC2FF0E0E95282
S1133790FE4F108287ED91E0E9DE87ED91E0CF9155
S11337A00895982F92959F70990F292F220F220F19
S11337B0920F8F70890F0895AC019C01ADECBCECA5
S11337C00E94FD2D96958795969587959695879554
S11337D0BC01660F771F9C01220F331F220F331F7A
S11337E0220F331F260F371F421B530B342F20E1A8
S11337F0829F300D1124832F0895CF92DF92EF9290
S1133800FF92CF93DF93CDB7DEB728970FB6F89426
S1133810DEBF0FBECDBF6B017C0169837A838B83CE
S11338209C832D833E834F835887C216D306E406B8
S1133830F50634F4BE016B5F7F4FCE01019674DC54
S11338408D819E81AF81B885892B8A2B8B2B71F456
S113385069817A818B819C8120E030E0A9010E94FA
S1133860D82D611571058105910529F46D817E813D
S11338708F81988505C06D837E838F839887F6CF6B
S113388028960FB6F894DEBF0FBECDBFDF91CF915F
S1133890FF90EF90DF90CF90089590E002C095954F
S11338A087956A95E2F7817008959C01215031094A
S11338B081E090E002C0880F991F2A95E2F70097F3
S11338C0B1F0E7EDF1E020E030E0B0E3A1E3AB01DB
S11338D048235923452B11F0A08301C0B08396954A
S11338E087952F5F3F4F3196009789F702C020E0FC
S11338F030E0F901E952FE4F108287ED91E008951E
S1133900AB01BC011092D701411551056105710548
S113391009F442C021E0EFEFE20FDB01CA018F702E
S11339209927AA27B078BB2354F40197A109B109B8
S1133930806F9F6FAF6FBF6F0196A11DB11D8A305D
S11339409105A105B10534F4F0E0E952FE4F805D24
S1133950808305C0F0E0E952FE4F895C8083E22F4A
S1133960F0E0E952FE4F1082DB01CA0177231CF418
S11339700F96A11DB11DAC01BD01689413F8759596
S11339806795579547951694D1F72F5F41155105C3
S11339906105710509F0BFCF87ED91E0E7DD87EDA3
S11339A091E00895282F30E0322F2227A901492BD6
S11339B0CA010895292F30E0322F2227A901482B6C
S11339C0CA010895282F892F922F089508959827C2
S11339D0892798270895FF920F931F93CF93DF931E
S11339E08C01EB01F42E642F70E080E090E00E94E3
S11339F0022B9B01AC0160E070E080E090E40E9447
S1133A001B2C20E030E040E85FE30E94002A0E9483
S1133A10D62A9E012623372360237123CB018227D4
S1133A2093272823392302C0220F331FFA94E2F785
S1133A30822B932BDF91CF911F910F91FF900895CB
S1133A40CF93DF93CDB7DEB79E012B5F3F4FF901D4
S1133A50419151919F016FE570E087ED91E00E94E3
S1133A60352E99231CF087ED91E002C080E090E0B0
S1133A70DF91CF910895FC01109236028CE89AE10F
S1133A809183808386EB9AE1938382838BEE9CE11E
S1133A909583848384E998E19783868385EB98E111
S1133AA09187808783EC98E19387828785EE98E1FC
S1133AB0958784878EE29BE19787868787E69BE1DB
S1133AC0918B808B83ED9AE1938B828B8BE99AE1C6
S1133AD0958B848B8BE899E1978B868B80E999E1B0
S1133AE0918F808F8FE999E1938F828F83EC99E195
S1133AF0958F848F85EC99E1978F868F8FEC99E170
S1133B0091A380A38CED99E193A382A388EE99E11C
S1133B1095A384A380E09AE197A386A383E19AE125
S1133B2091A780A78EE19AE193A782A78BE49AE1FB
S1133B3095A784A781ED9BE197A786A78CED9BE1D0
S1133B4091AB80AB8DEF9BE193AB82AB8DE49CE1B9
S1133B5095AB84AB85E59CE197AB86AB83E39EE1B3
S1133B6091AF80AF80E89CE193AF82AF82ED9CE19E
S1133B7095AF84AF8AED9CE197AF86AFDF01A05C7F
S1133B80BF4F82EE9CE111969C938E93129686EE23
S1133B909CE111969C938E93129687EE9CE111966C
S1133BA09C938E93129680E29DE18D939C93CF011A
S1133BB008958F929F92AF92BF92EF92FF920F93CC
S1133BC01F93CF93DF938A01D22F2AE030E040E0A5
S1133BD050E00E94D82D605DF8016083622F732F3E
S1133BE0842F952F1616170618061906FCF421E0E3
S1133BF00F2EFAE08F2E912CA12CB12CF02DC1E0C8
S1133C00C20F7801E20EF11CA50194010E94D82D87
S1133C10605DF7016083622F732F842F952F2C2F03
S1133C20161617061806190654F301C0C1E0CD177D
S1133C3048F480E3F801EC0FF11D8083CF5FDC13BF
S1133C40F9CF01C0DC2FF801ED0FF11D10828D2F8B
S1133C50DF91CF911F910F91FF90EF90BF90AF90A4
S1133C609F908F9008958F929F92AF92BF92CF9220
S1133C70DF92EF92FF920F931F93CF93DF936B0129
S1133C807C01EA01022F20E030E0A9010E94652AAC
S1133C9088230CF066C0F7FAF094F7F8F094C701A3
S1133CA0B6010E94D62A4B015C010E94022B9B01A3
S1133CB0AC01C701B6010E94002A6B017C01B4016A
S1133CC0990C880B990B21E0AE0173DF11E0180FFA
S1133CD0FE01E80FF11D8DE280835E01A10EB11C8F
S1133CE0F5011082CE0142DC8FEF800F863008F59B
S1133CF08EE2F50180831F5F5E01A10EB11C602F6F
S1133D0070E080E090E00E94022B9B01AC0160E037
S1133D1070E080E291E40E941B2CA70196010E94AE
S1133D20B82B0E94D12A202FA50143DFC5011EDC38
S1133D3037C08EE2F50180831F5FCE01810F911D94
S1133D408C0120E030E048EC52E4C701B6010E9447
S1133D50B82B0E94D12A22E0A8012BDFC80106DC7F
S1133D601FC0C701B6010E94D62A4B015C010E9404
S1133D70022B9B01AC01C701B6010E94002A6B0112
S1133D807C01B401990C880B990B21E0AE0111DF81
S1133D9011E0180FFE01E80FF11D80E280839DCF32
S1133DA0CE01DF91CF911F910F91FF90EF90DF90A3
S1133DB0CF90BF90AF909F908F900895CF93DF9353
S1133DC000D000D01F92CDB7DEB785E0E0E3F3E08A
S1133DD0DE01119601900D928A95E1F729813A81CD
S1133DE04B815C816D8170E080E090E00F900F90DA
S1133DF00F900F900F90DF91CF91089510920B03C5
S1133E00E0E3F3E080E2808387E392E092838183BE
S1133E10948383830895CF93DF9321E080E0A3E02C
S1133E20B3E0E7E0F3E060E071E001C02F5F9FEFF3
S1133E30920F913009F44BC038F0923009F48CC0E1
S1133E40933009F4CEC00EC140910E0350910F037C
S1133E50EA0198819068988340910003509101038E
S1133E60EA0198819F77988340910C0350910D0348
S1133E70EA01388134773C939081432F4927942376
S1133E803083992399F0943019F4EB0188810AC0A6
S1133E90903119F4EB01898109C0903219F4EB01D6
S1133EA08A8104C0903411F4EB018B8140910E039C
S1133EB050910F03EA0198819F7798834091000302
S1133EC050910103EA01988190689883AFCF4091A3
S1133ED00E0350910F03EA019881916098834091F9
S1133EE0000350910103EA0198819E7F98834091D9
S1133EF00C0350910D03EA013881347711963C93F9
S1133F0011979181432F492794233183992399F061
S1133F10943019F4EB018C810AC0903119F4EB014F
S1133F208D8109C0903219F4EB018E8104C0903464
S1133F3011F4EB018F8140910E0350910F03EA01BC
S1133F4098819E7F98834091000350910103EA0178
S1133F509881916098836ACF40910E0350910F032A
S1133F60EA01988192609883409100035091010383
S1133F70EA0198819D7F988340910C0350910D0331
S1133F80EA013881347712963C9312979281432F39
S1133F90492794233283992399F0943019F4EB013F
S1133FA088850AC0903119F4EB01898509C09032E3
S1133FB019F4EB018A8504C0903411F4EB018B856C
S1133FC040910E0350910F03EA0198819D7F9883DD
S1133FD04091000350910103EA0198819260988313
S1133FE025CFE0910E03F0910F03908198609083A8
S1133FF0E0910003F09101039081977F9083E09119
S11340000C03F0910D032081247720930603E7E04D
S1134010F3E09381322F392793232383992399F053
S1134020943019F480910C010AC0903119F48091F4
S11340300D0109C0903219F480910E0104C090342E
S113404011F480910F01E0910E03F0910F03908120
S1134050977F9083E0910003F09101039081986031
S1134060908303C0243008F4E1CEDF91CF9108950A
S1134070D2DE882309F445C080933003843499F454
S1134080E0910B03F0E0E05FFC4F108210920B0311
S1134090E0E3F3E087E392E09283818380E193E0BD
S11340A0948383830895E0910B03E630B8F4AE2F34
S11340B0B0E0A05FBC4F8C93EF5FE0930B03F0E0A4
S11340C0E05FFC4F1082E0E3F3E080E193E0928351
S11340D0818387E392E0948383830895E0E1F3E0AE
S11340E0808381E080930B031182A0E3B3E01296F6
S11340F0FC93EE93119787E392E014969C938E932E
S113410013970895CF93DF93CDB7DEB728970FB6F3
S1134110F894DEBF0FBECDBF20E22093300390930E
S11341200F0380930E0370930D0360930C0350935D
S11341300103409300032BE8FC012083E09100037A
S1134140F091010384E78083A3E0B3E08C93E7E07C
S1134150F3E0808311968C931197818312968C934C
S11341601297828313968C93838310920B03E091AE
S11341700003F091010380818B6880832BE03FE191
S11341803A83298348E350E25C834B836EED7EE1FE
S11341907E836D838EEF9EE198878F833A815C8165
S11341A07E81988528960FB6F894DEBF0FBECDBFEA
S11341B0DF91CF910895E0912103F0912203808152
S11341C08B7F8083E0912103F091220380818460BE
S11341D0808308950F931F93CF93C82F8B01E09191
S11341E02103F091220380818D7F8083E0911E035F
S11341F0F0911F038081806F8083672B41F0E091F1
S11342002103F091220380818160808307C0E091C3
S11342102103F091220380818E7F808380E090E0EF
S1134220CADFCC2344F4E0912103F091220380817E
S11342308068808307C0E0912103F091220380818C
S11342408F778083C6FF08C0E0912103F091220399
S113425080818064808307C0E0912103F091220370
S113426080818F7B8083C5FF08C0E0912103F0919A
S1134270220380818062808307C0E0912103F09152
S1134280220380818F7D8083C4FF08C0E0912103D5
S1134290F091220380818061808307C0E091210333
S11342A0F091220380818F7E8083012B41F0E09185
S11342B02103F091220380818160808307C0E09113
S11342C02103F091220380818E7F808380E090E03F
S11342D072DFC3FF08C0E0912103F09122038081C3
S11342E08068808307C0E0912103F09122038081DC
S11342F08F778083C2FF08C0E0912103F0912203ED
S113430080818064808307C0E0912103F0912203BF
S113431080818F7B8083C1FF08C0E0912103F091ED
S1134320220380818062808307C0E0912103F091A1
S1134330220380818F7D8083C0FF08C0E091210328
S1134340F091220380818061808307C0E091210382
S1134350F091220380818F7E8083E0912103F0918C
S1134360220380818B7F8083CF911F910F910895C9
S113437060E070E081E02EDF87EE97E10197F1F7CE
S113438000C0000008950F931F93CF938C01E09118
S11343901E03F0911F0380818F708083E0912103BD
S11343A0F09122038081806F8083E0912103F0915A
S11343B022038081826080830115110541F0E09120
S11343C02103F091220380818160808307C0E09102
S11343D02103F091220380818E7F808380E090E02E
S11343E0EADEE0911703F09118038081882314F02A
S11343F0C0E001C0C0E8808186FF02C0C06401C083
S1134400CF7B808185FF02C0C06201C0CF7D8081E7
S113441084FF02C0C06101C0CF7E012B41F0E09156
S11344202103F091220380818160808307C0E091A1
S11344302103F091220380818E7F808380E090E0CD
S1134440BADEE0911703F0911803808188231CF4ED
S11344508C2F886002C08C2F877F908196FF02C0CA
S1134460846001C08B7F908195FF02C0826001C08F
S11344708D7F908194FF02C0816001C08E7FE091A6
S11344802103F091220390819B7F9083CF911F9110
S11344900F91089580E090E076DF882344F480E073
S11344A090E071DF88231CF480E090E06CCF0895E5
S11344B061E070E08FDEEECF0895CF93DF93EC01DF
S11344C08881882329F02196F3DF89918111FCCF1B
S11344D0DF91CF9108950F931F93CF93DF93FC0146
S11344E0D62F8081882351F08F010F5F1F4F6111F8
S11344F009C015C0CF5FDC1730F401C0C0E0CD1790
S113450048F00DC0C1E0D4DFF80181918F01811121
S1134510F1CFF5CF80E2CCDFCF5FCD17D8F3DF91B9
S1134520CF911F910F910895CF93C82F882321F025
S113453080E2BEDFC150E1F7CF910895262F81308C
S1134540910571F030F08230910589F00397B1F054
S1134550089560E070E080E8820F3CDE9BCF089510
S113456060E070E080EC820F35DE94CF089560E067
S113457070E084E9820F2EDE8DCF089560E070E054
S113458084ED820F27DE86CF0895E0911E03F0911B
S11345901F0387E08083E0912103F091220388E0E8
S11345A080832FEF83EF91E0215080409040E1F72A
S11345B000C0000060E070E088E30CDE20ED2A9586
S11345C0F1F760E070E088E305DE80ED8A95F1F7AD
S11345D060E070E088E3FEDD90ED9A95F1F760E02D
S11345E070E088E2F7DD25EC2A95F1F7000060E041
S11345F070E088E2EFDD85EC8A95F1F7000060E079
S113460070E088E2E7DD46DF60E070E088E2E2DD4A
S113461041DF60E070E08CE0DDDD3CDF60E070E015
S11346208CE0D8DD37DF60E070E081E0D3DD32DF9D
S113463060E070E081E0CEDD2DDF60E070E086E0D8
S1134640C9DD28DF60E070E086E0C4DD23DF60E0E0
S113465070E080E090E072CF0895CF93DF93EC0197
S113466070931F0360931E03509318034093170322
S11346703093220320932103FB011082E091210354
S1134680F09122038FEF8083E0911703F0911803D8
S1134690808188708093200378DF8AEE90E299838A
S11346A0888383EC91E29B838A838AE492E29D83EC
S11346B08C8388E592E29F838E838EE893E29987C8
S11346C088878DE592E29B878A878BE692E29D87B5
S11346D08C8784E992E29F878E8788EB91E2998B9D
S11346E0888B8EE992E29B8B8A8B8DE793E29D8B7C
S11346F08C8BCE01DF91CF910895CF93E091170376
S1134700F0911803C081C870809120038C278C23FA
S113471009F03BDFC0932003CF910895CF9381E04C
S113472090E031DEC82FB6DE8C2FCF910895FC01C6
S113473040835183628373830895FC0144835583CA
S1134740668377830895FC01408751876287738766
S11347500895FC0140A351A362A373A30895FC012F
S113476080E090E0A0E8BFE380839183A283B383D9
S11347701482158216821782108611861286138679
S11347801486158616861786108A118A128A138A49
S1134790148A158A168A178A108E118E128E138E19
S11347A0148E158E168E178E10A211A212A213A2A9
S11347B014A215A216A217A210A611A612A613A639
S11347C087E993E295A784A78DE993E297A786A743
S11347D083EA93E291AB80AB89EA93E293AB82AB39
S11347E08FE294E295AB84ABCF010895CF92DF9230
S11347F0EF92FF920F931F93CF93DF93EC01680125
S113480079019A01AB0168A179A18AA19BA1F8D58C
S11348102C853D854E855F85F4D5A7019601A8D7E3
S113482020E030E040E05FE3A3D760934603709359
S113483047038093480390934903288D398D4A8D0B
S11348405B8DDFD5688F798F8A8F9B8FDF91CF91B6
S11348501F910F91FF90EF90DF90CF9008954F92AA
S11348605F926F927F928F929F92AF92BF92CF92FC
S1134870DF92EF92FF920F931F93CF93DF9300D0B9
S113488000D000D0CDB7DEB79E838D836A017B0153
S113489048015901DC0194964D935D936D937C938B
S11348A097979A01AB0190966D917D918D919C9112
S11348B09397A6D5ED81FE81608B718B828B938B50
S11348C0848A958AA68AB78A20813181428153815C
S11348D04FD72B013C0195018401B701A6018D81BD
S11348E09E8184DFED81FE8124813581468157815B
S11348F03FD7A301920185D52B013C01A701960165
S1134900AD81BE8190966D917D918D919C9193978F
S113491077D5ED81FE81248535854685578570D50B
S1134920A5019401D6D54B015C01AD81BE815C9695
S11349306D937D938D939C935F9718962D913D91E4
S11349404D915C911B9714D79B01AC016093460376
S1134950709347038093480390934903C301B201C2
S113496050D56B017C01ED81FE81408851886288BD
S11349707388448655866686778660A771A782A762
S113498093A720E030EC4FE754E4EED6181694F5E4
S1134990AD81BE8154968D919D910D90BC91A02DB9
S11349A089839A83AB83BC839C01AD01C301B201AB
S11349B0DFD69B01AC0160E070EC8FE794E420D576
S11349C02B013C01A501940169817A818B819C8131
S11349D0CFD629813A814B815C81CAD69B01AC0137
S11349E0C301B2010DD5ED81FE81608F718F828F7D
S11349F0938F38C020E030EC4FE754ECC701B60188
S1134A0064D588237CF5AD81BE8154968D919D91AA
S1134A100D90BC91A02D89839A83AB83BC839C01A8
S1134A20AD01C301B201A4D620E030EC4FE754E459
S1134A30E7D42B013C01A501940169817A818B8122
S1134A409C8196D629813A814B815C8191D69B01C8
S1134A50AC01C301B201D5D4ED81FE81608F718FA9
S1134A60828F938FC701B60126960FB6F894DEBFE6
S1134A700FBECDBFDF91CF911F910F91FF90EF90AB
S1134A80DF90CF90BF90AF909F908F907F906F906A
S1134A905F904F900895109261008FE080936200C0
S1134AA087B3806E87BB0895CF93DF93CDB7DEB70E
S1134AB0C15DD1090FB6F894DEBF0FBECDBFEBDFE9
S1134AC0CE018E579F4F0E943B1D88E4FE01EE5796
S1134AD0FF4FA0E5B3E001900D928A95E1F72BE337
S1134AE030E049E350E06AE370E0CE01C896B5DDFA
S1134AF026966EAC7FAC26972A968EAD9FAD2A97EC
S1134B00C653DF4F99838883CA5CD0402C964EAC41
S1134B105FAC2C9743E250E061E270E082E290E007
S1134B20F1DA2F962FAF2F9760963FAF609761967B
S1134B304FAF619762965FAF629763966FAF63976B
S1134B4064967FAF649765968FAF659766969FAFBF
S1134B50669764968EAC9FAC649766962EAC3FAC19
S1134B6066971F921F921F9281E08F9390E89F9304
S1134B708F930E94DE01C453DF4F688379838A8355
S1134B809B83CC5CD04042E062E0CE018A5A9F4FC6
S1134B900E944F0D40E069E0CE018A599F4F0E9468
S1134BA0070EE096AEADBFADE097C053DF4FB983BB
S1134BB0A883C05DD04001E020E042E065E670E0FB
S1134BC084E690E00E94790120934A0330934B03DA
S1134BD040934C0350934D0360934E0370934F03E3
S1134BE0CE018E579F4FBBDD86E3FE01EE57FF4F8C
S1134BF0AEE9B3E001900D928A95E1F7CE018E57AC
S1134C009F4FADDD86E3FE01EE57FF4FA4EDB3E009
S1134C1001900D928A95E1F7CE018A589F4FFC01CD
S1134C2020E330E02193319324E0DF011D922A95A3
S1134C30E9F729E330E3EE963FAF2EAFEE97C25883
S1134C40DF4F19821882CE57D040C058DF4F1982E7
S1134C501882C058D04090933A02809339026E96DD
S1134C60EEADFFAD6E9789EF0995A496EEADFFAD5D
S1134C70A49780E490E00995AA96EEADFFADAA97BB
S1134C8082E00995AE96EEADFFADAE9780E29EE46C
S1134C900995E496EEADFFADE49788E090E00995C0
S1134CA00EE913E0D8019C96ED91FC919D9740E0AC
S1134CB050E060E87FE3C8010995D801D096ED91F2
S1134CC0FC91D1974DEC5CEC6CE47EE3C801099552
S1134CD0D8019E96ED91FC919F9740E050E060E0F2
S1134CE07FE3C8010995D801D296ED91FC91D39741
S1134CF040E050E862E274E4C801099504ED13E071
S1134D00D8019C96ED91FC919D9740E050E060E0C5
S1134D107FE3C8010995D801D096ED91FC91D19714
S1134D2040E050E060E87FE3C8010995D8019E9611
S1134D30ED91FC919F974AE057ED63E27CE3C80153
S1134D400995D801D296ED91FC91D39740E050E0BB
S1134D506AEF72E4C80109952E96EEADFFAD2E9769
S1134D6009956296EEADFFAD629709956DE070E02E
S1134D7083E090E0F2010995EEADFFAD8AE3099579
S1134D80F40109953CAB4DAB66E08CA99DA9F301F8
S1134D9009950F900F900F900F900F900F90F401C2
S1134DA0099559AB6AAB60E171E089A99AA93ED72C
S1134DB0892B51F4F1010995C653DF4FE881F9813C
S1134DC0CA5CD04009955AC2F40109955CA76DA745
S1134DD062E171E08CA59DA529D7892B51F4F101DD
S1134DE00995C653DF4FE881F981CA5CD040099523
S1134DF0FDC180E090E0C253DF4FE881F981CE5CD1
S1134E00D040099590939D0380939C0360E070E0EB
S1134E1080E090E0F201099567E084E191E0F3011C
S1134E200995E0915E03F0915F0380919C0390915A
S1134E309D030995BC01CE018A589F4F00D764E0B9
S1134E40CE018A589F4FF3010995C0900A04D0906F
S1134E500B04E0900C04F0900D0420E030E040E8F6
S1134E6054ECC701B60180D418160CF058C020E0E9
S1134E7030E040E854E4C701B60127D388230CF09E
S1134E804EC0C701B6018DD31F921F92F9E0FF9364
S1134E902EE22F93E0917C03F0917D030F2EF4EF2B
S1134EA0AF2EBB24B394C12CD12CF02DEE24EA9464
S1134EB013E0F12E00E010E021E03CEF4FEF5FEF54
S1134EC00995609346037093470380934803909336
S1134ED04903CB01C053DF4FE881F981C05DD04065
S1134EE0099560E070E081E090E0F2010995E091BD
S1134EF05E03F0915F038091460390914703099507
S1134F00BC01CE018A589F4F9AD664E0CE018A58DC
S1134F109F4FF30109950F900F900F900F90E09120
S1134F208803F091890326E0AE014A585F4F6EEC86
S1134F3075E08CE092E4099560E070E082E090E036
S1134F40F20109956CE0CE018A589F4FF30109954F
S1134F5060E070E083E090E0F20109956091BA03AB
S1134F607091BB038091BC039091BD031AD3E0916F
S1134F706203F09163030995BC01CE018A589F4FE7
S1134F805ED666E0CE018A589F4FF30109956DE025
S1134F9070E080E090E0F201099560910A0470915C
S1134FA00B0480910C0490910D04FBD2E0916203F8
S1134FB0F09163030995BC01CE018A589F4F3FD6F7
S1134FC066E0CE018A589F4FF30109956DE070E0C9
S1134FD081E090E0F2010995609198037091990342
S1134FE080919A0390919B03DCD2E0916203F0914B
S1134FF063030995BC01CE018A589F4F20D666E011
S1135000CE018A589F4FF30109951AC1F101099500
S1135010C653DF4FE881F981CA5CD0400995E6C0E8
S1135020F40109955AA36BA362E171E08AA19BA1E3
S1135030FDD5892B51F4F1010995C653DF4FE88161
S1135040F981CA5CD0400995FBC0F40109955D8FD4
S11350506E8F6DE171E08D8D9E8DE8D5892B51F4B5
S1135060F1010995C653DF4FE881F981CA5CD0404C
S11350700995E6C060E070E080E090E0F2010995F7
S113508068E08FE191E0F301099563E0CE01845873
S11350909F4FF301099560E070E081E090E0F20138
S11350A009956BE088E291E0F3010995F401099513
S11350B0243409F050C0F40109955B8B6C8B6B8927
S11350C07C8946E050E0CE0184589F4FBFD5E091E3
S11350D06A03F0916B03CE0184589F4F0995853B79
S11350E0910590F5BC01990F880B990B1F921F92A3
S11350F0F9E0FF932EE22F93E0917C03F0917D037E
S11351000F2EF4EFAF2EBB24B394C12CD12CF02D71
S113511014EBE12EF12C00E010E020E030E0A901D6
S11351200995CB01C053DF4FE881F981C05DD040C0
S113513009952896EEADFFAD289785E009950F9067
S11351400F900F900F9005C065E084E391E0F301A8
S11351500995F101099560E070E083E090E0F201C7
S1135160099568E08AE391E0F301099587C0F101AC
S11351700995C653DF4FE881F981CA5CD04009958F
S11351805FC0F401099559876A8762E171E08985F6
S11351909A854CD5892B51F4F1010995C653DF4FFB
S11351A0E881F981CA5CD040099568C0F401099589
S11351B05C836D836DE171E08C819D8137D5892B92
S11351C051F4F1010995C653DF4FE881F981CA5CB6
S11351D0D040099535C060E070E080E090E0F201D5
S11351E0099563E183E491E0F30109952E96EEAD10
S11351F0FFAD2E9709956296EEADFFAD62970995C6
S11352006DE070E083E090E0F2010995EEADFFAD52
S11352108AE30995F40109953CAB4DAB66E08CA992
S11352209DA9F3010995F40109955E876F8760E1F3
S113523071E08E859F85FAD4892B09F498CFA1CF8C
S11352402E96EEADFFAD2E9709956296EEADFFADAD
S1135250629709956DE070E083E090E0F2010995B2
S1135260EEADFFAD8AE30995F40109953CAB4DAB76
S113527066E08CA99DA9F301099591CD2E96EEAD1A
S1135280FFAD2E9709956296EEADFFAD6297099535
S11352906DE070E083E090E0F2010995EEADFFADC2
S11352A08AE30995F40109953CAB4DAB66E08CA902
S11352B09DA9F3010995F40109955FA368A760E12D
S11352C071E08FA198A5B2D4892B09F49FCEA8CE02
S11352D01F920F920FB60F9211240BB60F920F93D9
S11352E01F932F933F934F935F936F937F938F936A
S11352F09F93AF93BF93CF93EF93FF93CFB78FB7A2
S11353008F778FBF80913C028C3308F45FC060912B
S11353109C0370919D0380E090E074D1AB01BC01CB
S1135320E091D203F091D30300E010E020E03FE3EA
S11353308EE993E0099560930A0470930B048093BB
S11353400C0490930D0460919C0370919D0380E084
S113535090E058D1AB01BC01E0910804F09109043C
S113536000E010E020E03FE384ED93E009956093D2
S113537098037093990380939A0390939B0380916D
S11353803B028F5F80933B028F7090E0089774F428
S11353900AE413E0D801ED91FC9180E00995D8016D
S11353A01496ED91FC91159709950DC00AE413E04C
S11353B0D801ED91FC9181E00995D8011496ED9105
S11353C0FC911597099510923C0203C08F5F80935E
S11353D03C02CFBFFF91EF91CF91BF91AF919F91CD
S11353E08F917F916F915F914F913F912F911F9179
S11353F00F910F900BBE0F900FBE0F901F9018953A
S11354005058BB27AA270ED075C166D130F06BD196
S113541020F031F49F3F11F41EF45BC10EF4E095CB
S1135420E7FB51C1E92F77D180F3BA1762077307FD
S11354308407950718F071F49EF58FC10EF4E0957A
S11354400B2EBA2FA02D0B01B90190010C01CA013A
S1135450A0011124FF27591B99F0593F50F4503EE5
S113546068F11A16F040A22F232F342F4427585FD7
S1135470F3CF469537952795A795F0405395C9F7EF
S11354807EF41F16BA0B620B730B840BBAF09150A7
S1135490A1F0FF0FBB1F661F771F881FC2F70EC046
S11354A0BA0F621F731F841F48F487957795679519
S11354B0B795F7959E3F08F0B3CF9395880F08F002
S11354C09927EE0F979587950895D9D008F481E030
S11354D008950CD00FC107D140F0FED030F021F474
S11354E05F3F19F0F0C0511139C1F3C014D198F3E2
S11354F09923C9F35523B1F3951B550BBB27AA2751
S113550062177307840738F09F5F5F4F220F331FC2
S1135510441FAA1FA9F333D00E2E3AF0E0E830D08E
S113552091505040E695001CCAF729D0FE2F27D091
S1135530660F771F881FBB1F261737074807AB075F
S1135540B0E809F0BB0B802DBF01FF2793585F4FD4
S11355502AF09E3F510568F0B6C000C15F3FECF3EE
S1135560983EDCF3869577956795B795F7959F5F99
S1135570C9F7880F911D9695879597F90895E1E0ED
S1135580660F771F881FBB1F621773078407BA074C
S113559020F0621B730B840BBA0BEE1F88F7E095A7
S11355A0089504D06894B111D9C00895BCD088F08E
S11355B09F5790F0B92F9927B751A0F0D1F0660FFB
S11355C0771F881F991F1AF0BA95C9F712C0B13016
S11355D081F0C3D0B1E00895C0C0672F782F882729
S11355E0B85F39F0B93FCCF3869577956795B39555
S11355F0D9F73EF490958095709561957F4F8F4FC4
S11356009F4F0895E89409C097FB3EF490958095C8
S1135610709561957F4F8F4F9F4F9923A9F0F92F74
S113562096E9BB279395F695879577956795B795F2
S1135630F111F8CFFAF4BB0F11F460FF1BC06F5FD8
S11356407F4F8F4F9F4F16C0882311F096E911C0EA
S1135650772321F09EE8872F762F05C0662371F00B
S113566096E8862F70E060E02AF09A95660F771F1F
S1135670881FDAF7880F9695879597F90895990FFB
S11356800008550FAA0BE0E8FEEF16161706E80708
S1135690F907C0F012161306E407F50798F0621B29
S11356A0730B840B950B39F40A2661F0232B242BFE
S11356B0252B21F408950A2609F4A140A6958FEF1D
S11356C0811D811D089597F99F6780E870E060E06F
S11356D008959FEF80EC089500240A941616170687
S11356E018060906089500240A94121613061406CF
S11356F005060895092E0394000C11F4882352F032
S1135700BB0F40F4BF2B11F460FF04C06F5F7F4FE9
S11357108F4F9F4F089557FD9058440F551F59F0D0
S11357205F3F71F04795880F97FB991F61F09F3F8A
S113573079F087950895121613061406551FF2CFB3
S11357404695F1DF08C0161617061806991FF1CF03
S113575086957105610508940895E894BB2766272A
S11357607727CB0197F908958ADF08F48FEF08951E
S11357700BD0C0CFB1DF28F0B6DF18F0952309F0C5
S1135780A2CFA7CF1124EACFC6DFA0F3959FD1F310
S1135790950F50E0551F629FF001729FBB27F00DDB
S11357A0B11D639FAA27F00DB11DAA1F649F662730
S11357B0B00DA11D661F829F2227B00DA11D621F7F
S11357C0739FB00DA11D621F839FA00D611D221F39
S11357D0749F3327A00D611D231F849F600D211D1D
S11357E0822F762F6A2F11249F5750408AF0E1F0C0
S11357F088234AF0EE0FFF1FBB1F661F771F881F09
S113580091505040A9F79E3F510570F05CCFA6CF50
S11358105F3FECF3983EDCF3869577956795B795F3
S1135820F795E7959F5FC1F7FE2B880F911D96951D
S1135830879597F90895FA01EE0FFF1F3096210519
S1135840310599F16115710561F48038BFE39B0757
S113585049F168949038810561F08038BFEF9B0767
S113586041F0992342F5FF3FE1053105210511F18E
S1135870E8940894E795D901AA2329F4AB2FBE2F05
S1135880F85FD0F310C0FF5F70F4A695E0F7F73926
S113589050F019F0FF3A38F49F779F930CD00F9093
S11358A007FC905808953EF014CF60E070E080E863
S11358B09FE308954FE79F775F934F933F932F9311
S11358C09ED02F913F914F915F9152DF05C019F403
S11358D00EF0F9CE42CFFDCE26DFC8F39638C0F7DE
S11358E007F80F92E8942BE33AEA48EB5FE74EDFC0
S11358F00F920F920F924DB75EB70F92C0D0E8E2AD
S1135900F1E016D04F915F91EF91FF91E595EE1F75
S1135910FF1F49F0FE57E0684427EE0F441FFA9535
S1135920E1F74195550B32D00F9007FE26C008953C
S1135930DF93CF931F930F93FF92EF92DF927B013C
S11359408C01689405C0DA2EEF011EDFFE01E89495
S1135950A5912591359145915591AEF3EF0162DD05
S1135960FE019701A801DA9479F7DF90EF90FF9098
S11359700F911F91CF91DF9108959B01AC0160E0DD
S113598070E080E89FE3A5CD9ECEACC0CCDEE8F30A
S11359909923D9F3940F511DBBF39150504094F0C7
S11359A059F0882332F0660F771F881F91505040BA
S11359B0C1F79E3F510544F7880F911D9695879531
S11359C097F908955F3FACF0983E9CF0BB2786950D
S11359D077956795B79508F4B1609395C1F7BB0FB8
S11359E058F711F460FFE8CF6F5F7F4F8F4F9F4FE1
S11359F0E3CFB4CE0EF076C06CCE689464CE93DE62
S1135A00C8F39923D1F3C6F3DF93CF931F930F9376
S1135A10FF92C92FDD2788232AF02197660F771F6D
S1135A20881FDAF720E030E040E85FEB9FE3883935
S1135A3020F0803E30F021968F77E3DCE0E5F1E062
S1135A4003C0DFDCEDE7F1E073DF8B01BE01EC01A5
S1135A50FB2E6F5771097595771F880B990BD4DD51
S1135A6028E132E741E35FE38FDEAF2D9801AE0119
S1135A70FF900F911F91CF91DF91D4DC3BCEFA01BF
S1135A80DC01AA0FBB1F9B01AC01BF5728F42227DE
S1135A903327442750781FC0B75188F4AB2F002414
S1135AA0469537952795011CA395D2F3002069F0FC
S1135AB0220F331F441FB395DAF30DD0A1CC61300C
S1135AC07105A0E88A07B94630F49B01AC0166274A
S1135AD0772788279078309621F02083318342837A
S1135AE0538308959F3F31F0915020F48795779523
S1135AF06795B795880F911D9695879597F90895A1
S1135B00DB018F939F9388D0BF91AF91A29F800DAB
S1135B10911DA39F900DB29F900D11240895AA1B6F
S1135B20BB1B51E107C0AA1FBB1FA617B70710F084
S1135B30A61BB70B881F991F5A95A9F780959095B6
S1135B40BC01CD01089597FB072E16F4009406D0EE
S1135B5077FD08D0E4DF07FC05D03EF490958195ED
S1135B609F4F0895709561957F4F0895A1E21A2E75
S1135B70AA1BBB1BFD010DC0AA1FBB1FEE1FFF1FED
S1135B80A217B307E407F50720F0A21BB30BE40B3D
S1135B90F50B661F771F881F991F1A9469F7609584
S1135BA07095809590959B01AC01BD01CF0108953E
S1135BB0052E97FB16F400940FD057FD05D0D6DFC1
S1135BC007FC02D046F408C05095409530952195C5
S1135BD03F4F4F4F5F4F0895909580957095619515
S1135BE07F4F8F4F9F4F0895EE0FFF1F0024001C1F
S1135BF00BBE0790F691E02D0994A29FB001B39FCC
S1135C00C001A39F700D811D1124911DB29F700DC1
S1135C10811D1124911D0895F0DFA59F900DB49F5F
S1135C20900DA49F800D911D11240895FB01DC01AA
S1135C308D91019080190110D9F3990B0895FB01FE
S1135C40DC0101900D920020E1F70895FB01DC01D5
S1135C504150504048F001900D920020C9F701C016
S1135C601D9241505040E0F708950F931F93CF9336
S1135C70DF93CDB7DEB72E970FB6F894DEBF0FBE15
S1135C80CDBF8C01FA0186E08C831A83098377FFE8
S1135C9002C060E070E8CB0101979E838D83A90167
S1135CA0BF01CE01019619D04D815E8157FD0AC016
S1135CB02F813885421753070CF49A01F801E20F3B
S1135CC0F31F10822E960FB6F894DEBF0FBECDBF21
S1135CD0DF91CF911F910F9108952F923F924F9290
S1135CE05F926F927F928F929F92AF92BF92CF9268
