S011000061746D6567613332342E737265630B
S11300000C94B4000C94D1000C94D1000C94D10045
S11300100C94D1000C94D1000C94D1000C94D10018
S11300200C94D1000C94D1000C94D1000C94D10008
S11300300C94D1000C94D1000C94D1000C94D100F8
S11300400C94D1000C94D1000C94D1000C94D100E8
S11300500C9466120C94C8120C94D1000C94D10028
S11300600C94D3000C94D1000C94D1000C94D100C6
S11300700C949D120C94FF120C94D100DF133214D3
S11300804C148914C51402159A15B515281643166F
S1130090861692169E16AA16B616D916D916D9160B
S11300A0D916D916D916D916D916D916D916D916D4
S11300B0D916D916D916D916D916D916D916D916C4
S11300C0D916D916D916D916D916D916D916D916B4
S11300D0D916D916D916D916D916D916D916D916A4
S11300E0D916C216CE1607634236B79BD8A71A395B
S11300F0685618AEBAAB558C1D3CB7CC5763BD6D72
S1130100EDFD753EF6177231BF000000803F080018
S11301100000BE922449123EABAAAA2ABECDCCCC82
S11301204C3E00000080BEABAAAAAA3E000000001C
S1130130BF000000803F0000000000084178D3BBEE
S11301404387D1133D190E3CC3BD4282AD2B3E689B
S1130150EC8276BED98FE1A93E4C80EFFFBE01C48C
S1130160FF7F3F000000000011241FBECFEFD8E046
S1130170DEBFCDBF11E0A0E0B1E0EEE9FDE302C0D7
S113018005900D92AA3CB107D9F723E0AAECB1E09F
S113019001C01D92A732B207E1F70E9430130C94FC
S11301A0CD1E0C9400001F920F920FB60F921124D3
S11301B02F933F938F939F93AF93BF93EF93FF93AB
S11301C08091780090E09093DE028093DD0220918C
S11301D079008091DD029091DE02922B9093DE02F1
S11301E08093DD028091DC028430A0F48091DC02F3
S11301F08F5F8093DC022091DD023091DE028091DA
S1130200D8029091D902820F931F9093D9028093C0
S1130210D80245C0E091D602F091D7028091D8026D
S11302209091D9029595879595958795EE0FFF1F27
S1130230E652FE4F918380831092D9021092D80225
S11302401092DC022091D6023091D7028091DA021A
S11302509091DB022817390754F48091D6029091CB
S1130260D70201969093D7028093D60204C01092CD
S1130270D7021092D602ACE7B0E08C91807E8C93CA
S1130280E091D602F091D702EE0FFF1FE653FE4F26
S1130290808191812C918F719927822B8C93FF916E
S11302A0EF91BF91AF919F918F913F912F910F90BB
S11302B00FBE0F901F901895FC018FE29EE1918371
S11302C080838BE79EE1938382838DE49EE1958313
S11302D0848387E39EE19783868381E99EE1918706
S11302E080878BE69EE19387828789E89EE19787E2
S11302F0868789E89EE1958B848B8FE59EE1978BB9
S1130300868B8FE19EE1918F808F81E79EE1938FB1
S1130310828F8DE39EE1958F848FCF010895CF92D4
S1130320DF92EF92FF920F931F93FC0100811181E2
S113033022813381FB01C080D180E280F380FC0103
S1130340C082D182E282F382FB0100831183228383
S113035033831F910F91FF90EF90DF90CF9008951A
S1130360FB012081FC012083222339F0DB0111965B
S113037031969D9191939111FCCF0895CF93DF9382
S1130380EC019881992399F0FE01319620E030E048
S1130390492F50E04617570731F0DE01A20FB31F73
S11303A09C932F5F3F4F91919111F2CF02C020E0B7
S11303B030E0FE01E20FF31F1082DF91CF91089528
S11303C02F923F924F925F926F927F928F929F9261
S11303D0AF92BF92CF92DF92EF92FF920F931F934F
S11303E0CF93DF9300D000D0CDB7DEB72C011B0133
S11303F04B0177231CF42FEF821A920A9594879469
S1130400181419040CF451C06AC09601DD209CF143
S1130410F50140815181F401608171816417750790
S113042054F58C010A0D1B1DD401BC82AB82BA8227
S1130430A982EB81FC817183608311965C934E9356
S11304402E193F09C2F0F80140815181E981FA81F6
S113045060817181080F191FE80FF91FFA83E9837E
S1130460EB81FC81E80FF91FFC83EB83A80FB91F14
S113047064177507F4F2FFEFCF1ADF0A22E0A20E29
S1130480B11CE2E08E0E911CC614D70409F0BDCF56
S11304904701FF201CF4FFEF8F1A9F0A959487945D
S11304A018141904E4F4740101C07401821493044F
S11304B07CF76401CE18DF085601AA0CBB1CA40CFF
S11304C0B51C880C991C840C951C31016E187F088E
S11304D0C701880F991F91958195910996CF0F9027
S11304E00F900F900F90DF91CF911F910F91FF907C
S11304F0EF90DF90CF90BF90AF909F908F907F90C0
S11305006F905F904F903F902F90089586179707B4
S11305100CF4CB0108959B01672B11F408959A0103
S1130520B9010E94D91AAC01822F932F41155105AC
S1130530B1F70895FC01908180ED890F8A30D0F4E1
S1130540319620E030E0A901440F551F220F331FDC
S1130550220F331F220F331F420F531F292F30E066
S113056020533109240F351F919180ED890F8A3072
S113057050F302C020E030E0C901089586230895B5
S1130580009739F020E030E02F5F3F4F8217930748
S1130590D9F7089587FF08C0919581959109992706
S11305A091958195910908958F779927089591FFE1
S11305B008C09195819591099370919581959109C0
S11305C0089591700895615021E030E002C0220F37
S11305D0331F6A95E2F7A90141505109B901682313
S11305E07923672B29F084239523821B930B089589
S11305F08423952308959DEC899F912D112496952C
S113060096959695392F330F232F220F220F230F00
S1130610821B20E1929F800D11240895982F9295BA
S11306209F70990F292F220F220F920F8F70890F1D
S11306300895FC01DB01A651BE4F1C921616170645
S113064014F5908191110CC017C0919191110DC0B6
S113065015C081932F5F3F4F26173707D4F313C07C
S1130660AAEEB1E0319620E030E09D932F5F3F4F3A
S11306706217730751F707C020E030E0F901E65133
S1130680FE4F80E2E6CF8AEE91E008954F925F92AA
S11306906F927F92AF92BF92CF92DF92EF92FF92CE
S11306A00F931F93CF93DF93CDB7DEB729013A01A0
S11306B09B01AC01241935094609570989899A898E
S11306C0AB89BC89BC01CD016A197B098C099D09E0
S11306D00E94C91AA8019701241935094609570926
S11306E00E94ED1ACA01B9016A0D7B1D8C1D9D1D66
S11306F0DF91CF911F910F91FF90EF90DF90CF90FA
S1130700BF90AF907F906F905F904F900895FC01E1
S11307102081222341F0319680E090E001962191DE
S11307202111FCCF089580E090E00895CF93DF93EA
S1130730EC010E9487039C012150310962F0FE0103
S1130740E80FF91F9291903219F09950923018F4F1
S113075021503109B8F7C20FD31F1982C901DF91A3
S1130760CF910895CF93DF93EC010E9487039C01FE
S1130770215031091216130684F4DE01A80FB91FA3
S1130780FE0180E090E040815E9151934C9301968C
S11307902150310982179307B4F3DF91CF91089563
S11307A08F929F92AF92BF92CF92DF92EF92FF927D
S11307B00F931F93CF93DF936B017C01DC01CB017B
S11307C0FF203CF488279927DC018C199D09AE0988
S11307D0BF09BC01CD0110E00F2EFAE08F2E912C41
S11307E0A12CB12CF02D01C0102F01E0010FC12F5D
S11307F0D0E0C651DE4FA50194010E94ED1A605D60
S11308006883622F732F842F952F161617061806E8
S1130810190654F3FF2044F4E02FF0E0E651FE4FB4
S11308208DE2808302E0010FE02FF0E0E651FE4FFD
S113083010828AEE91E00E94B2038AEE91E0DF9189
S1130840CF911F910F91FF90EF90DF90CF90BF90C9
S1130850AF909F908F9008950F931F93CF93DF9342
S1130860EC01992324F4882799278C1B9D0B20E005
S11308700AE010E001C0232F31E0320FE22FF0E054
S1130880E651FE4FB8010E94D91A805D8083862FFD
S1130890972F181619067CF3DD2344F4E32FF0E0B8
S11308A0E651FE4F8DE2808332E0320FE32FF0E019
S11308B0E651FE4F10828AEE91E00E94B2038AEE66
S11308C091E0DF91CF911F910F910895CF93AC01E7
S11308D09C01ADECBCEC0E94121B969587959695F5
S11308E08795969587959C01220F331F880F991F32
S11308F0880F991F880F991F820F931F9A01281B35
S1130900390BC901805D8093EA019A010E94121B90
S1130910AC0156954795569547955695479541157B
S1130920510589F1E1E0C1E0CE0FF0E0E651FE4F60
S11309309A01ADECBCEC0E94121B96958795969596
S11309408795969587959C01220F331F880F991FD1
S1130950880F991F880F991F820F931F9A01281BD4
S1130960390BC901805D80839A010E94121BAC017E
S1130970569547955695479556954795EC2F4115AD
S1130980510589F601C0C1E0EC2FF0E0E651FE4FBD
S113099010828AEE91E00E94B2038AEE91E0CF9138
S11309A00895982F92959F70990F292F220F220F47
S11309B0920F8F70890F0895AC019C01ADECBCECD3
S11309C00E94121B9695879596958795969587957F
S11309D0BC01660F771F9C01220F331F220F331FA8
S11309E0220F331F260F371F421B530B342F20E1D6
S11309F0829F300D1124832F0895CF92DF92EF92BE
S1130A00FF92CF93DF93CDB7DEB728970FB6F89454
S1130A10DEBF0FBECDBF6B017C0169837A838B83FC
S1130A209C832D833E834F835887C216D306E406E6
S1130A30F5063CF4BE016B5F7F4FCE0101960E9428
S1130A408F018D819E81AF81B885892B8A2B8B2B59
S1130A5071F469817A818B819C8120E030E0A90165
S1130A600E94ED1A611571058105910529F46D81C6
S1130A707E818F81988505C06D837E838F8398875F
S1130A80F6CF28960FB6F894DEBF0FBECDBFDF9128
S1130A90CF91FF90EF90DF90CF90089590E002C047
S1130AA0959587956A95E2F7817008959C01215088
S1130AB0310981E090E002C0880F991F2A95E2F77E
S1130AC00097B1F0EAEEF1E020E030E0B0E3A1E31A
S1130AD0AB0148235923452B11F0A08301C0B083F7
S1130AE0969587952F5F3F4F3196009789F702C0FF
S1130AF020E030E0F901E651FE4F10828AEE91E0E9
S1130B000895AB01BC011092EA014115510561053C
S1130B10710509F442C021E0EFEFE20FDB01CA01E5
S1130B208F709927AA27B078BB2354F40197A109A1
S1130B30B109806F9F6FAF6FBF6F0196A11DB11D8B
S1130B408A309105A105B10534F4F0E0E651FE4F79
S1130B50805D808305C0F0E0E651FE4F895C8083B0
S1130B60E22FF0E0E651FE4F1082DB01CA01772349
S1130B701CF40F96A11DB11DAC01BD01689413F8BE
S1130B8075956795579547951694D1F72F5F41153D
S1130B9051056105710509F0BFCF8AEE91E00E940D
S1130BA0B2038AEE91E00895282F30E0322F2227F5
S1130BB0A901492BCA010895292F30E0322F222799
S1130BC0A901482BCA010895282F892F922F08952F
S1130BD008959827892798270895FF920F931F93C4
S1130BE0CF93DF938C01EB01F42E642F70E080E04F
S1130BF090E00E94B3179B01AC0160E070E080E0DC
S1130C0090E40E94D21820E030E040E85FE30E94C4
S1130C100B170E9484179E01262337236023712318
S1130C20CB01822793272823392302C0220F331FA5
S1130C30FA94E2F7822B932BDF91CF911F910F91BE
S1130C40FF900895CF93DF93CDB7DEB79E012B5F5E
S1130C503F4FF901419151919F016FE570E08AEE98
S1130C6091E00E94621B99231CF08AEE91E002C07D
S1130C7080E090E0DF91CF910895FC011092490249
S1130C8087E893E09183808382EB93E0938382836C
S1130C908DEE95E0958384838FE891E09783868336
S1130CA080EB91E0918780878EEB91E09387828738
S1130CB080EE91E0958784878CE294E0978786871D
S1130CC086E694E0918B808B80ED93E0938B828B0E
S1130CD086E993E0958B848B86E892E0978B868BEC
S1130CE08BE892E0918F808F8AE992E0938F828FD4
S1130CF08EEB92E0958F848F80EC92E0978F868FB5
S1130D008AEC92E091A380A387ED92E093A382A35F
S1130D1083EE92E095A384A38BEF92E097A386A33E
S1130D208EE093E091A780A789E193E093A782A73F
S1130D3086E493E095A784A781ED94E097A786A71E
S1130D408CED94E091AB80AB8DEF94E093AB82ABF0
S1130D508EE495E095AB84AB86E595E097AB86ABE6
S1130D6085E397E091AF80AF81E895E093AF82AFE0
S1130D7084ED95E095AF84AF8CED95E097AF86AFA9
S1130D80DF01A05CBF4F84EE95E011969C938E9397
S1130D90129688EE95E011969C938E93129689EEA6
S1130DA095E011969C938E93129682E296E08D9331
S1130DB09C93CF0108958F929F92AF92BF92EF922E
S1130DC0FF920F931F93CF93DF938A01D22F2AE0D0
S1130DD030E040E050E00E94ED1A605DF80160836D
S1130DE0622F732F842F952F1616170618061906CF
S1130DF0FCF421E00F2EFAE08F2E912CA12CB12CC3
S1130E00F02DC1E0C20F7801E20EF11CA50194019E
S1130E100E94ED1A605DF7016083622F732F842FA7
S1130E20952F2C2F161617061806190654F301C011
S1130E30C1E0CD1748F480E3F801EC0FF11D808385
S1130E40CF5FDC13F9CF01C0DC2FF801ED0FF11DEA
S1130E5010828D2FDF91CF911F910F91FF90EF9012
S1130E60BF90AF909F908F9008958F929F92AF9272
S1130E70BF92CF92DF92EF92FF920F931F93CF9383
S1130E80DF936B017C01EA01022F20E030E0A9012D
S1130E900E94781788230CF06CC0F7FAF094F7F8E6
S1130EA0F094C701B6010E9484174B015C010E94B3
S1130EB0B3179B01AC01C701B6010E940B176B016C
S1130EC07C01B401990C880B990B21E0AE010E94BE
S1130ED0DB0611E0180FFE01E80FF11D8DE280839F
S1130EE05E01A10EB11CF5011082CE010E94B20375
S1130EF08FEF800F863018F58EE2F50180831F5F37
S1130F005E01A10EB11C602F70E080E090E00E94B1
S1130F10B3179B01AC0160E070E080E291E40E94B1
S1130F20D218A70196010E9465180E947D17202FF0
S1130F30A5010E94DB06C5010E94B2033AC08EE2FD
S1130F40F50180831F5FCE01810F911D8C0120E08C
S1130F5030E048EC52E4C701B6010E9465180E94D3
S1130F607D1722E0A8010E94DB06C8010E94B2039B
S1130F7020C0C701B6010E9484174B015C010E9486
S1130F80B3179B01AC01C701B6010E940B176B019B
S1130F907C01B401990C880B990B21E0AE010E94ED
S1130FA0DB0611E0180FFE01E80FF11D80E28083DB
S1130FB097CFCE01DF91CF911F910F91FF90EF90CA
S1130FC0DF90CF90BF90AF909F908F900895CF9374
S1130FD0DF9300D000D01F92CDB7DEB785E0EFE0FD
S1130FE0F3E0DE01119601900D928A95E1F72981D3
S1130FF03A814B815C816D8170E080E090E00F90DC
S11310000F900F900F900F90DF91CF910895109251
S1131010EA02EFE0F3E080E280838AE492E09283E4
S11310208183948383830895CF93DF9321E080E0C9
S1131030A2EEB2E0E6EEF2E060E071E001C02F5F04
S11310409FEF920F913009F44BC038F0923009F4BD
S11310508CC0933009F4CEC00EC14091ED02509182
S1131060EE02EA019881906898834091DF025091E2
S1131070E002EA0198819F7798834091EB025091B6
S1131080EC02EA01388134773C939081432F49275D
S113109094233083992399F0943019F4EB018881D7
S11310A00AC0903119F4EB01898109C0903219F416
S11310B0EB018A8104C0903411F4EB018B814091DF
S11310C0ED025091EE02EA0198819F779883409156
S11310D0DF025091E002EA01988190689883AFCFD3
S11310E04091ED025091EE02EA019881916098835B
S11310F04091DF025091E002EA0198819E7F98833B
S11311004091EB025091EC02EA0138813477119658
S11311103C9311979181432F492794233183992339
S113112099F0943019F4EB018C810AC0903119F4D0
S1131130EB018D8109C0903219F4EB018E8104C05A
S1131140903411F4EB018F814091ED025091EE0245
S1131150EA0198819E7F98834091DF025091E002DA
S1131160EA019881916098836ACF4091ED02509191
S1131170EE02EA019881926098834091DF025091D7
S1131180E002EA0198819D7F98834091EB0250919F
S1131190EC02EA013881347712963C9312979281DB
S11311A0432F492794233283992399F0943019F4D7
S11311B0EB0188850AC0903119F4EB01898509C0D7
S11311C0903219F4EB018A8504C0903411F4EB01D8
S11311D08B854091ED025091EE02EA0198819D7F4A
S11311E098834091DF025091E002EA019881926075
S11311F0988325CFE091ED02F091EE029081986002
S11312009083E091DF02F091E0029081977F9083D8
S1131210E091EB02F091EC02208124772093E50227
S1131220E6EEF2E09381322F392793232383992327
S113123099F0943019F480910C010AC0903119F49A
S113124080910D0109C0903219F480910E0104C0FF
S1131250903411F480910F01E091ED02F091EE02CF
S11312609081977F9083E091DF02F091E00290817A
S11312709860908303C0243008F4E1CEDF91CF91CD
S113128008950E941408882309F445C080930F032D
S1131290843499F4E091EA02F0E0E151FD4F1082C8
S11312A01092EA02EFE0F3E08AE492E09283818311
S11312B08FEE92E0948383830895E091EA02E6300E
S11312C0B8F4AE2FB0E0A151BD4F8C93EF5FE09323
S11312D0EA02F0E0E151FD4F1082EFE0F3E08FEE1F
S11312E092E0928381838AE492E0948383830895D5
S11312F0EFEEF2E0808381E08093EA021182AFE0B6
S1131300B3E01296FC93EE9311978AE492E014965C
S11313109C938E9313970895CF93DF93CDB7DEB745
S113132028970FB6F894DEBF0FBECDBF20E22093FE
S11313300F039093EE028093ED027093EC0260939E
S1131340EB025093E0024093DF022BE8FC01208380
S1131350E091DF02F091E00284E78083A2EEB2E044
S11313608C93E6EEF2E0808311968C93119781833F
S113137012968C931297828313968C938383109284
S1131380EA02E091DF02F091E00280818B688083C1
S113139024E138E03A83298341E459E05C834B83B8
S11313A067EE77E07E836D8387E098E098878F838C
S11313B03A815C817E81988528960FB6F894DEBFC9
S11313C00FBECDBFDF91CF910895E0910003F0915E
S11313D0010380818B7F8083E0910003F0910103FE
S11313E080818460808308950F931F93CF93C82FC7
S11313F08B01E0910003F091010380818D7F808354
S1131400E091FD02F091FE028081806F8083672B62
S113141041F0E0910003F0910103808181608083B9
S113142007C0E0910003F091010380818E7F8083E7
S113143080E090E00E94E509CC2344F4E0910003AD
S1131440F091010380818068808307C0E0910003EC
S1131450F091010380818F778083C6FF08C0E091FB
S11314600003F091010380818064808307C0E091D0
S11314700003F091010380818F7B8083C5FF08C046
S1131480E0910003F091010380818062808307C0B2
S1131490E0910003F091010380818F7D8083C4FF7C
S11314A008C0E0910003F091010380818061808392
S11314B007C0E0910003F091010380818F7E808357
S11314C0012B41F0E0910003F091010380818160E0
S11314D0808307C0E0910003F091010380818E7F37
S11314E0808380E090E00E94E509C3FF08C0E0919A
S11314F00003F091010380818068808307C0E0913C
S11315000003F091010380818F778083C2FF08C0BC
S1131510E0910003F091010380818064808307C01F
S1131520E0910003F091010380818F7B8083C1FFF0
S113153008C0E0910003F091010380818062808300
S113154007C0E0910003F091010380818F7D8083C7
S1131550C0FF08C0E0910003F09101038081806125
S1131560808307C0E0910003F091010380818F7EA6
S11315708083E0910003F091010380818B7F80835D
S1131580CF911F910F91089560E070E081E00E9477
S1131590F40987EE97E10197F1F700C00000089580
S11315A00F931F93CF938C01E091FD02F091FE0203
S11315B080818F708083E0910003F091010380812A
S11315C0806F8083E0910003F09101038081826049
S11315D080830115110541F0E0910003F0910103AE
S11315E080818160808307C0E0910003F091010352
S11315F080818E7F808380E090E00E94E509E09105
S1131600F602F091F7028081882314F0C0E001C053
S1131610C0E8808186FF02C0C06401C0CF7B8081A6
S113162085FF02C0C06201C0CF7D808184FF02C0FB
S1131630C06101C0CF7E012B41F0E0910003F09125
S1131640010380818160808307C0E0910003F091F1
S1131650010380818E7F808380E090E00E94E50911
S1131660E091F602F091F702808188231CF48C2F1C
S1131670886002C08C2F877F908196FF02C08460AF
S113168001C08B7F908195FF02C0826001C08D7F75
S1131690908194FF02C0816001C08E7FE0910003BD
S11316A0F091010390819B7F9083CF911F910F91C3
S11316B0089580E090E00E94D00A882354F480E0EA
S11316C090E00E94D00A882324F480E090E00E94F5
S11316D0D00A089561E070E00E94F4090E94590B59
S11316E00895CF93DF93EC018881882331F021960C
S11316F00E946A0B89918111FBCFDF91CF910895EC
S11317000F931F93CF93DF93FC01D62F80818823FF
S113171051F08F010F5F1F4F611109C017C0CF5FD8
S1131720DC1730F401C0C0E0CD1750F00FC0C1E0A9
S11317300E946A0BF80181918F018111F0CFF4CFDF
S113174080E20E946A0BCF5FCD17D0F3DF91CF9177
S11317501F910F910895CF93C82F882329F080E219
S11317600E946A0BC150D9F7CF910895262F81307A
S1131770910581F030F082309105A9F00397E1F0F2
S1131780089560E070E080E8820F0E94F4090E94EE
S1131790590B089560E070E080EC820F0E94F40918
S11317A00E94590B089560E070E084E9820F0E9462
S11317B0F4090E94590B089560E070E084ED820FF3
S11317C00E94F4090E94590B0895E091FD02F091E2
S11317D0FE0287E08083E0910003F091010388E03A
S11317E080832FEF83EF91E0215080409040E1F718
S11317F000C0000060E070E088E30E94F40920ED7E
S11318002A95F1F760E070E088E30E94F40980ED26
S11318108A95F1F760E070E088E30E94F40990EDA6
S11318209A95F1F760E070E088E20E94F40925ECF3
S11318302A95F1F7000060E070E088E20E94F40964
S113184085EC8A95F1F7000060E070E088E20E9480
S1131850F4090E94590B60E070E088E20E94F409E8
S11318600E94590B60E070E08CE00E94F4090E9431
S1131870590B60E070E08CE00E94F4090E94590B5F
S113188060E070E081E00E94F4090E94590B60E07E
S113189070E081E00E94F4090E94590B60E070E05E
S11318A086E00E94F4090E94590B60E070E086E033
S11318B00E94F4090E94590B60E070E080E090E01F
S11318C00E94B60B0895CF93DF93EC017093FE0250
S11318D06093FD025093F7024093F60230930103A4
S11318E020930003FB011082E0910003F0910103B7
S11318F08FEF8083E091F602F091F7028081887087
S11319008093FF020E94E50B84EF99E0998388831A
S113191080ED9AE09B838A8389E59BE09D838C8399
S11319208AE69BE09F838E8386EC9CE09987888778
S113193081E79BE09B878A8780E89BE09D878C8773
S11319408BEA9BE09F878E8784EC9AE0998B888B47
S113195086EB9BE09B8B8A8B84EB9CE09D8B8C8B32
S1131960CE01DF91CF910895CF93E091F602F091EB
S1131970F702C081C8708091FF028C278C2311F07C
S11319800E94E50BC093FF02CF910895CF9381E0AD
S113199090E00E94D00AC82F0E94590B8C2FCF913F
S11319A00895AF92BF92CF92DF92EF92FF920F937E
S11319B01F93CF93DF93DC011496CC901497129667
S11319C02D913C911397232B21F17C01D12C00E024
S11319D010E0A12CB12CC0E0D0E0D701ED91FC9136
S11319E0008CF18DE02DA601B8018FE093E00995FC
S11319F080910F03882319F0BFEFAB1ABB0A21961D
S1131A000C0D1D1DF70182819381C817D90728F396
S1131A1002C0A12CB12CC501DF91CF911F910F9170
S1131A20FF90EF90DF90CF90BF90AF900895AF926A
S1131A30BF92CF92DF92EF92FF920F931F93CF93B7
S1131A40DF937C01DC011496CC90149712968D914F
S1131A509C911397892B81F1D12CC0E0D0E0A12C6B
S1131A6000E010E0BB24B394D701ED91FC91008C0D
S1131A70F18DE02DA601BE018FE093E009958091E0
S1131A800F03882371F010920F03D701ED91FC919D
S1131A90048CF58DE02DA601BE018FE093E009953D
S1131AA0AB2C0F5F1F4FCC0DDD1DF701828193819D
S1131AB008171907C8F201C0A12CD70118961C9267
S1131AC01E92179719961C928A2DDF91CF911F9120
S1131AD00F91FF90EF90DF90CF90BF90AF9008955B
S1131AE0FC01878190850895FC0181850895FC019E
S1131AF07087678311860895FC0185810895FC0130
S1131B00658308952F923F924F925F926F927F92D6
S1131B108F929F92AF92BF92CF92DF92EF92FF92F9
S1131B200F931F93CF93DF938C01762EDC011696CF
S1131B30CC90A62EAC24CA20D12CA622B12CC11440
S1131B40D10431F0F80182819381892B29F4B3C047
S1131B50A114B104B9F74AC1E480558033243A94FE
S1131B6044244A9466246394C0E0D0E0F12C852C8C
S1131B70912C6894222421F8EC9EB001ED9E700D06
S1131B80FC9E700D1124D801ED91FC91008CF18D17
S1131B90E02DA7018FE093E0099580910F0388233E
S1131BA009F470C0813099F42091120330E02C15AF
S1131BB03D0509F067C02091130330E02A153B0569
S1131BC009F060C0F801C281D381622C5BC0EFE0F0
S1131BD0F3E041815281D80117962D913C911897D9
S1131BE0242735274581568124233523232B09F0C7
S1131BF049C02091120330E02C153D0509F042C084
S1131C002091130330E02A153B05E1F5282F30E03D
S1131C102819390949F41296CD91DC9113970F2EA6
S1131C20F3E06F2EF02D2EC0121613069CF4442DF3
S1131C3050E02417350774F49BE0EFE0F3E0AAE1E9
S1131C40B3E001900D929A95E1F7482E45186894F7
S1131C50662462F83323B4F4432D50E05195419542
S1131C6051094217530774F49BE0EFE0F3E0A4E05A
S1131C70B3E001900D929A95E1F7352C381A6894E7
S1131C80662462F82196F80122813381C217D307B2
S1131C9008F472CFF2E06F1689F0F61520F081E0B7
S1131CA0681649F0A3C093E0691669F1A4E06A16C6
S1131CB009F44BC09BC0F801768298C0D8011596F0
S1131CC08C93159716967C921697EFE0F3E0658156
S1131CD07681218532852623372317964D915C9191
S1131CE01897242B352B87819085862397238095FD
S1131CF090958223932318969C938E93179782E052
S1131D0019968C9373C0F80185837682EFE0F3E033
S1131D10658176812185328526233723D80117965C
S1131D204D915C911897242B352B878190858623C0
S1131D309723809590958223932318969C938E9352
S1131D40179783E019968C9351C0F80176828FEF30
S1131D50840D8E3F20F5EAE1F3E08081D8011596E9
S1131D608C9315976581768121853285AB01422359
S1131D70532317962D913C911897242B352B87814B
S1131D809085862397238095909582239323189694
S1131D909C938E93179789E219968C9327C08FEFA3
S1131DA0830D8E3F18F5E4E0F3E08081D8011596A9
S1131DB08C9315976581768121853285AB01422309
S1131DC0532317962D913C911897242B352B8781FB
S1131DD09085862397238095909582239323189644
S1131DE09C938E9317978AE219968C93F8018185B8
S1131DF0DF91CF911F910F91FF90EF90DF90CF90E3
S1131E00BF90AF909F908F907F906F905F904F9016
S1131E103F902F9008952F923F924F925F926F922E
S1131E207F928F929F92AF92BF92CF92DF92EF9266
S1131E30FF920F931F93CF93DF93DC0114960C91C1
S1131E40149710921A03442309F487C01696AC9091
S1131E50262F2A25A222B12C2623822E912CA114CE
S1131E60B10441F0FC0122813381232B41F4442449
S1131E7043948DC081149104A9F7412C88C0542E39
S1131E807C0144244394C0E0D0E0612C712C10E028
S1131E900F2EF3E03F2EF02D6894222421F86801E0
S1131EA00C9FB0010D9F700D1C9F700D1124D70164
S1131EB0ED91FC91008CF18DE02DA8018FE093E071
S1131EC0099580910F03581214C08091120390E079
S1131ED08A159B0571F48091130390E08815990588
S1131EE041F4B1E05B1241C03E01F701C281D381EC
S1131EF0422C2196D70112968D919C911397C81765
S1131F00D90768F2B2E04B1621F0E3E04E1699F0DF
S1131F103EC06C9CB0016D9C700D7C9C700D1124B6
S1131F20D701ED91FC91048CF58DE02DA6018AE199
S1131F3093E009952CC06C9CB0016D9C700D7C9C49
S1131F40700D1124D701ED91FC91048CF58DE02DD9
S1131F50A6018AE193E009951AC0412C18C03E01FC
S1131F60F701C281D381432CC4CFEFE0F3E0218198
S1131F703281D70117968D919C911897282739277C
S1131F808581968182239323892B49F3B2CF842DB3
S1131F90DF91CF911F910F91FF90EF90DF90CF9041
S1131FA0BF90AF909F908F907F906F905F904F9075
S1131FB03F902F9008952F923F924F925F926F928D
S1131FC07F928F929F92AF92BF92CF92DF92EF92C5
S1131FD0FF920F931F93CF93DF93CDB7DEB729976B
S1131FE00FB6F894DEBF0FBECDBFFC0184818F8392
S1131FF010921A03E680962F9E25E922F12C96234F
S1132000A92EB12CE114F10439F082819381892B3A
S113201041F491E09983FEC0A114B104B1F719828F
S1132020F9C08F01558044244A94AFEFAA83B1E0EC
S1132030B983812C912C1E821D821C821B82212C2F
S1132040312CFF81EF2FF0E0652C712CF987E887A4
S1132050C884D984C89CB001C99C700DD89C700DEB
S11320601124D801ED91FC91008CF18DE02DA60195
S11320708FE093E0099580910F03882309F461C0F0
S11320808130A9F48091120390E08E159F0509F028
S113209058C08091130390E08A159B0509F051C044
S11320A01401F80182809380F2E0F9834AC0EFE0E2
S11320B0F3E041815281D80117962D913C911897F4
S11320C0242735274581568124233523232BC9F51D
S11320D02091120330E02E153F0599F5209113034A
S11320E030E02A153B0569F5282F30E02619370919
S11320F041F4140112968D909C901397B3E0B98328
S113210020C0121613066CF4EA814E2F50E02417F7
S113211035073CF4F82FF519FA839C828B8294E0FE
S11321209983332374F4442D50E05195419551091A
S11321304217530734F4452C481A9E828D82A4E03A
S1132140A983BFEF8B1A9B0AF801828193818816B9
S1132150990608F47DCFF981F330B9F0F43039F100
S1132160F23009F057C02C9CB0012D9C700D3C9CA2
S1132170700D1124D801ED91FC91048CF58DE02DA6
S1132180A6018AE193E0099545C02C9CB0012D9CE1
S1132190700D3C9C700D1124D801ED91FC91048CC0
S11321A0F58DE02DA6018AE193E0099533C08A817B
S11321B081508E3FB0F4EB81FC81EC9DB001ED9D2C
S11321C0700DFC9D700D1124D801ED91FC91048CCF
S11321D0F58DE02DA6018AE193E00995B9E2B98372
S11321E019C08FEF840D8E3FA8F4ED81FE81EC9D24
S11321F0B001ED9D700DFC9D700D1124D801ED9181
S1132200FC91048CF58DE02DA6018AE193E00995FB
S1132210BAE2B983898129960FB6F894DEBF0FBE5E
S1132220CDBFDF91CF911F910F91FF90EF90DF9081
S1132230CF90BF90AF909F908F907F906F905F9062
S11322404F903F902F9008952F923F924F925F921C
S11322506F927F928F929F92AF92BF92CF92DF92B2
S1132260EF92FF920F931F93CF93DF9300D01F92AF
S1132270CDB7DEB74901002309F4C2C0DC011696CC
S11322801C91362F31271323612E712C632369830C
S1132290262E312C6114710439F0FC012281338122
S11322A0232B39F480E0C4C021143104B1F780E059
S11322B0BFC02A019B838A83E480F12CC12CD12CDA
S11322C0A12CB12CAA81BB81ED91FC91008CF18DE4
S11322D0E02DA701B6018FE093E0099580910F03EB
S11322E08823F9F0813081F008131BC0209110037A
S11322F030911103EA81FB8187819085822793279E
S113230088219921892B69F48091120390E0861524
S1132310970539F48091130390E08215930509F42D
S113232071C0FFEFAF1ABF0ACE0CDF1CAA81BB81BC
S113233012968D919C911397A816B90618F264C051
S1132340EAE1F3E0C90184259525882199218223B6
S1132350932390878783AA81BB8117962D913C9103
S11323601897242535258222932248205920528605
S113237041860DC0EAE1F3E0C20180959095882181
S11323809921908787838420952092868186EA818B
S1132390FB8182819381892B89F100E010E0C12CBB
S11323A0D12CAA81BB81ED91FC91008CF18DE02DA3
S11323B0A701B8018FE093E0099580910F03811183
S11323C00FC0AA81BB81ED91FC91048CF58DE02DA9
S11323D0A701602F712F8AE193E0099582E028C05C
S11323E0BFEFCB1ADB0A0E0D1F1DEA81FB81828130
S11323F09381C816D906A8F283E01AC081E018C0F8
S113240080E016C084E014C0EAE1F3E00083AA810E
S1132410BB8117962D913C911897328321831383A6
S1132420B981B48396828582023008F089CFA2CF25
S11324300F900F900F90DF91CF911F910F91FF900C
S1132440EF90DF90CF90BF90AF909F908F907F9050
S11324506F905F904F903F902F900895FC0171838F
S11324606083538342838BE08483158210861782B2
S113247082E89DE09387828784E291E1958784874F
S113248081ED9CE0978786878BED9FE0918B808B15
S11324908BE09FE0938B828B87E19DE0958B848B0F
S11324A080E79DE0978B868B84E79DE0918F808FFA
S11324B087E79DE0938F828F8CE79DE0958F848FD3
S11324C08FE79DE0978F868FCF0108951F920F921B
S11324D00FB60F9211248F939F93EF93FF938091E4
S11324E0C0009091C100887180939102E0919302A1
S11324F0EF5FEF7180919202E81304C082E0809351
S1132500910212C09091C600E093930280919102CF
S1132510882331F0F0E0EA56FD4F88E5808304C05B
S1132520F0E0EA56FD4F9083FF91EF919F918F91D8
S11325300F900FBE0F901F9018951F920F920FB619
S11325400F9211248F939F93EF93FF93E091940242
S1132550809194028F5F8F7180939402F0E0EA542B
S1132560FD4F80818093C6009091940280919502E2
S1132570981305C0E1ECF0E080818F7D8083FF91AA
S1132580EF919F918F910F900FBE0F901F90189510
S11325901F920F920FB60F9211248F939F93EF9374
S11325A0FF938091C8009091C900887180934C0278
S11325B0E0914E02EF5FEF7180914D02E81304C089
S11325C082E080934C0212C09091CE00E0934E02C0
S11325D080914C02882331F0F0E0EF5AFD4F88E5FA
S11325E0808304C0F0E0EF5AFD4F9083FF91EF9198
S11325F09F918F910F900FBE0F901F9018951F926F
S11326000F920FB60F9211248F939F93EF93FF9322
S1132610E0914F0280914F028F5F8F7180934F0240
S1132620F0E0EF58FD4F80818093CE0090914F02EF
S113263080915002981305C0E9ECF0E080818F7D11
S11326408083FF91EF919F918F910F900FBE0F9018
S11326501F9018958FEF84B985B91AB88BB908956E
S1132660CF93DF93CDB7DEB7C25BD1090FB6F89431
S1132670DEBF0FBECDBF0E942A1342E250E060E2EB
S113268070E081E290E00E948C092E833F834887AA
S113269059876A877B878C879D878C849D8428E2F1
S11326A030E046E250E067E270E0CE010E960E9410
S11326B0630C888D998DC655DF4F99838883CA5AD8
S11326C0D040EA8CFB8C6C8C7D8CEE8DFF8DC155DB
S11326D0DF4FF983E883CF5AD040C8A0D9A0CE01F8
S11326E084960E945C0142E950E0BE016C5D7F4F1C
S11326F0CE018E5B9F4F0E942E12CE018E599F4FAA
S11327000E943D06E496AEACBFACE497EE968EAD67
S11327109FADEE97C455DF4F99838883CC5AD04040
S11327206E96EEADFFAD6E976FEF70E0CE018E5BEF
S11327309F4F0995CE54DF4F1882C25BD040CF54CF
S1132740DF4F1882C15BD040C255DF4F1882CE5A8A
S1132750D040212CEA85FB850995322E29833A83C2
S11327604B835C836D83522E0C811D8149B02223DF
S113277051F068E070E080E090E0F6010995EC89A2
S1132780FD89832D099560E170E080E090E0F60119
S11327900995842D90E0F501099590932603809383
S11327A0250364E0F7010995822D90E08A309105B4
S11327B008F00BC3FC01E25CFF4F0C940C1B60E0BF
S11327C070E080E090E0F601099568E080E191E036
S11327D0F7010995A096EEADFFADA097CE018E5BF3
S11327E09F4F099590E0F5010995909326038093F6
S11327F0250363E0F7010995F1E45F120AC0C155AE
S1132800DF4FE881F981CF5AD0400995F401099549
S1132810A1CFF2E45F120CC0C155DF4FE881F9810A
S1132820CF5AD0400995F40109952224239410C06D
S1132830F3E45F120DC0C155DF4FE881F981CF5A2F
S1132840D0400995F40109950F2EF6E02F2EF02DB6
S11328502E96EEADFFAD2E97642DCE018E5B9F4F6D
S11328600995B3C260E070E080E090E0F60109955C
S11328706CE089E191E0F701099560E070E081E0A6
S113288090E0F601099564E181E291E0F701099590
S11328906894222421F899C267E070E080E090E017
S11328A0F601099564E0C801F7010995F4E45F12A3
S11328B02AC0C801C455DF4FE881F981CC5AD04001
S11328C009958C01C255DF4F8883CE5AD04060E011
S11328D070E082E090E0F6010995C8019927F501BE
S11328E009959093260380932503C655DF4FE8810D
S11328F0F981CA5AD0400995F40109950F2EF3E0E5
S11329002F2EF02D62C2F3E45F125FC2F401099529
S11329105CC267E070E080E090E0F601099564E055
S1132920C801F7010995F4E45F1229C0C801C45530
S1132930DF4FE881F981CC5AD04009958C01CF54FE
S1132940DF4F8883C15BD04065E070E082E090E0B7
S1132950F6010995C8019927F50109959093260375
S113296080932503C655DF4FE881F981CA5AD040C8
S11329700995F40109956894222422F826C2F3E407
S11329805F1223C2F401099520C267E070E080E081
S113299090E0F601099564E0C801F7010995F4E4B3
S11329A05F122AC0C801C455DF4FE881F981CC5AAF
S11329B0D04009958C01CE54DF4F8883C25BD04050
S11329C06AE070E082E090E0F6010995C801992779
S11329D0F50109959093260380932503C655DF4F8F
S11329E0E881F981CA5AD0400995F40109950F2E5E
S11329F0F5E02F2EF02DE9C1F3E45F12E6C1F401F6
S1132A000995E3C167E070E080E090E0F601099584
S1132A1064E0C801F7010995F4E45F1285C0C801B8
S1132A20C455DF4FE881F981CC5AD04009958C0117
S1132A306FE070E082E090E0F6010995C801992703
S1132A40F50109959093260380932503C655DF4F1E
S1132A50E881F981CA5AD0400995CE54DF4FF881F4
S1132A60C25BD0402F2F30E0CF54DF4F8881C15B51
S1132A70D040482F50E06096EEADFFAD6097C25550
S1132A80DF4F6881CE5AD040CE018E5B9F4F0995AF
S1132A90823019F128F4882341F0813091F040C04C
S1132AA0833039F1843089F13BC06CE070E083E01D
S1132AB090E0F601099567E085E391E0F701099557
S1132AC02FC06CE070E083E090E0F601099567E0C8
S1132AD08EE391E0F701099523C06CE070E083E098
S1132AE090E0F601099567E085E491E0F701099526
S1132AF017C06CE070E083E090E0F601099567E0B0
S1132B0085E491E0F70109950BC06CE070E083E087
S1132B1090E0F601099567E08CE491E0F7010995EE
S1132B20F4010995212C51C1F3E45F124EC1F40163
S1132B3009954BC160E070E081E090E0F6010995F1
S1132B406AE081E591E0F701099560E070E082E0D8
S1132B5090E0F601099561E18CE591E0F7010995B2
S1132B600F2EF7E02F2EF02D30C1F1E35F123CC0A1
S1132B7060E070E081E090E0F60109958AE0F301FD
S1132B80099560E070E082E090E0F601099581E14A
S1132B90F30109956896EEADFFAD6897CE018E5BA3
S1132BA09F4F0995A296EEADFFADA29760E0CE01CE
S1132BB08E5B9F4F09956E96EEADFFAD6E976FEFEE
S1132BC070E0CE018E5B9F4F0995F40109956CE08E
S1132BD070E083E090E0F601099567E08EE691E00D
S1132BE0F7010995212CF1C0F2E35F1218C060E0EF
S1132BF070E081E090E0F60109958AE0F30109951F
S1132C0060E070E082E090E0F601099581E1F30173
S1132C100995F40109956894222423F8D6C0F3E3B6
S1132C205F12D3C060E070E081E090E0F6010995A6
S1132C308AE0F301099560E070E082E090E0F6013B
S1132C40099581E1F3010995F4010995212CBDC091
S1132C5060E070E080E090E0F60109956CE089E1C5
S1132C6091E0F701099560E070E081E090E0F60101
S1132C70099564E186E791E0F70109950F2EF9E0E3
S1132C802F2EF02DA2C067E070E080E090E0F60106
S1132C90099564E0C801F7010995F4E45F128DC059
S1132CA0C801C455DF4FE881F981CC5AD040099559
S1132CB08C01C255DF4F8883CE5AD04060E070E06B
S1132CC082E090E0F6010995C8019927F50109957C
S1132CD09093260380932503C655DF4FE881F9813D
S1132CE0CA5AD04009956496EEADFFAD6497602F43
S1132CF0CE018E5B9F4F099590E08B32910508F0D1
S1132D0058C0FC01E85BFF4F0C940C1B6CE070E0B6
S1132D1083E090E0F601099567E08CE791E0F70124
S1132D20099547C06CE070E083E090E0F6010995F6
S1132D3067E085E891E0F70109953BC06CE070E03D
S1132D4083E090E0F601099567E08FE891E0F701F0
S1132D5009952FC06CE070E083E090E0F6010995DE
S1132D6067E08CE991E0F701099523C06CE070E01D
S1132D7083E090E0F601099567E08CE991E0F701C2
S1132D80099517C06CE070E083E090E0F6010995C6
S1132D9067E088EA91E0F70109950BC06CE070E008
S1132DA083E090E0F601099567E084EB91E0F70198
S1132DB00995F4010995212C08C0F3E45F1205C0BC
S1132DC0F40109956894222423F860E070E083E01C
S1132DD090E0F601099567E081EC91E0F70109952F
S1132DE06A96EEADFFAD6A97CE018E5B9F4F099553
S1132DF0F5010995909326038093250364E0F70178
S1132E0009956A96EEADFFAD6A97CE018E5B9F4F32
S1132E10099585B99FCC5058BB27AA270E94231730
S1132E200C942B180E941D1838F00E94241820F0CE
S1132E3039F49F3F19F426F40C941A180EF4E09513
S1132E40E7FB0C941418E92F0E943C1858F3BA17A6
S1132E50620773078407950720F079F4A6F50C94AC
S1132E605E180EF4E0950B2EBA2FA02D0B01B901BC
S1132E7090010C01CA01A0011124FF27591B99F0EC
S1132E80593F50F4503E68F11A16F040A22F232FF8
S1132E90342F4427585FF3CF469537952795A79548
S1132EA0F0405395C9F77EF41F16BA0B620B730BEF
S1132EB0840BBAF09150A1F0FF0FBB1F661F771F60
S1132EC0881FC2F70EC0BA0F621F731F841F48F415
S1132ED0879577956795B795F7959E3F08F0B0CF9E
S1132EE09395880F08F09927EE0F97958795089585
S1132EF00E94F01708F481E008950E9484176894F2
S1132F00B1110C945F1808950E94441888F09F57DB
S1132F1098F0B92F9927B751B0F0E1F0660F771FF9
S1132F20881F991F1AF0BA95C9F714C0B13091F0EF
S1132F300E945E18B1E008950C945E18672F782FF4
S1132F408827B85F39F0B93FCCF3869577956795B4
S1132F50B395D9F73EF490958095709561957F4F20
S1132F608F4F9F4F0895E89409C097FB3EF49095C6
S1132F708095709561957F4F8F4F9F4F9923A9F04E
S1132F80F92F96E9BB279395F695879577956795DD
S1132F90B795F111F8CFFAF4BB0F11F460FF1BC021
S1132FA06F5F7F4F8F4F9F4F16C0882311F096E9B4
S1132FB011C0772321F09EE8872F762F05C0662362
S1132FC071F096E8862F70E060E02AF09A95660F1B
S1132FD0771F881FDAF7880F9695879597F90895D4
S1132FE0990F0008550FAA0BE0E8FEEF1616170616
S1132FF0E807F907C0F012161306E407F50798F07E
S1133000621B730B840B950B39F40A2661F0232B96
S1133010242B252B21F408950A2609F4A140A69512
S11330208FEF811D811D089597F99F6780E870E0F7
S113303060E008959FEF80EC089500240A9416162A
S1133040170618060906089500240A941216130692
S1133050140605060895092E0394000C11F4882320
S113306052F0BB0F40F4BF2B11F460FF04C06F5F3C
S11330707F4F8F4F9F4F089557FD9058440F551F12
S113308059F05F3F71F04795880F97FB991F61F0E6
S11330909F3F79F087950895121613061406551F5D
S11330A0F2CF4695F1DF08C0161617061806991FC9
S11330B0F1CF86957105610508940895E894BB27BE
S11330C066277727CB0197F908950E9478180C9406
S11330D02B180E941D1838F00E94241820F0952304
S11330E011F00C9414180C941A1811240C945F18F1
S11330F00E943C1870F3959FC1F3950F50E0551F43
S1133100629FF001729FBB27F00DB11D639FAA2738
S1133110F00DB11DAA1F649F6627B00DA11D661F87
S1133120829F2227B00DA11D621F739FB00DA11DA8
S1133130621F839FA00D611D221F749F3327A00D62
S1133140611D231F849F600D211D822F762F6A2FFE
S113315011249F5750409AF0F1F088234AF0EE0F63
S1133160FF1FBB1F661F771F881F91505040A9F790
S11331709E3F510580F00C9414180C945F185F3F27
S1133180E4F3983ED4F3869577956795B795F795CC
S1133190E7959F5FC1F7FE2B880F911D9695879544
S11331A097F90895FA01EE0FFF1F309621053105B6
S11331B0A1F16115710561F48038BFE39B0749F102
S11331C068949038810561F08038BFEF9B0741F027
S11331D099234AF5FF3FE1053105210519F1E894EA
S11331E00894E795D901AA2329F4AB2FBE2FF85FE1
S11331F0D0F310C0FF5F70F4A695E0F7F73950F0F4
S113320019F0FF3A38F49F779F930DD00F9007FC85
S11332109058089546F00C941A1860E070E080E825
S11332209FE308954FE79F775F934F933F932F93C7
S11332300E94CD192F913F914F915F910E94651883
S11332400C942A1929F416F00C9414180C945E1892
S11332500C941A180E944418A8F39638A0F707F89B
S11332600F92E8942BE33AEA48EB5FE70E947B185D
S11332700F920F920F924DB75EB70F920E94151ADC
S1133280E6EEF0E00E945C194F915F91EF91FF919F
S1133290E595EE1FFF1F49F0FE57E0684427EE0F47
S11332A0441FFA95E1F74195550B0E948F190F9031
S11332B007FE0C9483190895DF93CF931F930F9304
S11332C0FF92EF92DF927B018C01689406C0DA2EA4
S11332D0EF010E947818FE01E894A591259135919B
S11332E045915591A6F3EF010E942317FE01970122
S11332F0A801DA9469F7DF90EF90FF900F911F9186
S1133300CF91DF9108959B01AC0160E070E080E80B
S11333109FE30C94491A0C9414180C94BB1A0E9441
S11333204418D8F39923C9F3940F511DA3F3915072
S1133330504094F059F0882332F0660F771F881FAD
S113334091505040C1F79E3F51052CF7880F911DB5
S11333509695879597F908955F3FACF0983E9CF059
S1133360BB27869577956795B79508F4B1609395D3
S1133370C1F7BB0F58F711F460FFE8CF6F5F7F4FC1
S11333808F4F9F4FE3CF0C945F1816F00C94BB1A29
S11333900C941A1868940C9414180E944418A8F3F6
S11333A09923C1F3AEF3DF93CF931F930F93FF924F
S11333B0C92FDD2788232AF02197660F771F881FDE
S11333C0DAF720E030E040E85FEB9FE3883920F053
S11333D0803E38F021968F770E940C17EEE0F1E0E2
S11333E004C00E940C17EBE3F1E00E945C198B010E
S11333F0BE01EC01FB2E6F5771097595771F880B81
S1133400990B0E94B51728E132E741E35FE30E947C
S11334107818AF2D9801AE01FF900F911F91CF91B5
S1133420DF910E9423170C942B18FA01DC01AA0FD8
S1133430BB1F9B01AC01BF5728F422273327442725
S1133440507820C0B75190F4AB2F0024469537959F
S11334502795011CA395D2F3002071F0220F331F8E
S1133460441FB395DAF30ED00C940B176130710539
S1133470A0E88A07B94630F49B01AC016627772798
S113348088279078309621F02083318342835383B8
S113349008950E945D1A0C942B180E94241858F069
S11334A00E941D1840F029F45F3F29F00C94141871
S11334B051110C945F180C941A180E943C1868F36C
S11334C09923B1F3552391F3951B550BBB27AA27D9
S11334D062177307840738F09F5F5F4F220F331F13
S11334E0441FAA1FA9F335D00E2E3AF0E0E832D0DB
S11334F091505040E695001CCAF72BD0FE2F29D0DE
S1133500660F771F881FBB1F261737074807AB07AF
S1133510B0E809F0BB0B802DBF01FF2793585F4F24
S11335203AF09E3F510578F00C9414180C945F18EF
S11335305F3FE4F3983ED4F3869577956795B79506
S1133540F7959F5FC9F7880F911D9695879597F911
S11335500895E1E0660F771F881FBB1F621773078A
S11335608407BA0720F0621B730B840BBA0BEE1F9F
S113357088F7E09508959F3F31F0915020F48795A6
S113358077956795B795880F911D9695879597F9C7
S11335900895DB018F939F930E94211BBF91AF91EC
S11335A0A29F800D911DA39F900DB29F900D112499
S11335B0089597FB072E16F4009407D077FD09D0E1
S11335C00E942C1B07FC05D03EF4909581959F4FDB
S11335D00895709561957F4F0895052E97FB1EF40D
S11335E000940E94041B57FD07D00E94401B07FC57
S11335F003D04EF40C94041B5095409530952195BE
S11336003F4F4F4F5F4F089590958095709561950A
S11336107F4F8F4F9F4F0895EE0FFF1F0590F4913A
S1133620E02D0994A29FB001B39FC001A39F700D28
S1133630811D1124911DB29F700D811D1124911DB6
S113364008950E94121BA59F900DB49F900DA49FF6
S1133650800D911D11240895AA1BBB1B51E107C0C5
S1133660AA1FBB1FA617B70710F0A61BB70B881F0E
S1133670991F5A95A9F780959095BC01CD0108959D
S1133680A1E21A2EAA1BBB1BFD010DC0AA1FBB1F62
S1133690EE1FFF1FA217B307E407F50720F0A21BD4
S11336A0B30BE40BF50B661F771F881F991F1A9441
S11336B069F760957095809590959B01AC01BD016B
S11336C0CF010895AEE0B0E0E8E6FBE10C94A41E5F
S11336D08C01FA0186E08C831A83098377FF02C088
S11336E060E070E8CB0101979E838D83A901BF013F
S11336F0CE0101960E948E1B4D815E8157FD0AC04A
S11337002F813885421753070CF49A01F801E20F10
S1133710F31F10822E96E4E00C94C01EABE0B0E0E0
S1133720E4E9FBE10C94961E6C017B018A01FC0127
S113373017821682838181FFCCC1CE0101963C01A0
S1133740F6019381F70193FD859193FF81917F01A8
S1133750882309F4BAC1853239F493FD859193FF26
S113376081917F01853229F4B60190E00E94851D84
S1133770E7CF912C212C312CFFE1F315D8F08B32BB
S113378079F038F4803279F08332A1F4232D20616A
S11337901DC08D3261F0803369F4232D216016C081
S11337A0832D8260382EE32DE4603E2E2AC0F32D53
S11337B0F8601DC037FC2DC020ED280F2A3040F0E2
S11337C08E32B9F436FC81C1232D2064322E19C007
S11337D036FE06C08AE0989E200D1124922E11C058
S11337E0EAE02E9E200D1124222EF32DF0623F2EAE
S11337F008C08C3621F4832D8068382E02C08836A8
S113380041F4F70193FD859193FF81917F0181112B
S1133810B3CF982F9F7D9554933028F40C5F1F4F9E
S11338209FE399830DC0833631F0833771F083357C
S113383009F059C021C0F801808189830E5F1F4FB0
S113384088248394912C530113C02801F2E04F0E75
S1133850511CF801A080B18036FE03C0692D70E0D0
S113386002C06FEF7FEFC5010E947A1D4C018201F7
S1133870F32DFF773F2E16C0280122E0420E511C83
S1133880F801A080B18036FE03C0692D70E002C04B
S11338906FEF7FEFC5010E946F1D4C01F32DF0689F
S11338A03F2E820133FC1BC0822D90E088169906BE
S11338B0B0F4B60180E290E00E94851D2A94F4CF12
S11338C0F50137FC859137FE81915F01B60190E0E7
S11338D00E94851D21102A9421E0821A91088114E6
S11338E0910471F7E8C0843611F0893641F5F80186
S11338F037FE07C060817181828193810C5F1F4F05
S113390008C060817181072E000C880B990B0E5F33
S11339101F4FF32DFF763F2E97FF09C0909580959A
S1133920709561957F4F8F4F9F4FF0683F2E2AE02F
S113393030E0A3010E94C11D882E861845C085373A
S113394031F4232D2F7EB22E2AE030E025C0932DB2
S1133950997FB92E8F36C1F018F4883579F0B5C047
S1133960803719F0883721F0B0C0E92FE061BE2E0E
S1133970B4FE0DC0FB2DF460BF2E09C034FE0AC096
S1133980292F2660B22E06C028E030E005C020E1D1
S113399030E002C020E132E0F801B7FE07C06081E8
S11339A07181828193810C5F1F4F06C06081718198
S11339B080E090E00E5F1F4FA3010E94C11D882E7E
S11339C08618FB2DFF773F2E36FE0DC0232D2E7F4C
S11339D0A22E891458F434FE0BC032FC09C0832D86
S11339E08E7EA82E05C0B82CA32C03C0B82C01C011
S11339F0B92CA4FE0FC0FE01E80DF11D80818033B7
S1133A0021F49A2D997EA92E09C0A2FE06C0B39472
S1133A10B39404C08A2D867809F0B394A3FC11C032
S1133A20A0FE06C0B21488F4280C922C9B180EC079
S1133A30B21460F4B60180E290E00E94851DB39454
S1133A40F7CFB21418F42B1802C0982C212CA4FE22
S1133A5010C0B60180E390E00E94851DA2FE17C04D
S1133A60A1FC03C088E790E002C088E590E0B601BD
S1133A700CC08A2D867859F0A1FE02C08BE201C0E9
S1133A8080E2A7FC8DE2B60190E00E94851D8914B6
S1133A9038F4B60180E390E00E94851D9A94F7CF34
S1133AA08A94F301E80DF11D8081B60190E00E9433
S1133AB0851D8110F5CF222009F442CEB60180E2A3
S1133AC090E00E94851D2A94F6CFF60186819781A5
S1133AD002C08FEF9FEF2B96E2E10C94B21EFC0123
S1133AE00590615070400110D8F7809590958E0F25
S1133AF09F1F0895FC016150704001900110D8F798
S1133B00809590958E0F9F1F08950F931F93CF93C9
S1133B10DF93FB01238121FD03C08FEF9FEF2CC0B6
S1133B2022FF16C0468157812481358142175307ED
S1133B3044F4A081B1819D012F5F3F4F31832083E5
S1133B408C93268137812F5F3F4F3783268314C0A0
S1133B508B01EC01FB010084F185E02D0995892B93
S1133B60E1F6D80116968D919C91179701961796B8
S1133B709C938E931697CE01DF91CF911F910F9155
S1133B800895FA01AA27283051F1203181F1E894EF
S1133B906F936E7F6E5F7F4F8F4F9F4FAF4FB1E03C
S1133BA03ED0B4E03CD0670F781F891F9A1FA11D37
S1133BB0680F791F8A1F911DA11D6A0F711D811D38
S1133BC0911DA11D20D009F468943F912AE0269FFD
S1133BD011243019305D3193DEF6CF010895462F5C
S1133BE04770405D4193B3E00FD0C9F7F6CF462F3D
S1133BF04F70405D4A3318F0495D31FD40524193A6
S1133C0002D0A9F7EACFB4E0A69597958795779562
S1133C106795BA95C9F700976105710508959B01E9
S1133C20AC010A2E06945795479537952795BA9572
S1133C30C9F7620F731F841F951FA01D0895DC012F
S1133C40CB01FC01F999FECF06C0F2BDE1BDF89AA3
S1133C50319600B40D9241505040B8F70895F99947
S1133C60FECF92BD81BDF89A992780B50895A8E149
S1133C70B0E042E050E00C94211EDC01A40FB51F1B
S1133C804150504048F0CB01840F951F2E910E9463
S1133C904E1E41505040D0F70895262FF999FECF7B
S1133CA092BD81BDF89A019700B4021639F01FBA8B
S1133CB020BD0FB6F894FA9AF99A0FBE08950396A8
S1133CC0272F0E944E1E0E944D1E252F0E944E1E1D
S1133CD0242F0C944E1E0196272F0E944E1E0C94E6
S1133CE04D1EDC01CB0103C02D910E947C1E41506E
S1133CF05040D0F70895262FF999FECF1FBA92BDF0
S1133D0081BD20BD0FB6F894FA9AF99A0FBE0196B8
S1133D100895242F0E947C1E252F0E947C1E0C9443
S1133D20911E0E947B1E272F0C947C1E2F923F9283
S1133D304F925F926F927F928F929F92AF92BF92B7
S1133D40CF92DF92EF92FF920F931F93CF93DF9363
S1133D50CDB7DEB7CA1BDB0B0FB6F894DEBF0FBEC0
S1133D60CDBF09942A88398848885F846E847D840D
S1133D708C849B84AA84B984C884DF80EE80FD800F
S1133D800C811B81AA81B981CE0FD11D0FB6F89485
S1113D90DEBF0FBECDBFED010895F894FFCF46
S1133D9E3132334134353642373839432A302344AD
S1133DAE52756E6E696E672000456E7465723A20A8
S1133DBE00496E2020204F757420204D61736B20B6
S1133DCE506167650064697361626C65640065784F
S1133DDE697374730075706C6F61640066756C6CD6
S1133DEE0044656C657465202D20310052656D6F3D
S1133DFE7665202D2032204E6F202D2033006465F1
S1133E0E6C6574656400496E707574004E6F206540
S1133E1E6E747279004E657720456E747279006700
S1133E2E6C6F62616C206C6F676963006C6F6361A9
S1133E3E6C206C6F676963006C6F63616C206162E8
S1133E4E6F7665006C6F63616C2062656C6C6F7766
S10D3E5E004F7574707574200000A5
S9030000FC
