S010000041746D65676138382E7372656355
S113000019C033C032C031C030C02FC02EC02DC083
S11300102CC02BC02AC029C028C027C026C025C098
S113002024C023C022C021C020C01FC01EC01DC0C8
S11300301CC01BC011241FBECFEFD4E0DEBFCDBF58
S113004011E0A0E0B1E0ECE8F3E002C005900D920D
S1130050A030B107D9F721E0A0E0B1E001C01D92C2
S1130060A730B207E1F7DAD08FC1CACF882389F06D
S1130070E0910201F0910301208181E090E0009081
S1130080040102C0880F991F0A94E2F7822B80832F
S113009011C0E0910201F0910301208181E090E020
S11300A00090040102C0880F991F0A94E2F780951A
S11300B082238083E0910201F0910301408181E079
S11300C090E09C010090060102C0220F331F0A94A5
S11300D0E2F7242B2083E0910201F09103012081B7
S11300E00090060102C0880F991F0A94E2F78095D8
S11300F0822380830895E0910201F09103014081FD
S113010081E090E09C010090050102C0220F331FA2
S11301100A94E2F7242B2083E0910201F091030179
S113012020810090050102C0880F991F0A94E2F70C
S11301308095822380830895FF920F931F93CF931A
S1130140DF93F82EC0E0D0E001E010E0C8010C2EEF
S113015002C0880F991F0A94E2F78F2187DF219646
S1130160C830D10599F7C7DFDF91CF911F910F9167
S1130170FF9008950F93CF93DF9300D000D000D069
S1130180CDB7DEB790930101809300017093030112
S1130190609302014093040120930601009305013A
S11301A0FC01308161E070E0DB0102C0AA0FBB1FDB
S11301B02A95E2F7FB0102C0EE0FFF1F0A95E2F752
S11301C0EA2B02C0660F771F4A95E2F76E2B232FA6
S11301D0262BFC012083E0910201F0910301808130
S11301E060956823608326E330E03A8329834CE9F1
S11301F050E05C834B836BE770E07E836D833A81D0
S11302005C817E8180E090E026960FB6F894DEBF94
S11302100FBECDBFDF91CF910F910895CF93DF93A0
S113022000D000D000D0CDB7DEB707E025E044E031
S11302306BE270E08AE290E09DDF29833A834B838E
S11302405C836D837E83A980BA80EB80FC80CD8043
S1130250DE8018E02FEF80E792E02150804090404C
S1130260E1F700C0000081E0F5010995F601099568
S1130270115081F718E0FFEF20E782E0F1502040B1
S11302808040E1F700C0000080E0F5010995F60127
S11302900995115081F7FFEF29E688E1F1502040DC
S11302A08040E1F700C0000083E0F7010995FFEF0B
S11302B029E688E1F15020408040E1F700C00000C9
S11302C08CE0F7010995FFEF29E688E1F150204021
S11302D08040E1F700C0000080E3F7010995FFEFDB
S11302E029E688E1F15020408040E1F700C0000099
S11302F080ECF7010995FFEF29E688E1F1502040F1
S11303008040E1F700C0000080E3F7010995FFEFAA
S113031029E688E1F15020408040E1F700C0000068
S11303208CE0F7010995FFEF29E688E1F1502040C0
S11303308040E1F700C0000083E0F7010995FFEF7A
S113034029E688E1F15020408040E1F700C0000038
S113035088E1F7010995FFEF29E688E1F150204093
S11303608040E1F700C00000812FF7010995FFE705
S113037028E381E0F15020408040E1F700C0000014
S10F03801F5F1F3F89F765CFF894FFCF83
S9030000FC
