S011000041746D6567613132382E7372656329
S1130000D4C00000F1C00000EFC00000EDC000004B
S1130010EBC00000E9C00000E7C00000E5C000003C
S1130020E3C00000E1C00000DFC00000DDC000004C
S11300300C94A328D9C00000D7C000000C946F28EA
S1130040D3C00000D1C000000C9464160C949C161C
S1130050CBC00000FFC10000C7C00000C5C0000045
S1130060C3C00000C1C00000BFC00000BDC000008C
S1130070BBC00000B9C000000C94B7160C94EF1676
S1130080B3C00000B1C00000AFC00000F20217030B
S11300903C0361038603C403020440048E049604F3
S11300A09E04A604AE04B604BE04C604DE04EF0433
S11300B00005110522053305440555054F0D570D5F
S11300C05F0D670D6F0D800D910DA20DAA0DBB0D77
S11300D0CC0DDD0DE50DF60D070E3E0E4C0E5A0E41
S11300E0680E730E810E8F0E9D0EB40EC20ED00ECE
S11300F0E70E48104E1054105A1060106910721018
S11301007B1081108A1093109C10A210AB10B410B5
S1130110D310DE10E910F410FF100A11151120118C
S11301202B11361141114C1107634236B79BD8A7E6
S11301301A39685618AEBAAB558C1D3CB7CC576308
S1130140BD6DEDFD753EF6177231BF000000803FB6
S113015008000000BE922449123EABAAAA2ABECDD2
S1130160CCCC4C3E00000080BEABAAAAAA3E000044
S11301700000BF000000803F00000000000841783C
S1130180D3BB4387D1133D190E3CC3BD4282AD2B73
S11301903E68EC8276BED98FE1A93E4C80EFFFBE6B
S11301A001C4FF7F3F000000000011241FBECFEFF9
S11301B0D0E1DEBFCDBF11E0A0E0B1E0EAEEF1E6B0
S11301C000E00BBF02C007900D92AA33B107D9F724
S11301D023E0AAE3B1E001C01D92A73BB207E1F717
S11301E00E9471220C94F3300BCFE0912A02F0911B
S11301F02B02228126FD02C020642283FC01EE0F23
S1130200FF1FE158FE4F808191810895EF92FF9284
S11302100F931F93CF93DF93CDB7DEB7C055D109AA
S11302200FB6F894DEBF0FBECDBF6A960FAD6A97C6
S11302306B961FAD6B976D96EEACFFAC6D97C701D7
S11302408F719927909323028093220210923E018A
S113025010923D0110923A01CE0101968AD480E5B4
S1130260FE013196A6E2B2E001900D928A95E1F783
S1130270E0912A02F0912B0283818F7383830130F2
S113028019F0033051F012C0E0912A02F0912B02D0
S113029083818064838341E00AC0E0912A02F09163
S11302A02B028381806C838343E001C040E0E091B2
S11302B02A02F0912B0283818F7D83831E141F04F5
S11302C094F4DE01A35ABF4F80E090E02D913D915C
S11302D0FC01EE0FFF1FE15CFE4F3183208301968A
S11302E0E816F90699F7E6E2F2E0A481B5811396DF
S11302F08C911397807E13968C93A0913D01B091BD
S11303003E01AA0FBB1FA15CBE4F8D919C91A4819D
S1130310B5818F71992713969C911397892B139606
S11303208C93A481B58112968C9112978068129651
S11303308C93A481B58112968C9112978064129645
S11303408C93A481B58112968C9112978F7D12960D
S11303508C93A481B58112968C9112978860129621
S11303608C930480F581E02D8281887F8283103113
S113037061F140F41430B9F01830F1F0123009F0A2
S113038048C008C0103499F11038D1F1103209F086
S113039040C024C0E0912A02F0912B028281816046
S11303A0828322E03EC0E0912A02F0912B028281F6
S11303B08260828324E035C0E0912A02F0912B020E
S11303C082818360828328E02CC0E0912A02F0912C
S11303D02B0282818460828320E123C0E0912A027F
S11303E0F0912B0282818560828320E21AC0E09121
S11303F02A02F0912B0282818660828320E411C05C
S1130400E0912A02F0912B0282818760828320E8A6
S113041008C0E0912A02F0912B02828187608283D6
S113042020E8E0913002F09131028385806883876F
S1130430642F722F85EF90E0C05BDF4F0FB6F89406
S1130440DEBF0FBECDBFDF91CF911F910F91FF9003
S1130450EF9008951F920F920FB60F9211240BB6CE
S11304600F922F933F934F935F936F937F938F9349
S11304709F93AF93BF93EF93FF93E0912A02F09180
S11304802B02808191815CD3909325028093240276
S113049020913A01243080F420913A012F5F209377
S11304A03A0120913B0130913C01820F931F9093BC
S11304B03C0180933B014DC0E0913D01F0913E0130
S11304C080913B0190913C019595879595958795F1
S11304D0EE0FFF1FE158FE4F9183808310923C0181
S11304E010923B0110923A0120913D0130913E015E
S11304F080912202909123022817390754F48091A5
S11305003D0190913E01019690933E0180933D01FF
S113051004C010923E0110923D01A6E2B2E014968E
S1130520ED91FC9115978381807E8383E0913D0159
S1130530F0913E01EE0FFF1FE15CFE4F808191813F
S11305401496ED91FC9115978F7199279381892BBE
S11305508383FF91EF91BF91AF919F918F917F9191
S11305606F915F914F913F912F910F900BBE0F9020
S11305700FBE0F901F901895E0913002F091310258
S11305808081982F9F71943099F028F4913041F034
S1130590923051F019C0983079F0903189F014C03C
S11305A08E7F808380E008958D7F808381E008952D
S11305B08B7F808382E00895877F808383E0089522
S11305C08F7E808384E00895807E808380E0089518
S11305D090E08830910508F091C1FC01EA5BFF4F7F
S11305E00C94852DE6E2F2E0A685B78511968C91F0
S11305F011978E7F11968C930684F785E02D82895E
S11306008C7F623021F0633029F0828B05C08260D8
S1130610828B02C08360828B818181608183E091BF
S11306203002F09131028385806883870895E6E281
S1130630F2E0A685B78511968C9111978D7F11965E
S11306408C930684F785E02D8289837F623021F0C4
S1130650633029F0828B05C08860828B02C08C6075
S1130660828B818182608183E0913002F09131023A
S11306708385806883870895E6E2F2E0A685B785DE
S113068011968C9111978B7F11968C930684F78524
S1130690E02D82898F7C623021F0633029F0828BD7
S11306A005C08062828B02C08063828B81818460FA
S11306B08183E0913002F0913102838580688387E1
S11306C00895E6E2F2E0A685B78511968C9111971C
S11306D0877F11968C930684F785E02D82898F732A
S11306E0623021F0633029F0828B05C08068828BF0
S11306F002C0806C828B818188608183E0913002AA
S1130700F09131028385806883870895E6E2F2E000
S1130710A685B78511968C9111978F7E11968C932F
S11307200684F785E02D82818C7F8283623061F0BC
S1130730633091F06130B9F4E0913402F091350204
S11307408281816082830FC0E0913402F09135028E
S113075082818260828307C0E0913402F091350285
S1130760828183608283E6E2F2E0A685B7851196F2
S11307708C911197806111968C930284F385E02DFE
S11307808385806883870895E6E2F2E0A685B785CD
S113079011968C9111978F7D11968C930684F78511
S11307A0E02D8281837F8283623061F0633091F037
S11307B06130B9F4E0913402F091350282818460B1
S11307C082830FC0E0913402F09135028281886007
S11307D0828307C0E0913402F091350282818C60FB
S11307E08283E6E2F2E0A685B78511968C91119793
S11307F0806211968C930284F385E02D8385806852
S113080083870895E6E2F2E0A685B78511968C9178
S113081011978F7B11968C930684F785E02D828146
S11308208F7C8283623061F0633091F06130B9F47F
S1130830E0913402F09135028281806182830FC09D
S1130840E0913402F091350282818062828307C094
S1130850E0913402F0913502828180638283E6E282
S1130860F2E0A685B78511968C9111978064119654
S11308708C930284F385E02D8385806883870895B3
S1130880E6E2F2E0A685B78511968C9111978F77F1
S113089011968C930684F785E02D82818F73828371
S11308A0623061F0633091F06130B9F4E091340268
S11308B0F09135028281806482830FC0E09134021A
S11308C0F091350282818068828307C0E09134020E
S11308D0F09135028281806C8283E6E2F2E0A685A3
S11308E0B78511968C911197806811968C93028428
S11308F0F385E02D8385806883870895E091340231
S1130900F09135021182089590E08830910508F045
S113091045C0FC01E25BFF4F0C94852DE09134024D
S1130920F091350281818E7F81830895E0913402B4
S1130930F091350281818D7F81830895E0913402A5
S1130940F091350281818B7F81830895E091340297
S1130950F09135028181877F81830895E09134028B
S1130960F091350281818F7E81830895E091340274
S1130970F091350281818F7D81830895E091340265
S1130980F091350281818F7B81830895E091340257
S1130990F091350281818F7781830895E09134024B
S11309A0F09135021182089590E08830910508F0A5
S11309B08CC0FC01EA5AFF4F0C94852DE6E2F2E06C
S11309C0A685B78511968C911197816011968C93A9
S11309D00284F385E02D8385806883870895E6E2A9
S11309E0F2E0A685B78511968C91119782601196D5
S11309F08C930284F385E02D838580688387089532
S1130A00E6E2F2E0A685B78511968C911197846091
S1130A1011968C930284F385E02D83858068838707
S1130A200895E6E2F2E0A685B78511968C911197B8
S1130A30886011968C930284F385E02D8385806809
S1130A4083870895E6E2F2E0A685B78511968C9136
S1130A501197806111968C930284F385E02D838530
S1130A60806883870895E6E2F2E0A685B78511964B
S1130A708C911197806211968C930284F385E02DFA
S1130A808385806883870895E6E2F2E0A685B785CA
S1130A9011968C911197806411968C930284F3853E
S1130AA0E02D8385806883870895E6E2F2E0A685D9
S1130AB0B78511968C911197806811968C93028456
S1130AC0F385E02D8385806883870895CF93DF9332
S1130AD0CDB7DEB7C855D1090FB6F894DEBF0FBE47
S1130AE0CDBFCE01099645D080E5FE013996A6E238
S1130AF0B2E001900D928A95E1F7E0913402F09111
S1130B003502118228EE32E03A83298344E854E026
S1130B105C834B8364ED74E07E836D838CEB92E0A5
S1130B2098878F833A815C817E819885C85ADF4F8C
S1130B300FB6F894DEBF0FBECDBFDF91CF910895FD
S1130B40292F30E0322F2227A901482BCA0108950A
S1130B50282F30E0322F2227A901492BCA010895FA
S1130B600895282F892F922F089598278927982749
S1130B700895FC011182108288E290E093838283BD
S1130B8084E290E09583848386E091E09783868372
S1130B9088E690E09187808784E590E09387828758
S1130BA08CE390E09587848788E590E09787868733
S1130BB086E695E0918B808B89E390E0938B828B22
S1130BC086E390E0958B848B83E390E0978B868B10
S1130BD080E390E0918F808F81E290E0938F828F09
S1130BE080E290E0958F848F83E690E0978F868FE4
S1130BF082E490E091A380A380E490E093A382A395
S1130C002DE230E035A324A322EC36E037A326A35B
S1130C1091A780A721E13DE033A722A795A784A748
S1130C202BE030E137A726A723E430E031AB20AB3B
S1130C3023E53FE033AB22AB95AB84AB89E59CE085
S1130C4097AB86AB80E790E091AF80AF8EE292E104
S1130C5093AF82AF89E290E095AF84AF8CE593E1E6
S1130C6097AF86AFDF01A05CBF4F88E990E0119693
S1130C709C938E9312968EEE94E111969C938E9390
S1130C80129681E490E011969C938E93129680EADA
S1130C9095E011969C938E93129688EA95E01196AE
S1130CA09C938E93129680EB95E011969C938E9371
S1130CB0129681EB95E011969C938E93129685EB98
S1130CC095E08D939C93CF0108950F931F93CF9339
S1130CD0DF93442319F1FC01062F172F415050E0F4
S1130CE04F5F5F4F480F591F26E232E0D9019496B7
S1130CF0CD91DC91959791919A8394960D90BC91A6
S1130D00A02D11969C9111979923F4F712969C911A
S1130D10E80199938E01E417F50741F7DF91CF912C
S1130D201F910F910895CF93DF936623D1F0FC01B7
S1130D306150262F30E02F5F3F4F280F391FA6E266
S1130D40B2E09496CD91DC91959791919A83949683
S1130D50CD91DC91959799819923F4F7E217F307E4
S1130D6081F7DF91CF910895E6E2F2E0A4A1B5A165
S1130D7012968C9304A0F5A1E02D81818823F4F7C9
S1130D8082810895EF92FF920F931F93CF93DF9385
S1130D90CDB7DEB7C655D1090FB6F894DEBF0FBE86
S1130DA0CDBFF82EE62E042F122FCE010796E1DEDA
S1130DB080E5FE013796A6E2B2E001900D928A9595
S1130DC0E1F7E0913A02F0913B028181807F8183D7
S1130DD0FF20C9F081E0F81224C0E6E2F2E0A4A109
S1130DE0B5A18C9180618C93A489B58911968C915D
S1130DF01197876011968C930488F589E02D828180
S1130E00816082831BC0E6E2F2E0A4A1B5A18C91CB
S1130E1080618C930488F589E02D818188608183C9
S1130E200DC0E6E2F2E0A4A1B5A18C9180618C939F
S1130E300488F589E02D818187608183EE2059F053
S1130E4081E0E81210C0E0914A02F0914B028081E7
S1130E50806280830FC0E0914A02F0914B0280814E
S1130E608F7D808307C0E0914A02F0914B0280811C
S1130E708F7D8083013071F028F0023099F00330C7
S1130E80C9F020C0E0914A02F0914B028081837F37
S1130E9080831FC0E0914A02F0914B0280818460FC
S1130EA0808317C0E0914A02F0914B0280818860F0
S1130EB080830FC0E0914A02F0914B0280818C60E4
S1130EC0808307C0E0914A02F0914B028081837FC6
S1130ED08083103109F446C040F4143009F118300D
S1130EE081F1123009F082C00AC0103409F45CC0E8
S1130EF0103809F46AC0103209F078C044C0E6E240
S1130F00F2E0A4A1B5A111968C911197816011967C
S1130F108C9304A0F5A1E02D80818C7F808376C022
S1130F20E6E2F2E0A4A1B5A111968C9111978E7F0F
S1130F3011968C9304A0F5A1E02D80818C7F808391
S1130F4065C0E6E2F2E0A4A1B5A111968C911197D7
S1130F50816011968C9304A0F5A1E02D80818160BD
S1130F60808354C0E6E2F2E0A4A1B5A111968C916D
S1130F7011978E7F11968C9304A0F5A1E02D8081AA
S1130F808160808343C0E6E2F2E0A4A1B5A111969A
S1130F908C911197816011968C9304A0F5A1E02D9A
S1130FA080818260808332C0E6E2F2E0A4A1B5A130
S1130FB011968C9111978E7F11968C9304A0F5A1B4
S1130FC0E02D80818260808321C0E6E2F2E0A4A16A
S1130FD0B5A111968C911197817011968C9304A0F0
S1130FE0F5A1E02D80818360808310C0E6E2F2E009
S1130FF0A4A1B5A111968C911197816011968C933F
S113100004A0F5A1E02D808181608083E0914A02F3
S1131010F0914B0280818064808325E636E03A8338
S1131020298343E956E05C834B8364EB76E07E835B
S11310306D833A815C817E8180E090E0CA5ADF4F03
S11310400FB6F894DEBF0FBECDBFDF91CF911F91D5
S11310500F91FF90EF90089520917902211163C0C0
S1131060E0915A02F0915B022389287F238B80341C
S1131070910579F150F488309105D9F080329105C9
S113108001F1019709F045C00CC0811521E09207D8
S113109081F1811524E09207A1F180389105C9F509
S11310A020C0E0915A02F0915B0283898160838BB6
S11310B037C0E0915A02F0915B0283898260838B8E
S11310C02FC0E0915A02F0915B0283898360838B85
S11310D027C0E0915A02F0915B0283898460838B7C
S11310E01FC0E0915A02F0915B0283898560838B73
S11310F017C0E0915A02F0915B0283898660838B6A
S11311000FC0E0915A02F0915B0283898760838B60
S113111007C0E0915A02F0915B0283898760838B58
S113112085E580937902809179020895E0915A02CD
S1131130F0915B0293899F7C938B823091F0833092
S1131140F1F0813049F5E6E2F2E0A489B58980E165
S113115011968C9304A8F5A9E02D83898061838B73
S11311600895E6E2F2E0A489B58980E111968C93B2
S113117004A8F5A9E02D83898062838B0895E6E2B3
S1131180F2E0A489B58980E111968C9304A8F5A9AD
S1131190E02D83898063838B0895E0915A02F09156
S11311A05B02818B0895E0915A02F0915B0283897E
S11311B0887F838B1092790280E0089520917602D3
S11311C0211161C0E0914E02F0914F022685287FE3
S11311D0268788309105E9F040F486309105C9F1FD
S11311E008F03FC0019769F044C0811521E09207DF
S11311F001F1811524E0920721F180349105C9F5AC
S113120010C0E0914E02F0914F028685816086877E
S113121037C0E0914E02F0914F0286858260868746
S11312202FC0E0914E02F0914F028685836086873D
S113123027C0E0914E02F0914F0286858460868734
S11312401FC0E0914E02F0914F028685856086872B
S113125017C0E0914E02F0914F0286858660868722
S11312600FC0E0914E02F0914F0286858760868719
S113127007C0E0914E02F0914F0286858560868713
S113128085E580937602809176020895E0914E027E
S1131290F0914F0297859F7397878230A9F083302E
S11312A021F1813091F5E6E2F2E0A489B589119645
S11312B08C911197806211968C9300A4F1A5E02D76
S11312C08785806487870895E6E2F2E0A489B5897A
S11312D011968C911197806211968C9300A4F1A5BC
S11312E0E02D8785806887870895E6E2F2E0A48987
S11312F0B58911968C911197806211968C9300A4F4
S1131300F1A5E02D8785806C87870895E0914E02D2
S1131310F0914F0297859F7C97878230A9F08330A4
S113132021F1813091F5E6E2F2E0A489B5891196C4
S11313308C911197806411968C9300A4F1A5E02DF3
S11313408785806187870895E6E2F2E0A489B589FC
S113135011968C911197806411968C9300A4F1A539
S1131360E02D8785806287870895E6E2F2E0A4890C
S1131370B58911968C911197806411968C9300A471
S1131380F1A5E02D8785806387870895E0914E025B
S1131390F0914F029785937F97878230A9F083302D
S11313A021F1813091F5E6E2F2E0A489B589119644
S11313B08C911197806811968C9300A4F1A5E02D6F
S11313C08785846087870895E6E2F2E0A489B58979
S11313D011968C911197806811968C9300A4F1A5B5
S11313E0E02D8785886087870895E6E2F2E0A48986
S11313F0B58911968C911197806811968C9300A4ED
S1131400F1A5E02D87858C6087870895E0914E02D1
S1131410F0914F028685887F86871092760280E05D
S1131420089520917802211161C0E0915602F09153
S113143057022281287F228388309105E9F040F405
S113144086309105C9F108F03FC0019769F044C0A6
S1131450811521E0920701F1811524E0920721F121
S113146080349105C9F510C0E0915602F0915702FD
S113147082818160828337C0E0915602F0915702E5
S11314808281826082832FC0E0915602F0915702DC
S113149082818360828327C0E0915602F0915702D3
S11314A08281846082831FC0E0915602F0915702CA
S11314B082818560828317C0E0915602F0915702C1
S11314C08281866082830FC0E0915602F0915702B8
S11314D082818760828307C0E0915602F0915702AF
S11314E082818560828385E5809378028091780289
S11314F00895E0915602F091570292819F7C928365
S11315008230A9F0833021F1813091F5E6E2F2E0F6
S1131510A489B58911968C911197806811968C9342
S113152000A8F1A9E02D8281806182830895E6E21A
S1131530F2E0A489B58911968C911197806811966F
S11315408C9300A8F1A9E02D8281806282830895A2
S1131550E6E2F2E0A489B58911968C91119780682E
S113156011968C9300A8F1A9E02D82818063828377
S11315700895E0915602F091570280830895E09116
S11315805602F09157028281887F828310927802FA
S113159080E008959C0180917702811154C04091AC
S11315A0520250915302FA01E65BFF4F9081987FFB
S11315B0908328303105D9F040F42630310579F193
S11315C0A0F52130310569F036C0211581E03807D6
S11315D0D1F0211584E03807E1F02034310559F5C4
S11315E00CC0FA01E65BFF4F9160908329C0FA01B9
S11315F0E65BFF4F9260908323C0FA01E65BFF4FE6
S1131600936090831DC0FA01E65BFF4F9460908362
S113161017C0FA01E65BFF4F9560908311C0FA0191
S1131620E65BFF4F966090830BC0FA01E65BFF4FC9
S11316309760908305C0FA01E65BFF4F9560908345
S113164085E580937702809177020895E0915202B4
S1131650F0915302E55BFF4F90819F73908382303A
S1131660B9F0833041F18130C1F5E6E2F2E0A28DB8
S1131670B38D11968C911197886011968C9304A464
S1131680F5A5E02DE55BFF4F80818064808308959C
S1131690E6E2F2E0A28DB38D11968C9111978860E9
S11316A011968C9304A4F5A5E02DE55BFF4F808192
S11316B0806880830895E6E2F2E0A28DB38D1196EE
S11316C08C911197886011968C9304A4F5A5E02D54
S11316D0E55BFF4F8081806C80830895E091520226
S11316E0F0915302E55BFF4F90819F7C90838230A1
S11316F0B9F0833041F18130C1F5E6E2F2E0A28D28
S1131700B38D11968C911197806111968C9304A4DA
S1131710F5A5E02DE55BFF4F80818061808308950E
S1131720E6E2F2E0A28DB38D11968C91119780615F
S113173011968C9304A4F5A5E02DE55BFF4F808101
S1131740806280830895E6E2F2E0A28DB38D119663
S11317508C911197806111968C9304A4F5A5E02DCA
S1131760E55BFF4F8081806380830895E09152029E
S1131770F0915302E55BFF4F9081937F9083823019
S1131780B9F0833041F18130C1F5E6E2F2E0A28D97
S1131790B38D11968C911197806211968C9304A449
S11317A0F5A5E02DE55BFF4F80818460808308957B
S11317B0E6E2F2E0A28DB38D11968C9111978062CE
S11317C011968C9304A4F5A5E02DE55BFF4F808171
S11317D0886080830895E6E2F2E0A28DB38D1196CD
S11317E08C911197806211968C9304A4F5A5E02D39
S11317F0E55BFF4F80818C6080830895E091520205
S1131800F0915302E65BFF4F8081887F80831092C2
S1131810770280E00895CF93DF93C0914E02D09178
S11318204F029FD99B878A87DF91CF910895CF93E9
S1131830DF93C0914E02D0914F0293D99987888744
S1131840DF91CF910895CF93DF93C0914E02D09151
S11318504F0287D999AF88AFDF91CF910895CF9385
S1131860DF93C0915202D0915302CA5BDF4F79D902
S113187099838883DF91CF910895CF93DF93C091AB
S11318805202D0915302CC5BDF4F6BD9998388838A
S1131890DF91CF910895CF93DF93C0915202D091FD
S11318A05302CE5BDF4F5DD999838883DF91CF915B
S11318B00895EF92FF920F931F93CF93DF93CDB7C9
S11318C0DEB7C055D1090FB6F894DEBF0FBECDBF49
S11318D08C01E62EF42ECE0101964BD980E5FE0153
S11318E03196A6E2B2E001900D928A95E1F710924A
S11318F07902E0915A02F0915B028389877B838BA2
S113190082E0E81671F0E3E0EE1699F0F1E0EF12F0
S113191017C0E0915A02F0915B0283898064838B43
S11319200FC0E0915A02F0915B0283898860838B37
S113193007C0E0915A02F0915B0283898864838B2B
S1131940E6E2F2E0A4A9B5A957968C9157978E7F49
S113195057968C9304A8F5A9E02D87898D7F878BF2
S113196082E0F816B9F0E3E0FE1629F1F1E0FF1287
S113197032C0E6E2F2E0A4A9B5A957968C91579734
S1131980816057968C930284F385E02D838580686B
S1131990838721C0E6E2F2E0A4A9B5A957968C9109
S11319A05797826057968C930284F385E02D838544
S11319B08068838710C0E6E2F2E0A4A9B5A957962F
S11319C08C915797836057968C930284F385E02D0E
S11319D0838580688387E0915A02F0915B028FEFE0
S11319E0818B86E998E0F801918380838DEC98E0FF
S11319F0978386838CE298E09587848783ED98E0CB
S1131A0097878687C801C05BDF4F0FB6F894DEBFA7
S1131A100FBECDBFDF91CF911F910F91FF90EF903B
S1131A200895CF92DF92EF92FF920F931F93CF937B
S1131A30DF93CDB7DEB7C055D1090FB6F894DEBF3A
S1131A400FBECDBF8C01E62EF42ECE01019691D8A7
S1131A5080E5FE013196A6E2B2E001900D928A95EE
S1131A60E1F710927602E6E2F2E0A0A5B1A51F9696
S1131A708C911F978C7F1F968C9300A4F1A5E02D69
S1131A808685877E86878E2D90E0FC013197EF3026
S1131A90F10508F0CCC0E25AFF4F0C94852DE0917B
S1131AA04E02F0914F02878581608787C0C0E09124
S1131AB04E02F0914F02878582608787B8C0E0911B
S1131AC04E02F0914F02878583608787B0C0E09112
S1131AD04E02F0914F02868588608687A8C0E6E2B0
S1131AE0F2E0A0A5B1A51F968C911F9781601F9667
S1131AF08C9300A4F1A5E02D86858860868797C025
S1131B00E6E2F2E0A0A5B1A51F968C911F97826032
S1131B101F968C9300A4F1A5E02D868588608687A6
S1131B2086C0E6E2F2E0A0A5B1A51F968C911F97AE
S1131B3083601F968C9300A4F1A5E02D86858860B0
S1131B40868775C0E0914E02F0914F0286858061D0
S1131B5086876DC0E6E2F2E0A0A5B1A51F968C9140
S1131B601F9781601F968C9300A4F1A5E02D8685B4
S1131B70806186875CC0E6E2F2E0A0A5B1A51F966D
S1131B808C911F9782601F968C9300A4F1A5E02D81
S1131B908685806186874BC0E6E2F2E0A0A5B1A508
S1131BA01F968C911F9783601F968C9300A4F1A5B8
S1131BB0E02D8685806186873AC0E0914E02F091DF
S1131BC04F0286858861868732C0E6E2F2E0A0A5EE
S1131BD0B1A51F968C911F9781601F968C9300A4CA
S1131BE0F1A5E02D86858861868721C0E6E2F2E0D2
S1131BF0A0A5B1A51F968C911F9782601F968C9308
S1131C0000A4F1A5E02D86858861868710C0E6E2F0
S1131C10F2E0A0A5B1A51F968C911F9783601F9633
S1131C208C9300A4F1A5E02D868588618687E6E281
S1131C30F2E0A0A5B1A51F968C911F9783701F9603
S1131C408C93A0A5B1A557968C915797837C5796F2
S1131C508C93A0A5B1A5DD968C91DD978E7FDD9642
S1131C608C93DD974F2D50E0FA013197EC30F1055C
S1131C7008F0C3C0E359FF4F0C94852D57968C91FF
S1131C805797846057968C93E0913002F09131021B
S1131C90838580688387B1C057968C9157978061FC
S1131CA057968C93E0913002F091310283858068DD
S1131CB08387A3C057968C915797886057968C93C7
S1131CC0E0913002F091310283858068838795C06A
S1131CD08160DD968C93E0913002F091310283852E
S1131CE0806883878AC057968C91579780625796ED
S1131CF08C93E0913002F091310283858068838770
S1131D007CC057968C915797846157968C93E09139
S1131D103002F09131028385806883876EC05796C4
S1131D208C9157978C6057968C93E0913002F09188
S1131D30310283858068838760C057968C9157975A
S1131D40846057968C93E6E2F2E0A0A5B1A5DD96F7
S1131D508C91DD978160DD968C930284F385E02D70
S1131D6083858068838749C057968C91579784628E
S1131D7057968C93E0913002F0913102838580680C
S1131D8083873BC057968C9157978C6157968C9359
S1131D90E0913002F09131028385806883872DC001
S1131DA057968C9157978C6157968C93E6E2F2E0A4
S1131DB0A0A5B1A5DD968C91DD978160DD968C930D
S1131DC00284F385E02D83858068838716C0579647
S1131DD08C915797886157968C93E6E2F2E0A0A520
S1131DE0B1A5DD968C91DD978160DD968C9302849C
S1131DF0F385E02D8385806883870F2EF6E2EF2E2E
S1131E00F2E0FF2EF02DF701C0A4D1A48FEF9FEFD5
S1131E100E94B105F60193878287F701C0A4D1A47B
S1131E208FEF9FEF0E94B105F60191878087F7013C
S1131E30E0A4F1A48FEF9FEF0E94B105F70191AFE9
S1131E4080AF86E499E0F8019183808386E899E085
S1131E509383828386EC99E0958384838BE09CE072
S1131E609783868387E19CE09187808783E29CE067
S1131E70938782878EED98E09587848786E09AE041
S1131E8097878687C801C05BDF4F0FB6F894DEBF23
S1131E900FBECDBFDF91CF911F910F91FF90EF90B7
S1131EA0DF90CF900895EF92FF920F931F93CF93FB
S1131EB0DF93CDB7DEB7C055D1090FB6F894DEBFB6
S1131EC00FBECDBF8C01E62EF42ECE0101960E94EA
S1131ED0B90580E5FE013196A6E2B2E001900D92CB
S1131EE08A95E1F710927802E0915602F091570238
S1131EF08281877B828382E0E81671F0E3E0EE164C
S1131F0099F0F1E0EF1217C0E0915602F0915702F8
S1131F108281806482830FC0E0915602F09157025F
S1131F2082818860828307C0E0915602F091570253
S1131F30828188648283E0915602F09157028489F9
S1131F408F73848B82E0F816B9F0E3E0FE1629F172
S1131F50F1E0FF123AC0E6E2F2E0A0A9B1A954967A
S1131F608C915497806454968C930284F385E02D6D
S1131F7083858068838729C0E6E2F2E0A0A9B1A93D
S1131F8054968C915497806854968C930284F3856C
S1131F90E02D83858068838718C0E6E2F2E0A0A97B
S1131FA0B1A954968C915497806454968C93A0A9AB
S1131FB0B1A954968C915497806854968C9302845A
S1131FC0F385E02D838580688387E0915602F09144
S1131FD057028FEF808389E79AE0F8019183808329
S1131FE089EB9AE09783868381E19AE095878487D9
S1131FF08FEB9AE097878687C801C05BDF4F0FB6E7
S1132000F894DEBF0FBECDBFDF91CF911F910F912A
S1132010FF90EF900895CF92DF92EF92FF920F938B
S11320201F93CF93DF93CDB7DEB7C055D1090FB659
S1132030F894DEBF0FBECDBF8C01E62EF42ECE0188
S113204001960E94B90580E5FE013196A6E2B2E050
S113205001900D928A95E1F7109277022091520235
S113206030915302F901E55BFF4F50815C7F50834F
S113207031974081477E40838E2D90E0FC0131975B
S1132080EF30F10508F078C0E758FF4F0C94852D28
S1132090F901E55BFF4F516050836EC0F901E55BC8
S11320A0FF4F5260508368C0F901E55BFF4F5360F6
S11320B0508362C0F901E65BFF4F486040835CC017
S11320C0F901E55BFF4F51605083319748604083CD
S11320D053C0F901E55BFF4F52605083319748606C
S11320E040834AC0F901E55BFF4F53605083319749
S11320F04860408341C0F901E65BFF4F4061408383
S11321003BC0F901E55BFF4F51605083319740615B
S1132110408332C0F901E55BFF4F52605083319731
S11321204061408329C0F901E55BFF4F5360508350
S113213031974061408320C0F901E65BFF4F48615D
S113214040831AC0F901E55BFF4F5160508331971A
S11321504861408311C0F901E55BFF4F5260508331
S113216031974861408308C0F901E55BFF4F536034
S11321705083319748614083F901E55BFF4F8081CB
S113218083708083F90185AD817C4F2D50E0FA0185
S11321903197EC30F10520F4E857FF4F0C94852D6E
S11321A0F90185AF83C08460F90185AFE091300205
S11321B0F091310283858068838778C08061F9015A
S11321C085AFE0913002F091310283858068838786
S11321D06DC08860F90185AFE0913002F091310261
S11321E083858068838762C08260F90185AFE0914E
S11321F03002F091310283858068838757C0806202
S1132200F90185AFE0913002F09131028385806855
S113221083874CC08461F90185AFE0913002F0916D
S1132220310283858068838741C08C60F90185AF62
S1132230E0913002F091310283858068838736C053
S11322408660F90185AFE0913002F0913102838517
S1132250806883872BC08462F90185AFE0913002E6
S1132260F091310283858068838720C08C61F901F5
S113227085AFE0913002F0913102838580688387D5
S113228015C08E61F90185AFE0913002F091310201
S11322908385806883870AC08A61F90185AFE091EC
S11322A03002F09131028385806883870F2EF6E235
S11322B0EF2EF2E0FF2EF02DF701C4A4D5A4F6E42E
S11322C0CF0ED11C8FEF9FEF0E94B105F6019183D1
S11322D08083F701C4A4D5A4F4E4CF0ED11C8FEFFE
S11322E09FEF0E94B105F60191838083F701E4A476
S11322F0F5A4F2E4EF0EF11C8FEF9FEF0E94B105FD
S1132300F7019183808386E29BE0F80191838083C7
S11323108EE69BE09383828386EB9BE095838483A4
S11323208FE29CE0978386838DE39CE0918780878E
S11323308BE49CE0938782878AEC9AE09587848774
S11323408EEF9BE097878687C801C05BDF4F0FB68F
S1132350F894DEBF0FBECDBFDF91CF911F910F91D7
S1132360FF90EF90DF90CF900895E0915E02F0919E
S11323705F028181887F0895E0915E02F0915F029F
S113238084E984838FE891E00197F1F700C00000AD
S11323900895CF93DF9318161CF4880F816001C051
S11323A081E0E6E2F2E0A0ADB1AD12968C93A08D8F
S11323B0B18D11968C911197836011968C93008C3A
S11323C0F18DE02D828183608283643089F018F47A
S11323D0613031F025C0603199F06034C9F020C01B
S11323E0E0915E02F0915F0281818C7F818320C045
S11323F0E0915E02F0915F0281818160818318C067
S1132400E0915E02F0915F0281818260818310C05D
S1132410E0915E02F0915F0281818360818308C054
S1132420E0915E02F0915F0281818C7F818361E0A3
S1132430C0915E02D0915F02262F30E0220F331F3D
S1132440032E000C440B550B60E970E080E090E033
S11324500E94472D2883DF91CF910895EF92FF9238
S11324600F931F93CF93DF93CDB7DEB7C055D10938
S11324700FB6F894DEBF0FBECDBF8C01F62EE42E4E
S1132480CE0101960E94B90580E5FE013196A6E2CF
S1132490B2E001900D928A95E1F76E2D8F2D79DFD0
S11324A088E892E1F8019183808386E992E193833D
S11324B0828381EB92E19583848384EC92E1978318
S11324C086838CEB91E19187808785EB91E19387FB
S11324D08287C801C05BDF4F0FB6F894DEBF0FBE22
S11324E0CDBFDF91CF911F910F91FF90EF90089591
S11324F0E0915E02F0915F022481222344F021E006
S113250030E08217930718F02F5F3F4FFACF0895FA
S1132510E0915E02F0915F0284EA84838FEF93E09E
S1132520E7DF23DF883009F027CF0895662319F009
S1132530880F816001C0880FE6E2F2E0A0ADB1AD82
S113254013968C9300ACF1ADE02D84E884838FEF77
S113255093E0CEDF0ADF883119F0803409F00CCF24
S11325600895E6E2F2E0A0ADB1AD13968C9300AC11
S1132570F1ADE02D84E884838FEF93E0B9DFF5DEDD
S1132580883209F0F9CE0895882311F080E401C05F
S113259080E0E0915E02F0915F02846884838FEFB3
S11325A093E0A6DFE2DE883309F4E6DEE0915E0222
S11325B0F0915F0283810895E091A702F091A8024F
S11325C08DE992E009950895E091A902F091AA029B
S11325D08DE992E009950895E091D802F091D9022D
S11325E08EEC92E009950895E091DA02F091DB0215
S11325F08EEC92E00995089580919C0210929C02C1
S1132600EFE9FFE03197F1F700C000000895F4CF3F
S11326100895E6E2F2E0A4ADB5AD13968C9304AC54
S1132620F5ADE02D8181806281838FE99FE0019780
S1132630F1F700C000000895ECCF089580919B024B
S113264010929B02EFE9FFE03197F1F700C0000020
S11326500895F4CF0895E6E6F2E0A081B1811496DE
S11326608C930190F081E02D8281806282838FE9D6
S11326709FE00197F1F700C000000895ECCF0895A2
S1132680CF93DF93EC018881882329F02196E3DF3F
S113269089918111FCCFDF91CF910895CF93DF937E
S11326A0EC018881882329F02196B3DF8991811177
S11326B0FCCFDF91CF9108958F929F92AF92BF92FA
S11326C0CF92DF92EF92FF920F931F93CF93DF93FA
S11326D0CDB7DEB7C055D1090FB6F894DEBF0FBE33
S11326E0CDBF7C016B015A014901CE0101960E94C4
S11326F0B90580E5FE013196A6E2B2E001900D92A3
S11327008A95E1F74AE752E060E2CE010196DED312
S11327108EE0FE013196ADE9B2E001900D928A950A
S1132720E1F73C2DDD2044F4E0916202F091630274
S113273082E08283E894D7F846E252E0FA01A4AD3D
S1132740B5ADCD0189599F4FFC01D082CC92DA01FD
S1132750DC96ED91FC91DD9788E98183B7E0AB16B7
S1132760B104E9F158F4F5E0AF16B10409F461C01D
S113277086E0A816B10409F447C06FC0A8E0AA1601
S1132780B104C9F0B9E0AB16B10409F066C0E6E2E1
S1132790F2E0A4ADB5AD11968C91119784601196B9
S11327A08C9304ACF5ADE02DE459FF4F8081866035
S11327B0808349E065C0E6E2F2E0A4ADB5AD1196D0
S11327C08C9111978B7F11968C9304ACF5ADE02D11
S11327D0E459FF4F80818660808348E051C0E6E27F
S11327E0F2E0A4ADB5AD11968C9111978B7F119643
S11327F08C9304ACF5ADE02DE459FF4F80818D7FBF
S11328008460808347E03CC0E6E2F2E0A4ADB5AD6D
S113281011968C9111978B7F11968C9304ACF5AD26
S1132820E02DE459FF4F80818B7F8260808346E0F6
S113283027C0E6E2F2E0A4ADB5AD11968C911197F4
S11328408B7F11968C9304ACF5ADE02DE459FF4FCA
S11328508081897F808345E013C0E6E2F2E0A4AD85
S1132860B5AD11968C9111978B7F11968C9304AC16
S1132870F5ADE02DE459FF4F80818660808348E008
S1132880E1E08E16910429F0F2E08F16910461F0D4
S113289016C0E0916202F0916302E459FF4F808117
S11328A0877F808321E015C0E0916202F09163028A
S11328B0E459FF4F80818860808322E00AC0E09160
S11328C06202F0916302E459FF4F8081877F808325
S11328D021E00230110581F003301105C9F0012B0C
S11328E011F5E0916202F0916302E459FF4F808197
S11328F08F7C808390E021C0E0916202F0916302BA
S1132900E459FF4F80818F7E8062808392E015C0FE
S1132910E0916202F0916302E459FF4F8081806389
S1132920808393E00AC0E0916202F0916302E4596B
S1132930FF4F80818F7C808390E0E0913002F091A2
S11329403102838580688387D7013C9311964C9329
S1132950119712962C93129713969C9313978CEFBE
S113296092E115969C938E93149787E093E11796C2
S11329709C938E9316978CED92E119969C938E936B
S1132980189784EE92E11B969C938E931A9789E094
S113299093E11D969C938E931C978CE193E11F9673
S11329A09C938E931E978EE493E151969C938E9301
S11329B05097C701C05BDF4F0FB6F894DEBF0FBE60
S11329C0CDBFDF91CF911F910F91FF90EF90DF90DA
S11329D0CF90BF90AF909F908F9008958F929F92C9
S11329E0AF92BF92CF92DF92EF92FF920F931F9319
S11329F0CF93DF93CDB7DEB7C055D1090FB6F894A6
S1132A00DEBF0FBECDBF7C016B015A014901CE016F
S1132A1001960E94B90580E5FE013196A6E2B2E076
S1132A2001900D928A95E1F74BEA52E060E2CE0103
S1132A3001964CD28EE0FE013196AEECB2E00190EC
S1132A400D928A95E1F73C2DDD2044F4E091660275
S1132A50F091670282E08383E894D7F8E6E6F2E037
S1132A60A081B181DC92A081B1811196CC920190B8
S1132A70F081E02D88E9828387E0A816B104C9F1CA
S1132A8058F4F5E0AF16B10409F467C086E0A8165F
S1132A90B10409F448C073C0E8E0AE16B104B9F05B
S1132AA0F9E0AF16B10409F06AC0E6E6F2E0A081ED
S1132AB0B18112968C911297846012968C93019036
S1132AC0F081E02D85818660858349E069C0E6E672
S1132AD0F2E0A081B18112968C9112978B7F1296AD
S1132AE08C930190F081E02D85818660858348E098
S1132AF057C0E6E6F2E0A081B18112968C9112975C
S1132B008B7F12968C93A081B18115968C91159729
S1132B10846015968C930190F081E02D85818D7FE2
S1132B20858347E03DC0E6E6F2E0A081B1811296DC
S1132B308C9112978B7F12968C93A081B1811596FC
S1132B408C9115978B7F15968C930190F081E02DD5
S1132B5085818260858346E023C0E6E6F2E0A081B9
S1132B60B18112968C9112978B7F12968C9301905F
S1132B70F081E02D8581897F858345E011C0E6E6FB
S1132B80F2E0A081B18112968C9112978B7F1296FC
S1132B908C930190F081E02D85818660858348E0E7
S1132BA081E08816910429F0E2E08E16910451F038
S1132BB012C0E0916602F09167028581877F858368
S1132BC021E011C0E0916602F0916702858188607E
S1132BD0858322E008C0E0916602F0916702858156
S1132BE0877F858321E00230110571F003301105E0
S1132BF0E9F0012B21F5E0916602F09167028581ED
S1132C008F7C858390E023C0E6E6F2E0A081B18169
S1132C1015968C911597806215968C930190F0818E
S1132C20E02D85818F7E858392E011C0E09166025C
S1132C30F091670285818063858393E008C0E09109
S1132C406602F091670285818F7C858390E0E09134
S1132C503002F0913102838580688387F7013083E5
S1132C604183228393838EE193E19583848389E274
S1132C7093E1978386838CEE92E19187808784EF3A
S1132C8092E1938782878BE293E1958784878EE331
S1132C9093E19787868780E493E1918B808BC701CA
S1132CA0C05BDF4F0FB6F894DEBF0FBECDBFDF9120
S1132CB0CF911F910F91FF90EF90DF90CF90BF9035
S1132CC0AF909F908F9008951F920F920FB60F921E
S1132CD011240BB60F922F933F934F935F936F93EF
S1132CE07F938F939F93AF93BF93EF93FF93E09161
S1132CF06202F0916302828188718093CD026381C4
S1132D0060939C02E091A502F091A6028DE992E005
S1132D100995FF91EF91BF91AF919F918F917F9111
S1132D206F915F914F913F912F910F900BBE0F9038
S1132D300FBE0F901F9018951F920F920FB60F920F
S1132D4011240BB60F928F93EF93FF93E0916202DD
S1132D50F091630281818F7D8183FF91EF918F9147
S1132D600F900BBE0F900FBE0F901F9018951F92DF
S1132D700F920FB60F9211240BB60F922F933F931D
S1132D804F935F936F937F938F939F93AF93BF936F
S1132D90EF93FF93E0916602F0916702838188715B
S1132DA08093CC02648160939B02E091D602F091FF
S1132DB0D7028EEC92E00995FF91EF91BF91AF910C
S1132DC09F918F917F916F915F914F913F912F913F
S1132DD00F900BBE0F900FBE0F901F9018951F926F
S1132DE00F920FB60F9211240BB60F928F93EF939D
S1132DF0FF93E0916602F091670282818F7D828366
S1132E00FF91EF918F910F900BBE0F900FBE0F901B
S1132E101F901895FC018CE990E3918380838EEDDB
S1132E2090E39383828388EB90E39583848384EA9D
S1132E3090E39783868380EF90E39187808781ED89
S1132E4090E3938782878BEE90E3978786878BEE58
S1132E5090E3958B848B89EC90E3978B868B8CE83D
S1132E6090E3918F808F85ED90E3938F828F89EA31
S1132E7090E3958F848FCF0108956623C1F0DC0120
S1132E801296ED91FC91139714962D913C91159700
S1132E90E217F30729F4ED91FC91DF01119602C0CA
S1132EA0DF01119660831C92FC01B383A283089511
S1132EB0FC01808191810895DC01ED91FC911197D1
S1132EC01396FC93EE93129710820895FC0151839C
S1132ED040835383428370E061507109460F571F4A
S1132EE0558344838DE397E19187808788E597E153
S1132EF0938782878CE597E195878487CF0108952E
S1132F00FC019281838190838183262F30E0338377
S1132F102283262F2927492F422350E055834483B7
S1132F20262330E037832683262F292330E0318778
S1132F302087962B9095692F70E073876287089598
S1132F40FC01118210821382128220E837E1358756
S1132F5024870895CF92DF92EF92FF920F931F93ED
S1132F60FC010081118122813381FB01C080D18069
S1132F70E280F380FC01C082D182E282F382FB0111
S1132F8000831183228333831F910F91FF90EF906D
S1132F90DF90CF900895FB012081FC012083222340
S1132FA039F0DB01119631969D9191939111FCCFEB
S1132FB00895CF93DF93EC019881992399F0FE0152
S1132FC0319620E030E0492F50E04617570731F0A2
S1132FD0DE01A20FB31F9C932F5F3F4F919191117C
S1132FE0F2CF02C020E030E0FE01E20FF31F1082B6
S1132FF0DF91CF9108952F923F924F925F926F92FB
S11330007F928F929F92AF92BF92CF92DF92EF9274
S1133010FF920F931F93CF93DF9300D000D0CDB7CF
S1133020DEB72C011B014B0177231CF42FEF821A0E
S1133030920A95948794181419040CF451C06AC028
S11330409601DD209CF1F50140815181F4016081FC
S113305071816417750754F58C010A0D1B1DD40189
S1133060BC82AB82BA82A982EB81FC8171836083CA
S113307011965C934E932E193F09C2F0F8014081DA
S11330805181E981FA8160817181080F191FE80F6C
S1133090F91FFA83E983EB81FC81E80FF91FFC83B4
S11330A0EB83A80FB91F64177507F4F2FFEFCF1A6B
S11330B0DF0A22E0A20EB11CE2E08E0E911CC614BF
S11330C0D70409F0BDCF4701FF201CF4FFEF8F1A8E
S11330D09F0A9594879418141904E4F4740101C0A8
S11330E07401821493047CF76401CE18DF0856013E
S11330F0AA0CBB1CA40CB51C880C991C840C951C34
S113310031016E187F08C701880F991F9195819529
S1133110910996CF0F900F900F900F90DF91CF9160
S11331201F910F91FF90EF90DF90CF90BF90AF90E1
S11331309F908F907F906F905F904F903F902F90D3
S11331400895861797070CF4CB0108959B01672B0C
S113315011F408959A01B9010E94342DAC01822F13
S1133160932F41155105B1F70895FC01908180ED2D
S1133170890F8A30D0F4319620E030E0A901440F61
S1133180551F220F331F220F331F220F331F420FED
S1133190531F292F30E020533109240F351F9191FB
S11331A080ED890F8A3050F302C020E030E0C9017D
S11331B0089586230895009739F020E030E02F5FCA
S11331C03F4F82179307D9F7089587FF08C0919559
S11331D081959109992791958195910908958F7702
S11331E09927089591FF08C091958195910993704D
S11331F0919581959109089591700895615021E008
S113320030E002C0220F331F6A95E2F7A901415052
S11332105109B90168237923672B29F08423952365
S1133220821B930B08958423952308959DEC899F15
S1133230912D1124969596959695392F330F232F1A
S1133240220F220F230F821B20E1929F800D112455
S11332500895982F92959F70990F292F220F220F6E
S1133260920F8F70890F0895FC01DB01A154BE4FAA
S11332701C921616170614F5908191110CC017C0F4
S1133280919191110DC015C081932F5F3F4F261767
S11332903707D4F313C0AFEBB1E0319620E030E050
S11332A09D932F5F3F4F6217730751F707C020E0CC
S11332B030E0F901E154FE4F80E2E6CF8FEB91E07C
S11332C008954F925F926F927F92AF92BF92CF9286
S11332D0DF92EF92FF920F931F93CF93DF93CDB7BB
S11332E0DEB729013A019B01AC01241935094609CD
S11332F0570989899A89AB89BC89BC01CD016A19AE
S11333007B098C099D090E94112DA801970124199C
S11333103509460957090E94692DCA01B9016A0D88
S11333207B1D8C1D9D1DDF91CF911F910F91FF90EF
S1133330EF90DF90CF90BF90AF907F906F905F90B1
S11333404F900895FC012081222341F0319680E0C2
S113335090E0019621912111FCCF089580E090E046
S11333600895CF93DF93EC01EDDF9C0121503109E7
S113337062F0FE01E80FF91F9291903219F0995012
S1133380923018F421503109B8F7C20FD31F1982B3
S1133390C901DF91CF910895CF93DF93EC01D2DF80
S11333A09C01215031091216130684F4DE01A80F82
S11333B0B91FFE0180E090E040815E9151934C93EF
S11333C001962150310982179307B4F3DF91CF910D
S11333D008958F929F92AF92BF92CF92DF92EF9215
S11333E0FF920F931F93CF93DF936B017C01DC015A
S11333F0CB01FF203CF488279927DC018C199D0917
S1133400AE09BF09BC01CD0110E00F2EFAE08F2EEA
S1133410912CA12CB12CF02D01C0102F01E0010F33
S1133420C12FD0E0C154DE4FA50194010E94692D43
S1133430605D6883622F732F842F952F16161706ED
S11334401806190654F3FF2044F4E02FF0E0E15489
S1133450FE4F8DE2808302E0010FE02FF0E0E154A3
S1133460FE4F10828FEB91E097DF8FEB91E0DF91BD
S1133470CF911F910F91FF90EF90DF90CF90BF906D
S1133480AF909F908F9008950F931F93CF93DF93E6
S1133490EC01992324F4882799278C1B9D0B20E0A9
S11334A00AE010E001C0232F31E0320FE22FF0E0F8
S11334B0E154FE4FB8010E94342D805D8083862F35
S11334C0972F181619067CF3DD2344F4E32FF0E05C
S11334D0E154FE4F8DE2808332E0320FE32FF0E0BF
S11334E0E154FE4F10828FEB91E056DF8FEB91E0B9
S11334F0DF91CF911F910F910895CF93AC019C015F
S1133500ADECBCEC0E948E2D96958795969587958B
S1133510969587959C01220F331F880F991F880F5A
S1133520991F880F991F820F931F9A01281B390B2B
S1133530C901805D8093BF019A010E948E2DAC0168
S11335405695479556954795569547954115510576
S113355089F1E1E0C1E0CE0FF0E0E154FE4F9A01C1
S1133560ADECBCEC0E948E2D96958795969587952B
S1133570969587959C01220F331F880F991F880FFA
S1133580991F880F991F820F931F9A01281B390BCB
S1133590C901805D80839A010E948E2DAC015695ED
S11335A047955695479556954795EC2F41155105E6
S11335B089F601C0C1E0EC2FF0E0E154FE4F108227
S11335C08FEB91E0E9DE8FEB91E0CF910895982F96
S11335D092959F70990F292F220F220F920F8F70AF
S11335E0890F0895AC019C01ADECBCEC0E948E2DBA
S11335F0969587959695879596958795BC01660FC0
S1133600771F9C01220F331F220F331F220F331FFA
S1133610260F371F421B530B342F20E1829F300D9E
S11336201124832F0895CF92DF92EF92FF92CF93CC
S1133630DF93CDB7DEB728970FB6F894DEBF0FBE81
S1133640CDBF6B017C0169837A838B839C832D833B
S11336503E834F835887C216D306E406F50634F436
S1133660BE016B5F7F4FCE01019674DC8D819E811C
S1133670AF81B885892B8A2B8B2B71F469817A8170
S11336808B819C8120E030E0A9010E94692D6115A5
S113369071058105910529F46D817E818F8198855D
S11336A005C06D837E838F839887F6CF28960FB6E7
S11336B0F894DEBF0FBECDBFDF91CF91FF90EF90A6
S11336C0DF90CF90089590E002C0959587956A9514
S11336D0E2F7817008959C012150310981E090E066
S11336E002C0880F991F2A95E2F70097B1F0EFEB1B
S11336F0F1E020E030E0B0E3A1E3AB01482359233B
S1133700452B11F0A08301C0B083969587952F5F58
S11337103F4F3196009789F702C020E030E0F9016D
S1133720E154FE4F10828FEB91E00895AB01BC0190
S11337301092BF01411551056105710509F442C09C
S113374021E0EFEFE20FDB01CA018F709927AA276E
S1133750B078BB2354F40197A109B109806F9F6F1E
S1133760AF6FBF6F0196A11DB11D8A309105A105F0
S1133770B10534F4F0E0E154FE4F805D808305C070
S1133780F0E0E154FE4F895C8083E22FF0E0E154E5
S1133790FE4F1082DB01CA0177231CF40F96A11D92
S11337A0B11DAC01BD01689413F8759567955795E3
S11337B047951694D1F72F5F4115510561057105A1
S11337C009F0BFCF8FEB91E0E7DD8FEB91E0089537
S11337D0282F30E0322F2227A901492BCA0108954E
S11337E0292F30E0322F2227A901482BCA0108953E
S11337F0282F892F922F089508959827892798278D
S11338000895FF920F931F93CF93DF938C01EB01E5
S1133810F42E642F70E080E090E00E94932A9B01D4
S1133820AC0160E070E080E090E40E94AC2B20E00A
S113383030E040E85FE30E9491290E94672A9E01DC
S11338402623372360237123CB0182279327282340
S1133850392302C0220F331FFA94E2F7822B932BF1
S1133860DF91CF911F910F91FF900895CF93DF9334
S1133870CDB7DEB79E012B5F3F4FF90141915191C6
S11338809F016FE570E08FEB91E00E94A72D9923D3
S11338901CF08FEB91E002C080E090E0DF91CF91CB
S11338A00895FC0110921E0282EA99E191838083BB
S11338B08CEC99E19383828381E09CE195838483FA
S11338C08AEA97E1978386838BEC97E191878087D7
S11338D089ED97E1938782878BEF97E195878487BA
S11338E084E49AE1978786878DE79AE1918B808BB0
S11338F089EE99E1938B828B81EB99E1958B848B93
S113390081EA98E1978B868B86EA98E1918F808F84
S113391085EB98E1938F828F89ED98E1958F848F61
S11339208BED98E1978F868F85EE98E191A380A324
S113393082EF98E193A382A38EEF98E195A384A3E9
S113394086E199E197A386A389E299E191A780A7EB
S113395084E399E193A782A781E699E195A784A7D7
S113396087EE9AE197A786A782EF9AE191AB80ABA5
S113397083E19BE193AB82AB83E69BE195AB84ABA4
S11339808BE69BE197AB86AB89E49DE191AF80AF79
S113399086E99BE193AF82AF88EE9BE195AF84AF5C
S11339A080EF9BE197AF86AFDF01A05CBF4F88EF4C
S11339B09BE111969C938E9312968CEF9BE111964A
S11339C09C938E9312968DEF9BE111969C938E930C
S11339D0129686E39CE18D939C93CF0108958F9278
S11339E09F92AF92BF92EF92FF920F931F93CF9348
S11339F0DF938A01D22F2AE030E040E050E00E94B9
S1133A00692D605DF8016083622F732F842F952FD9
S1133A101616170618061906FCF421E00F2EFAE014
S1133A208F2E912CA12CB12CF02DC1E0C20F780166
S1133A30E20EF11CA50194010E94692D605DF7015D
S1133A406083622F732F842F952F2C2F1616170641
S1133A501806190654F301C0C1E0CD1748F480E3F9
S1133A60F801EC0FF11D8083CF5FDC13F9CF01C0A7
S1133A70DC2FF801ED0FF11D10828D2FDF91CF9116
S1133A801F910F91FF90EF90BF90AF909F908F90F8
S1133A9008958F929F92AF92BF92CF92DF92EF924E
S1133AA0FF920F931F93CF93DF936B017C01EA0185
S1133AB0022F20E030E0A9010E94F62988230CF0AF
S1133AC066C0F7FAF094F7F8F094C701B6010E94C3
S1133AD0672A4B015C010E94932A9B01AC01C70138
S1133AE0B6010E9491296B017C01B401990C880BE9
S1133AF0990B21E0AE0173DF11E0180FFE01E80F0E
S1133B00F11D8DE280835E01A10EB11CF5011082CE
S1133B10CE0142DC8FEF800F863008F58EE2F5018E
S1133B2080831F5F5E01A10EB11C602F70E080E0F6
S1133B3090E00E94932A9B01AC0160E070E080E277
S1133B4091E40E94AC2BA70196010E94492B0E948C
S1133B50622A202FA50143DFC5011EDC37C08EE297
S1133B60F50180831F5FCE01810F911D8C0120E040
S1133B7030E048EC52E4C701B6010E94492B0E9490
S1133B80622A22E0A8012BDFC80106DC1FC0C7019E
S1133B90B6010E94672A4B015C010E94932A9B0193
S1133BA0AC01C701B6010E9491296B017C01B401EB
S1133BB0990C880B990B21E0AE0111DF11E0180F6D
S1133BC0FE01E80FF11D80E280839DCFCE01DF91DD
S1133BD0CF911F910F91FF90EF90DF90CF90BF9006
S1133BE0AF909F908F900895E091E602F091E702E4
S1133BF080818B7F8083E091E602F091E7028081EF
S1133C008460808308950F931F93CF93C82F8B01F3
S1133C10E091E602F091E70280818D7F8083E0915C
S1133C20E302F091E4028081806F8083672B41F08E
S1133C30E091E602F091E70280818160808307C011
S1133C40E091E602F091E70280818E7F808380E03C
S1133C5090E0CADFCC2344F4E091E602F091E7025D
S1133C6080818068808307C0E091E602F091E702DA
S1133C7080818F778083C6FF08C0E091E602F091CF
S1133C80E70280818064808307C0E091E602F091BE
S1133C90E70280818F7B8083C5FF08C0E091E60244
S1133CA0F091E70280818062808307C0E091E602A0
S1133CB0F091E70280818F7D8083C4FF08C0E0918A
S1133CC0E602F091E70280818061808307C0E09181
S1133CD0E602F091E70280818F7E8083012B41F020
S1133CE0E091E602F091E70280818160808307C061
S1133CF0E091E602F091E70280818E7F808380E08C
S1133D0090E072DFC3FF08C0E091E602F091E702A1
S1133D1080818068808307C0E091E602F091E70229
S1133D2080818F778083C2FF08C0E091E602F09122
S1133D30E70280818064808307C0E091E602F0910D
S1133D40E70280818F7B8083C1FF08C0E091E60297
S1133D50F091E70280818062808307C0E091E602EF
S1133D60F091E70280818F7D8083C0FF08C0E091DD
S1133D70E602F091E70280818061808307C0E091D0
S1133D80E602F091E70280818F7E8083E091E60273
S1133D90F091E70280818B7F8083CF911F910F91F7
S1133DA0089560E070E081E02EDF87EE97E10197EF
S1133DB0F1F700C0000008950F931F93CF938C0177
S1133DC0E091E302F091E40280818F708083E091BE
S1133DD0E602F091E7028081806F8083E091E60241
S1133DE0F091E7028081826080830115110541F022
S1133DF0E091E602F091E70280818160808307C050
S1133E00E091E602F091E70280818E7F808380E07A
S1133E1090E0EADEE091DC02F091DD02808188230B
S1133E2014F0C0E001C0C0E8808186FF02C0C06415
S1133E3001C0CF7B808185FF02C0C06201C0CF7DFD
S1133E40808184FF02C0C06101C0CF7E012B41F09C
S1133E50E091E602F091E70280818160808307C0EF
S1133E60E091E602F091E70280818E7F808380E01A
S1133E7090E0BADEE091DC02F091DD0280818823DB
S1133E801CF48C2F886002C08C2F877F908196FF52
S1133E9002C0846001C08B7F908195FF02C0826064
S1133EA001C08D7F908194FF02C0816001C08E7F2C
S1133EB0E091E602F091E70290819B7F9083CF919D
S1133EC01F910F91089580E090E076DF882344F4F9
S1133ED080E090E071DF88231CF480E090E06CCFF8
S1133EE0089561E070E08FDEEECF0895CF93DF9305
S1133EF0EC018881882329F02196F3DF89918111CF
S1133F00FCCFDF91CF9108950F931F93CF93DF934D
S1133F10FC01D62F8081882351F08F010F5F1F4F42
S1133F20611109C015C0CF5FDC1730F401C0C0E0D7
S1133F30CD1748F00DC0C1E0D4DFF80181918F01A5
S1133F408111F1CFF5CF80E2CCDFCF5FCD17D8F36D
S1133F50DF91CF911F910F910895CF93C82F88239C
S1133F6021F080E2BEDFC150E1F7CF910895262F02
S1133F708130910571F030F08230910589F003971A
S1133F80B1F0089560E070E080E8820F3CDE9BCFE2
S1133F90089560E070E080EC820F35DE94CF0895E0
S1133FA060E070E084E9820F2EDE8DCF089560E03A
S1133FB070E084ED820F27DE86CF0895E091E3025E
S1133FC0F091E40287E08083E091E602F091E70259
S1133FD088E080832FEF83EF91E021508040904070
S1133FE0E1F700C0000060E070E088E30CDE20ED43
S1133FF02A95F1F760E070E088E305DE80ED8A95AC
S1134000F1F760E070E088E3FEDD90ED9A95F1F75A
S113401060E070E088E2F7DD25EC2A95F1F7000016
S113402060E070E088E2EFDD85EC8A95F1F700004E
S113403060E070E088E2E7DD46DF60E070E088E29F
S1134040E2DD41DF60E070E08CE0DDDD3CDF60E07C
S113405070E08CE0D8DD37DF60E070E081E0D3DD34
S113406032DF60E070E081E0CEDD2DDF60E070E003
S113407086E0C9DD28DF60E070E086E0C4DD23DF90
S113408060E070E080E090E072CF0895CF93DF931A
S1134090EC017093E4026093E3025093DD024093D9
S11340A0DC023093E7022093E602FB011082E091E8
S11340B0E602F091E7028FEF8083E091DC02F09159
S11340C0DD02808188708093E50278DF83E09EE1E1
S11340D0998388838CED9EE19B838A8383E69FE1A9
S11340E09D838C8381E79FE19F838E8387EA90E29F
S11340F09987888786E79FE19B878A8784E89FE181
S11341009D878C878DEA9FE19F878E8781ED9EE155
S1134110998B888B87EB9FE19B8B8A8B86E990E256
S11341209D8B8C8BCE01DF91CF910895CF93E0913D
S1134130DC02F091DD02C081C8708091E5028C2719
S11341408C2309F03BDFC093E502CF910895CF9310
S113415081E090E031DEC82FB6DE8C2FCF91089538
S1134160FC0182810895E091ED02F091EE0220813C
S113417081E090E00090F10202C0880F991F0A9438
S1134180E2F7822B808384E290E00197F1F7E091DB
S1134190EB02F091EC02408121E030E0C901009093
S11341A0EA0202C0880F991F0A94E2F7E091ED0237
S11341B0F091EE0290810090F10202C0220F331FB1
S11341C00A94E2F7209529232083842308956034F8
S11341D079F0603819F0603281F405C021E0FC0107
S11341E022832383089522E0FC01228323830895FC
S11341F023E0FC0122832383089521E0FC01228330
S113420023830895FC012081211114C0E091EB0265
S1134210F091EC02208130E00090EA0202C0359572
S113422027950A94E2F720FD07C02FEFFC012083B5
S11342308FEF089580E0089580E008950F931F9311
S1134240CF93DF93EC018981882399F18A898617BA
S113425098F40E851F85288939894A855B856C8584
S11342607D85400F511F621F731F4E875F87688BC8
S1134270798B8F5F8A8B1CC0262F30E040E050E0A2
S11342806E857F85888999890E94692DCA01B90143
S11342900E94952A6B8B7C8B8D8B9E8B8A859B854C
S11342A0AC85BD858E879F87A88BB98B81E08A8B6F
S11342B019826B897C898D899E89DF91CF911F91A9
S11342C00F910895FC0180810895479608950F93F6
S11342D01F93CF93DF93EC0109851C81059690937E
S11342E0F0028093EF028881882309F444C01123EB
S11342F029F139DF8823A9F00150802F90E0FE01D5
S1134300E80FF91F115028E0029F1019112481E0D1
S113431090E002C0880F991F1A95E2F79581892BC6
S113432085838C8181508C83803119F482E0898764
S113433022C0883001F581E089871DC08B818823E4
S113434029F011DF8B8181508B8315C08D819E8173
S1134350AF81B8858A879B87AC87BD8788E18C83CA
S113436083E089878A818B831D821E821F8218863F
S113437081E0898318826A857B858C859D85DF91A0
S1134380CF911F910F910895EF920F931F93FC010A
S1134390DA015FB78FB78F778FBF7093F3026093A3
S11343A0F202B093EC02A093EB023093EE0220935E
S11343B0ED020093EA02E092F102DB014C9181E00C
S11343C090E09C0102C0220F331FEA94E2F7242BF1
S11343D02C93A091ED02B091EE022C9102C0880FB3
S11343E0991F0A95E2F7822B8C931082118281E047
S11343F08283838388E184831582168217821086E0
S113440083E081871286138614861586168617869E
S1134410108A118A128A138A148A158A168AA0E0CD
S1134420B1E00D911D912D913C911397078B108F45
S1134430218F328F14960D911D912D913C911797D8
S1134440038F148F258F368F18960D911D912D9102
S11344503C911B97078F10A321A332A31C968C9128
S11344601C9783A31D968C911D9784A31E968C91F3
S11344701E9785A31F968C911F9786A3B093F50270
S1134480A093F40280EB90E290A787A383EB90E2E1
S113449092A781A787EE90E294A783A782E091E296
S11344A096A785A787E691E290AB87A78EE191E274
S11344B092AB81AB82E691E294AB83AB85E691E269
S11344C096AB85AB5FBFCF011F910F91EF9008951D
S11344D0E2E6F0E080818F6380838FEF84BB85BB4D
S11344E00895CF93DF93CDB7DEB7CA5BD1090FB67A
S11344F0F894DEBF0FBECDBFEBDF0F2EF8E2CF2E58
S1134500F3E0DF2EF02DD0923903C0923803CE01B0
S1134510875A9F4F0E94A0178EE0FE01E75AFF4F73
S1134520A9EAB3E001900D928A95E1F7CE010196D4
S1134530B8D989899A89C754DF4F99838883C95B1D
S1134540D04029AC3AAC2BE330E049E350E06AE3D5
S113455070E0CE0189599F4F99DD86E1FE01E9594A
S1134560FF4FAAE5B3E001900D928A95E1F742E08E
S113457062E0CE01875A9F4F0E94590C80E1FE01F0
S1134580E75AFF4FAAEFB2E001900D928A95E1F746
S113459042E064E0CE01875B9F4F0E94110D0F2E15
S11345A0F7E0EF2EF02D06E022E630E040E250E0A6
S11345B061E670E0CE0183589F4FE6DE87E3FE019B
S11345C0E358FF4FA0E7B3E001900D928A95E1F71D
S11345D0CE01875A9F4F0E940A178EE1FE01E75AC7
S11345E0FF4FAAE0B3E001900D928A95E1F700E74E
S11345F013E0D801D596ED91FC91D697C8010995A1
S1134600FC0180819181A281B381F6018083918331
S1134610A283B383D801D596ED91FC91D697C801B6
S11346200995FC0184819581A681B781F601848373
S11346309583A683B783D801D596ED91FC91D6973F
S1134640C8010995FC0180859185A285B385F60191
S113465080879187A287B387D801D596ED91FC9185
S1134660D697C8010995FC018485D6011C968C93C4
S1134670D801D596ED91FC91D697C8010995FC0116
S11346808585D6011D968C93D801D596ED91FC9124
S1134690D697C8010995FC018685D6011E968C9390
S11346A0D801D596ED91FC91D697C8010995FC01E6
S11346B08785D6011F968C930F2EFAEFEF2EF2E02A
S11346C0FF2EF02DD701ED91FC9181E00995D701E2
S11346D01696ED91FC9117978CE30995D7011C96DA
S11346E0ED91FC911D9788E090E009952B96EEAD35
S11346F0FFAD2B9781E009956196EEADFFAD619713
S113470080E595EF09956796EEADFFAD679780E07C
S113471091E00995D8019B96ED91FC919C9760E4FA
S1134720C8010995D8019796ED91FC919897C80115
S11347300995CC54DF4F8883C45BD040813041F469
S11347408091360390E09093A8038093A7031DC043
S1134750CC54DF4FB881C45BD040B23041F4809177
S1134760340390E09093A8038093A7030EC0CC5425
S1134770DF4FE881C45BD040E33039F480913503E6
S113478090E09093A8038093A703E0912203F09113
S1134790230340E150E060E070E0809138039091A1
S11347A039030995E0913803F09139038785813005
S11347B009F072C000E713E0D801D596ED91FC91A1
S11347C0D697C8010995E0913803F09139034081E7
S11347D0518162817381FC014083518362837383BD
S11347E0D801D596ED91FC91D697C8010995E09131
S11347F03803F09139034481558166817781FC0146
S11348004483558366837783D801D596ED91FC91D3
S1134810D697C8010995E0913803F0913903408592
S1134820518562857385FC01408751876287738750
S1134830D801D596ED91FC91D697C8010995E091E0
S11348403803F09139032485FC012487D801D596D7
S1134850ED91FC91D697C8010995E0913803F09148
S113486039032585FC012587D801D596ED91FC9166
S1134870D697C8010995E0913803F091390326854C
S1134880FC012687D801D596ED91FC91D697C801F5
S11348900995FC011786AD98CB54DF4F1882198215
S11348A01A821B82C55BD0400F2EFAE5CF2EF3E0AF
S11348B0DF2EF02D0F2EF9EA6F2EF3E07F2EF02D70
S11348C000E713E0E02EF12E0F2EF8E24F2EF3E076
S11348D05F2EF02DBB24B3940F2EF1E3AF2EF02DF9
S11348E0D6015496ED91FC915597099560B1D30189
S11348F01C96ED91FC911D97C301099580911F02AF
S11349008130E9F4B2E3B093110110921F02D60191
S11349105096ED91FC915197099511C0D801D1960B
S1134920ED91FC91D29768E18E2D9F2D09956093AE
S1134930F6027093F7028093F8029093F902D8017B
S11349409D96ED91FC919E978E2D9F2D0995811139
S1134950E5CF80911101813321F0823309F406C23D
S1134960ACC3D6015296ED91FC91539764E070E08C
S113497080E090E00995D6011C96ED91FC911D977D
S11349806CE082E191E00995F301848180FF6FC0BE
S11349906091F6027091F7028091F8029091F90209
S11349A091D5D2016D937D938D939C931397F201CE
S11349B0648375838683978318966D937D938D9313
S11349C09C931B971F96BC92E0912603F0912703BA
S11349D040E150E060E070E0809138039091390349
S11349E00995D801D596ED91FC91D697C801099502
S11349F0E0913803F09139034081518162817381E0
S1134A00FC014083518362837383D801D596ED9171
S1134A10FC91D697C8010995E0913803F0913903C8
S1134A204481558166817781FC0144835583668383
S1134A307783D801D596ED91FC91D697C801099555
S1134A40E0913803F091390340855185628573857F
S1134A50FC014087518762877387D801D596ED9111
S1134A60FC91D697C8010995FC011786AD98CC54E2
S1134A70DF4FF881C45BD040F13019F0FB3009F00E
S1134A8050C08091F6029091F702A091F802B09183
S1134A90F902CB54DF4F88839983AA83BB83C55B18
S1134AA0D040D801D596ED91FC91D697C8010995CF
S1134AB0FC01608571858285938537D59B01AC01A6
S1134AC0CB54DF4F688179818A819B81C55BD0405B
S1134AD028D4CB54DF4F688379838A839B83C55B57
S1134AE0D040D801D596ED91FC91D697C80109958F
S1134AF0FC01668570E080E090E017D59B01AC0175
S1134B00CB54DF4F688179818A819B81C55BD0401A
S1134B1071D4CB54DF4F688379838A839B83C55BCD
S1134B20D040CC54DF4FF881C45BD040F23019F050
S1134B30F53109F050C08091F6029091F702A091EE
S1134B40F802B091F902CB54DF4F88839983AA838A
S1134B50BB83C55BD040D801D596ED91FC91D69727
S1134B60C8010995FC016081718182819381DDD442
S1134B709B01AC01CB54DF4F688179818A819B8191
S1134B80C55BD040CED3CB54DF4F688379838A830F
S1134B909B83C55BD040D801D596ED91FC91D69707
S1134BA0C8010995FC01648570E080E090E0BDD403
S1134BB09B01AC01CB54DF4F688179818A819B8151
S1134BC0C55BD04017D4CB54DF4F688379838A8385
S1134BD09B83C55BD040CC54DF4FF881C45BD0408D
S1134BE0F33019F0FF3109F050C08091F602909132
S1134BF0F702A091F802B091F902CB54DF4F8883F9
S1134C009983AA83BB83C55BD040D801D596ED9127
S1134C10FC91D697C8010995FC0164817581868150
S1134C20978183D49B01AC01CB54DF4F6881798198
S1134C308A819B81C55BD04074D3CB54DF4F68839A
S1134C4079838A839B83C55BD040D801D596ED9147
S1134C50FC91D697C8010995FC01658570E080E058
S1134C6090E063D49B01AC01CB54DF4F6881798120
S1134C708A819B81C55BD040BDD3CB54DF4F688311
S1134C8079838A839B83C55BD04020E030E04AE788
S1134C9054E4CB54DF4F688179818A819B81C55B61
S1134CA0D040F3D418167CF020E030E04AE754EC0E
S1134CB0CB54DF4F688179818A819B81C55BD04069
S1134CC095D3882364F5D6015296ED91FC915397C0
S1134CD061E070E082E090E00995F60184849584B7
S1134CE020E030E04AE754E4CB54DF4F6881798117
S1134CF08A819B81C55BD0407DD323E04AE353E0A6
S1134D00F10109956DE0F4010995D6011C96ED9128
S1134D10FC911D9764E08FE191E00995E1CDD60106
S1134D205296ED91FC91539761E070E082E090E03F
S1134D300995F6018484958420E04AE353E0CB543A
S1134D40DF4F688179818A819B81C55BD040F10105
S1134D5009956DE0F4010995D6011C96ED91FC913D
S1134D601D9764E082E291E00995BACDD60152968E
S1134D70ED91FC91539761E070E080E090E009953B
S1134D80D6011C96ED91FC911D9761E187E291E0BB
S1134D900995CC54DF4FB881C45BD040B33009F4DB
S1134DA0D2C030F4B13099F0B23009F46EC029C1E8
S1134DB0CC54DF4FE881C45BD040E53109F47AC0BC
S1134DC0EF3109F4D5C0EB3009F01BC115C0D8018F
S1134DD0D596ED91FC91D697C8010995FC0186857D
S1134DE090E09093A8038093A703FBE0CC54DF4F9B
S1134DF0F883C45BD0400BC1D6015296ED91FC916F
S1134E00539769E070E082E090E00995F3018481B2
S1134E1095818830910589F48091A7039091A80326
S1134E2001968F3F910509F008F44AC18FEF90E095
S1134E309093A8038093A70313C0409789F48091AB
S1134E40A7039091A803019729F09093A803809356
S1134E50A70306C081E090E09093A8038093A70382
S1134E608091A7039091A803D2011E968C93F6011A
S1134E7084849584C754DF4FE881F981C95BD040AD
S1134E80099566E0F4010995C2C0D801D596ED9163
S1134E90FC91D697C8010995FC01848590E0909314
S1134EA0A8038093A703F5E1CC54DF4FF883C45BD8
S1134EB0D040ADC0D6015296ED91FC91539769E074
S1134EC070E082E090E00995F30184819581883057
S1134ED0910589F48091A7039091A80301968F3FCF
S1134EE0910509F008F4F1C08FEF90E09093A803C6
S1134EF08093A70313C0409789F48091A7039091EE
S1134F00A803019729F09093A8038093A70306C0F0
S1134F1081E090E09093A8038093A7038091A70376
S1134F209091A803D2011C968C93F60184849584F5
S1134F30C754DF4FE881F981C95BD040099566E029
S1134F40F401099564C0D801D596ED91FC91D697EA
S1134F50C8010995FC01858590E09093A80380938E
S1134F60A703FFE1CC54DF4FF883C45BD0404FC0AC
S1134F70D6015296ED91FC91539769E070E082E07E
S1134F8090E00995F301848195818830910589F435
S1134F908091A7039091A80301968F3F910509F092
S1134FA008F498C08FEF90E09093A8038093A70330
S1134FB013C0409789F48091A7039091A8030197A7
S1134FC029F09093A8038093A70306C081E090E0A2
S1134FD09093A8038093A7038091A7039091A803BB
S1134FE0D2011D968C93F60184849584C754DF4FB7
S1134FF0E881F981C95BD040099566E0F40109951F
S113500006C0F3E0CC54DF4FF883C45BD040D30137
S11350101A968D919C911B978F739927809709F00D
S11350205FCCF201B786E0912603F091270340E1BB
S113503050E060E070E08091380390913903099565
S1135040D801D596ED91FC91D697C8010995E7EA68
S1135050F3E02081DC011C962C93D801D596ED91C8
S1135060FC91D697C8010995E7EAF3E02081DC01B9
S11350701D962C93D801D596ED91FC91D697C80135
S11350800995E7EAF3E02081DC011E962C93D80110
S1135090D596ED91FC91D697C8010995FC01178628
S11350A0AD98AF9A10922002A0921101D6015096A9
S11350B0ED91FC915197099513CCA092110110CC5C
S11350C09093A8038093A703CBCE9093A8038093D7
S11350D0A70324CF9093A8038093A7037DCF1F92A7
S11350E00F920FB60F9211240BB60F922F933F938A
S11350F04F935F936F937F938F939F93AF93BF93DC
S1135100CF93EF93FF93CFB78FB78F778FBFE09194
S11351109F03F091A00380E793E00995CFBFFF912F
S1135120EF91CF91BF91AF919F918F917F916F91AB
S11351305F914F913F912F910F900BBE0F900FBE37
S11351400F901F9018951F920F920FB60F92112473
S11351500BB60F922F933F934F935F936F937F936D
S11351608F939F93AF93BF93CF93DF93EF93FF936B
S11351708091B3039091B4038F739927089749F4EE
S1135180809121028F5F80932102863008F4A7C0AA
S113519007C080912102863018F4109221028FC03A
S11351A086E08093210295B380E4892785BB8091B2
S11351B01001815080931001811181C0E091260378
S11351C0F091270340E150E060E070E08091F40248
S11351D09091F5020995C0E7D3E0EDA9FEA9CE01AF
S11351E00995E091F402F091F502408151816281C8
S11351F07381FC014083518362837383EDA9FEA90B
S1135200CE010995E091F402F091F50244815581B3
S113521066817781FC014483558366837783EDA996
S1135220FEA9CE010995E091F402F091F5024085C2
S1135230518562857385FC01408751876287738736
S1135240EDA9FEA9CE010995E091F402F091F502D1
S11352502485422F50E05093A8034093A703FC01F8
S11352602487EDA9FEA9CE010995E091F402F091FD
S1135270F5022585422F50E05093A8034093A703DD
S1135280FC012587EDA9FEA9CE010995E091F40260
S1135290F091F5022685FC012687EDA9FEA9CE0131
S11352A00995E091F402F091F5022785FC01278726
S11352B0AD9AAE9A1092210288E0809310018091F9
S11352C0B3039091B4038F739927409741F480916D
S11352D020028F5F80932002863040F40DC08091BD
S11352E02002863018F41092200206C01092200288
S11352F081E080931F02AF98FF91EF91DF91CF91EE
S1135300BF91AF919F918F917F916F915F914F91D9
S11353103F912F910F900BBE0F900FBE0F901F90D7
S113532018955058BB27AA270ED075C166D130F006
S11353306BD120F031F49F3F11F41EF45BC10EF4E5
S1135340E095E7FB51C1E92F77D180F3BA176207E3
S113535073078407950718F071F49EF58FC10EF456
S1135360E0950B2EBA2FA02D0B01B90190010C0171
S1135370CA01A0011124FF27591B99F0593F50F489
S1135380503E68F11A16F040A22F232F342F4427E1
S1135390585FF3CF469537952795A795F0405395D9
S11353A0C9F77EF41F16BA0B620B730B840BBAF0A9
S11353B09150A1F0FF0FBB1F661F771F881FC2F714
S11353C00EC0BA0F621F731F841F48F48795779528
S11353D06795B795F7959E3F08F0B3CF9395880FDF
S11353E008F09927EE0F979587950895D9D008F47A
S11353F081E008950CD00FC107D140F0FED030F009
S113540021F45F3F19F0F0C0511139C1F3C014D138
S113541098F39923C9F35523B1F3951B550BBB2777
S1135420AA2762177307840738F09F5F5F4F220F24
S1135430331F441FAA1FA9F333D00E2E3AF0E0E81D
S113544030D091505040E695001CCAF729D0FE2F69
S113545027D0660F771F881FBB1F261737074807FB
S1135460AB07B0E809F0BB0B802DBF01FF279358B1
S11354705F4F2AF09E3F510568F0B6C000C15F3F00
S1135480ECF3983EDCF3869577956795B795F79599
S11354909F5FC9F7880F911D9695879597F9089591
S11354A0E1E0660F771F881FBB1F6217730784072D
S11354B0BA0720F0621B730B840BBA0BEE1F88F73C
S11354C0E095089504D06894B111D9C00895BCD072
S11354D088F09F5790F0B92F9927B751A0F0D1F0D9
S11354E0660F771F881F991F1AF0BA95C9F712C063
S11354F0B13081F0C3D0B1E00895C0C0672F782FD8
S11355008827B85F39F0B93FCCF3869577956795CE
S1135510B395D9F73EF490958095709561957F4F3A
S11355208F4F9F4F0895E89409C097FB3EF49095E0
S11355308095709561957F4F8F4F9F4F9923A9F068
S1135540F92F96E9BB279395F695879577956795F7
S1135550B795F111F8CFFAF4BB0F11F460FF1BC03B
S11355606F5F7F4F8F4F9F4F16C0882311F096E9CE
S113557011C0772321F09EE8872F762F05C066237C
S113558071F096E8862F70E060E02AF09A95660F35
S1135590771F881FDAF7880F9695879597F90895EE
S11355A0990F0008550FAA0BE0E8FEEF1616170630
S11355B0E807F907C0F012161306E407F50798F098
S11355C0621B730B840B950B39F40A2661F0232BB1
S11355D0242B252B21F408950A2609F4A140A6952D
S11355E08FEF811D811D089597F99F6780E870E012
S11355F060E008959FEF80EC089500240A94161645
S1135600170618060906089500240A9412161306AC
S1135610140605060895092E0394000C11F488233A
S113562052F0BB0F40F4BF2B11F460FF04C06F5F56
S11356307F4F8F4F9F4F089557FD9058440F551F2C
S113564059F05F3F71F04795880F97FB991F61F000
S11356509F3F79F087950895121613061406551F77
S1135660F2CF4695F1DF08C0161617061806991FE3
S1135670F1CF86957105610508940895E894BB27D8
S113568066277727CB0197F908958ADF08F48FEF0F
S113569008950BD0C0CFB1DF28F0B6DF18F0952302
S11356A009F0A2CFA7CF1124EACFC6DFA0F3959FBC
S11356B0D1F3950F50E0551F629FF001729FBB27F5
S11356C0F00DB11D639FAA27F00DB11DAA1F649FA1
S11356D06627B00DA11D661F829F2227B00DA11D54
S11356E0621F739FB00DA11D621F839FA00D611DDA
S11356F0221F749F3327A00D611D231F849F600DFB
S1135700211D822F762F6A2F11249F5750408AF033
S1135710E1F088234AF0EE0FFF1FBB1F661F771FBF
S1135720881F91505040A9F79E3F510570F05CCFFF
S1135730A6CF5F3FECF3983EDCF3869577956795AB
S1135740B795F795E7959F5FC1F7FE2B880F911DDD
S11357509695879597F90895FA01EE0FFF1F3096F5
S11357602105310599F16115710561F48038BFE3B4
S11357709B0749F168949038810561F08038BFEF48
S11357809B0741F0992342F5FF3FE10531052105CF
S113579011F1E8940894E795D901AA2329F4AB2FD1
S11357A0BE2FF85FD0F310C0FF5F70F4A695E0F74A
S11357B0F73950F019F0FF3A38F49F779F930CD0E3
S11357C00F9007FC905808953EF014CF60E070E00D
S11357D080E89FE308954FE79F775F934F933F934C
S11357E02F939ED02F913F914F915F9152DF05C02F
S11357F019F40EF0F9CE42CFFDCE26DFC8F3963869
S1135800C0F707F80F92E8942BE33AEA48EB5FE716
S11358104EDF0F920F920F924DB75EB70F92C0D02A
S1135820E8E2F1E016D04F915F91EF91FF91E59599
S1135830EE1FFF1F49F0FE57E0684427EE0F441F98
S1135840FA95E1F74195550B32D00F9007FE26C02B
S11358500895DF93CF931F930F93FF92EF92DF92FC
S11358607B018C01689405C0DA2EEF011EDFFE0176
S1135870E894A5912591359145915591AEF3EF01A9
S113588062DDFE019701A801DA9479F7DF90EF90C9
S1135890FF900F911F91CF91DF9108959B01AC016F
S11358A060E070E080E89FE3A5CD9ECEACC0CCDE86
S11358B0E8F39923D9F3940F511DBBF39150504051
S11358C094F059F0882332F0660F771F881F9150A7
S11358D05040C1F79E3F510544F7880F911D96959E
S11358E0879597F908955F3FACF0983E9CF0BB27ED
S11358F0869577956795B79508F4B1609395C1F748
S1135900BB0F58F711F460FFE8CF6F5F7F4F8F4FE5
S11359109F4FE3CFB4CE0EF076C06CCE689464CEC5
S113592093DEC8F39923D1F3C6F3DF93CF931F9388
S11359300F93FF92C92FDD2788232AF02197660F42
S1135940771F881FDAF720E030E040E85FEB9FE341
S1135950883920F0803E30F021968F77E3DCE0E553
S1135960F1E003C0DFDCEDE7F1E073DF8B01BE01A2
S1135970EC01FB2E6F5771097595771F880B990BF6
S1135980D4DD28E132E741E35FE38FDEAF2D9801F8
S1135990AE01FF900F911F91CF91DF91D4DC3BCEEC
S11359A0FA01DC01AA0FBB1F9B01AC01BF5728F40D
S11359B022273327442750781FC0B75188F4AB2FD0
S11359C00024469537952795011CA395D2F3002012
S11359D069F0220F331F441FB395DAF30DD0A1CC25
S11359E061307105A0E88A07B94630F49B01AC0127
S11359F06627772788279078309621F02083318393
S1135A004283538308959F3F31F0915020F487954A
S1135A1077956795B795880F911D9695879597F912
S1135A200895DB018F939F9388D0BF91AF91A29F7C
S1135A30800D911DA39F900DB29F900D1124089588
S1135A40AA1BBB1B51E107C0AA1FBB1FA617B707A0
S1135A5010F0A61BB70B881F991F5A95A9F78095BC
S1135A609095BC01CD01089597FB072E16F4009480
S1135A7006D077FD08D0E4DF07FC05D03EF490950E
S1135A8081959F4F0895709561957F4F0895A1E288
S1135A901A2EAA1BBB1BFD010DC0AA1FBB1FEE1FA4
S1135AA0FF1FA217B307E407F50720F0A21BB30BEF
S1135AB0E40BF50B661F771F881F991F1A9469F76B
S1135AC060957095809590959B01AC01BD01CF01C7
S1135AD00895052E97FB16F400940FD057FD05D0BA
S1135AE0D6DF07FC02D046F408C0509540953095A7
S1135AF021953F4F4F4F5F4F089590958095709536
S1135B0061957F4F8F4F9F4F0895EE0FFF1F002425
S1135B10001C0BBE0790F691E02D0994A29FB001E2
S1135B20B39FC001A39F700D811D1124911DB29FCD
S1135B30700D811D1124911D0895F0DFA59F900D16
S1135B40B49F900DA49F800D911D112408950F936F
S1135B501F93CF93DF93CDB7DEB72E970FB6F8948C
S1135B60DEBF0FBECDBF8C01FA0186E08C831A83A1
S1135B70098377FF02C060E070E8CB0101979E8340
S1135B808D83A901BF01CE01019619D04D815E819B
S1135B9057FD0AC02F813885421753070CF49A0128
S1135BA0F801E20FF31F10822E960FB6F894DEBFB1
S1135BB00FBECDBFDF91CF911F910F9108952F920A
S1135BC03F924F925F926F927F928F929F92AF9289
S1135BD0BF92CF92DF92EF92FF920F931F93CF93D6
S1135BE0DF93CDB7DEB72B970FB6F894DEBF0FBEA9
S1135BF0CDBF6C017B018A01FC011782168283816F
S1135C0081FFBFC1CE0101963C01F6019381F701EA
S1135C1093FD859193FF81917F01882309F4ADC1A0
S1135C20853239F493FD859193FF81917F0185320B
S1135C3021F4B60190E0D6D1E8CF912C212C312C5F
S1135C40FFE1F315D8F08B3279F038F4803279F033
S1135C508332A1F4232D20611DC08D3261F0803385
S1135C6069F4232D216016C0832D8260382EE32D24
S1135C70E4603E2E2AC0F32DF8601DC037FC2DC011
S1135C8020ED280F2A3040F08E32B9F436FC75C16D
S1135C90232D2064322E19C036FE06C08AE0989E59
S1135CA0200D1124922E11C0EAE02E9E200D112405
S1135CB0222EF32DF0623F2E08C08C3621F4832D62
S1135CC08068382E02C0883641F4F70193FD85912F
S1135CD093FF81917F018111B3CF982F9F7D9554BC
S1135CE0933028F40C5F1F4F9FE399830DC08336D4
